{
  "contractName": "MintableSoul",
  "abi": [
    {
      "anonymous": false,
      "inputs": [
        {
          "indexed": true,
          "internalType": "address",
          "name": "account",
          "type": "address"
        }
      ],
      "name": "AdminAdded",
      "type": "event"
    },
    {
      "anonymous": false,
      "inputs": [
        {
          "indexed": true,
          "internalType": "address",
          "name": "account",
          "type": "address"
        }
      ],
      "name": "AdminRemoved",
      "type": "event"
    },
    {
      "anonymous": false,
      "inputs": [
        {
          "indexed": true,
          "internalType": "address",
          "name": "owner",
          "type": "address"
        },
        {
          "indexed": true,
          "internalType": "address",
          "name": "approved",
          "type": "address"
        },
        {
          "indexed": true,
          "internalType": "uint256",
          "name": "tokenId",
          "type": "uint256"
        }
      ],
      "name": "Approval",
      "type": "event"
    },
    {
      "anonymous": false,
      "inputs": [
        {
          "indexed": true,
          "internalType": "address",
          "name": "owner",
          "type": "address"
        },
        {
          "indexed": true,
          "internalType": "address",
          "name": "operator",
          "type": "address"
        },
        {
          "indexed": false,
          "internalType": "bool",
          "name": "approved",
          "type": "bool"
        }
      ],
      "name": "ApprovalForAll",
      "type": "event"
    },
    {
      "anonymous": false,
      "inputs": [
        {
          "indexed": false,
          "internalType": "uint256",
          "name": "soulId",
          "type": "uint256"
        },
        {
          "indexed": false,
          "internalType": "address",
          "name": "newCarrier",
          "type": "address"
        }
      ],
      "name": "CarrierChanged",
      "type": "event"
    },
    {
      "anonymous": false,
      "inputs": [
        {
          "indexed": true,
          "internalType": "address",
          "name": "from",
          "type": "address"
        },
        {
          "indexed": true,
          "internalType": "uint256",
          "name": "tokenId",
          "type": "uint256"
        },
        {
          "indexed": false,
          "internalType": "bytes32",
          "name": "mods",
          "type": "bytes32"
        }
      ],
      "name": "ModificationSetted",
      "type": "event"
    },
    {
      "anonymous": false,
      "inputs": [
        {
          "indexed": true,
          "internalType": "address",
          "name": "from",
          "type": "address"
        },
        {
          "indexed": true,
          "internalType": "address",
          "name": "to",
          "type": "address"
        },
        {
          "indexed": true,
          "internalType": "uint256",
          "name": "tokenId",
          "type": "uint256"
        }
      ],
      "name": "Transfer",
      "type": "event"
    },
    {
      "inputs": [
        {
          "internalType": "uint8",
          "name": "maxModVal",
          "type": "uint8"
        },
        {
          "internalType": "uint8",
          "name": "maxMods",
          "type": "uint8"
        }
      ],
      "name": "_setModificationSettings",
      "outputs": [],
      "stateMutability": "nonpayable",
      "type": "function"
    },
    {
      "inputs": [
        {
          "internalType": "address",
          "name": "to",
          "type": "address"
        },
        {
          "internalType": "uint256",
          "name": "tokenId",
          "type": "uint256"
        }
      ],
      "name": "approve",
      "outputs": [],
      "stateMutability": "nonpayable",
      "type": "function"
    },
    {
      "inputs": [
        {
          "internalType": "address",
          "name": "owner",
          "type": "address"
        }
      ],
      "name": "balanceOf",
      "outputs": [
        {
          "internalType": "uint256",
          "name": "",
          "type": "uint256"
        }
      ],
      "stateMutability": "view",
      "type": "function"
    },
    {
      "inputs": [
        {
          "internalType": "uint256",
          "name": "tokenId",
          "type": "uint256"
        }
      ],
      "name": "getApproved",
      "outputs": [
        {
          "internalType": "address",
          "name": "",
          "type": "address"
        }
      ],
      "stateMutability": "view",
      "type": "function"
    },
    {
      "inputs": [
        {
          "internalType": "address",
          "name": "owner",
          "type": "address"
        },
        {
          "internalType": "address",
          "name": "operator",
          "type": "address"
        }
      ],
      "name": "isApprovedForAll",
      "outputs": [
        {
          "internalType": "bool",
          "name": "",
          "type": "bool"
        }
      ],
      "stateMutability": "view",
      "type": "function"
    },
    {
      "inputs": [],
      "name": "modificationSettings",
      "outputs": [
        {
          "internalType": "uint8",
          "name": "",
          "type": "uint8"
        },
        {
          "internalType": "uint8",
          "name": "",
          "type": "uint8"
        }
      ],
      "stateMutability": "view",
      "type": "function"
    },
    {
      "inputs": [],
      "name": "name",
      "outputs": [
        {
          "internalType": "string",
          "name": "",
          "type": "string"
        }
      ],
      "stateMutability": "view",
      "type": "function"
    },
    {
      "inputs": [
        {
          "internalType": "uint256",
          "name": "tokenId",
          "type": "uint256"
        }
      ],
      "name": "ownerOf",
      "outputs": [
        {
          "internalType": "address",
          "name": "",
          "type": "address"
        }
      ],
      "stateMutability": "view",
      "type": "function"
    },
    {
      "inputs": [
        {
          "internalType": "address",
          "name": "from",
          "type": "address"
        },
        {
          "internalType": "address",
          "name": "to",
          "type": "address"
        },
        {
          "internalType": "uint256",
          "name": "tokenId",
          "type": "uint256"
        }
      ],
      "name": "safeTransferFrom",
      "outputs": [],
      "stateMutability": "nonpayable",
      "type": "function"
    },
    {
      "inputs": [
        {
          "internalType": "address",
          "name": "from",
          "type": "address"
        },
        {
          "internalType": "address",
          "name": "to",
          "type": "address"
        },
        {
          "internalType": "uint256",
          "name": "tokenId",
          "type": "uint256"
        },
        {
          "internalType": "bytes",
          "name": "_data",
          "type": "bytes"
        }
      ],
      "name": "safeTransferFrom",
      "outputs": [],
      "stateMutability": "nonpayable",
      "type": "function"
    },
    {
      "inputs": [
        {
          "internalType": "address",
          "name": "operator",
          "type": "address"
        },
        {
          "internalType": "bool",
          "name": "approved",
          "type": "bool"
        }
      ],
      "name": "setApprovalForAll",
      "outputs": [],
      "stateMutability": "nonpayable",
      "type": "function"
    },
    {
      "inputs": [
        {
          "internalType": "bytes4",
          "name": "interfaceId",
          "type": "bytes4"
        }
      ],
      "name": "supportsInterface",
      "outputs": [
        {
          "internalType": "bool",
          "name": "",
          "type": "bool"
        }
      ],
      "stateMutability": "view",
      "type": "function"
    },
    {
      "inputs": [],
      "name": "symbol",
      "outputs": [
        {
          "internalType": "string",
          "name": "",
          "type": "string"
        }
      ],
      "stateMutability": "view",
      "type": "function"
    },
    {
      "inputs": [
        {
          "internalType": "uint256",
          "name": "tokenId",
          "type": "uint256"
        }
      ],
      "name": "tokenURI",
      "outputs": [
        {
          "internalType": "string",
          "name": "",
          "type": "string"
        }
      ],
      "stateMutability": "view",
      "type": "function"
    },
    {
      "inputs": [
        {
          "internalType": "address",
          "name": "from",
          "type": "address"
        },
        {
          "internalType": "address",
          "name": "to",
          "type": "address"
        },
        {
          "internalType": "uint256",
          "name": "tokenId",
          "type": "uint256"
        }
      ],
      "name": "transferFrom",
      "outputs": [],
      "stateMutability": "nonpayable",
      "type": "function"
    },
    {
      "inputs": [
        {
          "internalType": "uint256",
          "name": "soulId",
          "type": "uint256"
        }
      ],
      "name": "carrierOf",
      "outputs": [
        {
          "internalType": "address",
          "name": "",
          "type": "address"
        }
      ],
      "stateMutability": "view",
      "type": "function"
    },
    {
      "inputs": [
        {
          "internalType": "address",
          "name": "carrier",
          "type": "address"
        }
      ],
      "name": "getSoul",
      "outputs": [
        {
          "internalType": "uint256[]",
          "name": "soulIds",
          "type": "uint256[]"
        }
      ],
      "stateMutability": "view",
      "type": "function"
    },
    {
      "inputs": [
        {
          "internalType": "address",
          "name": "person",
          "type": "address"
        }
      ],
      "name": "hasSoul",
      "outputs": [
        {
          "internalType": "bool",
          "name": "",
          "type": "bool"
        }
      ],
      "stateMutability": "view",
      "type": "function"
    },
    {
      "inputs": [
        {
          "internalType": "uint256",
          "name": "soulId",
          "type": "uint256"
        }
      ],
      "name": "mint",
      "outputs": [],
      "stateMutability": "payable",
      "type": "function"
    },
    {
      "inputs": [
        {
          "internalType": "uint256",
          "name": "soulId",
          "type": "uint256"
        },
        {
          "internalType": "address",
          "name": "newCarrier",
          "type": "address"
        }
      ],
      "name": "changeCarrier",
      "outputs": [],
      "stateMutability": "nonpayable",
      "type": "function"
    }
  ],
  "bytecode": "0x608060405234801561001057600080fd5b50611b05806100206000396000f3fe6080604052600436106100ef5760003560e01c806301ffc9a7146100f457806306fdde0314610129578063081812fc1461014b578063095ea7b3146101835780630fa7dcab146101a557806323b872dd146101c5578063283aa594146101e557806342842e0e146102055780636352211e146102255780636551b2ce1461024557806366cfe97f1461026557806370a082311461029257806392977192146102c057806395d89b41146102ef578063a0712d6814610304578063a22cb46514610317578063b88d4fde14610337578063bdd7520214610357578063c87b56dd14610377578063e985e9c514610397575b600080fd5b34801561010057600080fd5b5061011461010f36600461170b565b6103b7565b60405190151581526020015b60405180910390f35b34801561013557600080fd5b5061013e610409565b6040516101209190611882565b34801561015757600080fd5b5061016b610166366004611743565b61049b565b6040516001600160a01b039091168152602001610120565b34801561018f57600080fd5b506101a361019e3660046116e2565b610528565b005b3480156101b157600080fd5b506101a36101c036600461177d565b610639565b3480156101d157600080fd5b506101a36101e0366004611599565b6106d0565b3480156101f157600080fd5b506101a361020036600461175b565b610701565b34801561021157600080fd5b506101a3610220366004611599565b610788565b34801561023157600080fd5b5061016b610240366004611743565b6107a3565b34801561025157600080fd5b5061016b610260366004611743565b61081a565b34801561027157600080fd5b5061028561028036600461154d565b610882565b604051610120919061183e565b34801561029e57600080fd5b506102b26102ad36600461154d565b6108ee565b604051908152602001610120565b3480156102cc57600080fd5b50609b546040805160ff8084168252610100909304909216602083015201610120565b3480156102fb57600080fd5b5061013e610975565b6101a3610312366004611743565b610984565b34801561032357600080fd5b506101a36103323660046116a8565b610a5e565b34801561034357600080fd5b506101a36103523660046115d4565b610b1f565b34801561036357600080fd5b5061011461037236600461154d565b610b57565b34801561038357600080fd5b5061013e610392366004611743565b610b6a565b3480156103a357600080fd5b506101146103b2366004611567565b610c42565b60006001600160e01b031982166380ac58cd60e01b14806103e857506001600160e01b03198216635b5e139f60e01b145b8061040357506301ffc9a760e01b6001600160e01b03198316145b92915050565b606060658054610418906119ca565b80601f0160208091040260200160405190810160405280929190818152602001828054610444906119ca565b80156104915780601f1061046657610100808354040283529160200191610491565b820191906000526020600020905b81548152906001019060200180831161047457829003601f168201915b5050505050905090565b60006104a682610c70565b61050c5760405162461bcd60e51b815260206004820152602c60248201527f4552433732313a20617070726f76656420717565727920666f72206e6f6e657860448201526b34b9ba32b73a103a37b5b2b760a11b60648201526084015b60405180910390fd5b506000908152606960205260409020546001600160a01b031690565b6000610533826107a3565b9050806001600160a01b0316836001600160a01b031614156105a15760405162461bcd60e51b815260206004820152602160248201527f4552433732313a20617070726f76616c20746f2063757272656e74206f776e656044820152603960f91b6064820152608401610503565b336001600160a01b03821614806105bd57506105bd8133610c42565b61062a5760405162461bcd60e51b815260206004820152603860248201527f4552433732313a20617070726f76652063616c6c6572206973206e6f74206f776044820152771b995c881b9bdc88185c1c1c9bdd995908199bdc88185b1b60421b6064820152608401610503565b6106348383610c8d565b505050565b3260009081526097602052604090205460ff1661068c5760405162461bcd60e51b81526020600482015260116024820152703cb7ba9030b932903737ba1030b236b4b760791b6044820152606401610503565b60ff8260ff161061069c57600080fd5b60208160ff16106106ac57600080fd5b609b805460ff9283166101000261ffff199091169290931691909117919091179055565b6106da3382610cfb565b6106f65760405162461bcd60e51b8152600401610503906118e7565b610634838383610dc5565b6000828152609d6020908152604080832080546001600160a01b0319166001600160a01b038616908117909155808452609e83528184208054600181018255908552938390209093018590558051858152918201929092527f649ac2249366264ba74a84d97e2e86f4490c06d225655797956313f613b9bade910160405180910390a15050565b61063483838360405180602001604052806000815250610b1f565b6000818152606760205260408120546001600160a01b0316806104035760405162461bcd60e51b815260206004820152602960248201527f4552433732313a206f776e657220717565727920666f72206e6f6e657869737460448201526832b73a103a37b5b2b760b91b6064820152608401610503565b600061082582610c70565b6108665760405162461bcd60e51b815260206004820152601260248201527114dbdd5b08191bd95cdb89dd08195e1a5cdd60721b6044820152606401610503565b506000908152609d60205260409020546001600160a01b031690565b6001600160a01b0381166000908152609e60209081526040918290208054835181840281018401909452808452606093928301828280156108e257602002820191906000526020600020905b8154815260200190600101908083116108ce575b50505050509050919050565b60006001600160a01b0382166109595760405162461bcd60e51b815260206004820152602a60248201527f4552433732313a2062616c616e636520717565727920666f7220746865207a65604482015269726f206164647265737360b01b6064820152608401610503565b506001600160a01b031660009081526068602052604090205490565b606060668054610418906119ca565b61098d336108ee565b156109d65760405162461bcd60e51b8152602060048201526019602482015278165bdd48185b1c9958591e481b5a5b9d081e5bdd481cdbdd5b603a1b6044820152606401610503565b6109e03282610f53565b6000818152609d6020908152604080832080546001600160a01b031916329081179091558352609e825280832080546001810182559084528284200184905580514392810183905291409082015260608101839052608001604051602081830303815290604052805190602001209050610a5a8282610f6d565b5050565b6001600160a01b038216331415610ab35760405162461bcd60e51b815260206004820152601960248201527822a9219b99189d1030b8383937bb32903a379031b0b63632b960391b6044820152606401610503565b336000818152606a602090815260408083206001600160a01b03871680855290835292819020805460ff191686151590811790915590519081529192917f17307eab39ab6107e8899845ad3d59bd9653f200f220920489ca2b5937696c31910160405180910390a35050565b610b293383610cfb565b610b455760405162461bcd60e51b8152600401610503906118e7565b610b5184848484611043565b50505050565b600080610b63836108ee565b1192915050565b6060610b7582610c70565b610bd95760405162461bcd60e51b815260206004820152602f60248201527f4552433732314d657461646174613a2055524920717565727920666f72206e6f60448201526e3732bc34b9ba32b73a103a37b5b2b760891b6064820152608401610503565b6000610bf060408051602081019091526000815290565b90506000815111610c105760405180602001604052806000815250610c3b565b80610c1a84611076565b604051602001610c2b9291906117d2565b6040516020818303038152906040525b9392505050565b6001600160a01b039182166000908152606a6020908152604080832093909416825291909152205460ff1690565b6000908152606760205260409020546001600160a01b0316151590565b600081815260696020526040902080546001600160a01b0319166001600160a01b0384169081179091558190610cc2826107a3565b6001600160a01b03167f8c5be1e5ebec7d5bd14f71427d1e84f3dd0314c0f7b2291e5b200ac8c7c3b92560405160405180910390a45050565b6000610d0682610c70565b610d675760405162461bcd60e51b815260206004820152602c60248201527f4552433732313a206f70657261746f7220717565727920666f72206e6f6e657860448201526b34b9ba32b73a103a37b5b2b760a11b6064820152608401610503565b6000610d72836107a3565b9050806001600160a01b0316846001600160a01b03161480610dad5750836001600160a01b0316610da28461049b565b6001600160a01b0316145b80610dbd5750610dbd8185610c42565b949350505050565b826001600160a01b0316610dd8826107a3565b6001600160a01b031614610e405760405162461bcd60e51b815260206004820152602960248201527f4552433732313a207472616e73666572206f6620746f6b656e2074686174206960448201526839903737ba1037bbb760b91b6064820152608401610503565b6001600160a01b038216610ea25760405162461bcd60e51b8152602060048201526024808201527f4552433732313a207472616e7366657220746f20746865207a65726f206164646044820152637265737360e01b6064820152608401610503565b610ead600082610c8d565b6001600160a01b0383166000908152606860205260408120805460019290610ed6908490611964565b90915550506001600160a01b0382166000908152606860205260408120805460019290610f04908490611938565b909155505060008181526067602052604080822080546001600160a01b0319166001600160a01b038681169182179092559151849391871691600080516020611ab083398151915291a4505050565b610a5a82826040518060200160405280600081525061118f565b6000805b60208160ff161015611006576000838260ff1660208110610fa257634e487b7160e01b600052603260045260246000fd5b1a90508015801590610fbd5750609b5460ff90811690821611155b15610ff357610fce856001836111c2565b609b54610100900460ff16610fe284611a20565b93508360ff1611610ff35750611006565b5080610ffe81611a20565b915050610f71565b50604051828152839032907f2d1c087923bb29c979975262d5f9b5bccdcbeb3c0bbc9fc5d9e303d7abf639b89060200160405180910390a3505050565b61104e848484610dc5565b61105a848484846112a1565b610b515760405162461bcd60e51b815260040161050390611895565b60608161109a5750506040805180820190915260018152600360fc1b602082015290565b8160005b81156110c457806110ae81611a05565b91506110bd9050600a83611950565b915061109e565b6000816001600160401b038111156110ec57634e487b7160e01b600052604160045260246000fd5b6040519080825280601f01601f191660200182016040528015611116576020820181803683370190505b5090505b8415610dbd5761112b600183611964565b9150611138600a86611a40565b611143906030611938565b60f81b81838151811061116657634e487b7160e01b600052603260045260246000fd5b60200101906001600160f81b031916908160001a905350611188600a86611950565b945061111a565b61119983836113ae565b6111a660008484846112a1565b6106345760405162461bcd60e51b815260040161050390611895565b60006111cd846114ce565b90506000818460ff16602081106111f457634e487b7160e01b600052603260045260246000fd5b1a905060ff831661120457600080fd5b609b5460ff908116908416111561121a57600080fd5b6112258360ff61197b565b60ff168160ff16111561123757600080fd5b6000611242836114f5565b90508160f81b818660ff168151811061126b57634e487b7160e01b600052603260045260246000fd5b60200101906001600160f81b031916908160001a9053506020810151600096875260996020526040909620959095555050505050565b60006001600160a01b0384163b156113a357604051630a85bd0160e11b81526001600160a01b0385169063150b7a02906112e5903390899088908890600401611801565b602060405180830381600087803b1580156112ff57600080fd5b505af192505050801561132f575060408051601f3d908101601f1916820190925261132c91810190611727565b60015b611389573d80801561135d576040519150601f19603f3d011682016040523d82523d6000602084013e611362565b606091505b5080516113815760405162461bcd60e51b815260040161050390611895565b805181602001fd5b6001600160e01b031916630a85bd0160e11b149050610dbd565b506001949350505050565b6001600160a01b0382166114045760405162461bcd60e51b815260206004820181905260248201527f4552433732313a206d696e7420746f20746865207a65726f20616464726573736044820152606401610503565b61140d81610c70565b156114595760405162461bcd60e51b815260206004820152601c60248201527b115490cdcc8c4e881d1bdad95b88185b1c9958591e481b5a5b9d195960221b6044820152606401610503565b6001600160a01b0382166000908152606860205260408120805460019290611482908490611938565b909155505060008181526067602052604080822080546001600160a01b0319166001600160a01b0386169081179091559051839290600080516020611ab0833981519152908290a45050565b60006114d982610c70565b6114e257600080fd5b5060009081526099602052604090205490565b60608160405160200161150a91815260200190565b6040516020818303038152906040529050919050565b80356001600160a01b038116811461153757600080fd5b919050565b803560ff8116811461153757600080fd5b60006020828403121561155e578081fd5b610c3b82611520565b60008060408385031215611579578081fd5b61158283611520565b915061159060208401611520565b90509250929050565b6000806000606084860312156115ad578081fd5b6115b684611520565b92506115c460208501611520565b9150604084013590509250925092565b600080600080608085870312156115e9578081fd5b6115f285611520565b935061160060208601611520565b92506040850135915060608501356001600160401b0380821115611622578283fd5b818701915087601f830112611635578283fd5b81358181111561164757611647611a80565b604051601f8201601f19908116603f0116810190838211818310171561166f5761166f611a80565b816040528281528a6020848701011115611687578586fd5b82602086016020830137918201602001949094529598949750929550505050565b600080604083850312156116ba578182fd5b6116c383611520565b9150602083013580151581146116d7578182fd5b809150509250929050565b600080604083850312156116f4578182fd5b6116fd83611520565b946020939093013593505050565b60006020828403121561171c578081fd5b8135610c3b81611a96565b600060208284031215611738578081fd5b8151610c3b81611a96565b600060208284031215611754578081fd5b5035919050565b6000806040838503121561176d578182fd5b8235915061159060208401611520565b6000806040838503121561178f578182fd5b6117988361153c565b91506115906020840161153c565b600081518084526117be81602086016020860161199e565b601f01601f19169290920160200192915050565b600083516117e481846020880161199e565b8351908301906117f881836020880161199e565b01949350505050565b6001600160a01b0385811682528416602082015260408101839052608060608201819052600090611834908301846117a6565b9695505050505050565b6020808252825182820181905260009190848201906040850190845b818110156118765783518352928401929184019160010161185a565b50909695505050505050565b602081526000610c3b60208301846117a6565b60208082526032908201527f4552433732313a207472616e7366657220746f206e6f6e20455243373231526560408201527131b2b4bb32b91034b6b83632b6b2b73a32b960711b606082015260800190565b60208082526031908201527f4552433732313a207472616e736665722063616c6c6572206973206e6f74206f6040820152701ddb995c881b9bdc88185c1c1c9bdd9959607a1b606082015260800190565b6000821982111561194b5761194b611a54565b500190565b60008261195f5761195f611a6a565b500490565b60008282101561197657611976611a54565b500390565b600060ff821660ff84168082101561199557611995611a54565b90039392505050565b60005b838110156119b95781810151838201526020016119a1565b83811115610b515750506000910152565b600181811c908216806119de57607f821691505b602082108114156119ff57634e487b7160e01b600052602260045260246000fd5b50919050565b6000600019821415611a1957611a19611a54565b5060010190565b600060ff821660ff811415611a3757611a37611a54565b60010192915050565b600082611a4f57611a4f611a6a565b500690565b634e487b7160e01b600052601160045260246000fd5b634e487b7160e01b600052601260045260246000fd5b634e487b7160e01b600052604160045260246000fd5b6001600160e01b031981168114611aac57600080fd5b5056feddf252ad1be2c89b69c2b068fc378daa952ba7f163c4a11628f55a4df523b3efa264697066735822122058e83fca606455d10b2560760068c0b60f6be2ca1ed6638645e7d64c6c1fa80e64736f6c63430008040033",
  "immutableReferences": {},
  "source": "// SPDX-License-Identifier: UNLICENSED\n\npragma solidity ^0.8.0;\n\nimport \"./ModifiableSoul.sol\";\n\ncontract MintableSoul is ModifiableSoul {\n    mapping(uint256 => address) private _soulCarrier;\n    mapping(address => uint256[]) private _carrierSoul;\n\n    event CarrierChanged(uint256 soulId, address newCarrier);\n\n    function carrierOf(uint256 soulId) public view returns (address) {\n        require(_exists(soulId), \"Soul doesn't exist\");\n        return _soulCarrier[soulId];\n    }\n\n    function getSoul(address carrier)\n        public\n        view\n        returns (uint256[] memory soulIds)\n    {\n        soulIds = _carrierSoul[carrier];\n        return soulIds;\n    }\n\n    function hasSoul(address person) public view returns (bool) {\n        return balanceOf(person) > 0;\n    }\n\n    // todo: add fee for mint\n    function mint(uint256 soulId) public payable {\n        require(balanceOf(msg.sender) == 0, \"You already mint you soul\");\n        \n        _safeMint(tx.origin, soulId);\n        _soulCarrier[soulId] = tx.origin;\n        _carrierSoul[tx.origin].push(soulId);\n\n        // add specific modifications\n        // _setModification(soulId, modification);\n        // fee for service = 1 gwei\n        // random modification\n        bytes32 randMods =\n            keccak256(\n                abi.encodePacked(block.number, blockhash(block.number), soulId)\n            );\n        _setModification(soulId, randMods);\n    }\n\n    function _profitFor(uint256 soulId)\n        internal\n        view\n        returns (address, address)\n    {\n        address owner = ownerOf(soulId);\n        address carrier = carrierOf(soulId);\n        return (owner, carrier);\n    }\n\n    function _changeCarrier(uint256 soulId, address newCarrier) internal {\n        require(\n            _soulCarrier[soulId] == tx.origin,\n            \"You are not carrier of this soul\"\n        );\n        _soulCarrier[soulId] = newCarrier;\n        _carrierSoul[newCarrier].push(soulId);\n        emit CarrierChanged(soulId, newCarrier);\n    }\n\n    //for test\n    function changeCarrier(uint256 soulId, address newCarrier) public {\n        _soulCarrier[soulId] = newCarrier;\n        _carrierSoul[newCarrier].push(soulId);\n        emit CarrierChanged(soulId, newCarrier);\n    }\n}\n",
  "sourcePath": "/home/ilyadruzh/Documents/nfsoul/sc/contracts/MintableSoul.sol",
  "compiler": {
    "name": "solc",
    "version": "0.8.4+commit.c7e474f2.Emscripten.clang"
  },
  "schemaVersion": "3.4.1",
  "updatedAt": "2021-05-29T18:53:37.787Z",
  "devdoc": {
    "kind": "dev",
    "methods": {
      "approve(address,uint256)": {
        "details": "See {IERC721-approve}."
      },
      "balanceOf(address)": {
        "details": "See {IERC721-balanceOf}."
      },
      "getApproved(uint256)": {
        "details": "See {IERC721-getApproved}."
      },
      "isApprovedForAll(address,address)": {
        "details": "See {IERC721-isApprovedForAll}."
      },
      "name()": {
        "details": "See {IERC721Metadata-name}."
      },
      "ownerOf(uint256)": {
        "details": "See {IERC721-ownerOf}."
      },
      "safeTransferFrom(address,address,uint256)": {
        "details": "See {IERC721-safeTransferFrom}."
      },
      "safeTransferFrom(address,address,uint256,bytes)": {
        "details": "See {IERC721-safeTransferFrom}."
      },
      "setApprovalForAll(address,bool)": {
        "details": "See {IERC721-setApprovalForAll}."
      },
      "supportsInterface(bytes4)": {
        "details": "See {IERC165-supportsInterface}."
      },
      "symbol()": {
        "details": "See {IERC721Metadata-symbol}."
      },
      "tokenURI(uint256)": {
        "details": "See {IERC721Metadata-tokenURI}."
      },
      "transferFrom(address,address,uint256)": {
        "details": "See {IERC721-transferFrom}."
      }
    },
    "version": 1
  },
  "userdoc": {
    "kind": "user",
    "methods": {},
    "version": 1
  }
}