{
  "contractName": "MintableSoul",
  "abi": [
    {
      "anonymous": false,
      "inputs": [
        {
          "indexed": true,
          "internalType": "address",
          "name": "account",
          "type": "address"
        }
      ],
      "name": "AdminAdded",
      "type": "event"
    },
    {
      "anonymous": false,
      "inputs": [
        {
          "indexed": true,
          "internalType": "address",
          "name": "account",
          "type": "address"
        }
      ],
      "name": "AdminRemoved",
      "type": "event"
    },
    {
      "anonymous": false,
      "inputs": [
        {
          "indexed": true,
          "internalType": "address",
          "name": "owner",
          "type": "address"
        },
        {
          "indexed": true,
          "internalType": "address",
          "name": "approved",
          "type": "address"
        },
        {
          "indexed": true,
          "internalType": "uint256",
          "name": "tokenId",
          "type": "uint256"
        }
      ],
      "name": "Approval",
      "type": "event"
    },
    {
      "anonymous": false,
      "inputs": [
        {
          "indexed": true,
          "internalType": "address",
          "name": "owner",
          "type": "address"
        },
        {
          "indexed": true,
          "internalType": "address",
          "name": "operator",
          "type": "address"
        },
        {
          "indexed": false,
          "internalType": "bool",
          "name": "approved",
          "type": "bool"
        }
      ],
      "name": "ApprovalForAll",
      "type": "event"
    },
    {
      "anonymous": false,
      "inputs": [
        {
          "indexed": false,
          "internalType": "uint256",
          "name": "soulId",
          "type": "uint256"
        },
        {
          "indexed": false,
          "internalType": "address",
          "name": "newCarrier",
          "type": "address"
        }
      ],
      "name": "CarrierChanged",
      "type": "event"
    },
    {
      "anonymous": false,
      "inputs": [
        {
          "indexed": true,
          "internalType": "address",
          "name": "from",
          "type": "address"
        },
        {
          "indexed": true,
          "internalType": "uint256",
          "name": "tokenId",
          "type": "uint256"
        },
        {
          "indexed": false,
          "internalType": "bytes32",
          "name": "mods",
          "type": "bytes32"
        }
      ],
      "name": "ModificationSetted",
      "type": "event"
    },
    {
      "anonymous": false,
      "inputs": [
        {
          "indexed": false,
          "internalType": "uint256",
          "name": "soulId",
          "type": "uint256"
        },
        {
          "indexed": false,
          "internalType": "address",
          "name": "owner",
          "type": "address"
        }
      ],
      "name": "SoulMinted",
      "type": "event"
    },
    {
      "anonymous": false,
      "inputs": [
        {
          "indexed": true,
          "internalType": "address",
          "name": "from",
          "type": "address"
        },
        {
          "indexed": true,
          "internalType": "address",
          "name": "to",
          "type": "address"
        },
        {
          "indexed": true,
          "internalType": "uint256",
          "name": "tokenId",
          "type": "uint256"
        }
      ],
      "name": "Transfer",
      "type": "event"
    },
    {
      "inputs": [
        {
          "internalType": "uint8",
          "name": "maxModVal",
          "type": "uint8"
        },
        {
          "internalType": "uint8",
          "name": "maxMods",
          "type": "uint8"
        }
      ],
      "name": "_setModificationSettings",
      "outputs": [],
      "stateMutability": "nonpayable",
      "type": "function"
    },
    {
      "inputs": [
        {
          "internalType": "address",
          "name": "to",
          "type": "address"
        },
        {
          "internalType": "uint256",
          "name": "tokenId",
          "type": "uint256"
        }
      ],
      "name": "approve",
      "outputs": [],
      "stateMutability": "nonpayable",
      "type": "function"
    },
    {
      "inputs": [
        {
          "internalType": "address",
          "name": "owner",
          "type": "address"
        }
      ],
      "name": "balanceOf",
      "outputs": [
        {
          "internalType": "uint256",
          "name": "",
          "type": "uint256"
        }
      ],
      "stateMutability": "view",
      "type": "function"
    },
    {
      "inputs": [
        {
          "internalType": "uint256",
          "name": "tokenId",
          "type": "uint256"
        }
      ],
      "name": "getApproved",
      "outputs": [
        {
          "internalType": "address",
          "name": "",
          "type": "address"
        }
      ],
      "stateMutability": "view",
      "type": "function"
    },
    {
      "inputs": [
        {
          "internalType": "uint256",
          "name": "soulId",
          "type": "uint256"
        }
      ],
      "name": "getDonorMod",
      "outputs": [
        {
          "internalType": "uint8[]",
          "name": "",
          "type": "uint8[]"
        }
      ],
      "stateMutability": "view",
      "type": "function"
    },
    {
      "inputs": [
        {
          "internalType": "uint256",
          "name": "soulId",
          "type": "uint256"
        }
      ],
      "name": "getSoulModifications",
      "outputs": [
        {
          "internalType": "bytes32",
          "name": "",
          "type": "bytes32"
        }
      ],
      "stateMutability": "view",
      "type": "function"
    },
    {
      "inputs": [
        {
          "internalType": "address",
          "name": "owner",
          "type": "address"
        },
        {
          "internalType": "address",
          "name": "operator",
          "type": "address"
        }
      ],
      "name": "isApprovedForAll",
      "outputs": [
        {
          "internalType": "bool",
          "name": "",
          "type": "bool"
        }
      ],
      "stateMutability": "view",
      "type": "function"
    },
    {
      "inputs": [],
      "name": "modificationSettings",
      "outputs": [
        {
          "internalType": "uint8",
          "name": "",
          "type": "uint8"
        },
        {
          "internalType": "uint8",
          "name": "",
          "type": "uint8"
        }
      ],
      "stateMutability": "view",
      "type": "function"
    },
    {
      "inputs": [],
      "name": "name",
      "outputs": [
        {
          "internalType": "string",
          "name": "",
          "type": "string"
        }
      ],
      "stateMutability": "view",
      "type": "function"
    },
    {
      "inputs": [
        {
          "internalType": "uint256",
          "name": "tokenId",
          "type": "uint256"
        }
      ],
      "name": "ownerOf",
      "outputs": [
        {
          "internalType": "address",
          "name": "",
          "type": "address"
        }
      ],
      "stateMutability": "view",
      "type": "function"
    },
    {
      "inputs": [
        {
          "internalType": "address",
          "name": "from",
          "type": "address"
        },
        {
          "internalType": "address",
          "name": "to",
          "type": "address"
        },
        {
          "internalType": "uint256",
          "name": "tokenId",
          "type": "uint256"
        }
      ],
      "name": "safeTransferFrom",
      "outputs": [],
      "stateMutability": "nonpayable",
      "type": "function"
    },
    {
      "inputs": [
        {
          "internalType": "address",
          "name": "from",
          "type": "address"
        },
        {
          "internalType": "address",
          "name": "to",
          "type": "address"
        },
        {
          "internalType": "uint256",
          "name": "tokenId",
          "type": "uint256"
        },
        {
          "internalType": "bytes",
          "name": "_data",
          "type": "bytes"
        }
      ],
      "name": "safeTransferFrom",
      "outputs": [],
      "stateMutability": "nonpayable",
      "type": "function"
    },
    {
      "inputs": [
        {
          "internalType": "address",
          "name": "operator",
          "type": "address"
        },
        {
          "internalType": "bool",
          "name": "approved",
          "type": "bool"
        }
      ],
      "name": "setApprovalForAll",
      "outputs": [],
      "stateMutability": "nonpayable",
      "type": "function"
    },
    {
      "inputs": [
        {
          "internalType": "uint256",
          "name": "soulId",
          "type": "uint256"
        }
      ],
      "name": "setModification",
      "outputs": [],
      "stateMutability": "nonpayable",
      "type": "function"
    },
    {
      "inputs": [
        {
          "internalType": "bytes4",
          "name": "interfaceId",
          "type": "bytes4"
        }
      ],
      "name": "supportsInterface",
      "outputs": [
        {
          "internalType": "bool",
          "name": "",
          "type": "bool"
        }
      ],
      "stateMutability": "view",
      "type": "function"
    },
    {
      "inputs": [],
      "name": "symbol",
      "outputs": [
        {
          "internalType": "string",
          "name": "",
          "type": "string"
        }
      ],
      "stateMutability": "view",
      "type": "function"
    },
    {
      "inputs": [
        {
          "internalType": "uint256",
          "name": "tokenId",
          "type": "uint256"
        }
      ],
      "name": "tokenURI",
      "outputs": [
        {
          "internalType": "string",
          "name": "",
          "type": "string"
        }
      ],
      "stateMutability": "view",
      "type": "function"
    },
    {
      "inputs": [
        {
          "internalType": "address",
          "name": "from",
          "type": "address"
        },
        {
          "internalType": "address",
          "name": "to",
          "type": "address"
        },
        {
          "internalType": "uint256",
          "name": "tokenId",
          "type": "uint256"
        }
      ],
      "name": "transferFrom",
      "outputs": [],
      "stateMutability": "nonpayable",
      "type": "function"
    },
    {
      "inputs": [
        {
          "internalType": "uint256",
          "name": "soulId",
          "type": "uint256"
        }
      ],
      "name": "carrierOf",
      "outputs": [
        {
          "internalType": "address",
          "name": "",
          "type": "address"
        }
      ],
      "stateMutability": "view",
      "type": "function"
    },
    {
      "inputs": [
        {
          "internalType": "address",
          "name": "carrier",
          "type": "address"
        }
      ],
      "name": "getSoul",
      "outputs": [
        {
          "internalType": "uint256[]",
          "name": "soulIds",
          "type": "uint256[]"
        }
      ],
      "stateMutability": "view",
      "type": "function"
    },
    {
      "inputs": [
        {
          "internalType": "address",
          "name": "person",
          "type": "address"
        }
      ],
      "name": "hasSoul",
      "outputs": [
        {
          "internalType": "bool",
          "name": "",
          "type": "bool"
        }
      ],
      "stateMutability": "view",
      "type": "function"
    },
    {
      "inputs": [
        {
          "internalType": "uint256",
          "name": "soulId",
          "type": "uint256"
        }
      ],
      "name": "mint",
      "outputs": [],
      "stateMutability": "payable",
      "type": "function"
    },
    {
      "inputs": [],
      "name": "getAllSoul",
      "outputs": [
        {
          "internalType": "uint256[]",
          "name": "",
          "type": "uint256[]"
        }
      ],
      "stateMutability": "view",
      "type": "function"
    },
    {
      "inputs": [
        {
          "internalType": "uint256",
          "name": "soulId",
          "type": "uint256"
        },
        {
          "internalType": "address",
          "name": "newCarrier",
          "type": "address"
        }
      ],
      "name": "changeCarrier",
      "outputs": [],
      "stateMutability": "nonpayable",
      "type": "function"
    }
  ],
  "bytecode": "0x608060405234801561001057600080fd5b50611c1d806100206000396000f3fe60806040526004361061011b5760003560e01c806301ffc9a71461012057806306fdde0314610155578063081812fc14610177578063095ea7b3146101af5780630fa7dcab146101d157806323b872dd146101f1578063283aa594146102115780633237307d1461023157806342842e0e1461025f5780636352211e1461027f5780636551b2ce1461029f57806366cfe97f146102bf57806370a08231146102ec578063929771921461030c57806395d89b411461033b578063a0712d6814610350578063a22cb46514610363578063a6ebd54314610383578063b44dd2b5146103a3578063b88d4fde146103b8578063bdd75202146103d8578063c87b56dd146103f8578063cebcb0d414610418578063e985e9c514610445575b600080fd5b34801561012c57600080fd5b5061014061013b366004611814565b610465565b60405190151581526020015b60405180910390f35b34801561016157600080fd5b5061016a6104b7565b60405161014c91906119c6565b34801561018357600080fd5b5061019761019236600461184c565b610549565b6040516001600160a01b03909116815260200161014c565b3480156101bb57600080fd5b506101cf6101ca3660046117eb565b6105d6565b005b3480156101dd57600080fd5b506101cf6101ec366004611886565b6106e7565b3480156101fd57600080fd5b506101cf61020c3660046116a2565b61077e565b34801561021d57600080fd5b506101cf61022c366004611864565b6107af565b34801561023d57600080fd5b5061025161024c36600461184c565b610834565b60405190815260200161014c565b34801561026b57600080fd5b506101cf61027a3660046116a2565b61085b565b34801561028b57600080fd5b5061019761029a36600461184c565b610876565b3480156102ab57600080fd5b506101976102ba36600461184c565b6108ed565b3480156102cb57600080fd5b506102df6102da366004611656565b610955565b60405161014c9190611947565b3480156102f857600080fd5b50610251610307366004611656565b6109c1565b34801561031857600080fd5b50609b546040805160ff808416825261010090930490921660208301520161014c565b34801561034757600080fd5b5061016a610a48565b6101cf61035e36600461184c565b610a57565b34801561036f57600080fd5b506101cf61037e3660046117b1565b610bf0565b34801561038f57600080fd5b506101cf61039e36600461184c565b610cb2565b3480156103af57600080fd5b506102df610d46565b3480156103c457600080fd5b506101cf6103d33660046116dd565b610d9d565b3480156103e457600080fd5b506101406103f3366004611656565b610dd5565b34801561040457600080fd5b5061016a61041336600461184c565b610de8565b34801561042457600080fd5b5061043861043336600461184c565b610ec0565b60405161014c919061198b565b34801561045157600080fd5b50610140610460366004611670565b610f4e565b60006001600160e01b031982166380ac58cd60e01b148061049657506001600160e01b03198216635b5e139f60e01b145b806104b157506301ffc9a760e01b6001600160e01b03198316145b92915050565b6060606580546104c690611b02565b80601f01602080910402602001604051908101604052809291908181526020018280546104f290611b02565b801561053f5780601f106105145761010080835404028352916020019161053f565b820191906000526020600020905b81548152906001019060200180831161052257829003601f168201915b5050505050905090565b600061055482610f7c565b6105ba5760405162461bcd60e51b815260206004820152602c60248201527f4552433732313a20617070726f76656420717565727920666f72206e6f6e657860448201526b34b9ba32b73a103a37b5b2b760a11b60648201526084015b60405180910390fd5b506000908152606960205260409020546001600160a01b031690565b60006105e182610876565b9050806001600160a01b0316836001600160a01b0316141561064f5760405162461bcd60e51b815260206004820152602160248201527f4552433732313a20617070726f76616c20746f2063757272656e74206f776e656044820152603960f91b60648201526084016105b1565b336001600160a01b038216148061066b575061066b8133610f4e565b6106d85760405162461bcd60e51b815260206004820152603860248201527f4552433732313a20617070726f76652063616c6c6572206973206e6f74206f776044820152771b995c881b9bdc88185c1c1c9bdd995908199bdc88185b1b60421b60648201526084016105b1565b6106e28383610f99565b505050565b3260009081526097602052604090205460ff1661073a5760405162461bcd60e51b81526020600482015260116024820152703cb7ba9030b932903737ba1030b236b4b760791b60448201526064016105b1565b60ff8260ff161061074a57600080fd5b60208160ff161061075a57600080fd5b609b805460ff9283166101000261ffff199091169290931691909117919091179055565b6107883382611007565b6107a45760405162461bcd60e51b81526004016105b190611a2b565b6106e28383836110d1565b6000828152609e6020908152604080832080546001600160a01b0319166001600160a01b0386169081179091558352609f825280832080546001810182559084529190922001839055517f649ac2249366264ba74a84d97e2e86f4490c06d225655797956313f613b9bade906108289084908490611a7c565b60405180910390a15050565b600061083f82610f7c565b61084857600080fd5b5060009081526099602052604090205490565b6106e283838360405180602001604052806000815250610d9d565b6000818152606760205260408120546001600160a01b0316806104b15760405162461bcd60e51b815260206004820152602960248201527f4552433732313a206f776e657220717565727920666f72206e6f6e657869737460448201526832b73a103a37b5b2b760b91b60648201526084016105b1565b60006108f882610f7c565b6109395760405162461bcd60e51b815260206004820152601260248201527114dbdd5b08191bd95cdb89dd08195e1a5cdd60721b60448201526064016105b1565b506000908152609e60205260409020546001600160a01b031690565b6001600160a01b0381166000908152609f60209081526040918290208054835181840281018401909452808452606093928301828280156109b557602002820191906000526020600020905b8154815260200190600101908083116109a1575b50505050509050919050565b60006001600160a01b038216610a2c5760405162461bcd60e51b815260206004820152602a60248201527f4552433732313a2062616c616e636520717565727920666f7220746865207a65604482015269726f206164647265737360b01b60648201526084016105b1565b506001600160a01b031660009081526068602052604090205490565b6060606680546104c690611b02565b610a60336109c1565b15610aa95760405162461bcd60e51b8152602060048201526019602482015278165bdd48185b1c9958591e481b5a5b9d081e5bdd481cdbdd5b603a1b60448201526064016105b1565b6207a120341015610af75760405162461bcd60e51b81526020600482015260186024820152776e6f7420656e6f7567682076616c756520666f722066656560401b60448201526064016105b1565b610b01328261125f565b6000818152609e6020908152604080832080546001600160a01b031916329081179091558352609f8252808320805460018181018355918552928420909201849055609d8054928301815583527fd26e832454299e9fabb89e0e5fffdc046d4e14431bc1bf607ffb2e8a1ddecf7b9091018390555173c6c6e7edab89a39ffc9db19cdd46c5c639964daa913480156108fc02929091818181858888f19350505050158015610bb3573d6000803e3d6000fd5b507f74859dbf8c28f71c8bc3a8e45de0d55d3c9c642375a2f8acdc3e84ed3de0a3c18132604051610be5929190611a7c565b60405180910390a150565b6001600160a01b038216331415610c455760405162461bcd60e51b815260206004820152601960248201527822a9219b99189d1030b8383937bb32903a379031b0b63632b960391b60448201526064016105b1565b336000818152606a602090815260408083206001600160a01b03871680855290835292819020805460ff191686151590811790915590519081529192917f17307eab39ab6107e8899845ad3d59bd9653f200f220920489ca2b5937696c3191015b60405180910390a35050565b60008181526099602052604090205415610ccb57600080fd5b60408051436020820181905240918101919091526060810182905260009060800160408051808303601f19018152828252805160209182012060008681526099835292909220829055818352909250839132917f2d1c087923bb29c979975262d5f9b5bccdcbeb3c0bbc9fc5d9e303d7abf639b89101610ca6565b6060609d80548060200260200160405190810160405280929190818152602001828054801561053f57602002820191906000526020600020905b815481526020019060010190808311610d80575050505050905090565b610da73383611007565b610dc35760405162461bcd60e51b81526004016105b190611a2b565b610dcf8484848461127d565b50505050565b600080610de1836109c1565b1192915050565b6060610df382610f7c565b610e575760405162461bcd60e51b815260206004820152602f60248201527f4552433732314d657461646174613a2055524920717565727920666f72206e6f60448201526e3732bc34b9ba32b73a103a37b5b2b760891b60648201526084016105b1565b6000610e6e60408051602081019091526000815290565b90506000815111610e8e5760405180602001604052806000815250610eb9565b80610e98846112b0565b604051602001610ea99291906118db565b6040516020818303038152906040525b9392505050565b6000818152609a602090815260408083208151815480850282018401845293810184815260609594919384928491840182828015610f3b57602002820191906000526020600020906000905b825461010083900a900460ff16815260206001928301818104948501949093039092029101808411610f0c5790505b5050509190925250509051949350505050565b6001600160a01b039182166000908152606a6020908152604080832093909416825291909152205460ff1690565b6000908152606760205260409020546001600160a01b0316151590565b600081815260696020526040902080546001600160a01b0319166001600160a01b0384169081179091558190610fce82610876565b6001600160a01b03167f8c5be1e5ebec7d5bd14f71427d1e84f3dd0314c0f7b2291e5b200ac8c7c3b92560405160405180910390a45050565b600061101282610f7c565b6110735760405162461bcd60e51b815260206004820152602c60248201527f4552433732313a206f70657261746f7220717565727920666f72206e6f6e657860448201526b34b9ba32b73a103a37b5b2b760a11b60648201526084016105b1565b600061107e83610876565b9050806001600160a01b0316846001600160a01b031614806110b95750836001600160a01b03166110ae84610549565b6001600160a01b0316145b806110c957506110c98185610f4e565b949350505050565b826001600160a01b03166110e482610876565b6001600160a01b03161461114c5760405162461bcd60e51b815260206004820152602960248201527f4552433732313a207472616e73666572206f6620746f6b656e2074686174206960448201526839903737ba1037bbb760b91b60648201526084016105b1565b6001600160a01b0382166111ae5760405162461bcd60e51b8152602060048201526024808201527f4552433732313a207472616e7366657220746f20746865207a65726f206164646044820152637265737360e01b60648201526084016105b1565b6111b9600082610f99565b6001600160a01b03831660009081526068602052604081208054600192906111e2908490611abf565b90915550506001600160a01b0382166000908152606860205260408120805460019290611210908490611a93565b909155505060008181526067602052604080822080546001600160a01b0319166001600160a01b038681169182179092559151849391871691600080516020611bc883398151915291a4505050565b6112798282604051806020016040528060008152506113c9565b5050565b6112888484846110d1565b611294848484846113fc565b610dcf5760405162461bcd60e51b81526004016105b1906119d9565b6060816112d45750506040805180820190915260018152600360fc1b602082015290565b8160005b81156112fe57806112e881611b3d565b91506112f79050600a83611aab565b91506112d8565b6000816001600160401b0381111561132657634e487b7160e01b600052604160045260246000fd5b6040519080825280601f01601f191660200182016040528015611350576020820181803683370190505b5090505b84156110c957611365600183611abf565b9150611372600a86611b58565b61137d906030611a93565b60f81b8183815181106113a057634e487b7160e01b600052603260045260246000fd5b60200101906001600160f81b031916908160001a9053506113c2600a86611aab565b9450611354565b6113d38383611509565b6113e060008484846113fc565b6106e25760405162461bcd60e51b81526004016105b1906119d9565b60006001600160a01b0384163b156114fe57604051630a85bd0160e11b81526001600160a01b0385169063150b7a029061144090339089908890889060040161190a565b602060405180830381600087803b15801561145a57600080fd5b505af192505050801561148a575060408051601f3d908101601f1916820190925261148791810190611830565b60015b6114e4573d8080156114b8576040519150601f19603f3d011682016040523d82523d6000602084013e6114bd565b606091505b5080516114dc5760405162461bcd60e51b81526004016105b1906119d9565b805181602001fd5b6001600160e01b031916630a85bd0160e11b1490506110c9565b506001949350505050565b6001600160a01b03821661155f5760405162461bcd60e51b815260206004820181905260248201527f4552433732313a206d696e7420746f20746865207a65726f206164647265737360448201526064016105b1565b61156881610f7c565b156115b45760405162461bcd60e51b815260206004820152601c60248201527b115490cdcc8c4e881d1bdad95b88185b1c9958591e481b5a5b9d195960221b60448201526064016105b1565b6001600160a01b03821660009081526068602052604081208054600192906115dd908490611a93565b909155505060008181526067602052604080822080546001600160a01b0319166001600160a01b0386169081179091559051839290600080516020611bc8833981519152908290a45050565b80356001600160a01b038116811461164057600080fd5b919050565b803560ff8116811461164057600080fd5b600060208284031215611667578081fd5b610eb982611629565b60008060408385031215611682578081fd5b61168b83611629565b915061169960208401611629565b90509250929050565b6000806000606084860312156116b6578081fd5b6116bf84611629565b92506116cd60208501611629565b9150604084013590509250925092565b600080600080608085870312156116f2578081fd5b6116fb85611629565b935061170960208601611629565b92506040850135915060608501356001600160401b038082111561172b578283fd5b818701915087601f83011261173e578283fd5b81358181111561175057611750611b98565b604051601f8201601f19908116603f0116810190838211818310171561177857611778611b98565b816040528281528a6020848701011115611790578586fd5b82602086016020830137918201602001949094529598949750929550505050565b600080604083850312156117c3578182fd5b6117cc83611629565b9150602083013580151581146117e0578182fd5b809150509250929050565b600080604083850312156117fd578182fd5b61180683611629565b946020939093013593505050565b600060208284031215611825578081fd5b8135610eb981611bae565b600060208284031215611841578081fd5b8151610eb981611bae565b60006020828403121561185d578081fd5b5035919050565b60008060408385031215611876578182fd5b8235915061169960208401611629565b60008060408385031215611898578182fd5b6118a183611645565b915061169960208401611645565b600081518084526118c7816020860160208601611ad6565b601f01601f19169290920160200192915050565b600083516118ed818460208801611ad6565b835190830190611901818360208801611ad6565b01949350505050565b6001600160a01b038581168252841660208201526040810183905260806060820181905260009061193d908301846118af565b9695505050505050565b6020808252825182820181905260009190848201906040850190845b8181101561197f57835183529284019291840191600101611963565b50909695505050505050565b6020808252825182820181905260009190848201906040850190845b8181101561197f57835160ff16835292840192918401916001016119a7565b602081526000610eb960208301846118af565b60208082526032908201527f4552433732313a207472616e7366657220746f206e6f6e20455243373231526560408201527131b2b4bb32b91034b6b83632b6b2b73a32b960711b606082015260800190565b60208082526031908201527f4552433732313a207472616e736665722063616c6c6572206973206e6f74206f6040820152701ddb995c881b9bdc88185c1c1c9bdd9959607a1b606082015260800190565b9182526001600160a01b0316602082015260400190565b60008219821115611aa657611aa6611b6c565b500190565b600082611aba57611aba611b82565b500490565b600082821015611ad157611ad1611b6c565b500390565b60005b83811015611af1578181015183820152602001611ad9565b83811115610dcf5750506000910152565b600181811c90821680611b1657607f821691505b60208210811415611b3757634e487b7160e01b600052602260045260246000fd5b50919050565b6000600019821415611b5157611b51611b6c565b5060010190565b600082611b6757611b67611b82565b500690565b634e487b7160e01b600052601160045260246000fd5b634e487b7160e01b600052601260045260246000fd5b634e487b7160e01b600052604160045260246000fd5b6001600160e01b031981168114611bc457600080fd5b5056feddf252ad1be2c89b69c2b068fc378daa952ba7f163c4a11628f55a4df523b3efa2646970667358221220cd1783f0ca5a60c6c3d63e50e1abf28c947cd41c86fd0bf63e2138b89a7c73c964736f6c63430008040033",
  "immutableReferences": {},
  "source": "// SPDX-License-Identifier: UNLICENSED\n\npragma solidity ^0.8.0;\n\nimport \"./ModifiableSoul.sol\";\n\ncontract MintableSoul is ModifiableSoul {\n    uint256[] private _indexSoul;\n\n    mapping(uint256 => address) private _soulCarrier;\n    mapping(address => uint256[]) private _carrierSoul;\n\n    event CarrierChanged(uint256 soulId, address newCarrier);\n    event SoulMinted(uint256 soulId, address owner);\n\n    function carrierOf(uint256 soulId) public view returns (address) {\n        require(_exists(soulId), \"Soul doesn't exist\");\n        return _soulCarrier[soulId];\n    }\n\n    function getSoul(address carrier)\n        public\n        view\n        returns (uint256[] memory soulIds)\n    {\n        soulIds = _carrierSoul[carrier];\n        return soulIds;\n    }\n\n    function hasSoul(address person) public view returns (bool) {\n        return balanceOf(person) > 0;\n    }\n\n    // todo: add fee for mint\n    function mint(uint256 soulId) public payable {\n        require(balanceOf(msg.sender) == 0, \"You already mint you soul\");\n        require(msg.value >= 500000, \"not enough value for fee\");\n\n        _safeMint(tx.origin, soulId);\n        _soulCarrier[soulId] = tx.origin;\n        _carrierSoul[tx.origin].push(soulId);\n        _indexSoul.push(soulId);\n\n        payable(address(0xc6C6e7eDaB89a39fFc9dB19cdD46c5C639964DAa)).transfer(\n            msg.value\n        );\n\n        emit SoulMinted(soulId, tx.origin);\n    }\n\n    function getAllSoul() public view returns (uint256[] memory) {\n        return _indexSoul;\n    }\n\n    function _profitFor(uint256 soulId)\n        internal\n        view\n        returns (address, address)\n    {\n        address owner = ownerOf(soulId);\n        address carrier = carrierOf(soulId);\n        return (owner, carrier);\n    }\n\n    function _changeCarrier(uint256 soulId, address newCarrier) internal {\n        require(\n            _soulCarrier[soulId] == tx.origin,\n            \"You are not carrier of this soul\"\n        );\n        _soulCarrier[soulId] = newCarrier;\n        _carrierSoul[newCarrier].push(soulId);\n        emit CarrierChanged(soulId, newCarrier);\n    }\n\n    //for test\n    function changeCarrier(uint256 soulId, address newCarrier) public {\n        _soulCarrier[soulId] = newCarrier;\n        _carrierSoul[newCarrier].push(soulId);\n        emit CarrierChanged(soulId, newCarrier);\n    }\n}\n",
  "sourcePath": "/home/ilyadruzh/Documents/nfsoul/smart-contracts/contracts/MintableSoul.sol",
  "compiler": {
    "name": "solc",
    "version": "0.8.4+commit.c7e474f2.Emscripten.clang"
  },
  "schemaVersion": "3.4.1",
  "updatedAt": "2021-06-11T22:29:58.417Z",
  "devdoc": {
    "kind": "dev",
    "methods": {
      "approve(address,uint256)": {
        "details": "See {IERC721-approve}."
      },
      "balanceOf(address)": {
        "details": "See {IERC721-balanceOf}."
      },
      "getApproved(uint256)": {
        "details": "See {IERC721-getApproved}."
      },
      "isApprovedForAll(address,address)": {
        "details": "See {IERC721-isApprovedForAll}."
      },
      "name()": {
        "details": "See {IERC721Metadata-name}."
      },
      "ownerOf(uint256)": {
        "details": "See {IERC721-ownerOf}."
      },
      "safeTransferFrom(address,address,uint256)": {
        "details": "See {IERC721-safeTransferFrom}."
      },
      "safeTransferFrom(address,address,uint256,bytes)": {
        "details": "See {IERC721-safeTransferFrom}."
      },
      "setApprovalForAll(address,bool)": {
        "details": "See {IERC721-setApprovalForAll}."
      },
      "supportsInterface(bytes4)": {
        "details": "See {IERC165-supportsInterface}."
      },
      "symbol()": {
        "details": "See {IERC721Metadata-symbol}."
      },
      "tokenURI(uint256)": {
        "details": "See {IERC721Metadata-tokenURI}."
      },
      "transferFrom(address,address,uint256)": {
        "details": "See {IERC721-transferFrom}."
      }
    },
    "version": 1
  },
  "userdoc": {
    "kind": "user",
    "methods": {},
    "version": 1
  }
}