{
  "contractName": "ModifiableSoul",
  "abi": [
    {
      "anonymous": false,
      "inputs": [
        {
          "indexed": true,
          "internalType": "address",
          "name": "account",
          "type": "address"
        }
      ],
      "name": "AdminAdded",
      "type": "event"
    },
    {
      "anonymous": false,
      "inputs": [
        {
          "indexed": true,
          "internalType": "address",
          "name": "account",
          "type": "address"
        }
      ],
      "name": "AdminRemoved",
      "type": "event"
    },
    {
      "anonymous": false,
      "inputs": [
        {
          "indexed": true,
          "internalType": "address",
          "name": "owner",
          "type": "address"
        },
        {
          "indexed": true,
          "internalType": "address",
          "name": "approved",
          "type": "address"
        },
        {
          "indexed": true,
          "internalType": "uint256",
          "name": "tokenId",
          "type": "uint256"
        }
      ],
      "name": "Approval",
      "type": "event"
    },
    {
      "anonymous": false,
      "inputs": [
        {
          "indexed": true,
          "internalType": "address",
          "name": "owner",
          "type": "address"
        },
        {
          "indexed": true,
          "internalType": "address",
          "name": "operator",
          "type": "address"
        },
        {
          "indexed": false,
          "internalType": "bool",
          "name": "approved",
          "type": "bool"
        }
      ],
      "name": "ApprovalForAll",
      "type": "event"
    },
    {
      "anonymous": false,
      "inputs": [
        {
          "indexed": true,
          "internalType": "address",
          "name": "from",
          "type": "address"
        },
        {
          "indexed": true,
          "internalType": "uint256",
          "name": "tokenId",
          "type": "uint256"
        },
        {
          "indexed": false,
          "internalType": "bytes32",
          "name": "mods",
          "type": "bytes32"
        }
      ],
      "name": "ModificationSetted",
      "type": "event"
    },
    {
      "anonymous": false,
      "inputs": [
        {
          "indexed": true,
          "internalType": "address",
          "name": "from",
          "type": "address"
        },
        {
          "indexed": true,
          "internalType": "address",
          "name": "to",
          "type": "address"
        },
        {
          "indexed": true,
          "internalType": "uint256",
          "name": "tokenId",
          "type": "uint256"
        }
      ],
      "name": "Transfer",
      "type": "event"
    },
    {
      "inputs": [
        {
          "internalType": "address",
          "name": "to",
          "type": "address"
        },
        {
          "internalType": "uint256",
          "name": "tokenId",
          "type": "uint256"
        }
      ],
      "name": "approve",
      "outputs": [],
      "stateMutability": "nonpayable",
      "type": "function"
    },
    {
      "inputs": [
        {
          "internalType": "address",
          "name": "owner",
          "type": "address"
        }
      ],
      "name": "balanceOf",
      "outputs": [
        {
          "internalType": "uint256",
          "name": "",
          "type": "uint256"
        }
      ],
      "stateMutability": "view",
      "type": "function"
    },
    {
      "inputs": [
        {
          "internalType": "uint256",
          "name": "tokenId",
          "type": "uint256"
        }
      ],
      "name": "getApproved",
      "outputs": [
        {
          "internalType": "address",
          "name": "",
          "type": "address"
        }
      ],
      "stateMutability": "view",
      "type": "function"
    },
    {
      "inputs": [
        {
          "internalType": "address",
          "name": "owner",
          "type": "address"
        },
        {
          "internalType": "address",
          "name": "operator",
          "type": "address"
        }
      ],
      "name": "isApprovedForAll",
      "outputs": [
        {
          "internalType": "bool",
          "name": "",
          "type": "bool"
        }
      ],
      "stateMutability": "view",
      "type": "function"
    },
    {
      "inputs": [],
      "name": "name",
      "outputs": [
        {
          "internalType": "string",
          "name": "",
          "type": "string"
        }
      ],
      "stateMutability": "view",
      "type": "function"
    },
    {
      "inputs": [
        {
          "internalType": "uint256",
          "name": "tokenId",
          "type": "uint256"
        }
      ],
      "name": "ownerOf",
      "outputs": [
        {
          "internalType": "address",
          "name": "",
          "type": "address"
        }
      ],
      "stateMutability": "view",
      "type": "function"
    },
    {
      "inputs": [
        {
          "internalType": "address",
          "name": "from",
          "type": "address"
        },
        {
          "internalType": "address",
          "name": "to",
          "type": "address"
        },
        {
          "internalType": "uint256",
          "name": "tokenId",
          "type": "uint256"
        }
      ],
      "name": "safeTransferFrom",
      "outputs": [],
      "stateMutability": "nonpayable",
      "type": "function"
    },
    {
      "inputs": [
        {
          "internalType": "address",
          "name": "from",
          "type": "address"
        },
        {
          "internalType": "address",
          "name": "to",
          "type": "address"
        },
        {
          "internalType": "uint256",
          "name": "tokenId",
          "type": "uint256"
        },
        {
          "internalType": "bytes",
          "name": "_data",
          "type": "bytes"
        }
      ],
      "name": "safeTransferFrom",
      "outputs": [],
      "stateMutability": "nonpayable",
      "type": "function"
    },
    {
      "inputs": [
        {
          "internalType": "address",
          "name": "operator",
          "type": "address"
        },
        {
          "internalType": "bool",
          "name": "approved",
          "type": "bool"
        }
      ],
      "name": "setApprovalForAll",
      "outputs": [],
      "stateMutability": "nonpayable",
      "type": "function"
    },
    {
      "inputs": [
        {
          "internalType": "bytes4",
          "name": "interfaceId",
          "type": "bytes4"
        }
      ],
      "name": "supportsInterface",
      "outputs": [
        {
          "internalType": "bool",
          "name": "",
          "type": "bool"
        }
      ],
      "stateMutability": "view",
      "type": "function"
    },
    {
      "inputs": [],
      "name": "symbol",
      "outputs": [
        {
          "internalType": "string",
          "name": "",
          "type": "string"
        }
      ],
      "stateMutability": "view",
      "type": "function"
    },
    {
      "inputs": [
        {
          "internalType": "uint256",
          "name": "tokenId",
          "type": "uint256"
        }
      ],
      "name": "tokenURI",
      "outputs": [
        {
          "internalType": "string",
          "name": "",
          "type": "string"
        }
      ],
      "stateMutability": "view",
      "type": "function"
    },
    {
      "inputs": [
        {
          "internalType": "address",
          "name": "from",
          "type": "address"
        },
        {
          "internalType": "address",
          "name": "to",
          "type": "address"
        },
        {
          "internalType": "uint256",
          "name": "tokenId",
          "type": "uint256"
        }
      ],
      "name": "transferFrom",
      "outputs": [],
      "stateMutability": "nonpayable",
      "type": "function"
    },
    {
      "inputs": [
        {
          "internalType": "uint8",
          "name": "maxModVal",
          "type": "uint8"
        },
        {
          "internalType": "uint8",
          "name": "maxMods",
          "type": "uint8"
        }
      ],
      "name": "_setModificationSettings",
      "outputs": [],
      "stateMutability": "nonpayable",
      "type": "function"
    },
    {
      "inputs": [],
      "name": "modificationSettings",
      "outputs": [
        {
          "internalType": "uint8",
          "name": "",
          "type": "uint8"
        },
        {
          "internalType": "uint8",
          "name": "",
          "type": "uint8"
        }
      ],
      "stateMutability": "view",
      "type": "function"
    }
  ],
  "bytecode": "0x608060405234801561001057600080fd5b50611305806100206000396000f3fe608060405234801561001057600080fd5b50600436106100c55760003560e01c806301ffc9a7146100ca57806306fdde03146100f2578063081812fc14610107578063095ea7b3146101325780630fa7dcab1461014757806323b872dd1461015a57806342842e0e1461016d5780636352211e1461018057806370a082311461019357806392977192146101b457806395d89b41146101d6578063a22cb465146101de578063b88d4fde146101f1578063c87b56dd14610204578063e985e9c514610217575b600080fd5b6100dd6100d8366004610fd4565b61022a565b60405190151581526020015b60405180910390f35b6100fa61027c565b6040516100e991906110e5565b61011a61011536600461100c565b61030e565b6040516001600160a01b0390911681526020016100e9565b610145610140366004610fab565b61039b565b005b610145610155366004611024565b6104ac565b610145610168366004610e62565b610543565b61014561017b366004610e62565b610574565b61011a61018e36600461100c565b61058f565b6101a66101a1366004610e16565b610606565b6040519081526020016100e9565b609b546040805160ff80841682526101009093049092166020830152016100e9565b6100fa61068d565b6101456101ec366004610f71565b61069c565b6101456101ff366004610e9d565b61075d565b6100fa61021236600461100c565b610795565b6100dd610225366004610e30565b61086d565b60006001600160e01b031982166380ac58cd60e01b148061025b57506001600160e01b03198216635b5e139f60e01b145b8061027657506301ffc9a760e01b6001600160e01b03198316145b92915050565b60606065805461028b9061120a565b80601f01602080910402602001604051908101604052809291908181526020018280546102b79061120a565b80156103045780601f106102d957610100808354040283529160200191610304565b820191906000526020600020905b8154815290600101906020018083116102e757829003601f168201915b5050505050905090565b60006103198261089b565b61037f5760405162461bcd60e51b815260206004820152602c60248201527f4552433732313a20617070726f76656420717565727920666f72206e6f6e657860448201526b34b9ba32b73a103a37b5b2b760a11b60648201526084015b60405180910390fd5b506000908152606960205260409020546001600160a01b031690565b60006103a68261058f565b9050806001600160a01b0316836001600160a01b031614156104145760405162461bcd60e51b815260206004820152602160248201527f4552433732313a20617070726f76616c20746f2063757272656e74206f776e656044820152603960f91b6064820152608401610376565b336001600160a01b03821614806104305750610430813361086d565b61049d5760405162461bcd60e51b815260206004820152603860248201527f4552433732313a20617070726f76652063616c6c6572206973206e6f74206f776044820152771b995c881b9bdc88185c1c1c9bdd995908199bdc88185b1b60421b6064820152608401610376565b6104a783836108b8565b505050565b3260009081526097602052604090205460ff166104ff5760405162461bcd60e51b81526020600482015260116024820152703cb7ba9030b932903737ba1030b236b4b760791b6044820152606401610376565b60ff8260ff161061050f57600080fd5b60208160ff161061051f57600080fd5b609b805460ff9283166101000261ffff199091169290931691909117919091179055565b61054d3382610926565b6105695760405162461bcd60e51b81526004016103769061114a565b6104a78383836109f0565b6104a78383836040518060200160405280600081525061075d565b6000818152606760205260408120546001600160a01b0316806102765760405162461bcd60e51b815260206004820152602960248201527f4552433732313a206f776e657220717565727920666f72206e6f6e657869737460448201526832b73a103a37b5b2b760b91b6064820152608401610376565b60006001600160a01b0382166106715760405162461bcd60e51b815260206004820152602a60248201527f4552433732313a2062616c616e636520717565727920666f7220746865207a65604482015269726f206164647265737360b01b6064820152608401610376565b506001600160a01b031660009081526068602052604090205490565b60606066805461028b9061120a565b6001600160a01b0382163314156106f15760405162461bcd60e51b815260206004820152601960248201527822a9219b99189d1030b8383937bb32903a379031b0b63632b960391b6044820152606401610376565b336000818152606a602090815260408083206001600160a01b03871680855290835292819020805460ff191686151590811790915590519081529192917f17307eab39ab6107e8899845ad3d59bd9653f200f220920489ca2b5937696c31910160405180910390a35050565b6107673383610926565b6107835760405162461bcd60e51b81526004016103769061114a565b61078f84848484610b90565b50505050565b60606107a08261089b565b6108045760405162461bcd60e51b815260206004820152602f60248201527f4552433732314d657461646174613a2055524920717565727920666f72206e6f60448201526e3732bc34b9ba32b73a103a37b5b2b760891b6064820152608401610376565b600061081b60408051602081019091526000815290565b9050600081511161083b5760405180602001604052806000815250610866565b8061084584610bc3565b604051602001610856929190611079565b6040516020818303038152906040525b9392505050565b6001600160a01b039182166000908152606a6020908152604080832093909416825291909152205460ff1690565b6000908152606760205260409020546001600160a01b0316151590565b600081815260696020526040902080546001600160a01b0319166001600160a01b03841690811790915581906108ed8261058f565b6001600160a01b03167f8c5be1e5ebec7d5bd14f71427d1e84f3dd0314c0f7b2291e5b200ac8c7c3b92560405160405180910390a45050565b60006109318261089b565b6109925760405162461bcd60e51b815260206004820152602c60248201527f4552433732313a206f70657261746f7220717565727920666f72206e6f6e657860448201526b34b9ba32b73a103a37b5b2b760a11b6064820152608401610376565b600061099d8361058f565b9050806001600160a01b0316846001600160a01b031614806109d85750836001600160a01b03166109cd8461030e565b6001600160a01b0316145b806109e857506109e8818561086d565b949350505050565b826001600160a01b0316610a038261058f565b6001600160a01b031614610a6b5760405162461bcd60e51b815260206004820152602960248201527f4552433732313a207472616e73666572206f6620746f6b656e2074686174206960448201526839903737ba1037bbb760b91b6064820152608401610376565b6001600160a01b038216610acd5760405162461bcd60e51b8152602060048201526024808201527f4552433732313a207472616e7366657220746f20746865207a65726f206164646044820152637265737360e01b6064820152608401610376565b610ad86000826108b8565b6001600160a01b0383166000908152606860205260408120805460019290610b019084906111c7565b90915550506001600160a01b0382166000908152606860205260408120805460019290610b2f90849061119b565b909155505060008181526067602052604080822080546001600160a01b0319166001600160a01b0386811691821790925591518493918716917fddf252ad1be2c89b69c2b068fc378daa952ba7f163c4a11628f55a4df523b3ef91a4505050565b610b9b8484846109f0565b610ba784848484610cdc565b61078f5760405162461bcd60e51b8152600401610376906110f8565b606081610be75750506040805180820190915260018152600360fc1b602082015290565b8160005b8115610c115780610bfb81611245565b9150610c0a9050600a836111b3565b9150610beb565b6000816001600160401b03811115610c3957634e487b7160e01b600052604160045260246000fd5b6040519080825280601f01601f191660200182016040528015610c63576020820181803683370190505b5090505b84156109e857610c786001836111c7565b9150610c85600a86611260565b610c9090603061119b565b60f81b818381518110610cb357634e487b7160e01b600052603260045260246000fd5b60200101906001600160f81b031916908160001a905350610cd5600a866111b3565b9450610c67565b60006001600160a01b0384163b15610dde57604051630a85bd0160e11b81526001600160a01b0385169063150b7a0290610d209033908990889088906004016110a8565b602060405180830381600087803b158015610d3a57600080fd5b505af1925050508015610d6a575060408051601f3d908101601f19168201909252610d6791810190610ff0565b60015b610dc4573d808015610d98576040519150601f19603f3d011682016040523d82523d6000602084013e610d9d565b606091505b508051610dbc5760405162461bcd60e51b8152600401610376906110f8565b805181602001fd5b6001600160e01b031916630a85bd0160e11b1490506109e8565b506001949350505050565b80356001600160a01b0381168114610e0057600080fd5b919050565b803560ff81168114610e0057600080fd5b600060208284031215610e27578081fd5b61086682610de9565b60008060408385031215610e42578081fd5b610e4b83610de9565b9150610e5960208401610de9565b90509250929050565b600080600060608486031215610e76578081fd5b610e7f84610de9565b9250610e8d60208501610de9565b9150604084013590509250925092565b60008060008060808587031215610eb2578081fd5b610ebb85610de9565b9350610ec960208601610de9565b92506040850135915060608501356001600160401b0380821115610eeb578283fd5b818701915087601f830112610efe578283fd5b813581811115610f1057610f106112a0565b604051601f8201601f19908116603f01168101908382118183101715610f3857610f386112a0565b816040528281528a6020848701011115610f50578586fd5b82602086016020830137918201602001949094529598949750929550505050565b60008060408385031215610f83578182fd5b610f8c83610de9565b915060208301358015158114610fa0578182fd5b809150509250929050565b60008060408385031215610fbd578182fd5b610fc683610de9565b946020939093013593505050565b600060208284031215610fe5578081fd5b8135610866816112b6565b600060208284031215611001578081fd5b8151610866816112b6565b60006020828403121561101d578081fd5b5035919050565b60008060408385031215611036578182fd5b61103f83610e05565b9150610e5960208401610e05565b600081518084526110658160208601602086016111de565b601f01601f19169290920160200192915050565b6000835161108b8184602088016111de565b83519083019061109f8183602088016111de565b01949350505050565b6001600160a01b03858116825284166020820152604081018390526080606082018190526000906110db9083018461104d565b9695505050505050565b602081526000610866602083018461104d565b60208082526032908201527f4552433732313a207472616e7366657220746f206e6f6e20455243373231526560408201527131b2b4bb32b91034b6b83632b6b2b73a32b960711b606082015260800190565b60208082526031908201527f4552433732313a207472616e736665722063616c6c6572206973206e6f74206f6040820152701ddb995c881b9bdc88185c1c1c9bdd9959607a1b606082015260800190565b600082198211156111ae576111ae611274565b500190565b6000826111c2576111c261128a565b500490565b6000828210156111d9576111d9611274565b500390565b60005b838110156111f95781810151838201526020016111e1565b8381111561078f5750506000910152565b600181811c9082168061121e57607f821691505b6020821081141561123f57634e487b7160e01b600052602260045260246000fd5b50919050565b600060001982141561125957611259611274565b5060010190565b60008261126f5761126f61128a565b500690565b634e487b7160e01b600052601160045260246000fd5b634e487b7160e01b600052601260045260246000fd5b634e487b7160e01b600052604160045260246000fd5b6001600160e01b0319811681146112cc57600080fd5b5056fea26469706673582212208fd28ebdd03464df1b8d1f07453d95046bdb55c5d1c0608cf0ca3fca7cd8260c64736f6c63430008040033",
  "immutableReferences": {},
  "source": "// SPDX-License-Identifier: UNLICENSED\n\npragma solidity ^0.8.0;\n\nimport \"./Admined.sol\";\n\ncontract ModifiableSoul is Admined {\n    mapping(uint256 => bytes32) private _soulModifications;\n    mapping(uint256 => Donor) private _specialDonorMods;\n\n    struct Donor {\n        uint8[] donorType;\n        // 1 = developer\n        // 2 = auditor\n        // 3 = investor\n        // 4 = designer\n        // 5 = marketer\n        // 6 = evangelist\n        // 7 = unicorn\n        // 8 = journalist\n        // 9 = blogger\n        // 10 = pornostar\n    }\n\n    uint8 private _maxModVal; // max 255\n    uint8 private _maxMods; // max 32\n\n    mapping(address => uint256) private _accountWeights;\n\n    event ModificationSetted(\n        address indexed from,\n        uint256 indexed tokenId,\n        bytes32 mods\n    );\n\n    function _setModificationSettings(uint8 maxModVal, uint8 maxMods)\n        public\n        onlyAdmin\n    {\n        require(maxModVal < 255);\n        require(maxMods < 32);\n\n        _maxModVal = maxModVal; // init 1\n        _maxMods = maxMods; // init 4\n    }\n\n    function modificationSettings() public view returns (uint8, uint8) {\n        return (_maxModVal, _maxMods);\n    }\n\n    /**\n     * @dev Gets the modification of the specified token ID\n     * @param soulId uint256 ID of the token\n     * @return uint256 modifications mask\n     */\n    function _getSoulModifications(uint256 soulId)\n        internal\n        view\n        returns (bytes32)\n    {\n        require(_exists(soulId));\n        return _soulModifications[soulId];\n    }\n\n    /**\n     * 0..511\n     */\n    function _multiplier(\n        uint256 soulId,\n        uint8 incMod,\n        uint8 decMod\n    ) internal view returns (uint8) {\n        uint256 inc = uint256(_getMod(soulId, incMod));\n        uint256 dec = uint256(_getMod(soulId, decMod));\n\n        return uint8(inc + (255 - dec));\n    }\n\n    /**\n     * @param soulId uint256 ID of the token\n     * @param modNumber from 0 to 31\n     */\n    function _getMod(uint256 soulId, uint8 modNumber)\n        internal\n        view\n        returns (uint8)\n    {\n        bytes32 modifications = _getSoulModifications(soulId);\n        return uint8(modifications[modNumber]);\n    }\n\n    function _toBytes32(bytes memory source)\n        internal\n        pure\n        returns (bytes32 result)\n    {\n        assembly {\n            result := mload(add(source, 32))\n        }\n    }\n\n    function _toBytes(bytes32 source) internal pure returns (bytes memory) {\n        return abi.encodePacked(source);\n    }\n\n    function _increaseMod(\n        uint256 soulId,\n        uint8 modNumber,\n        uint8 val\n    ) internal {\n        bytes32 currentMods = _getSoulModifications(soulId);\n        uint8 mod = uint8(currentMods[modNumber]);\n\n        require(val > 0);\n        require(val <= _maxModVal);\n        require(mod <= (255 - val));\n\n        bytes memory newMods = _toBytes(currentMods);\n        newMods[modNumber] = bytes1(mod);\n\n        _soulModifications[soulId] = _toBytes32(newMods);\n    }\n\n    function _decreaseMod(\n        uint256 soulId,\n        uint8 modNumber,\n        uint8 val\n    ) internal {\n        bytes32 currentMods = _getSoulModifications(soulId);\n        uint8 mod = uint8(currentMods[modNumber]);\n\n        require(val > 0);\n        require(val <= _maxModVal);\n        require(mod >= val);\n\n        bytes memory newMods = _toBytes(currentMods);\n        newMods[modNumber] = bytes1(mod);\n\n        _soulModifications[soulId] = _toBytes32(newMods);\n    }\n\n    function _setModification(uint256 soulId, bytes32 modification) internal {\n        uint8 modCounter = 0;\n        for (uint8 i = 0; i < 32; i++) {\n            uint8 modValue = uint8(modification[i]);\n            if (modValue > 0 && modValue <= _maxModVal) {\n                _increaseMod(soulId, 1, modValue);\n                if (++modCounter <= _maxMods) {\n                    break;\n                }\n            }\n        }\n        emit ModificationSetted(tx.origin, soulId, modification);\n    }\n\n    function _setDonorMod(uint256 soulId, uint8 typeMod) internal onlyAdmin {\n        _specialDonorMods[soulId].donorType.push(typeMod);\n    }\n\n    function _getDonorMod(uint256 soulId)\n        internal\n        view\n        returns (uint8[] memory)\n    {\n        Donor memory specMod = _specialDonorMods[soulId];\n        return specMod.donorType;\n    }\n}\n",
  "sourcePath": "/home/ilyadruzh/Documents/nfsoul/sc/contracts/ModifiableSoul.sol",
  "compiler": {
    "name": "solc",
    "version": "0.8.4+commit.c7e474f2.Emscripten.clang"
  },
  "schemaVersion": "3.4.1",
  "updatedAt": "2021-05-29T18:53:37.874Z",
  "devdoc": {
    "kind": "dev",
    "methods": {
      "approve(address,uint256)": {
        "details": "See {IERC721-approve}."
      },
      "balanceOf(address)": {
        "details": "See {IERC721-balanceOf}."
      },
      "getApproved(uint256)": {
        "details": "See {IERC721-getApproved}."
      },
      "isApprovedForAll(address,address)": {
        "details": "See {IERC721-isApprovedForAll}."
      },
      "name()": {
        "details": "See {IERC721Metadata-name}."
      },
      "ownerOf(uint256)": {
        "details": "See {IERC721-ownerOf}."
      },
      "safeTransferFrom(address,address,uint256)": {
        "details": "See {IERC721-safeTransferFrom}."
      },
      "safeTransferFrom(address,address,uint256,bytes)": {
        "details": "See {IERC721-safeTransferFrom}."
      },
      "setApprovalForAll(address,bool)": {
        "details": "See {IERC721-setApprovalForAll}."
      },
      "supportsInterface(bytes4)": {
        "details": "See {IERC165-supportsInterface}."
      },
      "symbol()": {
        "details": "See {IERC721Metadata-symbol}."
      },
      "tokenURI(uint256)": {
        "details": "See {IERC721Metadata-tokenURI}."
      },
      "transferFrom(address,address,uint256)": {
        "details": "See {IERC721-transferFrom}."
      }
    },
    "version": 1
  },
  "userdoc": {
    "kind": "user",
    "methods": {},
    "version": 1
  }
}