{
  "contractName": "ModifiableSoul",
  "abi": [
    {
      "anonymous": false,
      "inputs": [
        {
          "indexed": true,
          "internalType": "address",
          "name": "account",
          "type": "address"
        }
      ],
      "name": "AdminAdded",
      "type": "event"
    },
    {
      "anonymous": false,
      "inputs": [
        {
          "indexed": true,
          "internalType": "address",
          "name": "account",
          "type": "address"
        }
      ],
      "name": "AdminRemoved",
      "type": "event"
    },
    {
      "anonymous": false,
      "inputs": [
        {
          "indexed": true,
          "internalType": "address",
          "name": "owner",
          "type": "address"
        },
        {
          "indexed": true,
          "internalType": "address",
          "name": "approved",
          "type": "address"
        },
        {
          "indexed": true,
          "internalType": "uint256",
          "name": "tokenId",
          "type": "uint256"
        }
      ],
      "name": "Approval",
      "type": "event"
    },
    {
      "anonymous": false,
      "inputs": [
        {
          "indexed": true,
          "internalType": "address",
          "name": "owner",
          "type": "address"
        },
        {
          "indexed": true,
          "internalType": "address",
          "name": "operator",
          "type": "address"
        },
        {
          "indexed": false,
          "internalType": "bool",
          "name": "approved",
          "type": "bool"
        }
      ],
      "name": "ApprovalForAll",
      "type": "event"
    },
    {
      "anonymous": false,
      "inputs": [
        {
          "indexed": true,
          "internalType": "address",
          "name": "from",
          "type": "address"
        },
        {
          "indexed": true,
          "internalType": "uint256",
          "name": "tokenId",
          "type": "uint256"
        },
        {
          "indexed": false,
          "internalType": "bytes32",
          "name": "mods",
          "type": "bytes32"
        }
      ],
      "name": "ModificationSetted",
      "type": "event"
    },
    {
      "anonymous": false,
      "inputs": [
        {
          "indexed": true,
          "internalType": "address",
          "name": "from",
          "type": "address"
        },
        {
          "indexed": true,
          "internalType": "address",
          "name": "to",
          "type": "address"
        },
        {
          "indexed": true,
          "internalType": "uint256",
          "name": "tokenId",
          "type": "uint256"
        }
      ],
      "name": "Transfer",
      "type": "event"
    },
    {
      "inputs": [
        {
          "internalType": "address",
          "name": "to",
          "type": "address"
        },
        {
          "internalType": "uint256",
          "name": "tokenId",
          "type": "uint256"
        }
      ],
      "name": "approve",
      "outputs": [],
      "stateMutability": "nonpayable",
      "type": "function"
    },
    {
      "inputs": [
        {
          "internalType": "address",
          "name": "owner",
          "type": "address"
        }
      ],
      "name": "balanceOf",
      "outputs": [
        {
          "internalType": "uint256",
          "name": "",
          "type": "uint256"
        }
      ],
      "stateMutability": "view",
      "type": "function"
    },
    {
      "inputs": [
        {
          "internalType": "uint256",
          "name": "tokenId",
          "type": "uint256"
        }
      ],
      "name": "getApproved",
      "outputs": [
        {
          "internalType": "address",
          "name": "",
          "type": "address"
        }
      ],
      "stateMutability": "view",
      "type": "function"
    },
    {
      "inputs": [
        {
          "internalType": "address",
          "name": "owner",
          "type": "address"
        },
        {
          "internalType": "address",
          "name": "operator",
          "type": "address"
        }
      ],
      "name": "isApprovedForAll",
      "outputs": [
        {
          "internalType": "bool",
          "name": "",
          "type": "bool"
        }
      ],
      "stateMutability": "view",
      "type": "function"
    },
    {
      "inputs": [],
      "name": "name",
      "outputs": [
        {
          "internalType": "string",
          "name": "",
          "type": "string"
        }
      ],
      "stateMutability": "view",
      "type": "function"
    },
    {
      "inputs": [
        {
          "internalType": "uint256",
          "name": "tokenId",
          "type": "uint256"
        }
      ],
      "name": "ownerOf",
      "outputs": [
        {
          "internalType": "address",
          "name": "",
          "type": "address"
        }
      ],
      "stateMutability": "view",
      "type": "function"
    },
    {
      "inputs": [
        {
          "internalType": "address",
          "name": "from",
          "type": "address"
        },
        {
          "internalType": "address",
          "name": "to",
          "type": "address"
        },
        {
          "internalType": "uint256",
          "name": "tokenId",
          "type": "uint256"
        }
      ],
      "name": "safeTransferFrom",
      "outputs": [],
      "stateMutability": "nonpayable",
      "type": "function"
    },
    {
      "inputs": [
        {
          "internalType": "address",
          "name": "from",
          "type": "address"
        },
        {
          "internalType": "address",
          "name": "to",
          "type": "address"
        },
        {
          "internalType": "uint256",
          "name": "tokenId",
          "type": "uint256"
        },
        {
          "internalType": "bytes",
          "name": "_data",
          "type": "bytes"
        }
      ],
      "name": "safeTransferFrom",
      "outputs": [],
      "stateMutability": "nonpayable",
      "type": "function"
    },
    {
      "inputs": [
        {
          "internalType": "address",
          "name": "operator",
          "type": "address"
        },
        {
          "internalType": "bool",
          "name": "approved",
          "type": "bool"
        }
      ],
      "name": "setApprovalForAll",
      "outputs": [],
      "stateMutability": "nonpayable",
      "type": "function"
    },
    {
      "inputs": [
        {
          "internalType": "bytes4",
          "name": "interfaceId",
          "type": "bytes4"
        }
      ],
      "name": "supportsInterface",
      "outputs": [
        {
          "internalType": "bool",
          "name": "",
          "type": "bool"
        }
      ],
      "stateMutability": "view",
      "type": "function"
    },
    {
      "inputs": [],
      "name": "symbol",
      "outputs": [
        {
          "internalType": "string",
          "name": "",
          "type": "string"
        }
      ],
      "stateMutability": "view",
      "type": "function"
    },
    {
      "inputs": [
        {
          "internalType": "uint256",
          "name": "tokenId",
          "type": "uint256"
        }
      ],
      "name": "tokenURI",
      "outputs": [
        {
          "internalType": "string",
          "name": "",
          "type": "string"
        }
      ],
      "stateMutability": "view",
      "type": "function"
    },
    {
      "inputs": [
        {
          "internalType": "address",
          "name": "from",
          "type": "address"
        },
        {
          "internalType": "address",
          "name": "to",
          "type": "address"
        },
        {
          "internalType": "uint256",
          "name": "tokenId",
          "type": "uint256"
        }
      ],
      "name": "transferFrom",
      "outputs": [],
      "stateMutability": "nonpayable",
      "type": "function"
    },
    {
      "inputs": [
        {
          "internalType": "uint256",
          "name": "soulId",
          "type": "uint256"
        }
      ],
      "name": "getDonorMod",
      "outputs": [
        {
          "internalType": "uint8[]",
          "name": "",
          "type": "uint8[]"
        }
      ],
      "stateMutability": "view",
      "type": "function"
    },
    {
      "inputs": [
        {
          "internalType": "uint256",
          "name": "soulId",
          "type": "uint256"
        }
      ],
      "name": "getSoulModifications",
      "outputs": [
        {
          "internalType": "bytes32",
          "name": "",
          "type": "bytes32"
        }
      ],
      "stateMutability": "view",
      "type": "function"
    },
    {
      "inputs": [],
      "name": "modificationSettings",
      "outputs": [
        {
          "internalType": "uint8",
          "name": "",
          "type": "uint8"
        },
        {
          "internalType": "uint8",
          "name": "",
          "type": "uint8"
        }
      ],
      "stateMutability": "view",
      "type": "function"
    },
    {
      "inputs": [
        {
          "internalType": "uint8",
          "name": "maxModVal",
          "type": "uint8"
        },
        {
          "internalType": "uint8",
          "name": "maxMods",
          "type": "uint8"
        }
      ],
      "name": "_setModificationSettings",
      "outputs": [],
      "stateMutability": "nonpayable",
      "type": "function"
    },
    {
      "inputs": [
        {
          "internalType": "uint256",
          "name": "soulId",
          "type": "uint256"
        }
      ],
      "name": "setModification",
      "outputs": [],
      "stateMutability": "nonpayable",
      "type": "function"
    }
  ],
  "bytecode": "0x608060405234801561001057600080fd5b506114fd806100206000396000f3fe608060405234801561001057600080fd5b50600436106100e65760003560e01c806301ffc9a7146100eb57806306fdde0314610113578063081812fc14610128578063095ea7b3146101535780630fa7dcab1461016857806323b872dd1461017b5780633237307d1461018e57806342842e0e146101af5780636352211e146101c257806370a08231146101d557806392977192146101e857806395d89b411461020a578063a22cb46514610212578063a6ebd54314610225578063b88d4fde14610238578063c87b56dd1461024b578063cebcb0d41461025e578063e985e9c51461027e575b600080fd5b6100fe6100f9366004611185565b610291565b60405190151581526020015b60405180910390f35b61011b6102e3565b60405161010a91906112dd565b61013b6101363660046111bd565b610375565b6040516001600160a01b03909116815260200161010a565b61016661016136600461115c565b610402565b005b6101666101763660046111d5565b610513565b610166610189366004611013565b6105aa565b6101a161019c3660046111bd565b6105db565b60405190815260200161010a565b6101666101bd366004611013565b610602565b61013b6101d03660046111bd565b61061d565b6101a16101e3366004610fc7565b610694565b609b546040805160ff808416825261010090930490921660208301520161010a565b61011b61071b565b610166610220366004611122565b61072a565b6101666102333660046111bd565b6107ec565b61016661024636600461104e565b610880565b61011b6102593660046111bd565b6108b8565b61027161026c3660046111bd565b610990565b60405161010a9190611296565b6100fe61028c366004610fe1565b610a1e565b60006001600160e01b031982166380ac58cd60e01b14806102c257506001600160e01b03198216635b5e139f60e01b145b806102dd57506301ffc9a760e01b6001600160e01b03198316145b92915050565b6060606580546102f290611402565b80601f016020809104026020016040519081016040528092919081815260200182805461031e90611402565b801561036b5780601f106103405761010080835404028352916020019161036b565b820191906000526020600020905b81548152906001019060200180831161034e57829003601f168201915b5050505050905090565b600061038082610a4c565b6103e65760405162461bcd60e51b815260206004820152602c60248201527f4552433732313a20617070726f76656420717565727920666f72206e6f6e657860448201526b34b9ba32b73a103a37b5b2b760a11b60648201526084015b60405180910390fd5b506000908152606960205260409020546001600160a01b031690565b600061040d8261061d565b9050806001600160a01b0316836001600160a01b0316141561047b5760405162461bcd60e51b815260206004820152602160248201527f4552433732313a20617070726f76616c20746f2063757272656e74206f776e656044820152603960f91b60648201526084016103dd565b336001600160a01b038216148061049757506104978133610a1e565b6105045760405162461bcd60e51b815260206004820152603860248201527f4552433732313a20617070726f76652063616c6c6572206973206e6f74206f776044820152771b995c881b9bdc88185c1c1c9bdd995908199bdc88185b1b60421b60648201526084016103dd565b61050e8383610a69565b505050565b3260009081526097602052604090205460ff166105665760405162461bcd60e51b81526020600482015260116024820152703cb7ba9030b932903737ba1030b236b4b760791b60448201526064016103dd565b60ff8260ff161061057657600080fd5b60208160ff161061058657600080fd5b609b805460ff9283166101000261ffff199091169290931691909117919091179055565b6105b43382610ad7565b6105d05760405162461bcd60e51b81526004016103dd90611342565b61050e838383610ba1565b60006105e682610a4c565b6105ef57600080fd5b5060009081526099602052604090205490565b61050e83838360405180602001604052806000815250610880565b6000818152606760205260408120546001600160a01b0316806102dd5760405162461bcd60e51b815260206004820152602960248201527f4552433732313a206f776e657220717565727920666f72206e6f6e657869737460448201526832b73a103a37b5b2b760b91b60648201526084016103dd565b60006001600160a01b0382166106ff5760405162461bcd60e51b815260206004820152602a60248201527f4552433732313a2062616c616e636520717565727920666f7220746865207a65604482015269726f206164647265737360b01b60648201526084016103dd565b506001600160a01b031660009081526068602052604090205490565b6060606680546102f290611402565b6001600160a01b03821633141561077f5760405162461bcd60e51b815260206004820152601960248201527822a9219b99189d1030b8383937bb32903a379031b0b63632b960391b60448201526064016103dd565b336000818152606a602090815260408083206001600160a01b03871680855290835292819020805460ff191686151590811790915590519081529192917f17307eab39ab6107e8899845ad3d59bd9653f200f220920489ca2b5937696c3191015b60405180910390a35050565b6000818152609960205260409020541561080557600080fd5b60408051436020820181905240918101919091526060810182905260009060800160408051808303601f19018152828252805160209182012060008681526099835292909220829055818352909250839132917f2d1c087923bb29c979975262d5f9b5bccdcbeb3c0bbc9fc5d9e303d7abf639b891016107e0565b61088a3383610ad7565b6108a65760405162461bcd60e51b81526004016103dd90611342565b6108b284848484610d41565b50505050565b60606108c382610a4c565b6109275760405162461bcd60e51b815260206004820152602f60248201527f4552433732314d657461646174613a2055524920717565727920666f72206e6f60448201526e3732bc34b9ba32b73a103a37b5b2b760891b60648201526084016103dd565b600061093e60408051602081019091526000815290565b9050600081511161095e5760405180602001604052806000815250610989565b8061096884610d74565b60405160200161097992919061122a565b6040516020818303038152906040525b9392505050565b6000818152609a602090815260408083208151815480850282018401845293810184815260609594919384928491840182828015610a0b57602002820191906000526020600020906000905b825461010083900a900460ff168152602060019283018181049485019490930390920291018084116109dc5790505b5050509190925250509051949350505050565b6001600160a01b039182166000908152606a6020908152604080832093909416825291909152205460ff1690565b6000908152606760205260409020546001600160a01b0316151590565b600081815260696020526040902080546001600160a01b0319166001600160a01b0384169081179091558190610a9e8261061d565b6001600160a01b03167f8c5be1e5ebec7d5bd14f71427d1e84f3dd0314c0f7b2291e5b200ac8c7c3b92560405160405180910390a45050565b6000610ae282610a4c565b610b435760405162461bcd60e51b815260206004820152602c60248201527f4552433732313a206f70657261746f7220717565727920666f72206e6f6e657860448201526b34b9ba32b73a103a37b5b2b760a11b60648201526084016103dd565b6000610b4e8361061d565b9050806001600160a01b0316846001600160a01b03161480610b895750836001600160a01b0316610b7e84610375565b6001600160a01b0316145b80610b995750610b998185610a1e565b949350505050565b826001600160a01b0316610bb48261061d565b6001600160a01b031614610c1c5760405162461bcd60e51b815260206004820152602960248201527f4552433732313a207472616e73666572206f6620746f6b656e2074686174206960448201526839903737ba1037bbb760b91b60648201526084016103dd565b6001600160a01b038216610c7e5760405162461bcd60e51b8152602060048201526024808201527f4552433732313a207472616e7366657220746f20746865207a65726f206164646044820152637265737360e01b60648201526084016103dd565b610c89600082610a69565b6001600160a01b0383166000908152606860205260408120805460019290610cb29084906113bf565b90915550506001600160a01b0382166000908152606860205260408120805460019290610ce0908490611393565b909155505060008181526067602052604080822080546001600160a01b0319166001600160a01b0386811691821790925591518493918716917fddf252ad1be2c89b69c2b068fc378daa952ba7f163c4a11628f55a4df523b3ef91a4505050565b610d4c848484610ba1565b610d5884848484610e8d565b6108b25760405162461bcd60e51b81526004016103dd906112f0565b606081610d985750506040805180820190915260018152600360fc1b602082015290565b8160005b8115610dc25780610dac8161143d565b9150610dbb9050600a836113ab565b9150610d9c565b6000816001600160401b03811115610dea57634e487b7160e01b600052604160045260246000fd5b6040519080825280601f01601f191660200182016040528015610e14576020820181803683370190505b5090505b8415610b9957610e296001836113bf565b9150610e36600a86611458565b610e41906030611393565b60f81b818381518110610e6457634e487b7160e01b600052603260045260246000fd5b60200101906001600160f81b031916908160001a905350610e86600a866113ab565b9450610e18565b60006001600160a01b0384163b15610f8f57604051630a85bd0160e11b81526001600160a01b0385169063150b7a0290610ed1903390899088908890600401611259565b602060405180830381600087803b158015610eeb57600080fd5b505af1925050508015610f1b575060408051601f3d908101601f19168201909252610f18918101906111a1565b60015b610f75573d808015610f49576040519150601f19603f3d011682016040523d82523d6000602084013e610f4e565b606091505b508051610f6d5760405162461bcd60e51b81526004016103dd906112f0565b805181602001fd5b6001600160e01b031916630a85bd0160e11b149050610b99565b506001949350505050565b80356001600160a01b0381168114610fb157600080fd5b919050565b803560ff81168114610fb157600080fd5b600060208284031215610fd8578081fd5b61098982610f9a565b60008060408385031215610ff3578081fd5b610ffc83610f9a565b915061100a60208401610f9a565b90509250929050565b600080600060608486031215611027578081fd5b61103084610f9a565b925061103e60208501610f9a565b9150604084013590509250925092565b60008060008060808587031215611063578081fd5b61106c85610f9a565b935061107a60208601610f9a565b92506040850135915060608501356001600160401b038082111561109c578283fd5b818701915087601f8301126110af578283fd5b8135818111156110c1576110c1611498565b604051601f8201601f19908116603f011681019083821181831017156110e9576110e9611498565b816040528281528a6020848701011115611101578586fd5b82602086016020830137918201602001949094529598949750929550505050565b60008060408385031215611134578182fd5b61113d83610f9a565b915060208301358015158114611151578182fd5b809150509250929050565b6000806040838503121561116e578182fd5b61117783610f9a565b946020939093013593505050565b600060208284031215611196578081fd5b8135610989816114ae565b6000602082840312156111b2578081fd5b8151610989816114ae565b6000602082840312156111ce578081fd5b5035919050565b600080604083850312156111e7578182fd5b6111f083610fb6565b915061100a60208401610fb6565b600081518084526112168160208601602086016113d6565b601f01601f19169290920160200192915050565b6000835161123c8184602088016113d6565b8351908301906112508183602088016113d6565b01949350505050565b6001600160a01b038581168252841660208201526040810183905260806060820181905260009061128c908301846111fe565b9695505050505050565b6020808252825182820181905260009190848201906040850190845b818110156112d157835160ff16835292840192918401916001016112b2565b50909695505050505050565b60208152600061098960208301846111fe565b60208082526032908201527f4552433732313a207472616e7366657220746f206e6f6e20455243373231526560408201527131b2b4bb32b91034b6b83632b6b2b73a32b960711b606082015260800190565b60208082526031908201527f4552433732313a207472616e736665722063616c6c6572206973206e6f74206f6040820152701ddb995c881b9bdc88185c1c1c9bdd9959607a1b606082015260800190565b600082198211156113a6576113a661146c565b500190565b6000826113ba576113ba611482565b500490565b6000828210156113d1576113d161146c565b500390565b60005b838110156113f15781810151838201526020016113d9565b838111156108b25750506000910152565b600181811c9082168061141657607f821691505b6020821081141561143757634e487b7160e01b600052602260045260246000fd5b50919050565b60006000198214156114515761145161146c565b5060010190565b60008261146757611467611482565b500690565b634e487b7160e01b600052601160045260246000fd5b634e487b7160e01b600052601260045260246000fd5b634e487b7160e01b600052604160045260246000fd5b6001600160e01b0319811681146114c457600080fd5b5056fea26469706673582212203650211eb587a0f5c0095aefcf52c8773065c16be4085e0a2e03428ded2cde8764736f6c63430008040033",
  "immutableReferences": {},
  "source": "// SPDX-License-Identifier: UNLICENSED\n\npragma solidity ^0.8.0;\n\nimport \"./Admined.sol\";\n\ncontract ModifiableSoul is Admined {\n    mapping(uint256 => bytes32) private _soulModifications;\n    mapping(uint256 => Donor) private _specialDonorMods;\n\n    struct Donor {\n        uint8[] donorType;\n        // 1 = developer\n        // 2 = auditor\n        // 3 = investor\n        // 4 = designer\n        // 5 = marketer\n        // 6 = evangelist\n        // 7 = unicorn\n        // 8 = journalist\n        // 9 = blogger\n        // 10 = pornostar\n    }\n\n    uint8 private _maxModVal; // max 255\n    uint8 private _maxMods; // max 32\n\n    mapping(address => uint256) private _accountWeights;\n\n    event ModificationSetted(\n        address indexed from,\n        uint256 indexed tokenId,\n        bytes32 mods\n    );\n\n    function getDonorMod(uint256 soulId) public view returns (uint8[] memory) {\n        Donor memory specMod = _specialDonorMods[soulId];\n        return specMod.donorType;\n    }\n\n    function getSoulModifications(uint256 soulId)\n        public\n        view\n        returns (bytes32)\n    {\n        require(_exists(soulId));\n        return _soulModifications[soulId];\n    }\n\n    function modificationSettings() public view returns (uint8, uint8) {\n        return (_maxModVal, _maxMods);\n    }\n\n    function _setModificationSettings(uint8 maxModVal, uint8 maxMods)\n        public\n        onlyAdmin\n    {\n        require(maxModVal < 255);\n        require(maxMods < 32);\n\n        _maxModVal = maxModVal; // init 1\n        _maxMods = maxMods; // init 4\n    }\n\n    /**\n     * 0..511\n     */\n    function _multiplier(\n        uint256 soulId,\n        uint8 incMod,\n        uint8 decMod\n    ) internal view returns (uint8) {\n        uint256 inc = uint256(_getMod(soulId, incMod));\n        uint256 dec = uint256(_getMod(soulId, decMod));\n\n        return uint8(inc + (255 - dec));\n    }\n\n    /**\n     * @param soulId uint256 ID of the token\n     * @param modNumber from 0 to 31\n     */\n    function _getMod(uint256 soulId, uint8 modNumber)\n        internal\n        view\n        returns (uint8)\n    {\n        bytes32 modifications = getSoulModifications(soulId);\n        return uint8(modifications[modNumber]);\n    }\n\n    function _toBytes32(bytes memory source)\n        internal\n        pure\n        returns (bytes32 result)\n    {\n        assembly {\n            result := mload(add(source, 32))\n        }\n    }\n\n    function _toBytes(bytes32 source) internal pure returns (bytes memory) {\n        return abi.encodePacked(source);\n    }\n\n    function _increaseMod(\n        uint256 soulId,\n        uint8 modNumber,\n        uint8 val\n    ) internal {\n        bytes32 currentMods = getSoulModifications(soulId);\n        uint8 mod = uint8(currentMods[modNumber]);\n\n        require(val > 0);\n        require(val <= _maxModVal);\n        require(mod <= (255 - val));\n\n        bytes memory newMods = _toBytes(currentMods);\n        newMods[modNumber] = bytes1(mod);\n\n        _soulModifications[soulId] = _toBytes32(newMods);\n    }\n\n    function _decreaseMod(\n        uint256 soulId,\n        uint8 modNumber,\n        uint8 val\n    ) internal {\n        bytes32 currentMods = getSoulModifications(soulId);\n        uint8 mod = uint8(currentMods[modNumber]);\n\n        require(val > 0);\n        require(val <= _maxModVal);\n        require(mod >= val);\n\n        bytes memory newMods = _toBytes(currentMods);\n        newMods[modNumber] = bytes1(mod);\n\n        _soulModifications[soulId] = _toBytes32(newMods);\n    }\n\n    function setModification(uint256 soulId) public {\n        require(_soulModifications[soulId] == 0x0);\n        \n        bytes32 randMods =\n            keccak256(\n                abi.encodePacked(block.number, blockhash(block.number), soulId)\n            );\n\n        _soulModifications[soulId] = randMods;\n        emit ModificationSetted(tx.origin, soulId, randMods);\n    }\n\n    function _setDonorMod(uint256 soulId, uint8 typeMod) internal onlyAdmin {\n        _specialDonorMods[soulId].donorType.push(typeMod);\n    }\n}\n",
  "sourcePath": "/home/ilyadruzh/Documents/nfsoul/smart-contracts/contracts/ModifiableSoul.sol",
  "compiler": {
    "name": "solc",
    "version": "0.8.4+commit.c7e474f2.Emscripten.clang"
  },
  "schemaVersion": "3.4.1",
  "updatedAt": "2021-06-11T22:29:58.429Z",
  "devdoc": {
    "kind": "dev",
    "methods": {
      "approve(address,uint256)": {
        "details": "See {IERC721-approve}."
      },
      "balanceOf(address)": {
        "details": "See {IERC721-balanceOf}."
      },
      "getApproved(uint256)": {
        "details": "See {IERC721-getApproved}."
      },
      "isApprovedForAll(address,address)": {
        "details": "See {IERC721-isApprovedForAll}."
      },
      "name()": {
        "details": "See {IERC721Metadata-name}."
      },
      "ownerOf(uint256)": {
        "details": "See {IERC721-ownerOf}."
      },
      "safeTransferFrom(address,address,uint256)": {
        "details": "See {IERC721-safeTransferFrom}."
      },
      "safeTransferFrom(address,address,uint256,bytes)": {
        "details": "See {IERC721-safeTransferFrom}."
      },
      "setApprovalForAll(address,bool)": {
        "details": "See {IERC721-setApprovalForAll}."
      },
      "supportsInterface(bytes4)": {
        "details": "See {IERC165-supportsInterface}."
      },
      "symbol()": {
        "details": "See {IERC721Metadata-symbol}."
      },
      "tokenURI(uint256)": {
        "details": "See {IERC721Metadata-tokenURI}."
      },
      "transferFrom(address,address,uint256)": {
        "details": "See {IERC721-transferFrom}."
      }
    },
    "version": 1
  },
  "userdoc": {
    "kind": "user",
    "methods": {},
    "version": 1
  }
}