{
  "contractName": "NFSoul",
  "abi": [
    {
      "anonymous": false,
      "inputs": [
        {
          "indexed": true,
          "internalType": "address",
          "name": "account",
          "type": "address"
        }
      ],
      "name": "AdminAdded",
      "type": "event"
    },
    {
      "anonymous": false,
      "inputs": [
        {
          "indexed": true,
          "internalType": "address",
          "name": "account",
          "type": "address"
        }
      ],
      "name": "AdminRemoved",
      "type": "event"
    },
    {
      "anonymous": false,
      "inputs": [
        {
          "indexed": true,
          "internalType": "address",
          "name": "owner",
          "type": "address"
        },
        {
          "indexed": true,
          "internalType": "address",
          "name": "approved",
          "type": "address"
        },
        {
          "indexed": true,
          "internalType": "uint256",
          "name": "tokenId",
          "type": "uint256"
        }
      ],
      "name": "Approval",
      "type": "event"
    },
    {
      "anonymous": false,
      "inputs": [
        {
          "indexed": true,
          "internalType": "address",
          "name": "owner",
          "type": "address"
        },
        {
          "indexed": true,
          "internalType": "address",
          "name": "operator",
          "type": "address"
        },
        {
          "indexed": false,
          "internalType": "bool",
          "name": "approved",
          "type": "bool"
        }
      ],
      "name": "ApprovalForAll",
      "type": "event"
    },
    {
      "anonymous": false,
      "inputs": [
        {
          "indexed": false,
          "internalType": "uint256",
          "name": "soulId",
          "type": "uint256"
        },
        {
          "indexed": false,
          "internalType": "uint256",
          "name": "price",
          "type": "uint256"
        }
      ],
      "name": "AuctionStarted",
      "type": "event"
    },
    {
      "anonymous": false,
      "inputs": [
        {
          "indexed": true,
          "internalType": "address",
          "name": "oldBuyer",
          "type": "address"
        },
        {
          "indexed": true,
          "internalType": "address",
          "name": "newBuyer",
          "type": "address"
        },
        {
          "indexed": false,
          "internalType": "uint256",
          "name": "soulId",
          "type": "uint256"
        }
      ],
      "name": "BuyerChanged",
      "type": "event"
    },
    {
      "anonymous": false,
      "inputs": [
        {
          "indexed": false,
          "internalType": "uint256",
          "name": "soulId",
          "type": "uint256"
        },
        {
          "indexed": false,
          "internalType": "address",
          "name": "newCarrier",
          "type": "address"
        }
      ],
      "name": "CarrierChanged",
      "type": "event"
    },
    {
      "anonymous": false,
      "inputs": [
        {
          "indexed": true,
          "internalType": "address",
          "name": "from",
          "type": "address"
        },
        {
          "indexed": true,
          "internalType": "uint256",
          "name": "tokenId",
          "type": "uint256"
        },
        {
          "indexed": false,
          "internalType": "bytes32",
          "name": "mods",
          "type": "bytes32"
        }
      ],
      "name": "ModificationSetted",
      "type": "event"
    },
    {
      "anonymous": false,
      "inputs": [
        {
          "indexed": false,
          "internalType": "address",
          "name": "account",
          "type": "address"
        }
      ],
      "name": "Paused",
      "type": "event"
    },
    {
      "anonymous": false,
      "inputs": [
        {
          "indexed": false,
          "internalType": "address",
          "name": "sender",
          "type": "address"
        },
        {
          "indexed": false,
          "internalType": "uint256",
          "name": "value",
          "type": "uint256"
        }
      ],
      "name": "ReceiveUnknownPaymentFallback",
      "type": "event"
    },
    {
      "anonymous": false,
      "inputs": [
        {
          "indexed": false,
          "internalType": "address",
          "name": "sender",
          "type": "address"
        },
        {
          "indexed": false,
          "internalType": "uint256",
          "name": "value",
          "type": "uint256"
        }
      ],
      "name": "ReceiveUnknownPaymentRecieve",
      "type": "event"
    },
    {
      "anonymous": false,
      "inputs": [
        {
          "indexed": false,
          "internalType": "uint256",
          "name": "soulId",
          "type": "uint256"
        }
      ],
      "name": "SaleStoped",
      "type": "event"
    },
    {
      "anonymous": false,
      "inputs": [
        {
          "indexed": true,
          "internalType": "address",
          "name": "oldSeller",
          "type": "address"
        },
        {
          "indexed": true,
          "internalType": "address",
          "name": "newSeller",
          "type": "address"
        },
        {
          "indexed": false,
          "internalType": "uint256",
          "name": "soulId",
          "type": "uint256"
        }
      ],
      "name": "SellerChanged",
      "type": "event"
    },
    {
      "anonymous": false,
      "inputs": [
        {
          "indexed": true,
          "internalType": "address",
          "name": "buyer",
          "type": "address"
        },
        {
          "indexed": false,
          "internalType": "uint256",
          "name": "soulId",
          "type": "uint256"
        },
        {
          "indexed": false,
          "internalType": "uint256",
          "name": "price",
          "type": "uint256"
        }
      ],
      "name": "SoulBuyed",
      "type": "event"
    },
    {
      "anonymous": false,
      "inputs": [
        {
          "indexed": false,
          "internalType": "uint256",
          "name": "soulId",
          "type": "uint256"
        },
        {
          "indexed": false,
          "internalType": "address",
          "name": "owner",
          "type": "address"
        }
      ],
      "name": "SoulMinted",
      "type": "event"
    },
    {
      "anonymous": false,
      "inputs": [
        {
          "indexed": true,
          "internalType": "address",
          "name": "seller",
          "type": "address"
        },
        {
          "indexed": false,
          "internalType": "uint256",
          "name": "price",
          "type": "uint256"
        }
      ],
      "name": "SoulOnSale",
      "type": "event"
    },
    {
      "anonymous": false,
      "inputs": [
        {
          "indexed": false,
          "internalType": "uint256",
          "name": "soulId",
          "type": "uint256"
        }
      ],
      "name": "TestBuy",
      "type": "event"
    },
    {
      "anonymous": false,
      "inputs": [
        {
          "indexed": true,
          "internalType": "address",
          "name": "from",
          "type": "address"
        },
        {
          "indexed": true,
          "internalType": "address",
          "name": "to",
          "type": "address"
        },
        {
          "indexed": true,
          "internalType": "uint256",
          "name": "tokenId",
          "type": "uint256"
        }
      ],
      "name": "Transfer",
      "type": "event"
    },
    {
      "anonymous": false,
      "inputs": [
        {
          "indexed": false,
          "internalType": "address",
          "name": "account",
          "type": "address"
        }
      ],
      "name": "Unpaused",
      "type": "event"
    },
    {
      "stateMutability": "payable",
      "type": "fallback",
      "payable": true
    },
    {
      "inputs": [],
      "name": "_pieAddress",
      "outputs": [
        {
          "internalType": "address",
          "name": "",
          "type": "address"
        }
      ],
      "stateMutability": "view",
      "type": "function",
      "constant": true
    },
    {
      "inputs": [
        {
          "internalType": "uint8",
          "name": "maxModVal",
          "type": "uint8"
        },
        {
          "internalType": "uint8",
          "name": "maxMods",
          "type": "uint8"
        }
      ],
      "name": "_setModificationSettings",
      "outputs": [],
      "stateMutability": "nonpayable",
      "type": "function"
    },
    {
      "inputs": [
        {
          "internalType": "address",
          "name": "to",
          "type": "address"
        },
        {
          "internalType": "uint256",
          "name": "tokenId",
          "type": "uint256"
        }
      ],
      "name": "approve",
      "outputs": [],
      "stateMutability": "nonpayable",
      "type": "function"
    },
    {
      "inputs": [
        {
          "internalType": "uint256",
          "name": "soulId",
          "type": "uint256"
        }
      ],
      "name": "auctionInfo",
      "outputs": [
        {
          "components": [
            {
              "internalType": "address",
              "name": "owner",
              "type": "address"
            },
            {
              "internalType": "address",
              "name": "carrier",
              "type": "address"
            },
            {
              "internalType": "uint256",
              "name": "startedAt",
              "type": "uint256"
            },
            {
              "internalType": "uint256",
              "name": "freezeTime",
              "type": "uint256"
            },
            {
              "internalType": "uint256",
              "name": "duration",
              "type": "uint256"
            },
            {
              "internalType": "uint256",
              "name": "firstPrice",
              "type": "uint256"
            },
            {
              "internalType": "uint256",
              "name": "actualPrice",
              "type": "uint256"
            },
            {
              "internalType": "bool",
              "name": "isActive",
              "type": "bool"
            }
          ],
          "internalType": "struct ISoulAuction.Auction",
          "name": "",
          "type": "tuple"
        }
      ],
      "stateMutability": "view",
      "type": "function",
      "constant": true
    },
    {
      "inputs": [
        {
          "internalType": "address",
          "name": "owner",
          "type": "address"
        }
      ],
      "name": "balanceOf",
      "outputs": [
        {
          "internalType": "uint256",
          "name": "",
          "type": "uint256"
        }
      ],
      "stateMutability": "view",
      "type": "function",
      "constant": true
    },
    {
      "inputs": [
        {
          "internalType": "uint256",
          "name": "soulId",
          "type": "uint256"
        }
      ],
      "name": "bid",
      "outputs": [],
      "stateMutability": "payable",
      "type": "function",
      "payable": true
    },
    {
      "inputs": [
        {
          "internalType": "uint256",
          "name": "soulId",
          "type": "uint256"
        }
      ],
      "name": "buy",
      "outputs": [],
      "stateMutability": "payable",
      "type": "function",
      "payable": true
    },
    {
      "inputs": [
        {
          "internalType": "uint256",
          "name": "soulId",
          "type": "uint256"
        }
      ],
      "name": "carrierOf",
      "outputs": [
        {
          "internalType": "address",
          "name": "",
          "type": "address"
        }
      ],
      "stateMutability": "view",
      "type": "function",
      "constant": true
    },
    {
      "inputs": [
        {
          "internalType": "uint256",
          "name": "soulId",
          "type": "uint256"
        },
        {
          "internalType": "address",
          "name": "newCarrier",
          "type": "address"
        }
      ],
      "name": "changeCarrier",
      "outputs": [],
      "stateMutability": "nonpayable",
      "type": "function"
    },
    {
      "inputs": [
        {
          "internalType": "uint256",
          "name": "soulId",
          "type": "uint256"
        },
        {
          "internalType": "address",
          "name": "newSellerAddress",
          "type": "address"
        }
      ],
      "name": "changeSeller",
      "outputs": [],
      "stateMutability": "nonpayable",
      "type": "function"
    },
    {
      "inputs": [
        {
          "internalType": "uint256",
          "name": "soulId",
          "type": "uint256"
        },
        {
          "internalType": "uint256",
          "name": "price",
          "type": "uint256"
        }
      ],
      "name": "firstSale",
      "outputs": [],
      "stateMutability": "nonpayable",
      "type": "function"
    },
    {
      "inputs": [],
      "name": "getAllSoul",
      "outputs": [
        {
          "internalType": "uint256[]",
          "name": "",
          "type": "uint256[]"
        }
      ],
      "stateMutability": "view",
      "type": "function",
      "constant": true
    },
    {
      "inputs": [
        {
          "internalType": "uint256",
          "name": "tokenId",
          "type": "uint256"
        }
      ],
      "name": "getApproved",
      "outputs": [
        {
          "internalType": "address",
          "name": "",
          "type": "address"
        }
      ],
      "stateMutability": "view",
      "type": "function",
      "constant": true
    },
    {
      "inputs": [
        {
          "internalType": "uint256",
          "name": "soulId",
          "type": "uint256"
        }
      ],
      "name": "getCurrentPrice",
      "outputs": [
        {
          "internalType": "uint256",
          "name": "",
          "type": "uint256"
        }
      ],
      "stateMutability": "view",
      "type": "function",
      "constant": true
    },
    {
      "inputs": [
        {
          "internalType": "uint256",
          "name": "soulId",
          "type": "uint256"
        }
      ],
      "name": "getDonorMod",
      "outputs": [
        {
          "internalType": "uint8[]",
          "name": "",
          "type": "uint8[]"
        }
      ],
      "stateMutability": "view",
      "type": "function",
      "constant": true
    },
    {
      "inputs": [
        {
          "internalType": "uint256",
          "name": "soulId",
          "type": "uint256"
        }
      ],
      "name": "getInfoAboutSale",
      "outputs": [
        {
          "components": [
            {
              "internalType": "uint256",
              "name": "startedAt",
              "type": "uint256"
            },
            {
              "internalType": "address",
              "name": "seller",
              "type": "address"
            },
            {
              "internalType": "address",
              "name": "buyer",
              "type": "address"
            },
            {
              "internalType": "uint256",
              "name": "price",
              "type": "uint256"
            },
            {
              "internalType": "bool",
              "name": "onSale",
              "type": "bool"
            }
          ],
          "internalType": "struct ISoulMarket.Sale",
          "name": "",
          "type": "tuple"
        }
      ],
      "stateMutability": "view",
      "type": "function",
      "constant": true
    },
    {
      "inputs": [
        {
          "internalType": "address",
          "name": "carrier",
          "type": "address"
        }
      ],
      "name": "getSoul",
      "outputs": [
        {
          "internalType": "uint256[]",
          "name": "soulIds",
          "type": "uint256[]"
        }
      ],
      "stateMutability": "view",
      "type": "function",
      "constant": true
    },
    {
      "inputs": [
        {
          "internalType": "uint256",
          "name": "soulId",
          "type": "uint256"
        }
      ],
      "name": "getSoulModifications",
      "outputs": [
        {
          "internalType": "bytes32",
          "name": "",
          "type": "bytes32"
        }
      ],
      "stateMutability": "view",
      "type": "function",
      "constant": true
    },
    {
      "inputs": [
        {
          "internalType": "address",
          "name": "person",
          "type": "address"
        }
      ],
      "name": "hasSoul",
      "outputs": [
        {
          "internalType": "bool",
          "name": "",
          "type": "bool"
        }
      ],
      "stateMutability": "view",
      "type": "function",
      "constant": true
    },
    {
      "inputs": [
        {
          "internalType": "address",
          "name": "owner",
          "type": "address"
        },
        {
          "internalType": "address",
          "name": "operator",
          "type": "address"
        }
      ],
      "name": "isApprovedForAll",
      "outputs": [
        {
          "internalType": "bool",
          "name": "",
          "type": "bool"
        }
      ],
      "stateMutability": "view",
      "type": "function",
      "constant": true
    },
    {
      "inputs": [
        {
          "internalType": "uint256",
          "name": "soulId",
          "type": "uint256"
        }
      ],
      "name": "mint",
      "outputs": [],
      "stateMutability": "payable",
      "type": "function",
      "payable": true
    },
    {
      "inputs": [],
      "name": "modificationSettings",
      "outputs": [
        {
          "internalType": "uint8",
          "name": "",
          "type": "uint8"
        },
        {
          "internalType": "uint8",
          "name": "",
          "type": "uint8"
        }
      ],
      "stateMutability": "view",
      "type": "function",
      "constant": true
    },
    {
      "inputs": [],
      "name": "name",
      "outputs": [
        {
          "internalType": "string",
          "name": "",
          "type": "string"
        }
      ],
      "stateMutability": "view",
      "type": "function",
      "constant": true
    },
    {
      "inputs": [
        {
          "internalType": "uint256",
          "name": "tokenId",
          "type": "uint256"
        }
      ],
      "name": "ownerOf",
      "outputs": [
        {
          "internalType": "address",
          "name": "",
          "type": "address"
        }
      ],
      "stateMutability": "view",
      "type": "function",
      "constant": true
    },
    {
      "inputs": [],
      "name": "paused",
      "outputs": [
        {
          "internalType": "bool",
          "name": "",
          "type": "bool"
        }
      ],
      "stateMutability": "view",
      "type": "function",
      "constant": true
    },
    {
      "inputs": [
        {
          "internalType": "address",
          "name": "from",
          "type": "address"
        },
        {
          "internalType": "address",
          "name": "to",
          "type": "address"
        },
        {
          "internalType": "uint256",
          "name": "tokenId",
          "type": "uint256"
        }
      ],
      "name": "safeTransferFrom",
      "outputs": [],
      "stateMutability": "nonpayable",
      "type": "function"
    },
    {
      "inputs": [
        {
          "internalType": "address",
          "name": "from",
          "type": "address"
        },
        {
          "internalType": "address",
          "name": "to",
          "type": "address"
        },
        {
          "internalType": "uint256",
          "name": "tokenId",
          "type": "uint256"
        },
        {
          "internalType": "bytes",
          "name": "_data",
          "type": "bytes"
        }
      ],
      "name": "safeTransferFrom",
      "outputs": [],
      "stateMutability": "nonpayable",
      "type": "function"
    },
    {
      "inputs": [
        {
          "internalType": "uint256",
          "name": "soulId",
          "type": "uint256"
        },
        {
          "internalType": "uint256",
          "name": "price",
          "type": "uint256"
        }
      ],
      "name": "sale",
      "outputs": [],
      "stateMutability": "nonpayable",
      "type": "function"
    },
    {
      "inputs": [
        {
          "internalType": "address",
          "name": "operator",
          "type": "address"
        },
        {
          "internalType": "bool",
          "name": "approved",
          "type": "bool"
        }
      ],
      "name": "setApprovalForAll",
      "outputs": [],
      "stateMutability": "nonpayable",
      "type": "function"
    },
    {
      "inputs": [
        {
          "internalType": "uint256",
          "name": "soulId",
          "type": "uint256"
        }
      ],
      "name": "setModification",
      "outputs": [],
      "stateMutability": "nonpayable",
      "type": "function"
    },
    {
      "inputs": [
        {
          "internalType": "uint256",
          "name": "soulId",
          "type": "uint256"
        }
      ],
      "name": "stopSale",
      "outputs": [],
      "stateMutability": "nonpayable",
      "type": "function"
    },
    {
      "inputs": [
        {
          "internalType": "bytes4",
          "name": "interfaceId",
          "type": "bytes4"
        }
      ],
      "name": "supportsInterface",
      "outputs": [
        {
          "internalType": "bool",
          "name": "",
          "type": "bool"
        }
      ],
      "stateMutability": "view",
      "type": "function",
      "constant": true
    },
    {
      "inputs": [],
      "name": "symbol",
      "outputs": [
        {
          "internalType": "string",
          "name": "",
          "type": "string"
        }
      ],
      "stateMutability": "view",
      "type": "function",
      "constant": true
    },
    {
      "inputs": [
        {
          "internalType": "uint256",
          "name": "tokenId",
          "type": "uint256"
        }
      ],
      "name": "tokenURI",
      "outputs": [
        {
          "internalType": "string",
          "name": "",
          "type": "string"
        }
      ],
      "stateMutability": "view",
      "type": "function",
      "constant": true
    },
    {
      "inputs": [
        {
          "internalType": "address",
          "name": "from",
          "type": "address"
        },
        {
          "internalType": "address",
          "name": "to",
          "type": "address"
        },
        {
          "internalType": "uint256",
          "name": "tokenId",
          "type": "uint256"
        }
      ],
      "name": "transferFrom",
      "outputs": [],
      "stateMutability": "nonpayable",
      "type": "function"
    },
    {
      "stateMutability": "payable",
      "type": "receive",
      "payable": true
    },
    {
      "inputs": [
        {
          "internalType": "uint256",
          "name": "soulId",
          "type": "uint256"
        }
      ],
      "name": "soulExists",
      "outputs": [
        {
          "internalType": "bool",
          "name": "",
          "type": "bool"
        }
      ],
      "stateMutability": "view",
      "type": "function",
      "constant": true
    },
    {
      "inputs": [
        {
          "internalType": "address",
          "name": "account",
          "type": "address"
        }
      ],
      "name": "initialize",
      "outputs": [],
      "stateMutability": "nonpayable",
      "type": "function"
    },
    {
      "inputs": [
        {
          "internalType": "uint256",
          "name": "soulId",
          "type": "uint256"
        }
      ],
      "name": "reclaimSoul",
      "outputs": [],
      "stateMutability": "nonpayable",
      "type": "function"
    },
    {
      "inputs": [
        {
          "internalType": "uint256",
          "name": "soulId",
          "type": "uint256"
        }
      ],
      "name": "returnSoulToAuction",
      "outputs": [],
      "stateMutability": "nonpayable",
      "type": "function"
    },
    {
      "inputs": [
        {
          "internalType": "uint256",
          "name": "soulId",
          "type": "uint256"
        }
      ],
      "name": "getActualPrice",
      "outputs": [],
      "stateMutability": "view",
      "type": "function",
      "constant": true
    },
    {
      "inputs": [
        {
          "internalType": "uint256",
          "name": "soulId",
          "type": "uint256"
        }
      ],
      "name": "timeIsOver",
      "outputs": [],
      "stateMutability": "view",
      "type": "function",
      "constant": true
    },
    {
      "inputs": [
        {
          "internalType": "uint256",
          "name": "soulId",
          "type": "uint256"
        }
      ],
      "name": "updateAuction",
      "outputs": [],
      "stateMutability": "nonpayable",
      "type": "function"
    },
    {
      "inputs": [
        {
          "internalType": "address",
          "name": "addr",
          "type": "address"
        }
      ],
      "name": "addAdmin",
      "outputs": [],
      "stateMutability": "nonpayable",
      "type": "function"
    },
    {
      "inputs": [
        {
          "internalType": "address",
          "name": "account",
          "type": "address"
        }
      ],
      "name": "isAdmin",
      "outputs": [
        {
          "internalType": "bool",
          "name": "",
          "type": "bool"
        }
      ],
      "stateMutability": "view",
      "type": "function",
      "constant": true
    },
    {
      "inputs": [
        {
          "internalType": "address",
          "name": "addr",
          "type": "address"
        }
      ],
      "name": "removeAdmin",
      "outputs": [],
      "stateMutability": "nonpayable",
      "type": "function"
    },
    {
      "inputs": [],
      "name": "pause",
      "outputs": [],
      "stateMutability": "nonpayable",
      "type": "function"
    },
    {
      "inputs": [],
      "name": "unpause",
      "outputs": [],
      "stateMutability": "nonpayable",
      "type": "function"
    },
    {
      "inputs": [],
      "name": "getPauseStatus",
      "outputs": [
        {
          "internalType": "bool",
          "name": "",
          "type": "bool"
        }
      ],
      "stateMutability": "view",
      "type": "function",
      "constant": true
    },
    {
      "inputs": [
        {
          "internalType": "uint256",
          "name": "piece",
          "type": "uint256"
        }
      ],
      "name": "setServicePiece",
      "outputs": [],
      "stateMutability": "nonpayable",
      "type": "function"
    },
    {
      "inputs": [
        {
          "internalType": "uint256",
          "name": "piece",
          "type": "uint256"
        }
      ],
      "name": "setOwnerPiece",
      "outputs": [],
      "stateMutability": "nonpayable",
      "type": "function"
    },
    {
      "inputs": [
        {
          "internalType": "address",
          "name": "pieToken",
          "type": "address"
        }
      ],
      "name": "setPieAddress",
      "outputs": [],
      "stateMutability": "nonpayable",
      "type": "function"
    },
    {
      "inputs": [
        {
          "internalType": "uint256",
          "name": "auctionTime",
          "type": "uint256"
        }
      ],
      "name": "setDuration",
      "outputs": [],
      "stateMutability": "nonpayable",
      "type": "function"
    },
    {
      "inputs": [
        {
          "internalType": "uint256",
          "name": "minPrice",
          "type": "uint256"
        }
      ],
      "name": "setMinPrice",
      "outputs": [],
      "stateMutability": "nonpayable",
      "type": "function"
    },
    {
      "inputs": [
        {
          "internalType": "uint256",
          "name": "soulId",
          "type": "uint256"
        },
        {
          "internalType": "uint8",
          "name": "typeMod",
          "type": "uint8"
        }
      ],
      "name": "setDonorMod",
      "outputs": [],
      "stateMutability": "nonpayable",
      "type": "function"
    }
  ],
  "bytecode": "0x608060405234801561001057600080fd5b506137e0806100206000396000f3fe6080604052600436106102695760003560e01c806301ffc9a714610314578063026d7f831461034957806306fdde031461036b578063081812fc1461038d578063095ea7b3146103ba5780630a8ab9a1146103da5780630e9362cc146103fa5780630fa7dcab1461041a5780631785f53c1461043a5780631c35f9621461045a5780631d9023cb1461047a5780632036e7321461048f57806323b872dd146104ad57806324d7806c146104cd578063273cd680146104ed578063283aa5941461050d578063319921241461052d5780633237307d1461054d5780633f4ba83a1461057b57806342842e0e14610590578063454a2ab3146105b0578063524a919f146105c35780635641894d146105e35780635ac36fbd146106505780635c975abb146106705780635ea8cd12146106885780636352211e146106a85780636551b2ce146106c857806366cfe97f146106e8578063704802751461071557806370a082311461073557806372118fcd146107555780638456cb5914610775578063929771921461078a578063957a867c146107b957806395d89b4114610848578063a0712d681461085d578063a22cb46514610870578063a6ebd54314610890578063aedc8e38146108b0578063b44dd2b5146108d0578063b88d4fde146108e5578063bdd7520214610905578063c4d66de814610925578063c55d0f5614610945578063c87b56dd14610975578063cebcb0d414610995578063d96a094a146109c2578063de67d9f6146109d5578063def2f0eb146109f5578063e985e9c514610a15578063ea62ad0514610a35578063f6be71d114610a55578063f8dd1f7614610a75576102e3565b366102e3577fd9b9a1a22d4c45b7f89d240c58161a4f574a02e9260c2383522be2850b8fbaea333460405161029f92919061345b565b60405180910390a160a2546040516001600160a01b03909116903480156108fc02916000818181858888f193505050501580156102e0573d6000803e3d6000fd5b50005b7ff4636bc3188e39cf2ac35839c44551623fea0a2da16669f2c3f2d2b2803deaf5333460405161029f92919061345b565b34801561032057600080fd5b5061033461032f3660046132d1565b610a95565b60405190151581526020015b60405180910390f35b34801561035557600080fd5b50610369610364366004613364565b610ae7565b005b34801561037757600080fd5b50610380610af5565b60405161034091906134f3565b34801561039957600080fd5b506103ad6103a8366004613309565b610b87565b604051610340919061340a565b3480156103c657600080fd5b506103696103d53660046132a8565b610c14565b3480156103e657600080fd5b506103696103f5366004613113565b610d25565b34801561040657600080fd5b50610369610415366004613309565b610d2e565b34801561042657600080fd5b50610369610435366004613386565b610d37565b34801561044657600080fd5b50610369610455366004613113565b610da0565b34801561046657600080fd5b50610369610475366004613343565b610da9565b34801561048657600080fd5b50610334610f17565b34801561049b57600080fd5b506103696104aa366004613309565b50565b3480156104b957600080fd5b506103696104c836600461315f565b610f2a565b3480156104d957600080fd5b506103346104e8366004613113565b610f5b565b3480156104f957600080fd5b5060a2546103ad906001600160a01b031681565b34801561051957600080fd5b50610369610528366004613321565b610f66565b34801561053957600080fd5b50610369610548366004613309565b610feb565b34801561055957600080fd5b5061056d610568366004613309565b610ff4565b604051908152602001610340565b34801561058757600080fd5b5061036961101b565b34801561059c57600080fd5b506103696105ab36600461315f565b611025565b6103696105be366004613309565b611040565b3480156105cf57600080fd5b506103696105de366004613309565b6112e0565b3480156105ef57600080fd5b506106036105fe366004613309565b6112e9565b60408051825181526020808401516001600160a01b03908116918301919091528383015116918101919091526060808301519082015260809182015115159181019190915260a001610340565b34801561065c57600080fd5b5061036961066b366004613309565b611375565b34801561067c57600080fd5b5060a85460ff16610334565b34801561069457600080fd5b506103696106a3366004613309565b61137e565b3480156106b457600080fd5b506103ad6106c3366004613309565b611387565b3480156106d457600080fd5b506103ad6106e3366004613309565b6113fe565b3480156106f457600080fd5b50610708610703366004613113565b611466565b6040516103409190613474565b34801561072157600080fd5b50610369610730366004613113565b6114d2565b34801561074157600080fd5b5061056d610750366004613113565b6114db565b34801561076157600080fd5b50610334610770366004613309565b611562565b34801561078157600080fd5b5061036961156d565b34801561079657600080fd5b50609b546040805160ff8084168252610100909304909216602083015201610340565b3480156107c557600080fd5b506107d96107d4366004613309565b611575565b604051610340919060006101008201905060018060a01b038084511683528060208501511660208401525060408301516040830152606083015160608301526080830151608083015260a083015160a083015260c083015160c083015260e0830151151560e083015292915050565b34801561085457600080fd5b50610380611672565b61036961086b366004613309565b611681565b34801561087c57600080fd5b5061036961088b36600461326e565b61181a565b34801561089c57600080fd5b506103696108ab366004613309565b6118dc565b3480156108bc57600080fd5b506103696108cb366004613309565b611970565b3480156108dc57600080fd5b50610708611979565b3480156108f157600080fd5b5061036961090036600461319a565b6119d0565b34801561091157600080fd5b50610334610920366004613113565b611a08565b34801561093157600080fd5b50610369610940366004613113565b611a1b565b34801561095157600080fd5b5061056d610960366004613309565b600090815260a1602052604090206006015490565b34801561098157600080fd5b50610380610990366004613309565b611ad1565b3480156109a157600080fd5b506109b56109b0366004613309565b611ba9565b60405161034091906134b8565b6103696109d0366004613309565b611c37565b3480156109e157600080fd5b506103696109f0366004613309565b611ecd565b348015610a0157600080fd5b50610369610a10366004613321565b611ed6565b348015610a2157600080fd5b50610334610a3036600461312d565b611ee0565b348015610a4157600080fd5b50610369610a50366004613343565b611f0e565b348015610a6157600080fd5b50610369610a70366004613309565b61208e565b348015610a8157600080fd5b50610369610a90366004613309565b612097565b60006001600160e01b031982166380ac58cd60e01b1480610ac657506001600160e01b03198216635b5e139f60e01b145b80610ae157506301ffc9a760e01b6001600160e01b03198316145b92915050565b610af182826120bd565b5050565b606060658054610b04906136a8565b80601f0160208091040260200160405190810160405280929190818152602001828054610b30906136a8565b8015610b7d5780601f10610b5257610100808354040283529160200191610b7d565b820191906000526020600020905b815481529060010190602001808311610b6057829003601f168201915b5050505050905090565b6000610b9282612125565b610bf85760405162461bcd60e51b815260206004820152602c60248201527f4552433732313a20617070726f76656420717565727920666f72206e6f6e657860448201526b34b9ba32b73a103a37b5b2b760a11b60648201526084015b60405180910390fd5b506000908152606960205260409020546001600160a01b031690565b6000610c1f82611387565b9050806001600160a01b0316836001600160a01b03161415610c8d5760405162461bcd60e51b815260206004820152602160248201527f4552433732313a20617070726f76616c20746f2063757272656e74206f776e656044820152603960f91b6064820152608401610bef565b336001600160a01b0382161480610ca95750610ca98133611ee0565b610d165760405162461bcd60e51b815260206004820152603860248201527f4552433732313a20617070726f76652063616c6c6572206973206e6f74206f776044820152771b995c881b9bdc88185c1c1c9bdd995908199bdc88185b1b60421b6064820152608401610bef565b610d208383612142565b505050565b6104aa816121b0565b6104aa816121f7565b610d4032612221565b610d5c5760405162461bcd60e51b8152600401610bef906135f7565b60ff8260ff1610610d6c57600080fd5b60208160ff1610610d7c57600080fd5b609b805460ff9283166101000261ffff199091169290931691909117919091179055565b6104aa8161223f565b32610db3836113fe565b6001600160a01b031614610dfe5760405162461bcd60e51b8152602060048201526012602482015271596f7520617265206e6f74206f776e65722160701b6044820152606401610bef565b600082815260a0602052604090206004015460ff1615610e525760405162461bcd60e51b815260206004820152600f60248201526e53616c65206973206f70656e65642160881b6044820152606401610bef565b6040805160a080820183524282523260208084018281526000858701818152606087018981526001608089018181528c85529786529289902097518855925191870180546001600160a01b03199081166001600160a01b03948516179091559051600288018054909216921691909117905551600385015591516004909301805460ff191693151593909317909255915183815290917f76f519ddcb2c54b2e28cf6cc1a2dfee150411bb675c78c0eef6f6388559893a6910160405180910390a25050565b6000610f2560a85460ff1690565b905090565b610f3433826122ad565b610f505760405162461bcd60e51b8152600401610bef906135a6565b610d20838383612377565b6000610ae182612221565b6000828152609e6020908152604080832080546001600160a01b0319166001600160a01b0386169081179091558352609f825280832080546001810182559084529190922001839055517f649ac2249366264ba74a84d97e2e86f4490c06d225655797956313f613b9bade90610fdf9084908490613622565b60405180910390a15050565b610af181612505565b6000610fff82612125565b61100857600080fd5b5060009081526099602052604090205490565b6110236125ab565b565b610d20838383604051806020016040528060008152506119d0565b61104981612125565b61108b5760405162461bcd60e51b8152602060048201526013602482015272536f756c20646f65736e27742065786973747360681b6044820152606401610bef565b600081815260a1602052604090206007015460ff1615156001146110e05760405162461bcd60e51b815260206004820152600c60248201526b4e6f7420666f722073616c6560a01b6044820152606401610bef565b6110e9326114db565b61112f5760405162461bcd60e51b8152602060048201526017602482015276596f752073686f756c642068617665206120736f756c2160481b6044820152606401610bef565b600060a55460a65460a75461114385612638565b61114d9190613639565b6111579190613639565b6111619190613639565b9050348110156111a65760405162461bcd60e51b815260206004820152601060248201526f6e6f7420656e6f756768206d6f6e657960801b6044820152606401610bef565b6000806111b2846126ef565b91509150600060a55460a654346111c99190613665565b6111d39190613665565b9050600060a554826111e59190613665565b905060006111f38284613665565b6040519091506001600160a01b0385169084156108fc029085906000818181858888f1935050505015801561122c573d6000803e3d6000fd5b506040516001600160a01b0386169083156108fc029084906000818181858888f19350505050158015611263573d6000803e3d6000fd5b5060a2546040516001600160a01b039091169082156108fc029083906000818181858888f1935050505015801561129e573d6000803e3d6000fd5b506112cd87826112ae8587613639565b6112b89190613639565b600091825260a1602052604090912060060155565b6112d78733612716565b50505050505050565b6104aa8161277c565b6040805160a08101825260008082526020820181905291810182905260608101829052608081019190915250600090815260a06020818152604092839020835192830184528054835260018101546001600160a01b03908116928401929092526002810154909116928201929092526003820154606082015260049091015460ff161515608082015290565b6104aa816127c7565b6104aa816127ff565b6000818152606760205260408120546001600160a01b031680610ae15760405162461bcd60e51b815260206004820152602960248201527f4552433732313a206f776e657220717565727920666f72206e6f6e657869737460448201526832b73a103a37b5b2b760b91b6064820152608401610bef565b600061140982612125565b61144a5760405162461bcd60e51b815260206004820152601260248201527114dbdd5b08191bd95cdb89dd08195e1a5cdd60721b6044820152606401610bef565b506000908152609e60205260409020546001600160a01b031690565b6001600160a01b0381166000908152609f60209081526040918290208054835181840281018401909452808452606093928301828280156114c657602002820191906000526020600020905b8154815260200190600101908083116114b2575b50505050509050919050565b6104aa81612829565b60006001600160a01b0382166115465760405162461bcd60e51b815260206004820152602a60248201527f4552433732313a2062616c616e636520717565727920666f7220746865207a65604482015269726f206164647265737360b01b6064820152608401610bef565b506001600160a01b031660009081526068602052604090205490565b6000610ae182612125565b611023612888565b6115d160405180610100016040528060006001600160a01b0316815260200160006001600160a01b0316815260200160008152602001600081526020016000815260200160008152602001600081526020016000151581525090565b6115da82612125565b6115e357600080fd5b600082815260a1602090815260409182902082516101008101845281546001600160a01b039081168252600183015416928101929092526002810154928201929092526003820154606082015260048201546080820152600582015460a0820152600682015460c082015260079091015460ff16151560e082015261166783612638565b60c082015292915050565b606060668054610b04906136a8565b61168a336114db565b156116d35760405162461bcd60e51b8152602060048201526019602482015278165bdd48185b1c9958591e481b5a5b9d081e5bdd481cdbdd5b603a1b6044820152606401610bef565b6207a1203410156117215760405162461bcd60e51b81526020600482015260186024820152776e6f7420656e6f7567682076616c756520666f722066656560401b6044820152606401610bef565b61172b3282612903565b6000818152609e6020908152604080832080546001600160a01b031916329081179091558352609f8252808320805460018181018355918552928420909201849055609d8054928301815583527fd26e832454299e9fabb89e0e5fffdc046d4e14431bc1bf607ffb2e8a1ddecf7b9091018390555173c6c6e7edab89a39ffc9db19cdd46c5c639964daa913480156108fc02929091818181858888f193505050501580156117dd573d6000803e3d6000fd5b507f74859dbf8c28f71c8bc3a8e45de0d55d3c9c642375a2f8acdc3e84ed3de0a3c1813260405161180f929190613622565b60405180910390a150565b6001600160a01b03821633141561186f5760405162461bcd60e51b815260206004820152601960248201527822a9219b99189d1030b8383937bb32903a379031b0b63632b960391b6044820152606401610bef565b336000818152606a602090815260408083206001600160a01b03871680855290835292819020805460ff191686151590811790915590519081529192917f17307eab39ab6107e8899845ad3d59bd9653f200f220920489ca2b5937696c3191015b60405180910390a35050565b600081815260996020526040902054156118f557600080fd5b60408051436020820181905240918101919091526060810182905260009060800160408051808303601f19018152828252805160209182012060008681526099835292909220829055818352909250839132917f2d1c087923bb29c979975262d5f9b5bccdcbeb3c0bbc9fc5d9e303d7abf639b891016118d0565b610af181612638565b6060609d805480602002602001604051908101604052809291908181526020018280548015610b7d57602002820191906000526020600020905b8154815260200190600101908083116119b3575050505050905090565b6119da33836122ad565b6119f65760405162461bcd60e51b8152600401610bef906135a6565b611a028484848461291d565b50505050565b600080611a14836114db565b1192915050565b600054610100900460ff1680611a34575060005460ff16155b611a505760405162461bcd60e51b8152600401610bef90613558565b600054610100900460ff16158015611a72576000805461ffff19166101011790555b611a7b82612950565b611abc6040518060400160405280600481526020016314dbdd5b60e21b815250604051806040016040528060038152602001624e465360e81b8152506129e2565b8015610af1576000805461ff00191690555050565b6060611adc82612125565b611b405760405162461bcd60e51b815260206004820152602f60248201527f4552433732314d657461646174613a2055524920717565727920666f72206e6f60448201526e3732bc34b9ba32b73a103a37b5b2b760891b6064820152608401610bef565b6000611b5760408051602081019091526000815290565b90506000815111611b775760405180602001604052806000815250611ba2565b80611b8184612a69565b604051602001611b929291906133db565b6040516020818303038152906040525b9392505050565b6000818152609a602090815260408083208151815480850282018401845293810184815260609594919384928491840182828015611c2457602002820191906000526020600020906000905b825461010083900a900460ff16815260206001928301818104948501949093039092029101808411611bf55790505b5050509190925250509051949350505050565b611c4081612125565b611c815760405162461bcd60e51b815260206004820152601260248201527114dbdd5b08191bd95cdb89de48195e1a5cdd60721b6044820152606401610bef565b32611c8b826113fe565b6001600160a01b03161415611cd35760405162461bcd60e51b815260206004820152600e60248201526d596f7520617265206f776e65722160901b6044820152606401610bef565b600081815260a0602052604090206004015460ff16611d285760405162461bcd60e51b8152602060048201526011602482015270536f756c206e6f7420666f722073616c6560781b6044820152606401610bef565b600081815260a06020526040902060030154341015611d7c5760405162461bcd60e51b815260206004820152601060248201526f4e6f7420656e6f7567682076616c756560801b6044820152606401610bef565b611d8532611a08565b611dca5760405162461bcd60e51b8152602060048201526016602482015275165bdd481cda1bdd5b19081a185d994818481cdbdd5b60521b6044820152606401610bef565b6000611dd5826112e9565b90506000816060015134611de99190613665565b90508015611e2057604051329082156108fc029083906000818181858888f19350505050158015611e1e573d6000803e3d6000fd5b505b600083815260a060205260409020600101546001600160a01b03166108fc611e488334613665565b6040518115909202916000818181858888f19350505050158015611e70573d6000803e3d6000fd5b50611e7b8332610f66565b611e858332612b82565b611e8e83612be2565b6040805184815234602082015232917fdd85ec7d965e6b26848609ec8720d2154b613e347f427ab82ee784236b28bbf3910160405180910390a2505050565b6104aa81612c2d565b610af18282612c57565b6001600160a01b039182166000908152606a6020908152604080832093909416825291909152205460ff1690565b32611f18836113fe565b6001600160a01b031614611f2b57600080fd5b32611f3583611387565b6001600160a01b031614611f4857600080fd5b600082815260a1602052604090206007015460ff1615611f6757600080fd5b604051806101000160405280611f7c84611387565b6001600160a01b03168152602001611f93846113fe565b6001600160a01b0390811682524260208084019190915260a35460408085019190915260a454606080860191909152608080860188905260a0808701899052600160c097880181905260008b815260a18752859020895181549089166001600160a01b03199182161782558a8801519282018054939099169216919091179096558784015160028701559187015160038601558601516004850155850151600584015592840151600683015560e0909301516007909101805491151560ff1990921691909117905580518481529182018390527ff8910119ddbef5440c54532457dfe8250a10ed39e583292818f44724b9e1344c9101610fdf565b6104aa81612cb7565b336120a1826113fe565b6001600160a01b0316146120b457600080fd5b6104aa81612be2565b6120c632612221565b6120e25760405162461bcd60e51b8152600401610bef906135f7565b6000918252609a60209081526040832080546001810182559084529281902090830401805460ff928316601f9094166101000a9384029290930219909216179055565b6000908152606760205260409020546001600160a01b0316151590565b600081815260696020526040902080546001600160a01b0319166001600160a01b038416908117909155819061217782611387565b6001600160a01b03167f8c5be1e5ebec7d5bd14f71427d1e84f3dd0314c0f7b2291e5b200ac8c7c3b92560405160405180910390a45050565b6121b932612221565b6121d55760405162461bcd60e51b8152600401610bef906135f7565b60a280546001600160a01b0319166001600160a01b0392909216919091179055565b61220032612221565b61221c5760405162461bcd60e51b8152600401610bef906135f7565b60a655565b6001600160a01b031660009081526097602052604090205460ff1690565b61224832612221565b6122645760405162461bcd60e51b8152600401610bef906135f7565b6001600160a01b038116600081815260976020526040808220805460ff19169055517fa3b62bc36326052d97ea62d63c3d60308ed4c3ea8ac079dd8499f1e9c4f80c0f9190a250565b60006122b882612125565b6123195760405162461bcd60e51b815260206004820152602c60248201527f4552433732313a206f70657261746f7220717565727920666f72206e6f6e657860448201526b34b9ba32b73a103a37b5b2b760a11b6064820152608401610bef565b600061232483611387565b9050806001600160a01b0316846001600160a01b0316148061235f5750836001600160a01b031661235484610b87565b6001600160a01b0316145b8061236f575061236f8185611ee0565b949350505050565b826001600160a01b031661238a82611387565b6001600160a01b0316146123f25760405162461bcd60e51b815260206004820152602960248201527f4552433732313a207472616e73666572206f6620746f6b656e2074686174206960448201526839903737ba1037bbb760b91b6064820152608401610bef565b6001600160a01b0382166124545760405162461bcd60e51b8152602060048201526024808201527f4552433732313a207472616e7366657220746f20746865207a65726f206164646044820152637265737360e01b6064820152608401610bef565b61245f600082612142565b6001600160a01b0383166000908152606860205260408120805460019290612488908490613665565b90915550506001600160a01b03821660009081526068602052604081208054600192906124b6908490613639565b909155505060008181526067602052604080822080546001600160a01b0319166001600160a01b03868116918217909255915184939187169160008051602061378b83398151915291a4505050565b600081815260a16020908152604080832081516101008101835281546001600160a01b0390811682526001830154169381019390935260028101549183018290526003810154606084015260048101546080840152600581015460a0840152600681015460c08401526007015460ff16151560e08301528290612589904290612ce1565b905081608001518111156125a1575060019392505050565b5060009392505050565b60a85460ff166125f45760405162461bcd60e51b815260206004820152601460248201527314185d5cd8589b194e881b9bdd081c185d5cd95960621b6044820152606401610bef565b60a8805460ff191690557f5db9ee0a495bf2e6ff9c91a7834c1ba4fdd244a5e8aa4e537bd38aeae4b073aa335b60405161262e919061340a565b60405180910390a1565b600081815260a16020908152604080832081516101008101835281546001600160a01b0390811682526001830154169381019390935260028101549183018290526003810154606084015260048101546080840152600581015460a0840152600681015460c08401526007015460ff16151560e083015282906126bc904290612ce1565b905060006126c985612505565b156126d7575060a75461236f565b60c08301516126e69083612ce1565b95945050505050565b60008060006126fd84611387565b9050600061270a856113fe565b91959194509092505050565b6000828152609e60205260409020546001600160a01b03163214610f665760405162461bcd60e51b815260206004820181905260248201527f596f7520617265206e6f742063617272696572206f66207468697320736f756c6044820152606401610bef565b61278581612125565b61278e57600080fd5b33612798826113fe565b6001600160a01b0316146127ab57600080fd5b600081815260a160205260408120600701805460ff1916905580fd5b336127d1826113fe565b6001600160a01b0316146127e457600080fd5b600090815260a160205260409020600701805460ff19169055565b61280832612221565b6128245760405162461bcd60e51b8152600401610bef906135f7565b60a755565b61283232612221565b61284e5760405162461bcd60e51b8152600401610bef906135f7565b6001600160a01b038116600081815260976020526040808220805460ff191660011790555160008051602061376b8339815191529190a250565b60a85460ff16156128ce5760405162461bcd60e51b815260206004820152601060248201526f14185d5cd8589b194e881c185d5cd95960821b6044820152606401610bef565b60a8805460ff191660011790557f62e78cea01bee320cd4e420270b5ea74000d11b0c9f74754ebdbfc544b05a2586126213390565b610af1828260405180602001604052806000815250612ced565b612928848484612377565b61293484848484612d20565b611a025760405162461bcd60e51b8152600401610bef90613506565b60985460ff16156129985760405162461bcd60e51b815260206004820152601260248201527118dbdb9d1c9858dd081a5cc81a5b9a5d195960721b6044820152606401610bef565b6001600160a01b0381166000818152609760205260408082208054600160ff1991821681179092556098805490911690911790555160008051602061376b8339815191529190a250565b600054610100900460ff16806129fb575060005460ff16155b612a175760405162461bcd60e51b8152600401610bef90613558565b600054610100900460ff16158015612a39576000805461ffff19166101011790555b612a41612e2d565b612a49612e2d565b612a538383612e98565b8015610d20576000805461ff0019169055505050565b606081612a8d5750506040805180820190915260018152600360fc1b602082015290565b8160005b8115612ab75780612aa1816136e3565b9150612ab09050600a83613651565b9150612a91565b6000816001600160401b03811115612adf57634e487b7160e01b600052604160045260246000fd5b6040519080825280601f01601f191660200182016040528015612b09576020820181803683370190505b5090505b841561236f57612b1e600183613665565b9150612b2b600a866136fe565b612b36906030613639565b60f81b818381518110612b5957634e487b7160e01b600052603260045260246000fd5b60200101906001600160f81b031916908160001a905350612b7b600a86613651565b9450612b0d565b600082815260a0602090815260409182902060020180546001600160a01b0319166001600160a01b038516908117909155915184815232917fe90419f2812a0b5567d88901ce6bfd4c8dd5a9401f842a0da4404a1c402c234b91016118d0565b600081815260a0602052604090819020600401805460ff19169055517f2459d2e941fa81acec6a314349c8176c81d809383738d1e1f1d33972c17d3e159061180f9083815260200190565b612c3632612221565b612c525760405162461bcd60e51b8152600401610bef906135f7565b60a555565b600082815260a0602090815260409182902060010180546001600160a01b0319166001600160a01b038516908117909155915184815232917f384cd900320597bb9f30f6ffc1b673fdb9a357c186354215732cb1d304eaf58e91016118d0565b612cc032612221565b612cdc5760405162461bcd60e51b8152600401610bef906135f7565b60a455565b6000611ba28284613665565b612cf78383612f2d565b612d046000848484612d20565b610d205760405162461bcd60e51b8152600401610bef90613506565b60006001600160a01b0384163b15612e2257604051630a85bd0160e11b81526001600160a01b0385169063150b7a0290612d6490339089908890889060040161341e565b602060405180830381600087803b158015612d7e57600080fd5b505af1925050508015612dae575060408051601f3d908101601f19168201909252612dab918101906132ed565b60015b612e08573d808015612ddc576040519150601f19603f3d011682016040523d82523d6000602084013e612de1565b606091505b508051612e005760405162461bcd60e51b8152600401610bef90613506565b805181602001fd5b6001600160e01b031916630a85bd0160e11b14905061236f565b506001949350505050565b600054610100900460ff1680612e46575060005460ff16155b612e625760405162461bcd60e51b8152600401610bef90613558565b600054610100900460ff16158015612e84576000805461ffff19166101011790555b80156104aa576000805461ff001916905550565b600054610100900460ff1680612eb1575060005460ff16155b612ecd5760405162461bcd60e51b8152600401610bef90613558565b600054610100900460ff16158015612eef576000805461ffff19166101011790555b8251612f0290606590602086019061304d565b508151612f1690606690602085019061304d565b508015610d20576000805461ff0019169055505050565b6001600160a01b038216612f835760405162461bcd60e51b815260206004820181905260248201527f4552433732313a206d696e7420746f20746865207a65726f20616464726573736044820152606401610bef565b612f8c81612125565b15612fd85760405162461bcd60e51b815260206004820152601c60248201527b115490cdcc8c4e881d1bdad95b88185b1c9958591e481b5a5b9d195960221b6044820152606401610bef565b6001600160a01b0382166000908152606860205260408120805460019290613001908490613639565b909155505060008181526067602052604080822080546001600160a01b0319166001600160a01b038616908117909155905183929060008051602061378b833981519152908290a45050565b828054613059906136a8565b90600052602060002090601f01602090048101928261307b57600085556130c1565b82601f1061309457805160ff19168380011785556130c1565b828001600101855582156130c1579182015b828111156130c15782518255916020019190600101906130a6565b506130cd9291506130d1565b5090565b5b808211156130cd57600081556001016130d2565b80356001600160a01b03811681146130fd57600080fd5b919050565b803560ff811681146130fd57600080fd5b600060208284031215613124578081fd5b611ba2826130e6565b6000806040838503121561313f578081fd5b613148836130e6565b9150613156602084016130e6565b90509250929050565b600080600060608486031215613173578081fd5b61317c846130e6565b925061318a602085016130e6565b9150604084013590509250925092565b600080600080608085870312156131af578081fd5b6131b8856130e6565b93506131c6602086016130e6565b92506040850135915060608501356001600160401b03808211156131e8578283fd5b818701915087601f8301126131fb578283fd5b81358181111561320d5761320d61373e565b604051601f8201601f19908116603f011681019083821181831017156132355761323561373e565b816040528281528a602084870101111561324d578586fd5b82602086016020830137918201602001949094529598949750929550505050565b60008060408385031215613280578182fd5b613289836130e6565b91506020830135801515811461329d578182fd5b809150509250929050565b600080604083850312156132ba578182fd5b6132c3836130e6565b946020939093013593505050565b6000602082840312156132e2578081fd5b8135611ba281613754565b6000602082840312156132fe578081fd5b8151611ba281613754565b60006020828403121561331a578081fd5b5035919050565b60008060408385031215613333578182fd5b82359150613156602084016130e6565b60008060408385031215613355578182fd5b50508035926020909101359150565b60008060408385031215613376578182fd5b8235915061315660208401613102565b60008060408385031215613398578182fd5b6133a183613102565b915061315660208401613102565b600081518084526133c781602086016020860161367c565b601f01601f19169290920160200192915050565b600083516133ed81846020880161367c565b83519083019061340181836020880161367c565b01949350505050565b6001600160a01b0391909116815260200190565b6001600160a01b0385811682528416602082015260408101839052608060608201819052600090613451908301846133af565b9695505050505050565b6001600160a01b03929092168252602082015260400190565b6020808252825182820181905260009190848201906040850190845b818110156134ac57835183529284019291840191600101613490565b50909695505050505050565b6020808252825182820181905260009190848201906040850190845b818110156134ac57835160ff16835292840192918401916001016134d4565b602081526000611ba260208301846133af565b60208082526032908201527f4552433732313a207472616e7366657220746f206e6f6e20455243373231526560408201527131b2b4bb32b91034b6b83632b6b2b73a32b960711b606082015260800190565b6020808252602e908201527f496e697469616c697a61626c653a20636f6e747261637420697320616c72656160408201526d191e481a5b9a5d1a585b1a5e995960921b606082015260800190565b60208082526031908201527f4552433732313a207472616e736665722063616c6c6572206973206e6f74206f6040820152701ddb995c881b9bdc88185c1c1c9bdd9959607a1b606082015260800190565b6020808252601190820152703cb7ba9030b932903737ba1030b236b4b760791b604082015260600190565b9182526001600160a01b0316602082015260400190565b6000821982111561364c5761364c613712565b500190565b60008261366057613660613728565b500490565b60008282101561367757613677613712565b500390565b60005b8381101561369757818101518382015260200161367f565b83811115611a025750506000910152565b600181811c908216806136bc57607f821691505b602082108114156136dd57634e487b7160e01b600052602260045260246000fd5b50919050565b60006000198214156136f7576136f7613712565b5060010190565b60008261370d5761370d613728565b500690565b634e487b7160e01b600052601160045260246000fd5b634e487b7160e01b600052601260045260246000fd5b634e487b7160e01b600052604160045260246000fd5b6001600160e01b0319811681146104aa57600080fdfe44d6d25963f097ad14f29f06854a01f575648a1ef82f30e562ccd3889717e339ddf252ad1be2c89b69c2b068fc378daa952ba7f163c4a11628f55a4df523b3efa264697066735822122089c1387989349a61453589fc4bb3b6f599456d5ae6ca1e2246d1d691efa36a7764736f6c63430008040033",
  "immutableReferences": {},
  "source": "// SPDX-License-Identifier: UNLICENSED\npragma solidity ^0.8.0;\n\nimport \"./SoulAuction.sol\";\nimport \"@openzeppelin/contracts-upgradeable/security/PausableUpgradeable.sol\";\n\ncontract NFSoul is SoulAuction, PausableUpgradeable {\n    mapping(uint256 => Soul) _souls;\n    mapping(address => uint256) soulOwner;\n\n    event TestBuy(uint256 soulId); // fore test\n    event ReceiveUnknownPaymentRecieve(address sender, uint256 value);\n    event ReceiveUnknownPaymentFallback(address sender, uint256 value);\n\n    struct Soul {\n        bytes4 fb;\n        uint256 phone;\n    }\n\n    function soulExists(uint256 soulId) public view returns (bool) {\n        return _exists(soulId);\n    }\n\n    function initialize(address account) public initializer {\n        _init(account);\n        __ERC721_init(\"Soul\", \"NFS\");\n    }\n\n    // Auction function\n    function reclaimSoul(uint256 soulId) public {\n        _reclaimSoul(soulId);\n    }\n\n    function returnSoulToAuction(uint256 soulId) public {\n        _returnSoulToAuction(soulId);\n    }\n\n    function getActualPrice(uint256 soulId) public view {\n        _getActualPrice(soulId);\n    }\n\n    function timeIsOver(uint256 soulId) public view {\n        _timeIsOver(soulId);\n    }\n\n    function updateAuction(uint256 soulId) public {\n        _updateAuction(soulId);\n    }\n\n    // Admin functions\n    function addAdmin(address addr) public {\n        // tested\n        _addAdmin(addr);\n    }\n\n    function isAdmin(address account) public view returns (bool) {\n        return _isAdmin(account);\n    }\n\n    function removeAdmin(address addr) public {\n        // tested\n        _removeAdmin(addr);\n    }\n\n    function pause() public {\n        _pause();\n    }\n\n    function unpause() public {\n        _unpause();\n    }\n\n    function getPauseStatus() public view returns (bool) {\n        // Check after deploy\n        return paused();\n    }\n\n    function setServicePiece(uint256 piece) public {\n        _setServicePiece(piece);\n    }\n\n    function setOwnerPiece(uint256 piece) public {\n        _setOwnerPiece(piece);\n    }\n\n    function setPieAddress(address pieToken) public {\n        _setPieAddress(pieToken);\n    }\n\n    function setDuration(uint256 auctionTime) public {\n        _setDuration(auctionTime);\n    }\n\n    function setMinPrice(uint256 minPrice) public {\n        _setMinPrice(minPrice);\n    }\n\n    // Modification functions\n    function setDonorMod(uint256 soulId, uint8 typeMod) public {\n        _setDonorMod(soulId, typeMod);\n    }\n\n    // Receive and Fallback\n    receive() external payable {\n        emit ReceiveUnknownPaymentRecieve(msg.sender, msg.value);\n        payable(_pieAddress).transfer(msg.value);\n    }\n\n    fallback() external payable {\n        emit ReceiveUnknownPaymentFallback(msg.sender, msg.value);\n\n        payable(_pieAddress).transfer(msg.value);\n    }\n}\n",
  "sourcePath": "/home/ilyadruzh/Documents/nfsoul/smart-contracts/contracts/NFSoul.sol",
  "compiler": {
    "name": "solc",
    "version": "0.8.4+commit.c7e474f2.Emscripten.clang"
  },
  "schemaVersion": "3.4.1",
  "updatedAt": "2021-06-11T22:31:44.390Z",
  "networkType": "ethereum",
  "devdoc": {
    "kind": "dev",
    "methods": {
      "approve(address,uint256)": {
        "details": "See {IERC721-approve}."
      },
      "balanceOf(address)": {
        "details": "See {IERC721-balanceOf}."
      },
      "getApproved(uint256)": {
        "details": "See {IERC721-getApproved}."
      },
      "isApprovedForAll(address,address)": {
        "details": "See {IERC721-isApprovedForAll}."
      },
      "name()": {
        "details": "See {IERC721Metadata-name}."
      },
      "ownerOf(uint256)": {
        "details": "See {IERC721-ownerOf}."
      },
      "paused()": {
        "details": "Returns true if the contract is paused, and false otherwise."
      },
      "safeTransferFrom(address,address,uint256)": {
        "details": "See {IERC721-safeTransferFrom}."
      },
      "safeTransferFrom(address,address,uint256,bytes)": {
        "details": "See {IERC721-safeTransferFrom}."
      },
      "setApprovalForAll(address,bool)": {
        "details": "See {IERC721-setApprovalForAll}."
      },
      "supportsInterface(bytes4)": {
        "details": "See {IERC165-supportsInterface}."
      },
      "symbol()": {
        "details": "See {IERC721Metadata-symbol}."
      },
      "tokenURI(uint256)": {
        "details": "See {IERC721Metadata-tokenURI}."
      },
      "transferFrom(address,address,uint256)": {
        "details": "See {IERC721-transferFrom}."
      }
    },
    "version": 1
  },
  "userdoc": {
    "kind": "user",
    "methods": {},
    "version": 1
  }
}