{
  "contractName": "NFSoul",
  "abi": [
    {
      "anonymous": false,
      "inputs": [
        {
          "indexed": true,
          "internalType": "address",
          "name": "account",
          "type": "address"
        }
      ],
      "name": "AdminAdded",
      "type": "event"
    },
    {
      "anonymous": false,
      "inputs": [
        {
          "indexed": true,
          "internalType": "address",
          "name": "account",
          "type": "address"
        }
      ],
      "name": "AdminRemoved",
      "type": "event"
    },
    {
      "anonymous": false,
      "inputs": [
        {
          "indexed": true,
          "internalType": "address",
          "name": "owner",
          "type": "address"
        },
        {
          "indexed": true,
          "internalType": "address",
          "name": "approved",
          "type": "address"
        },
        {
          "indexed": true,
          "internalType": "uint256",
          "name": "tokenId",
          "type": "uint256"
        }
      ],
      "name": "Approval",
      "type": "event"
    },
    {
      "anonymous": false,
      "inputs": [
        {
          "indexed": true,
          "internalType": "address",
          "name": "owner",
          "type": "address"
        },
        {
          "indexed": true,
          "internalType": "address",
          "name": "operator",
          "type": "address"
        },
        {
          "indexed": false,
          "internalType": "bool",
          "name": "approved",
          "type": "bool"
        }
      ],
      "name": "ApprovalForAll",
      "type": "event"
    },
    {
      "anonymous": false,
      "inputs": [
        {
          "indexed": false,
          "internalType": "uint256",
          "name": "soulId",
          "type": "uint256"
        },
        {
          "indexed": false,
          "internalType": "uint256",
          "name": "price",
          "type": "uint256"
        }
      ],
      "name": "AuctionStarted",
      "type": "event"
    },
    {
      "anonymous": false,
      "inputs": [
        {
          "indexed": true,
          "internalType": "address",
          "name": "oldBuyer",
          "type": "address"
        },
        {
          "indexed": true,
          "internalType": "address",
          "name": "newBuyer",
          "type": "address"
        },
        {
          "indexed": false,
          "internalType": "uint256",
          "name": "soulId",
          "type": "uint256"
        }
      ],
      "name": "BuyerChanged",
      "type": "event"
    },
    {
      "anonymous": false,
      "inputs": [
        {
          "indexed": false,
          "internalType": "uint256",
          "name": "soulId",
          "type": "uint256"
        },
        {
          "indexed": false,
          "internalType": "address",
          "name": "newCarrier",
          "type": "address"
        }
      ],
      "name": "CarrierChanged",
      "type": "event"
    },
    {
      "anonymous": false,
      "inputs": [
        {
          "indexed": true,
          "internalType": "address",
          "name": "from",
          "type": "address"
        },
        {
          "indexed": true,
          "internalType": "uint256",
          "name": "tokenId",
          "type": "uint256"
        },
        {
          "indexed": false,
          "internalType": "bytes32",
          "name": "mods",
          "type": "bytes32"
        }
      ],
      "name": "ModificationSetted",
      "type": "event"
    },
    {
      "anonymous": false,
      "inputs": [
        {
          "indexed": false,
          "internalType": "address",
          "name": "account",
          "type": "address"
        }
      ],
      "name": "Paused",
      "type": "event"
    },
    {
      "anonymous": false,
      "inputs": [
        {
          "indexed": false,
          "internalType": "address",
          "name": "sender",
          "type": "address"
        },
        {
          "indexed": false,
          "internalType": "uint256",
          "name": "value",
          "type": "uint256"
        }
      ],
      "name": "ReceiveUnknownPaymentFallback",
      "type": "event"
    },
    {
      "anonymous": false,
      "inputs": [
        {
          "indexed": false,
          "internalType": "address",
          "name": "sender",
          "type": "address"
        },
        {
          "indexed": false,
          "internalType": "uint256",
          "name": "value",
          "type": "uint256"
        }
      ],
      "name": "ReceiveUnknownPaymentRecieve",
      "type": "event"
    },
    {
      "anonymous": false,
      "inputs": [
        {
          "indexed": false,
          "internalType": "uint256",
          "name": "soulId",
          "type": "uint256"
        }
      ],
      "name": "SaleStoped",
      "type": "event"
    },
    {
      "anonymous": false,
      "inputs": [
        {
          "indexed": true,
          "internalType": "address",
          "name": "oldSeller",
          "type": "address"
        },
        {
          "indexed": true,
          "internalType": "address",
          "name": "newSeller",
          "type": "address"
        },
        {
          "indexed": false,
          "internalType": "uint256",
          "name": "soulId",
          "type": "uint256"
        }
      ],
      "name": "SellerChanged",
      "type": "event"
    },
    {
      "anonymous": false,
      "inputs": [
        {
          "indexed": true,
          "internalType": "address",
          "name": "buyer",
          "type": "address"
        },
        {
          "indexed": false,
          "internalType": "uint256",
          "name": "soulId",
          "type": "uint256"
        },
        {
          "indexed": false,
          "internalType": "uint256",
          "name": "price",
          "type": "uint256"
        }
      ],
      "name": "SoulBuyed",
      "type": "event"
    },
    {
      "anonymous": false,
      "inputs": [
        {
          "indexed": true,
          "internalType": "address",
          "name": "seller",
          "type": "address"
        },
        {
          "indexed": false,
          "internalType": "uint256",
          "name": "price",
          "type": "uint256"
        }
      ],
      "name": "SoulOnSale",
      "type": "event"
    },
    {
      "anonymous": false,
      "inputs": [
        {
          "indexed": false,
          "internalType": "uint256",
          "name": "soulId",
          "type": "uint256"
        }
      ],
      "name": "TestBuy",
      "type": "event"
    },
    {
      "anonymous": false,
      "inputs": [
        {
          "indexed": true,
          "internalType": "address",
          "name": "from",
          "type": "address"
        },
        {
          "indexed": true,
          "internalType": "address",
          "name": "to",
          "type": "address"
        },
        {
          "indexed": true,
          "internalType": "uint256",
          "name": "tokenId",
          "type": "uint256"
        }
      ],
      "name": "Transfer",
      "type": "event"
    },
    {
      "anonymous": false,
      "inputs": [
        {
          "indexed": false,
          "internalType": "address",
          "name": "account",
          "type": "address"
        }
      ],
      "name": "Unpaused",
      "type": "event"
    },
    {
      "stateMutability": "payable",
      "type": "fallback"
    },
    {
      "inputs": [],
      "name": "_pieAddress",
      "outputs": [
        {
          "internalType": "address",
          "name": "",
          "type": "address"
        }
      ],
      "stateMutability": "view",
      "type": "function"
    },
    {
      "inputs": [
        {
          "internalType": "uint8",
          "name": "maxModVal",
          "type": "uint8"
        },
        {
          "internalType": "uint8",
          "name": "maxMods",
          "type": "uint8"
        }
      ],
      "name": "_setModificationSettings",
      "outputs": [],
      "stateMutability": "nonpayable",
      "type": "function"
    },
    {
      "inputs": [
        {
          "internalType": "address",
          "name": "to",
          "type": "address"
        },
        {
          "internalType": "uint256",
          "name": "tokenId",
          "type": "uint256"
        }
      ],
      "name": "approve",
      "outputs": [],
      "stateMutability": "nonpayable",
      "type": "function"
    },
    {
      "inputs": [
        {
          "internalType": "uint256",
          "name": "soulId",
          "type": "uint256"
        }
      ],
      "name": "auctionInfo",
      "outputs": [
        {
          "components": [
            {
              "internalType": "address",
              "name": "owner",
              "type": "address"
            },
            {
              "internalType": "address",
              "name": "carrier",
              "type": "address"
            },
            {
              "internalType": "uint256",
              "name": "startedAt",
              "type": "uint256"
            },
            {
              "internalType": "uint256",
              "name": "freezeTime",
              "type": "uint256"
            },
            {
              "internalType": "uint256",
              "name": "duration",
              "type": "uint256"
            },
            {
              "internalType": "uint256",
              "name": "firstPrice",
              "type": "uint256"
            },
            {
              "internalType": "uint256",
              "name": "actualPrice",
              "type": "uint256"
            },
            {
              "internalType": "bool",
              "name": "isActive",
              "type": "bool"
            }
          ],
          "internalType": "struct ISoulAuction.Auction",
          "name": "",
          "type": "tuple"
        }
      ],
      "stateMutability": "view",
      "type": "function"
    },
    {
      "inputs": [
        {
          "internalType": "address",
          "name": "owner",
          "type": "address"
        }
      ],
      "name": "balanceOf",
      "outputs": [
        {
          "internalType": "uint256",
          "name": "",
          "type": "uint256"
        }
      ],
      "stateMutability": "view",
      "type": "function"
    },
    {
      "inputs": [
        {
          "internalType": "uint256",
          "name": "soulId",
          "type": "uint256"
        }
      ],
      "name": "bid",
      "outputs": [],
      "stateMutability": "payable",
      "type": "function"
    },
    {
      "inputs": [
        {
          "internalType": "uint256",
          "name": "soulId",
          "type": "uint256"
        }
      ],
      "name": "buy",
      "outputs": [],
      "stateMutability": "payable",
      "type": "function"
    },
    {
      "inputs": [
        {
          "internalType": "uint256",
          "name": "soulId",
          "type": "uint256"
        }
      ],
      "name": "carrierOf",
      "outputs": [
        {
          "internalType": "address",
          "name": "",
          "type": "address"
        }
      ],
      "stateMutability": "view",
      "type": "function"
    },
    {
      "inputs": [
        {
          "internalType": "uint256",
          "name": "soulId",
          "type": "uint256"
        },
        {
          "internalType": "address",
          "name": "newCarrier",
          "type": "address"
        }
      ],
      "name": "changeCarrier",
      "outputs": [],
      "stateMutability": "nonpayable",
      "type": "function"
    },
    {
      "inputs": [
        {
          "internalType": "uint256",
          "name": "soulId",
          "type": "uint256"
        },
        {
          "internalType": "address",
          "name": "newSellerAddress",
          "type": "address"
        }
      ],
      "name": "changeSeller",
      "outputs": [],
      "stateMutability": "nonpayable",
      "type": "function"
    },
    {
      "inputs": [
        {
          "internalType": "uint256",
          "name": "soulId",
          "type": "uint256"
        },
        {
          "internalType": "uint256",
          "name": "price",
          "type": "uint256"
        }
      ],
      "name": "firstSale",
      "outputs": [],
      "stateMutability": "nonpayable",
      "type": "function"
    },
    {
      "inputs": [],
      "name": "getAllSoul",
      "outputs": [
        {
          "internalType": "uint256[]",
          "name": "",
          "type": "uint256[]"
        }
      ],
      "stateMutability": "view",
      "type": "function"
    },
    {
      "inputs": [
        {
          "internalType": "uint256",
          "name": "tokenId",
          "type": "uint256"
        }
      ],
      "name": "getApproved",
      "outputs": [
        {
          "internalType": "address",
          "name": "",
          "type": "address"
        }
      ],
      "stateMutability": "view",
      "type": "function"
    },
    {
      "inputs": [
        {
          "internalType": "uint256",
          "name": "soulId",
          "type": "uint256"
        }
      ],
      "name": "getCurrentPrice",
      "outputs": [
        {
          "internalType": "uint256",
          "name": "",
          "type": "uint256"
        }
      ],
      "stateMutability": "view",
      "type": "function"
    },
    {
      "inputs": [
        {
          "internalType": "uint256",
          "name": "soulId",
          "type": "uint256"
        }
      ],
      "name": "getDonorMod",
      "outputs": [
        {
          "internalType": "uint8[]",
          "name": "",
          "type": "uint8[]"
        }
      ],
      "stateMutability": "view",
      "type": "function"
    },
    {
      "inputs": [
        {
          "internalType": "uint256",
          "name": "soulId",
          "type": "uint256"
        }
      ],
      "name": "getInfoAboutSale",
      "outputs": [
        {
          "components": [
            {
              "internalType": "uint256",
              "name": "startedAt",
              "type": "uint256"
            },
            {
              "internalType": "address",
              "name": "seller",
              "type": "address"
            },
            {
              "internalType": "address",
              "name": "buyer",
              "type": "address"
            },
            {
              "internalType": "uint256",
              "name": "price",
              "type": "uint256"
            },
            {
              "internalType": "bool",
              "name": "onSale",
              "type": "bool"
            }
          ],
          "internalType": "struct ISoulMarket.Sale",
          "name": "",
          "type": "tuple"
        }
      ],
      "stateMutability": "view",
      "type": "function"
    },
    {
      "inputs": [
        {
          "internalType": "address",
          "name": "carrier",
          "type": "address"
        }
      ],
      "name": "getSoul",
      "outputs": [
        {
          "internalType": "uint256[]",
          "name": "soulIds",
          "type": "uint256[]"
        }
      ],
      "stateMutability": "view",
      "type": "function"
    },
    {
      "inputs": [
        {
          "internalType": "uint256",
          "name": "soulId",
          "type": "uint256"
        }
      ],
      "name": "getSoulModifications",
      "outputs": [
        {
          "internalType": "bytes32",
          "name": "",
          "type": "bytes32"
        }
      ],
      "stateMutability": "view",
      "type": "function"
    },
    {
      "inputs": [
        {
          "internalType": "address",
          "name": "person",
          "type": "address"
        }
      ],
      "name": "hasSoul",
      "outputs": [
        {
          "internalType": "bool",
          "name": "",
          "type": "bool"
        }
      ],
      "stateMutability": "view",
      "type": "function"
    },
    {
      "inputs": [
        {
          "internalType": "address",
          "name": "owner",
          "type": "address"
        },
        {
          "internalType": "address",
          "name": "operator",
          "type": "address"
        }
      ],
      "name": "isApprovedForAll",
      "outputs": [
        {
          "internalType": "bool",
          "name": "",
          "type": "bool"
        }
      ],
      "stateMutability": "view",
      "type": "function"
    },
    {
      "inputs": [
        {
          "internalType": "uint256",
          "name": "soulId",
          "type": "uint256"
        }
      ],
      "name": "mint",
      "outputs": [],
      "stateMutability": "payable",
      "type": "function"
    },
    {
      "inputs": [],
      "name": "modificationSettings",
      "outputs": [
        {
          "internalType": "uint8",
          "name": "",
          "type": "uint8"
        },
        {
          "internalType": "uint8",
          "name": "",
          "type": "uint8"
        }
      ],
      "stateMutability": "view",
      "type": "function"
    },
    {
      "inputs": [],
      "name": "name",
      "outputs": [
        {
          "internalType": "string",
          "name": "",
          "type": "string"
        }
      ],
      "stateMutability": "view",
      "type": "function"
    },
    {
      "inputs": [
        {
          "internalType": "uint256",
          "name": "tokenId",
          "type": "uint256"
        }
      ],
      "name": "ownerOf",
      "outputs": [
        {
          "internalType": "address",
          "name": "",
          "type": "address"
        }
      ],
      "stateMutability": "view",
      "type": "function"
    },
    {
      "inputs": [],
      "name": "paused",
      "outputs": [
        {
          "internalType": "bool",
          "name": "",
          "type": "bool"
        }
      ],
      "stateMutability": "view",
      "type": "function"
    },
    {
      "inputs": [
        {
          "internalType": "address",
          "name": "from",
          "type": "address"
        },
        {
          "internalType": "address",
          "name": "to",
          "type": "address"
        },
        {
          "internalType": "uint256",
          "name": "tokenId",
          "type": "uint256"
        }
      ],
      "name": "safeTransferFrom",
      "outputs": [],
      "stateMutability": "nonpayable",
      "type": "function"
    },
    {
      "inputs": [
        {
          "internalType": "address",
          "name": "from",
          "type": "address"
        },
        {
          "internalType": "address",
          "name": "to",
          "type": "address"
        },
        {
          "internalType": "uint256",
          "name": "tokenId",
          "type": "uint256"
        },
        {
          "internalType": "bytes",
          "name": "_data",
          "type": "bytes"
        }
      ],
      "name": "safeTransferFrom",
      "outputs": [],
      "stateMutability": "nonpayable",
      "type": "function"
    },
    {
      "inputs": [
        {
          "internalType": "uint256",
          "name": "soulId",
          "type": "uint256"
        },
        {
          "internalType": "uint256",
          "name": "price",
          "type": "uint256"
        }
      ],
      "name": "sale",
      "outputs": [],
      "stateMutability": "nonpayable",
      "type": "function"
    },
    {
      "inputs": [
        {
          "internalType": "address",
          "name": "operator",
          "type": "address"
        },
        {
          "internalType": "bool",
          "name": "approved",
          "type": "bool"
        }
      ],
      "name": "setApprovalForAll",
      "outputs": [],
      "stateMutability": "nonpayable",
      "type": "function"
    },
    {
      "inputs": [
        {
          "internalType": "uint256",
          "name": "soulId",
          "type": "uint256"
        }
      ],
      "name": "stopSale",
      "outputs": [],
      "stateMutability": "nonpayable",
      "type": "function"
    },
    {
      "inputs": [
        {
          "internalType": "bytes4",
          "name": "interfaceId",
          "type": "bytes4"
        }
      ],
      "name": "supportsInterface",
      "outputs": [
        {
          "internalType": "bool",
          "name": "",
          "type": "bool"
        }
      ],
      "stateMutability": "view",
      "type": "function"
    },
    {
      "inputs": [],
      "name": "symbol",
      "outputs": [
        {
          "internalType": "string",
          "name": "",
          "type": "string"
        }
      ],
      "stateMutability": "view",
      "type": "function"
    },
    {
      "inputs": [
        {
          "internalType": "uint256",
          "name": "tokenId",
          "type": "uint256"
        }
      ],
      "name": "tokenURI",
      "outputs": [
        {
          "internalType": "string",
          "name": "",
          "type": "string"
        }
      ],
      "stateMutability": "view",
      "type": "function"
    },
    {
      "inputs": [
        {
          "internalType": "address",
          "name": "from",
          "type": "address"
        },
        {
          "internalType": "address",
          "name": "to",
          "type": "address"
        },
        {
          "internalType": "uint256",
          "name": "tokenId",
          "type": "uint256"
        }
      ],
      "name": "transferFrom",
      "outputs": [],
      "stateMutability": "nonpayable",
      "type": "function"
    },
    {
      "stateMutability": "payable",
      "type": "receive"
    },
    {
      "inputs": [
        {
          "internalType": "uint256",
          "name": "soulId",
          "type": "uint256"
        }
      ],
      "name": "soulExists",
      "outputs": [
        {
          "internalType": "bool",
          "name": "",
          "type": "bool"
        }
      ],
      "stateMutability": "view",
      "type": "function"
    },
    {
      "inputs": [
        {
          "internalType": "address",
          "name": "account",
          "type": "address"
        }
      ],
      "name": "initialize",
      "outputs": [],
      "stateMutability": "nonpayable",
      "type": "function"
    },
    {
      "inputs": [
        {
          "internalType": "uint256",
          "name": "soulId",
          "type": "uint256"
        }
      ],
      "name": "reclaimSoul",
      "outputs": [],
      "stateMutability": "nonpayable",
      "type": "function"
    },
    {
      "inputs": [
        {
          "internalType": "uint256",
          "name": "soulId",
          "type": "uint256"
        }
      ],
      "name": "returnSoulToAuction",
      "outputs": [],
      "stateMutability": "nonpayable",
      "type": "function"
    },
    {
      "inputs": [
        {
          "internalType": "uint256",
          "name": "soulId",
          "type": "uint256"
        }
      ],
      "name": "getActualPrice",
      "outputs": [],
      "stateMutability": "view",
      "type": "function"
    },
    {
      "inputs": [
        {
          "internalType": "uint256",
          "name": "soulId",
          "type": "uint256"
        }
      ],
      "name": "timeIsOver",
      "outputs": [],
      "stateMutability": "view",
      "type": "function"
    },
    {
      "inputs": [
        {
          "internalType": "uint256",
          "name": "soulId",
          "type": "uint256"
        }
      ],
      "name": "updateAuction",
      "outputs": [],
      "stateMutability": "nonpayable",
      "type": "function"
    },
    {
      "inputs": [
        {
          "internalType": "address",
          "name": "addr",
          "type": "address"
        }
      ],
      "name": "addAdmin",
      "outputs": [],
      "stateMutability": "nonpayable",
      "type": "function"
    },
    {
      "inputs": [
        {
          "internalType": "address",
          "name": "account",
          "type": "address"
        }
      ],
      "name": "isAdmin",
      "outputs": [
        {
          "internalType": "bool",
          "name": "",
          "type": "bool"
        }
      ],
      "stateMutability": "view",
      "type": "function"
    },
    {
      "inputs": [
        {
          "internalType": "address",
          "name": "addr",
          "type": "address"
        }
      ],
      "name": "removeAdmin",
      "outputs": [],
      "stateMutability": "nonpayable",
      "type": "function"
    },
    {
      "inputs": [],
      "name": "pause",
      "outputs": [],
      "stateMutability": "nonpayable",
      "type": "function"
    },
    {
      "inputs": [],
      "name": "unpause",
      "outputs": [],
      "stateMutability": "nonpayable",
      "type": "function"
    },
    {
      "inputs": [],
      "name": "getPauseStatus",
      "outputs": [
        {
          "internalType": "bool",
          "name": "",
          "type": "bool"
        }
      ],
      "stateMutability": "view",
      "type": "function"
    },
    {
      "inputs": [
        {
          "internalType": "uint256",
          "name": "piece",
          "type": "uint256"
        }
      ],
      "name": "setServicePiece",
      "outputs": [],
      "stateMutability": "nonpayable",
      "type": "function"
    },
    {
      "inputs": [
        {
          "internalType": "uint256",
          "name": "piece",
          "type": "uint256"
        }
      ],
      "name": "setOwnerPiece",
      "outputs": [],
      "stateMutability": "nonpayable",
      "type": "function"
    },
    {
      "inputs": [
        {
          "internalType": "address",
          "name": "pieToken",
          "type": "address"
        }
      ],
      "name": "setPieAddress",
      "outputs": [],
      "stateMutability": "nonpayable",
      "type": "function"
    },
    {
      "inputs": [
        {
          "internalType": "uint256",
          "name": "auctionTime",
          "type": "uint256"
        }
      ],
      "name": "setDuration",
      "outputs": [],
      "stateMutability": "nonpayable",
      "type": "function"
    },
    {
      "inputs": [
        {
          "internalType": "uint256",
          "name": "minPrice",
          "type": "uint256"
        }
      ],
      "name": "setMinPrice",
      "outputs": [],
      "stateMutability": "nonpayable",
      "type": "function"
    },
    {
      "inputs": [
        {
          "internalType": "uint256",
          "name": "soulId",
          "type": "uint256"
        },
        {
          "internalType": "uint8",
          "name": "typeMod",
          "type": "uint8"
        }
      ],
      "name": "setDonorMod",
      "outputs": [],
      "stateMutability": "nonpayable",
      "type": "function"
    },
    {
      "inputs": [
        {
          "internalType": "uint256",
          "name": "soulId",
          "type": "uint256"
        },
        {
          "internalType": "bytes32",
          "name": "modification",
          "type": "bytes32"
        }
      ],
      "name": "setCommonMods",
      "outputs": [],
      "stateMutability": "nonpayable",
      "type": "function"
    }
  ],
  "bytecode": "0x608060405234801561001057600080fd5b506138a5806100206000396000f3fe6080604052600436106102695760003560e01c806301ffc9a714610314578063026d7f831461034957806306fdde031461036b578063081812fc1461038d578063095ea7b3146103ba5780630a8ab9a1146103da5780630e9362cc146103fa5780630fa7dcab1461041a5780631785f53c1461043a5780631c35f9621461045a5780631d9023cb1461047a5780632036e7321461048f57806323b872dd146104ad57806324d7806c146104cd578063273cd680146104ed578063283aa5941461050d578063319921241461052d5780633237307d1461054d5780633f4ba83a1461057b57806342842e0e14610590578063454a2ab3146105b0578063524a919f146105c35780635641894d146105e35780635ac36fbd146106505780635c975abb146106705780635ea8cd12146106885780636352211e146106a85780636551b2ce146106c857806366cfe97f146106e8578063704802751461071557806370a082311461073557806372118fcd146107555780638456cb5914610775578063929771921461078a578063957a867c146107b957806395d89b4114610848578063a0712d681461085d578063a22cb46514610870578063aedc8e3814610890578063b44dd2b5146108b0578063b88d4fde146108c5578063bdd75202146108e5578063c4d66de814610905578063c55d0f5614610925578063c5ce94a214610955578063c87b56dd14610975578063cebcb0d414610995578063d96a094a146109c2578063de67d9f6146109d5578063def2f0eb146109f5578063e985e9c514610a15578063ea62ad0514610a35578063f6be71d114610a55578063f8dd1f7614610a75576102e3565b366102e3577fd9b9a1a22d4c45b7f89d240c58161a4f574a02e9260c2383522be2850b8fbaea333460405161029f9291906134f4565b60405180910390a160a2546040516001600160a01b03909116903480156108fc02916000818181858888f193505050501580156102e0573d6000803e3d6000fd5b50005b7ff4636bc3188e39cf2ac35839c44551623fea0a2da16669f2c3f2d2b2803deaf5333460405161029f9291906134f4565b34801561032057600080fd5b5061033461032f36600461336a565b610a95565b60405190151581526020015b60405180910390f35b34801561035557600080fd5b506103696103643660046133fd565b610ae7565b005b34801561037757600080fd5b50610380610af5565b604051610340919061358c565b34801561039957600080fd5b506103ad6103a83660046133a2565b610b87565b60405161034091906134a3565b3480156103c657600080fd5b506103696103d5366004613341565b610c14565b3480156103e657600080fd5b506103696103f53660046131ac565b610d25565b34801561040657600080fd5b506103696104153660046133a2565b610d2e565b34801561042657600080fd5b5061036961043536600461341f565b610d37565b34801561044657600080fd5b506103696104553660046131ac565b610da0565b34801561046657600080fd5b506103696104753660046133dc565b610da9565b34801561048657600080fd5b50610334610f17565b34801561049b57600080fd5b506103696104aa3660046133a2565b50565b3480156104b957600080fd5b506103696104c83660046131f8565b610f2a565b3480156104d957600080fd5b506103346104e83660046131ac565b610f5b565b3480156104f957600080fd5b5060a2546103ad906001600160a01b031681565b34801561051957600080fd5b506103696105283660046133ba565b610f66565b34801561053957600080fd5b506103696105483660046133a2565b610fee565b34801561055957600080fd5b5061056d6105683660046133a2565b610ff7565b604051908152602001610340565b34801561058757600080fd5b5061036961101e565b34801561059c57600080fd5b506103696105ab3660046131f8565b611028565b6103696105be3660046133a2565b611043565b3480156105cf57600080fd5b506103696105de3660046133a2565b6112e3565b3480156105ef57600080fd5b506106036105fe3660046133a2565b6112ec565b60408051825181526020808401516001600160a01b03908116918301919091528383015116918101919091526060808301519082015260809182015115159181019190915260a001610340565b34801561065c57600080fd5b5061036961066b3660046133a2565b611378565b34801561067c57600080fd5b5060a85460ff16610334565b34801561069457600080fd5b506103696106a33660046133a2565b611381565b3480156106b457600080fd5b506103ad6106c33660046133a2565b61138a565b3480156106d457600080fd5b506103ad6106e33660046133a2565b611401565b3480156106f457600080fd5b506107086107033660046131ac565b611469565b604051610340919061350d565b34801561072157600080fd5b506103696107303660046131ac565b6114d5565b34801561074157600080fd5b5061056d6107503660046131ac565b6114de565b34801561076157600080fd5b506103346107703660046133a2565b611565565b34801561078157600080fd5b50610369611570565b34801561079657600080fd5b50609b546040805160ff8084168252610100909304909216602083015201610340565b3480156107c557600080fd5b506107d96107d43660046133a2565b611578565b604051610340919060006101008201905060018060a01b038084511683528060208501511660208401525060408301516040830152606083015160608301526080830151608083015260a083015160a083015260c083015160c083015260e0830151151560e083015292915050565b34801561085457600080fd5b50610380611675565b61036961086b3660046133a2565b611684565b34801561087c57600080fd5b5061036961088b366004613307565b611752565b34801561089c57600080fd5b506103696108ab3660046133a2565b611814565b3480156108bc57600080fd5b5061070861181d565b3480156108d157600080fd5b506103696108e0366004613233565b611874565b3480156108f157600080fd5b506103346109003660046131ac565b6118ac565b34801561091157600080fd5b506103696109203660046131ac565b6118bf565b34801561093157600080fd5b5061056d6109403660046133a2565b600090815260a1602052604090206006015490565b34801561096157600080fd5b506103696109703660046133dc565b611975565b34801561098157600080fd5b506103806109903660046133a2565b61197f565b3480156109a157600080fd5b506109b56109b03660046133a2565b611a57565b6040516103409190613551565b6103696109d03660046133a2565b611ae5565b3480156109e157600080fd5b506103696109f03660046133a2565b611d7b565b348015610a0157600080fd5b50610369610a103660046133ba565b611d84565b348015610a2157600080fd5b50610334610a303660046131c6565b611d8e565b348015610a4157600080fd5b50610369610a503660046133dc565b611dbc565b348015610a6157600080fd5b50610369610a703660046133a2565b611f3c565b348015610a8157600080fd5b50610369610a903660046133a2565b611f45565b60006001600160e01b031982166380ac58cd60e01b1480610ac657506001600160e01b03198216635b5e139f60e01b145b80610ae157506301ffc9a760e01b6001600160e01b03198316145b92915050565b610af18282611f6b565b5050565b606060658054610b049061374d565b80601f0160208091040260200160405190810160405280929190818152602001828054610b309061374d565b8015610b7d5780601f10610b5257610100808354040283529160200191610b7d565b820191906000526020600020905b815481529060010190602001808311610b6057829003601f168201915b5050505050905090565b6000610b9282611fd3565b610bf85760405162461bcd60e51b815260206004820152602c60248201527f4552433732313a20617070726f76656420717565727920666f72206e6f6e657860448201526b34b9ba32b73a103a37b5b2b760a11b60648201526084015b60405180910390fd5b506000908152606960205260409020546001600160a01b031690565b6000610c1f8261138a565b9050806001600160a01b0316836001600160a01b03161415610c8d5760405162461bcd60e51b815260206004820152602160248201527f4552433732313a20617070726f76616c20746f2063757272656e74206f776e656044820152603960f91b6064820152608401610bef565b336001600160a01b0382161480610ca95750610ca98133611d8e565b610d165760405162461bcd60e51b815260206004820152603860248201527f4552433732313a20617070726f76652063616c6c6572206973206e6f74206f776044820152771b995c881b9bdc88185c1c1c9bdd995908199bdc88185b1b60421b6064820152608401610bef565b610d208383611ff0565b505050565b6104aa8161205e565b6104aa816120a5565b610d40326120cf565b610d5c5760405162461bcd60e51b8152600401610bef90613690565b60ff8260ff1610610d6c57600080fd5b60208160ff1610610d7c57600080fd5b609b805460ff9283166101000261ffff199091169290931691909117919091179055565b6104aa816120ed565b32610db383611401565b6001600160a01b031614610dfe5760405162461bcd60e51b8152602060048201526012602482015271596f7520617265206e6f74206f776e65722160701b6044820152606401610bef565b600082815260a0602052604090206004015460ff1615610e525760405162461bcd60e51b815260206004820152600f60248201526e53616c65206973206f70656e65642160881b6044820152606401610bef565b6040805160a080820183524282523260208084018281526000858701818152606087018981526001608089018181528c85529786529289902097518855925191870180546001600160a01b03199081166001600160a01b03948516179091559051600288018054909216921691909117905551600385015591516004909301805460ff191693151593909317909255915183815290917f76f519ddcb2c54b2e28cf6cc1a2dfee150411bb675c78c0eef6f6388559893a6910160405180910390a25050565b6000610f2560a85460ff1690565b905090565b610f34338261215b565b610f505760405162461bcd60e51b8152600401610bef9061363f565b610d20838383612225565b6000610ae1826120cf565b6000828152609e6020908152604080832080546001600160a01b0319166001600160a01b038616908117909155808452609f83528184208054600181018255908552938390209093018590558051858152918201929092527f649ac2249366264ba74a84d97e2e86f4490c06d225655797956313f613b9bade91015b60405180910390a15050565b610af1816123b3565b600061100282611fd3565b61100b57600080fd5b5060009081526099602052604090205490565b611026612459565b565b610d2083838360405180602001604052806000815250611874565b61104c81611fd3565b61108e5760405162461bcd60e51b8152602060048201526013602482015272536f756c20646f65736e27742065786973747360681b6044820152606401610bef565b600081815260a1602052604090206007015460ff1615156001146110e35760405162461bcd60e51b815260206004820152600c60248201526b4e6f7420666f722073616c6560a01b6044820152606401610bef565b6110ec326114de565b6111325760405162461bcd60e51b8152602060048201526017602482015276596f752073686f756c642068617665206120736f756c2160481b6044820152606401610bef565b600060a55460a65460a754611146856124e6565b61115091906136bb565b61115a91906136bb565b61116491906136bb565b9050348110156111a95760405162461bcd60e51b815260206004820152601060248201526f6e6f7420656e6f756768206d6f6e657960801b6044820152606401610bef565b6000806111b58461259d565b91509150600060a55460a654346111cc91906136e7565b6111d691906136e7565b9050600060a554826111e891906136e7565b905060006111f682846136e7565b6040519091506001600160a01b0385169084156108fc029085906000818181858888f1935050505015801561122f573d6000803e3d6000fd5b506040516001600160a01b0386169083156108fc029084906000818181858888f19350505050158015611266573d6000803e3d6000fd5b5060a2546040516001600160a01b039091169082156108fc029083906000818181858888f193505050501580156112a1573d6000803e3d6000fd5b506112d087826112b185876136bb565b6112bb91906136bb565b600091825260a1602052604090912060060155565b6112da87336125c4565b50505050505050565b6104aa8161262a565b6040805160a08101825260008082526020820181905291810182905260608101829052608081019190915250600090815260a06020818152604092839020835192830184528054835260018101546001600160a01b03908116928401929092526002810154909116928201929092526003820154606082015260049091015460ff161515608082015290565b6104aa81612675565b6104aa816126ad565b6000818152606760205260408120546001600160a01b031680610ae15760405162461bcd60e51b815260206004820152602960248201527f4552433732313a206f776e657220717565727920666f72206e6f6e657869737460448201526832b73a103a37b5b2b760b91b6064820152608401610bef565b600061140c82611fd3565b61144d5760405162461bcd60e51b815260206004820152601260248201527114dbdd5b08191bd95cdb89dd08195e1a5cdd60721b6044820152606401610bef565b506000908152609e60205260409020546001600160a01b031690565b6001600160a01b0381166000908152609f60209081526040918290208054835181840281018401909452808452606093928301828280156114c957602002820191906000526020600020905b8154815260200190600101908083116114b5575b50505050509050919050565b6104aa816126d7565b60006001600160a01b0382166115495760405162461bcd60e51b815260206004820152602a60248201527f4552433732313a2062616c616e636520717565727920666f7220746865207a65604482015269726f206164647265737360b01b6064820152608401610bef565b506001600160a01b031660009081526068602052604090205490565b6000610ae182611fd3565b611026612736565b6115d460405180610100016040528060006001600160a01b0316815260200160006001600160a01b0316815260200160008152602001600081526020016000815260200160008152602001600081526020016000151581525090565b6115dd82611fd3565b6115e657600080fd5b600082815260a1602090815260409182902082516101008101845281546001600160a01b039081168252600183015416928101929092526002810154928201929092526003820154606082015260048201546080820152600582015460a0820152600682015460c082015260079091015460ff16151560e082015261166a836124e6565b60c082015292915050565b606060668054610b049061374d565b61168d336114de565b156116d65760405162461bcd60e51b8152602060048201526019602482015278165bdd48185b1c9958591e481b5a5b9d081e5bdd481cdbdd5b603a1b6044820152606401610bef565b6116e032826127b1565b6000818152609e6020908152604080832080546001600160a01b031916329081179091558352609f82528220805460018181018355918452918320909101839055609d805491820181559091527fd26e832454299e9fabb89e0e5fffdc046d4e14431bc1bf607ffb2e8a1ddecf7b0155565b6001600160a01b0382163314156117a75760405162461bcd60e51b815260206004820152601960248201527822a9219b99189d1030b8383937bb32903a379031b0b63632b960391b6044820152606401610bef565b336000818152606a602090815260408083206001600160a01b03871680855290835292819020805460ff191686151590811790915590519081529192917f17307eab39ab6107e8899845ad3d59bd9653f200f220920489ca2b5937696c3191015b60405180910390a35050565b610af1816124e6565b6060609d805480602002602001604051908101604052809291908181526020018280548015610b7d57602002820191906000526020600020905b815481526020019060010190808311611857575050505050905090565b61187e338361215b565b61189a5760405162461bcd60e51b8152600401610bef9061363f565b6118a6848484846127cb565b50505050565b6000806118b8836114de565b1192915050565b600054610100900460ff16806118d8575060005460ff16155b6118f45760405162461bcd60e51b8152600401610bef906135f1565b600054610100900460ff16158015611916576000805461ffff19166101011790555b61191f826127fe565b6119606040518060400160405280600481526020016314dbdd5b60e21b815250604051806040016040528060038152602001624e465360e81b815250612890565b8015610af1576000805461ff00191690555050565b610af18282612917565b606061198a82611fd3565b6119ee5760405162461bcd60e51b815260206004820152602f60248201527f4552433732314d657461646174613a2055524920717565727920666f72206e6f60448201526e3732bc34b9ba32b73a103a37b5b2b760891b6064820152608401610bef565b6000611a0560408051602081019091526000815290565b90506000815111611a255760405180602001604052806000815250611a50565b80611a2f846129ed565b604051602001611a40929190613474565b6040516020818303038152906040525b9392505050565b6000818152609a602090815260408083208151815480850282018401845293810184815260609594919384928491840182828015611ad257602002820191906000526020600020906000905b825461010083900a900460ff16815260206001928301818104948501949093039092029101808411611aa35790505b5050509190925250509051949350505050565b611aee81611fd3565b611b2f5760405162461bcd60e51b815260206004820152601260248201527114dbdd5b08191bd95cdb89de48195e1a5cdd60721b6044820152606401610bef565b32611b3982611401565b6001600160a01b03161415611b815760405162461bcd60e51b815260206004820152600e60248201526d596f7520617265206f776e65722160901b6044820152606401610bef565b600081815260a0602052604090206004015460ff16611bd65760405162461bcd60e51b8152602060048201526011602482015270536f756c206e6f7420666f722073616c6560781b6044820152606401610bef565b600081815260a06020526040902060030154341015611c2a5760405162461bcd60e51b815260206004820152601060248201526f4e6f7420656e6f7567682076616c756560801b6044820152606401610bef565b611c33326118ac565b611c785760405162461bcd60e51b8152602060048201526016602482015275165bdd481cda1bdd5b19081a185d994818481cdbdd5b60521b6044820152606401610bef565b6000611c83826112ec565b90506000816060015134611c9791906136e7565b90508015611cce57604051329082156108fc029083906000818181858888f19350505050158015611ccc573d6000803e3d6000fd5b505b600083815260a060205260409020600101546001600160a01b03166108fc611cf683346136e7565b6040518115909202916000818181858888f19350505050158015611d1e573d6000803e3d6000fd5b50611d298332610f66565b611d338332612b06565b611d3c83612b66565b6040805184815234602082015232917fdd85ec7d965e6b26848609ec8720d2154b613e347f427ab82ee784236b28bbf3910160405180910390a2505050565b6104aa81612bbc565b610af18282612be6565b6001600160a01b039182166000908152606a6020908152604080832093909416825291909152205460ff1690565b32611dc683611401565b6001600160a01b031614611dd957600080fd5b32611de38361138a565b6001600160a01b031614611df657600080fd5b600082815260a1602052604090206007015460ff1615611e1557600080fd5b604051806101000160405280611e2a8461138a565b6001600160a01b03168152602001611e4184611401565b6001600160a01b0390811682524260208084019190915260a35460408085019190915260a454606080860191909152608080860188905260a0808701899052600160c097880181905260008b815260a18752859020895181549089166001600160a01b03199182161782558a8801519282018054939099169216919091179096558784015160028701559187015160038601558601516004850155850151600584015592840151600683015560e0909301516007909101805491151560ff1990921691909117905580518481529182018390527ff8910119ddbef5440c54532457dfe8250a10ed39e583292818f44724b9e1344c9101610fe2565b6104aa81612c46565b33611f4f82611401565b6001600160a01b031614611f6257600080fd5b6104aa81612b66565b611f74326120cf565b611f905760405162461bcd60e51b8152600401610bef90613690565b6000918252609a60209081526040832080546001810182559084529281902090830401805460ff928316601f9094166101000a9384029290930219909216179055565b6000908152606760205260409020546001600160a01b0316151590565b600081815260696020526040902080546001600160a01b0319166001600160a01b03841690811790915581906120258261138a565b6001600160a01b03167f8c5be1e5ebec7d5bd14f71427d1e84f3dd0314c0f7b2291e5b200ac8c7c3b92560405160405180910390a45050565b612067326120cf565b6120835760405162461bcd60e51b8152600401610bef90613690565b60a280546001600160a01b0319166001600160a01b0392909216919091179055565b6120ae326120cf565b6120ca5760405162461bcd60e51b8152600401610bef90613690565b60a655565b6001600160a01b031660009081526097602052604090205460ff1690565b6120f6326120cf565b6121125760405162461bcd60e51b8152600401610bef90613690565b6001600160a01b038116600081815260976020526040808220805460ff19169055517fa3b62bc36326052d97ea62d63c3d60308ed4c3ea8ac079dd8499f1e9c4f80c0f9190a250565b600061216682611fd3565b6121c75760405162461bcd60e51b815260206004820152602c60248201527f4552433732313a206f70657261746f7220717565727920666f72206e6f6e657860448201526b34b9ba32b73a103a37b5b2b760a11b6064820152608401610bef565b60006121d28361138a565b9050806001600160a01b0316846001600160a01b0316148061220d5750836001600160a01b031661220284610b87565b6001600160a01b0316145b8061221d575061221d8185611d8e565b949350505050565b826001600160a01b03166122388261138a565b6001600160a01b0316146122a05760405162461bcd60e51b815260206004820152602960248201527f4552433732313a207472616e73666572206f6620746f6b656e2074686174206960448201526839903737ba1037bbb760b91b6064820152608401610bef565b6001600160a01b0382166123025760405162461bcd60e51b8152602060048201526024808201527f4552433732313a207472616e7366657220746f20746865207a65726f206164646044820152637265737360e01b6064820152608401610bef565b61230d600082611ff0565b6001600160a01b03831660009081526068602052604081208054600192906123369084906136e7565b90915550506001600160a01b03821660009081526068602052604081208054600192906123649084906136bb565b909155505060008181526067602052604080822080546001600160a01b0319166001600160a01b03868116918217909255915184939187169160008051602061385083398151915291a4505050565b600081815260a16020908152604080832081516101008101835281546001600160a01b0390811682526001830154169381019390935260028101549183018290526003810154606084015260048101546080840152600581015460a0840152600681015460c08401526007015460ff16151560e08301528290612437904290612c70565b9050816080015181111561244f575060019392505050565b5060009392505050565b60a85460ff166124a25760405162461bcd60e51b815260206004820152601460248201527314185d5cd8589b194e881b9bdd081c185d5cd95960621b6044820152606401610bef565b60a8805460ff191690557f5db9ee0a495bf2e6ff9c91a7834c1ba4fdd244a5e8aa4e537bd38aeae4b073aa335b6040516124dc91906134a3565b60405180910390a1565b600081815260a16020908152604080832081516101008101835281546001600160a01b0390811682526001830154169381019390935260028101549183018290526003810154606084015260048101546080840152600581015460a0840152600681015460c08401526007015460ff16151560e0830152829061256a904290612c70565b90506000612577856123b3565b15612585575060a75461221d565b60c08301516125949083612c70565b95945050505050565b60008060006125ab8461138a565b905060006125b885611401565b91959194509092505050565b6000828152609e60205260409020546001600160a01b03163214610f665760405162461bcd60e51b815260206004820181905260248201527f596f7520617265206e6f742063617272696572206f66207468697320736f756c6044820152606401610bef565b61263381611fd3565b61263c57600080fd5b3361264682611401565b6001600160a01b03161461265957600080fd5b600081815260a160205260408120600701805460ff1916905580fd5b3361267f82611401565b6001600160a01b03161461269257600080fd5b600090815260a160205260409020600701805460ff19169055565b6126b6326120cf565b6126d25760405162461bcd60e51b8152600401610bef90613690565b60a755565b6126e0326120cf565b6126fc5760405162461bcd60e51b8152600401610bef90613690565b6001600160a01b038116600081815260976020526040808220805460ff19166001179055516000805160206138308339815191529190a250565b60a85460ff161561277c5760405162461bcd60e51b815260206004820152601060248201526f14185d5cd8589b194e881c185d5cd95960821b6044820152606401610bef565b60a8805460ff191660011790557f62e78cea01bee320cd4e420270b5ea74000d11b0c9f74754ebdbfc544b05a2586124cf3390565b610af1828260405180602001604052806000815250612c7c565b6127d6848484612225565b6127e284848484612caf565b6118a65760405162461bcd60e51b8152600401610bef9061359f565b60985460ff16156128465760405162461bcd60e51b815260206004820152601260248201527118dbdb9d1c9858dd081a5cc81a5b9a5d195960721b6044820152606401610bef565b6001600160a01b0381166000818152609760205260408082208054600160ff199182168117909255609880549091169091179055516000805160206138308339815191529190a250565b600054610100900460ff16806128a9575060005460ff16155b6128c55760405162461bcd60e51b8152600401610bef906135f1565b600054610100900460ff161580156128e7576000805461ffff19166101011790555b6128ef612dbc565b6128f7612dbc565b6129018383612e27565b8015610d20576000805461ff0019169055505050565b6000805b60208160ff1610156129b0576000838260ff166020811061294c57634e487b7160e01b600052603260045260246000fd5b1a905080158015906129675750609b5460ff90811690821611155b1561299d5761297885600183612ebc565b609b54610100900460ff1661298c846137a3565b93508360ff161161299d57506129b0565b50806129a8816137a3565b91505061291b565b50604051828152839032907f2d1c087923bb29c979975262d5f9b5bccdcbeb3c0bbc9fc5d9e303d7abf639b89060200160405180910390a3505050565b606081612a115750506040805180820190915260018152600360fc1b602082015290565b8160005b8115612a3b5780612a2581613788565b9150612a349050600a836136d3565b9150612a15565b6000816001600160401b03811115612a6357634e487b7160e01b600052604160045260246000fd5b6040519080825280601f01601f191660200182016040528015612a8d576020820181803683370190505b5090505b841561221d57612aa26001836136e7565b9150612aaf600a866137c3565b612aba9060306136bb565b60f81b818381518110612add57634e487b7160e01b600052603260045260246000fd5b60200101906001600160f81b031916908160001a905350612aff600a866136d3565b9450612a91565b600082815260a0602090815260409182902060020180546001600160a01b0319166001600160a01b038516908117909155915184815232917fe90419f2812a0b5567d88901ce6bfd4c8dd5a9401f842a0da4404a1c402c234b9101611808565b600081815260a0602052604090819020600401805460ff19169055517f2459d2e941fa81acec6a314349c8176c81d809383738d1e1f1d33972c17d3e1590612bb19083815260200190565b60405180910390a150565b612bc5326120cf565b612be15760405162461bcd60e51b8152600401610bef90613690565b60a555565b600082815260a0602090815260409182902060010180546001600160a01b0319166001600160a01b038516908117909155915184815232917f384cd900320597bb9f30f6ffc1b673fdb9a357c186354215732cb1d304eaf58e9101611808565b612c4f326120cf565b612c6b5760405162461bcd60e51b8152600401610bef90613690565b60a455565b6000611a5082846136e7565b612c868383612f9b565b612c936000848484612caf565b610d205760405162461bcd60e51b8152600401610bef9061359f565b60006001600160a01b0384163b15612db157604051630a85bd0160e11b81526001600160a01b0385169063150b7a0290612cf39033908990889088906004016134b7565b602060405180830381600087803b158015612d0d57600080fd5b505af1925050508015612d3d575060408051601f3d908101601f19168201909252612d3a91810190613386565b60015b612d97573d808015612d6b576040519150601f19603f3d011682016040523d82523d6000602084013e612d70565b606091505b508051612d8f5760405162461bcd60e51b8152600401610bef9061359f565b805181602001fd5b6001600160e01b031916630a85bd0160e11b14905061221d565b506001949350505050565b600054610100900460ff1680612dd5575060005460ff16155b612df15760405162461bcd60e51b8152600401610bef906135f1565b600054610100900460ff16158015612e13576000805461ffff19166101011790555b80156104aa576000805461ff001916905550565b600054610100900460ff1680612e40575060005460ff16155b612e5c5760405162461bcd60e51b8152600401610bef906135f1565b600054610100900460ff16158015612e7e576000805461ffff19166101011790555b8251612e919060659060208601906130e6565b508151612ea59060669060208501906130e6565b508015610d20576000805461ff0019169055505050565b6000612ec784610ff7565b90506000818460ff1660208110612eee57634e487b7160e01b600052603260045260246000fd5b1a905060ff8316612efe57600080fd5b609b5460ff9081169084161115612f1457600080fd5b612f1f8360ff6136fe565b60ff168160ff161115612f3157600080fd5b6000612f3c836130bb565b90508160f81b818660ff1681518110612f6557634e487b7160e01b600052603260045260246000fd5b60200101906001600160f81b031916908160001a9053506020810151600096875260996020526040909620959095555050505050565b6001600160a01b038216612ff15760405162461bcd60e51b815260206004820181905260248201527f4552433732313a206d696e7420746f20746865207a65726f20616464726573736044820152606401610bef565b612ffa81611fd3565b156130465760405162461bcd60e51b815260206004820152601c60248201527b115490cdcc8c4e881d1bdad95b88185b1c9958591e481b5a5b9d195960221b6044820152606401610bef565b6001600160a01b038216600090815260686020526040812080546001929061306f9084906136bb565b909155505060008181526067602052604080822080546001600160a01b0319166001600160a01b0386169081179091559051839290600080516020613850833981519152908290a45050565b6060816040516020016130d091815260200190565b6040516020818303038152906040529050919050565b8280546130f29061374d565b90600052602060002090601f016020900481019282613114576000855561315a565b82601f1061312d57805160ff191683800117855561315a565b8280016001018555821561315a579182015b8281111561315a57825182559160200191906001019061313f565b5061316692915061316a565b5090565b5b80821115613166576000815560010161316b565b80356001600160a01b038116811461319657600080fd5b919050565b803560ff8116811461319657600080fd5b6000602082840312156131bd578081fd5b611a508261317f565b600080604083850312156131d8578081fd5b6131e18361317f565b91506131ef6020840161317f565b90509250929050565b60008060006060848603121561320c578081fd5b6132158461317f565b92506132236020850161317f565b9150604084013590509250925092565b60008060008060808587031215613248578081fd5b6132518561317f565b935061325f6020860161317f565b92506040850135915060608501356001600160401b0380821115613281578283fd5b818701915087601f830112613294578283fd5b8135818111156132a6576132a6613803565b604051601f8201601f19908116603f011681019083821181831017156132ce576132ce613803565b816040528281528a60208487010111156132e6578586fd5b82602086016020830137918201602001949094529598949750929550505050565b60008060408385031215613319578182fd5b6133228361317f565b915060208301358015158114613336578182fd5b809150509250929050565b60008060408385031215613353578182fd5b61335c8361317f565b946020939093013593505050565b60006020828403121561337b578081fd5b8135611a5081613819565b600060208284031215613397578081fd5b8151611a5081613819565b6000602082840312156133b3578081fd5b5035919050565b600080604083850312156133cc578182fd5b823591506131ef6020840161317f565b600080604083850312156133ee578182fd5b50508035926020909101359150565b6000806040838503121561340f578182fd5b823591506131ef6020840161319b565b60008060408385031215613431578182fd5b61343a8361319b565b91506131ef6020840161319b565b60008151808452613460816020860160208601613721565b601f01601f19169290920160200192915050565b60008351613486818460208801613721565b83519083019061349a818360208801613721565b01949350505050565b6001600160a01b0391909116815260200190565b6001600160a01b03858116825284166020820152604081018390526080606082018190526000906134ea90830184613448565b9695505050505050565b6001600160a01b03929092168252602082015260400190565b6020808252825182820181905260009190848201906040850190845b8181101561354557835183529284019291840191600101613529565b50909695505050505050565b6020808252825182820181905260009190848201906040850190845b8181101561354557835160ff168352928401929184019160010161356d565b602081526000611a506020830184613448565b60208082526032908201527f4552433732313a207472616e7366657220746f206e6f6e20455243373231526560408201527131b2b4bb32b91034b6b83632b6b2b73a32b960711b606082015260800190565b6020808252602e908201527f496e697469616c697a61626c653a20636f6e747261637420697320616c72656160408201526d191e481a5b9a5d1a585b1a5e995960921b606082015260800190565b60208082526031908201527f4552433732313a207472616e736665722063616c6c6572206973206e6f74206f6040820152701ddb995c881b9bdc88185c1c1c9bdd9959607a1b606082015260800190565b6020808252601190820152703cb7ba9030b932903737ba1030b236b4b760791b604082015260600190565b600082198211156136ce576136ce6137d7565b500190565b6000826136e2576136e26137ed565b500490565b6000828210156136f9576136f96137d7565b500390565b600060ff821660ff841680821015613718576137186137d7565b90039392505050565b60005b8381101561373c578181015183820152602001613724565b838111156118a65750506000910152565b600181811c9082168061376157607f821691505b6020821081141561378257634e487b7160e01b600052602260045260246000fd5b50919050565b600060001982141561379c5761379c6137d7565b5060010190565b600060ff821660ff8114156137ba576137ba6137d7565b60010192915050565b6000826137d2576137d26137ed565b500690565b634e487b7160e01b600052601160045260246000fd5b634e487b7160e01b600052601260045260246000fd5b634e487b7160e01b600052604160045260246000fd5b6001600160e01b0319811681146104aa57600080fdfe44d6d25963f097ad14f29f06854a01f575648a1ef82f30e562ccd3889717e339ddf252ad1be2c89b69c2b068fc378daa952ba7f163c4a11628f55a4df523b3efa2646970667358221220fed87bf868f86f63305bb47ff33cc3f988a4f7e38b46e9eb73b1398dd1c6256064736f6c63430008040033",
  "immutableReferences": {},
  "source": "// SPDX-License-Identifier: UNLICENSED\npragma solidity ^0.8.0;\n\nimport \"./SoulAuction.sol\";\nimport \"@openzeppelin/contracts-upgradeable/security/PausableUpgradeable.sol\";\n\ncontract NFSoul is SoulAuction, PausableUpgradeable {\n    mapping(uint256 => Soul) _souls;\n    mapping(address => uint256) soulOwner;\n\n    event TestBuy(uint256 soulId); // fore test\n    event ReceiveUnknownPaymentRecieve(address sender, uint256 value);\n    event ReceiveUnknownPaymentFallback(address sender, uint256 value);\n\n    struct Soul {\n        bytes4 fb;\n        uint256 phone;\n    }\n\n    function soulExists(uint256 soulId) public view returns (bool) {\n        return _exists(soulId);\n    }\n\n    function initialize(address account) public initializer {\n        _init(account);\n        __ERC721_init(\"Soul\", \"NFS\");\n    }\n\n    // Auction function\n    function reclaimSoul(uint256 soulId) public {\n        _reclaimSoul(soulId);\n    }\n\n    function returnSoulToAuction(uint256 soulId) public {\n        _returnSoulToAuction(soulId);\n    }\n\n    function getActualPrice(uint256 soulId) public view {\n        _getActualPrice(soulId);\n    }\n\n    function timeIsOver(uint256 soulId) public view {\n        _timeIsOver(soulId);\n    }\n\n    function updateAuction(uint256 soulId) public {\n        _updateAuction(soulId);\n    }\n\n    // Admin functions\n    function addAdmin(address addr) public {\n        // tested\n        _addAdmin(addr);\n    }\n\n    function isAdmin(address account) public view returns (bool) {\n        return _isAdmin(account);\n    }\n\n    function removeAdmin(address addr) public {\n        // tested\n        _removeAdmin(addr);\n    }\n\n    function pause() public {\n        _pause();\n    }\n\n    function unpause() public {\n        _unpause();\n    }\n\n    function getPauseStatus() public view returns (bool) {\n        // Check after deploy\n        return paused();\n    }\n\n    function setServicePiece(uint256 piece) public {\n        _setServicePiece(piece);\n    }\n\n    function setOwnerPiece(uint256 piece) public {\n        _setOwnerPiece(piece);\n    }\n\n    function setPieAddress(address pieToken) public {\n        _setPieAddress(pieToken);\n    }\n\n    function setDuration(uint256 auctionTime) public {\n        _setDuration(auctionTime);\n    }\n\n    function setMinPrice(uint256 minPrice) public {\n        _setMinPrice(minPrice);\n    }\n\n    // Modification functions\n    function setDonorMod(uint256 soulId, uint8 typeMod) public {\n        _setDonorMod(soulId, typeMod);\n    }\n\n    function setCommonMods(uint256 soulId, bytes32 modification) public {\n        _setModification(soulId, modification);\n    }\n\n    // Receive and Fallback\n    receive() external payable {\n        emit ReceiveUnknownPaymentRecieve(msg.sender, msg.value);\n        payable(_pieAddress).transfer(msg.value);\n    }\n\n    fallback() external payable {\n        emit ReceiveUnknownPaymentFallback(msg.sender, msg.value);\n\n        payable(_pieAddress).transfer(msg.value);\n    }\n}\n",
  "sourcePath": "/home/ilyadruzh/Documents/nfsoul/sc/contracts/NFSoul.sol",
  "compiler": {
    "name": "solc",
    "version": "0.8.4+commit.c7e474f2.Emscripten.clang"
  },
  "schemaVersion": "3.4.1",
  "updatedAt": "2021-06-02T08:15:58.896Z",
  "devdoc": {
    "kind": "dev",
    "methods": {
      "approve(address,uint256)": {
        "details": "See {IERC721-approve}."
      },
      "balanceOf(address)": {
        "details": "See {IERC721-balanceOf}."
      },
      "getApproved(uint256)": {
        "details": "See {IERC721-getApproved}."
      },
      "isApprovedForAll(address,address)": {
        "details": "See {IERC721-isApprovedForAll}."
      },
      "name()": {
        "details": "See {IERC721Metadata-name}."
      },
      "ownerOf(uint256)": {
        "details": "See {IERC721-ownerOf}."
      },
      "paused()": {
        "details": "Returns true if the contract is paused, and false otherwise."
      },
      "safeTransferFrom(address,address,uint256)": {
        "details": "See {IERC721-safeTransferFrom}."
      },
      "safeTransferFrom(address,address,uint256,bytes)": {
        "details": "See {IERC721-safeTransferFrom}."
      },
      "setApprovalForAll(address,bool)": {
        "details": "See {IERC721-setApprovalForAll}."
      },
      "supportsInterface(bytes4)": {
        "details": "See {IERC165-supportsInterface}."
      },
      "symbol()": {
        "details": "See {IERC721Metadata-symbol}."
      },
      "tokenURI(uint256)": {
        "details": "See {IERC721Metadata-tokenURI}."
      },
      "transferFrom(address,address,uint256)": {
        "details": "See {IERC721-transferFrom}."
      }
    },
    "version": 1
  },
  "userdoc": {
    "kind": "user",
    "methods": {},
    "version": 1
  }
}