{
  "contractName": "NFSoul",
  "abi": [
    {
      "anonymous": false,
      "inputs": [
        {
          "indexed": true,
          "internalType": "address",
          "name": "account",
          "type": "address"
        }
      ],
      "name": "AdminAdded",
      "type": "event"
    },
    {
      "anonymous": false,
      "inputs": [
        {
          "indexed": true,
          "internalType": "address",
          "name": "account",
          "type": "address"
        }
      ],
      "name": "AdminRemoved",
      "type": "event"
    },
    {
      "anonymous": false,
      "inputs": [
        {
          "indexed": true,
          "internalType": "address",
          "name": "owner",
          "type": "address"
        },
        {
          "indexed": true,
          "internalType": "address",
          "name": "approved",
          "type": "address"
        },
        {
          "indexed": true,
          "internalType": "uint256",
          "name": "tokenId",
          "type": "uint256"
        }
      ],
      "name": "Approval",
      "type": "event"
    },
    {
      "anonymous": false,
      "inputs": [
        {
          "indexed": true,
          "internalType": "address",
          "name": "owner",
          "type": "address"
        },
        {
          "indexed": true,
          "internalType": "address",
          "name": "operator",
          "type": "address"
        },
        {
          "indexed": false,
          "internalType": "bool",
          "name": "approved",
          "type": "bool"
        }
      ],
      "name": "ApprovalForAll",
      "type": "event"
    },
    {
      "anonymous": false,
      "inputs": [
        {
          "indexed": false,
          "internalType": "uint256",
          "name": "soulId",
          "type": "uint256"
        },
        {
          "indexed": false,
          "internalType": "uint256",
          "name": "price",
          "type": "uint256"
        }
      ],
      "name": "AuctionStarted",
      "type": "event"
    },
    {
      "anonymous": false,
      "inputs": [
        {
          "indexed": true,
          "internalType": "address",
          "name": "oldBuyer",
          "type": "address"
        },
        {
          "indexed": true,
          "internalType": "address",
          "name": "newBuyer",
          "type": "address"
        },
        {
          "indexed": false,
          "internalType": "uint256",
          "name": "soulId",
          "type": "uint256"
        }
      ],
      "name": "BuyerChanged",
      "type": "event"
    },
    {
      "anonymous": false,
      "inputs": [
        {
          "indexed": false,
          "internalType": "uint256",
          "name": "soulId",
          "type": "uint256"
        },
        {
          "indexed": false,
          "internalType": "address",
          "name": "newCarrier",
          "type": "address"
        }
      ],
      "name": "CarrierChanged",
      "type": "event"
    },
    {
      "anonymous": false,
      "inputs": [
        {
          "indexed": true,
          "internalType": "address",
          "name": "from",
          "type": "address"
        },
        {
          "indexed": true,
          "internalType": "uint256",
          "name": "tokenId",
          "type": "uint256"
        },
        {
          "indexed": false,
          "internalType": "bytes32",
          "name": "mods",
          "type": "bytes32"
        }
      ],
      "name": "ModificationSetted",
      "type": "event"
    },
    {
      "anonymous": false,
      "inputs": [
        {
          "indexed": false,
          "internalType": "address",
          "name": "account",
          "type": "address"
        }
      ],
      "name": "Paused",
      "type": "event"
    },
    {
      "anonymous": false,
      "inputs": [
        {
          "indexed": false,
          "internalType": "address",
          "name": "sender",
          "type": "address"
        },
        {
          "indexed": false,
          "internalType": "uint256",
          "name": "value",
          "type": "uint256"
        }
      ],
      "name": "ReceiveUnknownPaymentFallback",
      "type": "event"
    },
    {
      "anonymous": false,
      "inputs": [
        {
          "indexed": false,
          "internalType": "address",
          "name": "sender",
          "type": "address"
        },
        {
          "indexed": false,
          "internalType": "uint256",
          "name": "value",
          "type": "uint256"
        }
      ],
      "name": "ReceiveUnknownPaymentRecieve",
      "type": "event"
    },
    {
      "anonymous": false,
      "inputs": [
        {
          "indexed": false,
          "internalType": "uint256",
          "name": "soulId",
          "type": "uint256"
        }
      ],
      "name": "SaleStoped",
      "type": "event"
    },
    {
      "anonymous": false,
      "inputs": [
        {
          "indexed": true,
          "internalType": "address",
          "name": "oldSeller",
          "type": "address"
        },
        {
          "indexed": true,
          "internalType": "address",
          "name": "newSeller",
          "type": "address"
        },
        {
          "indexed": false,
          "internalType": "uint256",
          "name": "soulId",
          "type": "uint256"
        }
      ],
      "name": "SellerChanged",
      "type": "event"
    },
    {
      "anonymous": false,
      "inputs": [
        {
          "indexed": true,
          "internalType": "address",
          "name": "buyer",
          "type": "address"
        },
        {
          "indexed": false,
          "internalType": "uint256",
          "name": "soulId",
          "type": "uint256"
        },
        {
          "indexed": false,
          "internalType": "uint256",
          "name": "price",
          "type": "uint256"
        }
      ],
      "name": "SoulBuyed",
      "type": "event"
    },
    {
      "anonymous": false,
      "inputs": [
        {
          "indexed": true,
          "internalType": "address",
          "name": "seller",
          "type": "address"
        },
        {
          "indexed": false,
          "internalType": "uint256",
          "name": "price",
          "type": "uint256"
        }
      ],
      "name": "SoulOnSale",
      "type": "event"
    },
    {
      "anonymous": false,
      "inputs": [
        {
          "indexed": false,
          "internalType": "uint256",
          "name": "soulId",
          "type": "uint256"
        }
      ],
      "name": "TestBuy",
      "type": "event"
    },
    {
      "anonymous": false,
      "inputs": [
        {
          "indexed": true,
          "internalType": "address",
          "name": "from",
          "type": "address"
        },
        {
          "indexed": true,
          "internalType": "address",
          "name": "to",
          "type": "address"
        },
        {
          "indexed": true,
          "internalType": "uint256",
          "name": "tokenId",
          "type": "uint256"
        }
      ],
      "name": "Transfer",
      "type": "event"
    },
    {
      "anonymous": false,
      "inputs": [
        {
          "indexed": false,
          "internalType": "address",
          "name": "account",
          "type": "address"
        }
      ],
      "name": "Unpaused",
      "type": "event"
    },
    {
      "stateMutability": "payable",
      "type": "fallback"
    },
    {
      "inputs": [],
      "name": "_pieAddress",
      "outputs": [
        {
          "internalType": "address",
          "name": "",
          "type": "address"
        }
      ],
      "stateMutability": "view",
      "type": "function"
    },
    {
      "inputs": [
        {
          "internalType": "uint8",
          "name": "maxModVal",
          "type": "uint8"
        },
        {
          "internalType": "uint8",
          "name": "maxMods",
          "type": "uint8"
        }
      ],
      "name": "_setModificationSettings",
      "outputs": [],
      "stateMutability": "nonpayable",
      "type": "function"
    },
    {
      "inputs": [
        {
          "internalType": "address",
          "name": "to",
          "type": "address"
        },
        {
          "internalType": "uint256",
          "name": "tokenId",
          "type": "uint256"
        }
      ],
      "name": "approve",
      "outputs": [],
      "stateMutability": "nonpayable",
      "type": "function"
    },
    {
      "inputs": [
        {
          "internalType": "uint256",
          "name": "soulId",
          "type": "uint256"
        }
      ],
      "name": "auctionInfo",
      "outputs": [
        {
          "components": [
            {
              "internalType": "address",
              "name": "owner",
              "type": "address"
            },
            {
              "internalType": "address",
              "name": "carrier",
              "type": "address"
            },
            {
              "internalType": "uint256",
              "name": "startedAt",
              "type": "uint256"
            },
            {
              "internalType": "uint256",
              "name": "freezeTime",
              "type": "uint256"
            },
            {
              "internalType": "uint256",
              "name": "duration",
              "type": "uint256"
            },
            {
              "internalType": "uint256",
              "name": "firstPrice",
              "type": "uint256"
            },
            {
              "internalType": "uint256",
              "name": "actualPrice",
              "type": "uint256"
            },
            {
              "internalType": "bool",
              "name": "isActive",
              "type": "bool"
            }
          ],
          "internalType": "struct ISoulAuction.Auction",
          "name": "",
          "type": "tuple"
        }
      ],
      "stateMutability": "view",
      "type": "function"
    },
    {
      "inputs": [
        {
          "internalType": "address",
          "name": "owner",
          "type": "address"
        }
      ],
      "name": "balanceOf",
      "outputs": [
        {
          "internalType": "uint256",
          "name": "",
          "type": "uint256"
        }
      ],
      "stateMutability": "view",
      "type": "function"
    },
    {
      "inputs": [
        {
          "internalType": "uint256",
          "name": "soulId",
          "type": "uint256"
        }
      ],
      "name": "bid",
      "outputs": [],
      "stateMutability": "payable",
      "type": "function"
    },
    {
      "inputs": [
        {
          "internalType": "uint256",
          "name": "soulId",
          "type": "uint256"
        }
      ],
      "name": "buy",
      "outputs": [],
      "stateMutability": "payable",
      "type": "function"
    },
    {
      "inputs": [
        {
          "internalType": "uint256",
          "name": "soulId",
          "type": "uint256"
        }
      ],
      "name": "carrierOf",
      "outputs": [
        {
          "internalType": "address",
          "name": "",
          "type": "address"
        }
      ],
      "stateMutability": "view",
      "type": "function"
    },
    {
      "inputs": [
        {
          "internalType": "uint256",
          "name": "soulId",
          "type": "uint256"
        },
        {
          "internalType": "address",
          "name": "newCarrier",
          "type": "address"
        }
      ],
      "name": "changeCarrier",
      "outputs": [],
      "stateMutability": "nonpayable",
      "type": "function"
    },
    {
      "inputs": [
        {
          "internalType": "uint256",
          "name": "soulId",
          "type": "uint256"
        },
        {
          "internalType": "address",
          "name": "newSellerAddress",
          "type": "address"
        }
      ],
      "name": "changeSeller",
      "outputs": [],
      "stateMutability": "nonpayable",
      "type": "function"
    },
    {
      "inputs": [
        {
          "internalType": "uint256",
          "name": "soulId",
          "type": "uint256"
        },
        {
          "internalType": "uint256",
          "name": "price",
          "type": "uint256"
        }
      ],
      "name": "firstSale",
      "outputs": [],
      "stateMutability": "nonpayable",
      "type": "function"
    },
    {
      "inputs": [
        {
          "internalType": "uint256",
          "name": "tokenId",
          "type": "uint256"
        }
      ],
      "name": "getApproved",
      "outputs": [
        {
          "internalType": "address",
          "name": "",
          "type": "address"
        }
      ],
      "stateMutability": "view",
      "type": "function"
    },
    {
      "inputs": [
        {
          "internalType": "uint256",
          "name": "soulId",
          "type": "uint256"
        }
      ],
      "name": "getCurrentPrice",
      "outputs": [
        {
          "internalType": "uint256",
          "name": "",
          "type": "uint256"
        }
      ],
      "stateMutability": "view",
      "type": "function"
    },
    {
      "inputs": [
        {
          "internalType": "uint256",
          "name": "soulId",
          "type": "uint256"
        }
      ],
      "name": "getDonorMod",
      "outputs": [
        {
          "internalType": "uint8[]",
          "name": "",
          "type": "uint8[]"
        }
      ],
      "stateMutability": "view",
      "type": "function"
    },
    {
      "inputs": [
        {
          "internalType": "uint256",
          "name": "soulId",
          "type": "uint256"
        }
      ],
      "name": "getInfoAboutSale",
      "outputs": [
        {
          "components": [
            {
              "internalType": "uint256",
              "name": "startedAt",
              "type": "uint256"
            },
            {
              "internalType": "address",
              "name": "seller",
              "type": "address"
            },
            {
              "internalType": "address",
              "name": "buyer",
              "type": "address"
            },
            {
              "internalType": "uint256",
              "name": "price",
              "type": "uint256"
            },
            {
              "internalType": "bool",
              "name": "onSale",
              "type": "bool"
            }
          ],
          "internalType": "struct ISoulMarket.Sale",
          "name": "",
          "type": "tuple"
        }
      ],
      "stateMutability": "view",
      "type": "function"
    },
    {
      "inputs": [
        {
          "internalType": "address",
          "name": "carrier",
          "type": "address"
        }
      ],
      "name": "getSoul",
      "outputs": [
        {
          "internalType": "uint256[]",
          "name": "soulIds",
          "type": "uint256[]"
        }
      ],
      "stateMutability": "view",
      "type": "function"
    },
    {
      "inputs": [
        {
          "internalType": "uint256",
          "name": "soulId",
          "type": "uint256"
        }
      ],
      "name": "getSoulModifications",
      "outputs": [
        {
          "internalType": "bytes32",
          "name": "",
          "type": "bytes32"
        }
      ],
      "stateMutability": "view",
      "type": "function"
    },
    {
      "inputs": [
        {
          "internalType": "address",
          "name": "person",
          "type": "address"
        }
      ],
      "name": "hasSoul",
      "outputs": [
        {
          "internalType": "bool",
          "name": "",
          "type": "bool"
        }
      ],
      "stateMutability": "view",
      "type": "function"
    },
    {
      "inputs": [
        {
          "internalType": "address",
          "name": "owner",
          "type": "address"
        },
        {
          "internalType": "address",
          "name": "operator",
          "type": "address"
        }
      ],
      "name": "isApprovedForAll",
      "outputs": [
        {
          "internalType": "bool",
          "name": "",
          "type": "bool"
        }
      ],
      "stateMutability": "view",
      "type": "function"
    },
    {
      "inputs": [
        {
          "internalType": "uint256",
          "name": "soulId",
          "type": "uint256"
        }
      ],
      "name": "mint",
      "outputs": [],
      "stateMutability": "payable",
      "type": "function"
    },
    {
      "inputs": [],
      "name": "modificationSettings",
      "outputs": [
        {
          "internalType": "uint8",
          "name": "",
          "type": "uint8"
        },
        {
          "internalType": "uint8",
          "name": "",
          "type": "uint8"
        }
      ],
      "stateMutability": "view",
      "type": "function"
    },
    {
      "inputs": [],
      "name": "name",
      "outputs": [
        {
          "internalType": "string",
          "name": "",
          "type": "string"
        }
      ],
      "stateMutability": "view",
      "type": "function"
    },
    {
      "inputs": [
        {
          "internalType": "uint256",
          "name": "tokenId",
          "type": "uint256"
        }
      ],
      "name": "ownerOf",
      "outputs": [
        {
          "internalType": "address",
          "name": "",
          "type": "address"
        }
      ],
      "stateMutability": "view",
      "type": "function"
    },
    {
      "inputs": [],
      "name": "paused",
      "outputs": [
        {
          "internalType": "bool",
          "name": "",
          "type": "bool"
        }
      ],
      "stateMutability": "view",
      "type": "function"
    },
    {
      "inputs": [
        {
          "internalType": "address",
          "name": "from",
          "type": "address"
        },
        {
          "internalType": "address",
          "name": "to",
          "type": "address"
        },
        {
          "internalType": "uint256",
          "name": "tokenId",
          "type": "uint256"
        }
      ],
      "name": "safeTransferFrom",
      "outputs": [],
      "stateMutability": "nonpayable",
      "type": "function"
    },
    {
      "inputs": [
        {
          "internalType": "address",
          "name": "from",
          "type": "address"
        },
        {
          "internalType": "address",
          "name": "to",
          "type": "address"
        },
        {
          "internalType": "uint256",
          "name": "tokenId",
          "type": "uint256"
        },
        {
          "internalType": "bytes",
          "name": "_data",
          "type": "bytes"
        }
      ],
      "name": "safeTransferFrom",
      "outputs": [],
      "stateMutability": "nonpayable",
      "type": "function"
    },
    {
      "inputs": [
        {
          "internalType": "uint256",
          "name": "soulId",
          "type": "uint256"
        },
        {
          "internalType": "uint256",
          "name": "price",
          "type": "uint256"
        }
      ],
      "name": "sale",
      "outputs": [],
      "stateMutability": "nonpayable",
      "type": "function"
    },
    {
      "inputs": [
        {
          "internalType": "address",
          "name": "operator",
          "type": "address"
        },
        {
          "internalType": "bool",
          "name": "approved",
          "type": "bool"
        }
      ],
      "name": "setApprovalForAll",
      "outputs": [],
      "stateMutability": "nonpayable",
      "type": "function"
    },
    {
      "inputs": [
        {
          "internalType": "uint256",
          "name": "soulId",
          "type": "uint256"
        }
      ],
      "name": "stopSale",
      "outputs": [],
      "stateMutability": "nonpayable",
      "type": "function"
    },
    {
      "inputs": [
        {
          "internalType": "bytes4",
          "name": "interfaceId",
          "type": "bytes4"
        }
      ],
      "name": "supportsInterface",
      "outputs": [
        {
          "internalType": "bool",
          "name": "",
          "type": "bool"
        }
      ],
      "stateMutability": "view",
      "type": "function"
    },
    {
      "inputs": [],
      "name": "symbol",
      "outputs": [
        {
          "internalType": "string",
          "name": "",
          "type": "string"
        }
      ],
      "stateMutability": "view",
      "type": "function"
    },
    {
      "inputs": [
        {
          "internalType": "uint256",
          "name": "tokenId",
          "type": "uint256"
        }
      ],
      "name": "tokenURI",
      "outputs": [
        {
          "internalType": "string",
          "name": "",
          "type": "string"
        }
      ],
      "stateMutability": "view",
      "type": "function"
    },
    {
      "inputs": [
        {
          "internalType": "address",
          "name": "from",
          "type": "address"
        },
        {
          "internalType": "address",
          "name": "to",
          "type": "address"
        },
        {
          "internalType": "uint256",
          "name": "tokenId",
          "type": "uint256"
        }
      ],
      "name": "transferFrom",
      "outputs": [],
      "stateMutability": "nonpayable",
      "type": "function"
    },
    {
      "stateMutability": "payable",
      "type": "receive"
    },
    {
      "inputs": [
        {
          "internalType": "uint256",
          "name": "soulId",
          "type": "uint256"
        }
      ],
      "name": "soulExists",
      "outputs": [
        {
          "internalType": "bool",
          "name": "",
          "type": "bool"
        }
      ],
      "stateMutability": "view",
      "type": "function"
    },
    {
      "inputs": [
        {
          "internalType": "address",
          "name": "account",
          "type": "address"
        }
      ],
      "name": "initialize",
      "outputs": [],
      "stateMutability": "nonpayable",
      "type": "function"
    },
    {
      "inputs": [
        {
          "internalType": "uint256",
          "name": "soulId",
          "type": "uint256"
        }
      ],
      "name": "reclaimSoul",
      "outputs": [],
      "stateMutability": "nonpayable",
      "type": "function"
    },
    {
      "inputs": [
        {
          "internalType": "uint256",
          "name": "soulId",
          "type": "uint256"
        }
      ],
      "name": "returnSoulToAuction",
      "outputs": [],
      "stateMutability": "nonpayable",
      "type": "function"
    },
    {
      "inputs": [
        {
          "internalType": "uint256",
          "name": "soulId",
          "type": "uint256"
        }
      ],
      "name": "getActualPrice",
      "outputs": [],
      "stateMutability": "view",
      "type": "function"
    },
    {
      "inputs": [
        {
          "internalType": "uint256",
          "name": "soulId",
          "type": "uint256"
        }
      ],
      "name": "timeIsOver",
      "outputs": [],
      "stateMutability": "view",
      "type": "function"
    },
    {
      "inputs": [
        {
          "internalType": "uint256",
          "name": "soulId",
          "type": "uint256"
        }
      ],
      "name": "updateAuction",
      "outputs": [],
      "stateMutability": "nonpayable",
      "type": "function"
    },
    {
      "inputs": [
        {
          "internalType": "address",
          "name": "addr",
          "type": "address"
        }
      ],
      "name": "addAdmin",
      "outputs": [],
      "stateMutability": "nonpayable",
      "type": "function"
    },
    {
      "inputs": [
        {
          "internalType": "address",
          "name": "account",
          "type": "address"
        }
      ],
      "name": "isAdmin",
      "outputs": [
        {
          "internalType": "bool",
          "name": "",
          "type": "bool"
        }
      ],
      "stateMutability": "view",
      "type": "function"
    },
    {
      "inputs": [
        {
          "internalType": "address",
          "name": "addr",
          "type": "address"
        }
      ],
      "name": "removeAdmin",
      "outputs": [],
      "stateMutability": "nonpayable",
      "type": "function"
    },
    {
      "inputs": [],
      "name": "pause",
      "outputs": [],
      "stateMutability": "nonpayable",
      "type": "function"
    },
    {
      "inputs": [],
      "name": "unpause",
      "outputs": [],
      "stateMutability": "nonpayable",
      "type": "function"
    },
    {
      "inputs": [],
      "name": "getPauseStatus",
      "outputs": [
        {
          "internalType": "bool",
          "name": "",
          "type": "bool"
        }
      ],
      "stateMutability": "view",
      "type": "function"
    },
    {
      "inputs": [
        {
          "internalType": "uint256",
          "name": "piece",
          "type": "uint256"
        }
      ],
      "name": "setServicePiece",
      "outputs": [],
      "stateMutability": "nonpayable",
      "type": "function"
    },
    {
      "inputs": [
        {
          "internalType": "uint256",
          "name": "piece",
          "type": "uint256"
        }
      ],
      "name": "setOwnerPiece",
      "outputs": [],
      "stateMutability": "nonpayable",
      "type": "function"
    },
    {
      "inputs": [
        {
          "internalType": "address",
          "name": "pieToken",
          "type": "address"
        }
      ],
      "name": "setPieAddress",
      "outputs": [],
      "stateMutability": "nonpayable",
      "type": "function"
    },
    {
      "inputs": [
        {
          "internalType": "uint256",
          "name": "auctionTime",
          "type": "uint256"
        }
      ],
      "name": "setDuration",
      "outputs": [],
      "stateMutability": "nonpayable",
      "type": "function"
    },
    {
      "inputs": [
        {
          "internalType": "uint256",
          "name": "minPrice",
          "type": "uint256"
        }
      ],
      "name": "setMinPrice",
      "outputs": [],
      "stateMutability": "nonpayable",
      "type": "function"
    },
    {
      "inputs": [
        {
          "internalType": "uint256",
          "name": "soulId",
          "type": "uint256"
        },
        {
          "internalType": "uint8",
          "name": "typeMod",
          "type": "uint8"
        }
      ],
      "name": "setDonorMod",
      "outputs": [],
      "stateMutability": "nonpayable",
      "type": "function"
    },
    {
      "inputs": [
        {
          "internalType": "uint256",
          "name": "soulId",
          "type": "uint256"
        },
        {
          "internalType": "bytes32",
          "name": "modification",
          "type": "bytes32"
        }
      ],
      "name": "setCommonMods",
      "outputs": [],
      "stateMutability": "nonpayable",
      "type": "function"
    }
  ],
  "bytecode": "0x608060405234801561001057600080fd5b50613840806100206000396000f3fe60806040526004361061025e5760003560e01c806301ffc9a714610309578063026d7f831461033e57806306fdde0314610360578063081812fc14610382578063095ea7b3146103af5780630a8ab9a1146103cf5780630e9362cc146103ef5780630fa7dcab1461040f5780631785f53c1461042f5780631c35f9621461044f5780631d9023cb1461046f5780632036e7321461048457806323b872dd146104a257806324d7806c146104c2578063273cd680146104e2578063283aa5941461050257806331992124146105225780633237307d146105425780633f4ba83a1461057057806342842e0e14610585578063454a2ab3146105a5578063524a919f146105b85780635641894d146105d85780635ac36fbd146106455780635c975abb146106655780635ea8cd121461067d5780636352211e1461069d5780636551b2ce146106bd57806366cfe97f146106dd578063704802751461070a57806370a082311461072a57806372118fcd1461074a5780638456cb591461076a578063929771921461077f578063957a867c146107ae57806395d89b411461083d578063a0712d6814610852578063a22cb46514610865578063aedc8e3814610885578063b88d4fde146108a5578063bdd75202146108c5578063c4d66de8146108e5578063c55d0f5614610905578063c5ce94a214610935578063c87b56dd14610955578063cebcb0d414610975578063d96a094a146109a2578063de67d9f6146109b5578063def2f0eb146109d5578063e985e9c5146109f5578063ea62ad0514610a15578063f6be71d114610a35578063f8dd1f7614610a55576102d8565b366102d8577fd9b9a1a22d4c45b7f89d240c58161a4f574a02e9260c2383522be2850b8fbaea333460405161029492919061348f565b60405180910390a160a1546040516001600160a01b03909116903480156108fc02916000818181858888f193505050501580156102d5573d6000803e3d6000fd5b50005b7ff4636bc3188e39cf2ac35839c44551623fea0a2da16669f2c3f2d2b2803deaf5333460405161029492919061348f565b34801561031557600080fd5b50610329610324366004613305565b610a75565b60405190151581526020015b60405180910390f35b34801561034a57600080fd5b5061035e610359366004613398565b610ac7565b005b34801561036c57600080fd5b50610375610ad5565b6040516103359190613527565b34801561038e57600080fd5b506103a261039d36600461333d565b610b67565b604051610335919061343e565b3480156103bb57600080fd5b5061035e6103ca3660046132dc565b610bf4565b3480156103db57600080fd5b5061035e6103ea366004613147565b610d05565b3480156103fb57600080fd5b5061035e61040a36600461333d565b610d0e565b34801561041b57600080fd5b5061035e61042a3660046133ba565b610d17565b34801561043b57600080fd5b5061035e61044a366004613147565b610d80565b34801561045b57600080fd5b5061035e61046a366004613377565b610d89565b34801561047b57600080fd5b50610329610ef5565b34801561049057600080fd5b5061035e61049f36600461333d565b50565b3480156104ae57600080fd5b5061035e6104bd366004613193565b610f08565b3480156104ce57600080fd5b506103296104dd366004613147565b610f39565b3480156104ee57600080fd5b5060a1546103a2906001600160a01b031681565b34801561050e57600080fd5b5061035e61051d366004613355565b610f44565b34801561052e57600080fd5b5061035e61053d36600461333d565b610fcc565b34801561054e57600080fd5b5061056261055d36600461333d565b610fd5565b604051908152602001610335565b34801561057c57600080fd5b5061035e610ffc565b34801561059157600080fd5b5061035e6105a0366004613193565b611006565b61035e6105b336600461333d565b611021565b3480156105c457600080fd5b5061035e6105d336600461333d565b6112c1565b3480156105e457600080fd5b506105f86105f336600461333d565b6112ca565b60408051825181526020808401516001600160a01b03908116918301919091528383015116918101919091526060808301519082015260809182015115159181019190915260a001610335565b34801561065157600080fd5b5061035e61066036600461333d565b611357565b34801561067157600080fd5b5060a75460ff16610329565b34801561068957600080fd5b5061035e61069836600461333d565b611360565b3480156106a957600080fd5b506103a26106b836600461333d565b611369565b3480156106c957600080fd5b506103a26106d836600461333d565b6113e0565b3480156106e957600080fd5b506106fd6106f8366004613147565b611448565b60405161033591906134a8565b34801561071657600080fd5b5061035e610725366004613147565b6114b4565b34801561073657600080fd5b50610562610745366004613147565b6114bd565b34801561075657600080fd5b5061032961076536600461333d565b611544565b34801561077657600080fd5b5061035e61154f565b34801561078b57600080fd5b50609b546040805160ff8084168252610100909304909216602083015201610335565b3480156107ba57600080fd5b506107ce6107c936600461333d565b611557565b604051610335919060006101008201905060018060a01b038084511683528060208501511660208401525060408301516040830152606083015160608301526080830151608083015260a083015160a083015260c083015160c083015260e0830151151560e083015292915050565b34801561084957600080fd5b50610375611656565b61035e61086036600461333d565b611665565b34801561087157600080fd5b5061035e6108803660046132a2565b61173b565b34801561089157600080fd5b5061035e6108a036600461333d565b6117fd565b3480156108b157600080fd5b5061035e6108c03660046131ce565b611806565b3480156108d157600080fd5b506103296108e0366004613147565b61183e565b3480156108f157600080fd5b5061035e610900366004613147565b611851565b34801561091157600080fd5b5061056261092036600461333d565b600090815260a0602052604090206006015490565b34801561094157600080fd5b5061035e610950366004613377565b611907565b34801561096157600080fd5b5061037561097036600461333d565b611911565b34801561098157600080fd5b5061099561099036600461333d565b6119e9565b60405161033591906134ec565b61035e6109b036600461333d565b611a77565b3480156109c157600080fd5b5061035e6109d036600461333d565b611d0d565b3480156109e157600080fd5b5061035e6109f0366004613355565b611d16565b348015610a0157600080fd5b50610329610a10366004613161565b611d20565b348015610a2157600080fd5b5061035e610a30366004613377565b611d4e565b348015610a4157600080fd5b5061035e610a5036600461333d565b611ecd565b348015610a6157600080fd5b5061035e610a7036600461333d565b611ed6565b60006001600160e01b031982166380ac58cd60e01b1480610aa657506001600160e01b03198216635b5e139f60e01b145b80610ac157506301ffc9a760e01b6001600160e01b03198316145b92915050565b610ad18282611efc565b5050565b606060658054610ae4906136e8565b80601f0160208091040260200160405190810160405280929190818152602001828054610b10906136e8565b8015610b5d5780601f10610b3257610100808354040283529160200191610b5d565b820191906000526020600020905b815481529060010190602001808311610b4057829003601f168201915b5050505050905090565b6000610b7282611f64565b610bd85760405162461bcd60e51b815260206004820152602c60248201527f4552433732313a20617070726f76656420717565727920666f72206e6f6e657860448201526b34b9ba32b73a103a37b5b2b760a11b60648201526084015b60405180910390fd5b506000908152606960205260409020546001600160a01b031690565b6000610bff82611369565b9050806001600160a01b0316836001600160a01b03161415610c6d5760405162461bcd60e51b815260206004820152602160248201527f4552433732313a20617070726f76616c20746f2063757272656e74206f776e656044820152603960f91b6064820152608401610bcf565b336001600160a01b0382161480610c895750610c898133611d20565b610cf65760405162461bcd60e51b815260206004820152603860248201527f4552433732313a20617070726f76652063616c6c6572206973206e6f74206f776044820152771b995c881b9bdc88185c1c1c9bdd995908199bdc88185b1b60421b6064820152608401610bcf565b610d008383611f81565b505050565b61049f81611fef565b61049f81612036565b610d2032612060565b610d3c5760405162461bcd60e51b8152600401610bcf9061362b565b60ff8260ff1610610d4c57600080fd5b60208160ff1610610d5c57600080fd5b609b805460ff9283166101000261ffff199091169290931691909117919091179055565b61049f8161207e565b32610d93836113e0565b6001600160a01b031614610dde5760405162461bcd60e51b8152602060048201526012602482015271596f7520617265206e6f74206f776e65722160701b6044820152606401610bcf565b6000828152609f602052604090206004015460ff1615610e325760405162461bcd60e51b815260206004820152600f60248201526e53616c65206973206f70656e65642160881b6044820152606401610bcf565b6040805160a0810182524281523260208083018281526000848601818152606086018881526001608088018181528b8552609f87529389902097518855935193870180546001600160a01b03199081166001600160a01b03968716179091559151600288018054909316941693909317905590516003850155516004909301805460ff19169315159390931790925591518381527f76f519ddcb2c54b2e28cf6cc1a2dfee150411bb675c78c0eef6f6388559893a6910160405180910390a25050565b6000610f0360a75460ff1690565b905090565b610f1233826120ec565b610f2e5760405162461bcd60e51b8152600401610bcf906135da565b610d008383836121b6565b6000610ac182612060565b6000828152609d6020908152604080832080546001600160a01b0319166001600160a01b038616908117909155808452609e83528184208054600181018255908552938390209093018590558051858152918201929092527f649ac2249366264ba74a84d97e2e86f4490c06d225655797956313f613b9bade91015b60405180910390a15050565b610ad181612344565b6000610fe082611f64565b610fe957600080fd5b5060009081526099602052604090205490565b6110046123ef565b565b610d0083838360405180602001604052806000815250611806565b61102a81611f64565b61106c5760405162461bcd60e51b8152602060048201526013602482015272536f756c20646f65736e27742065786973747360681b6044820152606401610bcf565b600081815260a0602052604090206007015460ff1615156001146110c15760405162461bcd60e51b815260206004820152600c60248201526b4e6f7420666f722073616c6560a01b6044820152606401610bcf565b6110ca326114bd565b6111105760405162461bcd60e51b8152602060048201526017602482015276596f752073686f756c642068617665206120736f756c2160481b6044820152606401610bcf565b600060a45460a55460a6546111248561247c565b61112e9190613656565b6111389190613656565b6111429190613656565b9050348110156111875760405162461bcd60e51b815260206004820152601060248201526f6e6f7420656e6f756768206d6f6e657960801b6044820152606401610bcf565b60008061119384612538565b91509150600060a45460a554346111aa9190613682565b6111b49190613682565b9050600060a454826111c69190613682565b905060006111d48284613682565b6040519091506001600160a01b0385169084156108fc029085906000818181858888f1935050505015801561120d573d6000803e3d6000fd5b506040516001600160a01b0386169083156108fc029084906000818181858888f19350505050158015611244573d6000803e3d6000fd5b5060a1546040516001600160a01b039091169082156108fc029083906000818181858888f1935050505015801561127f573d6000803e3d6000fd5b506112ae878261128f8587613656565b6112999190613656565b600091825260a0602052604090912060060155565b6112b8873361255f565b50505050505050565b61049f816125c5565b6040805160a081018252600080825260208201819052918101829052606081018290526080810191909152506000908152609f6020908152604091829020825160a0810184528154815260018201546001600160a01b03908116938201939093526002820154909216928201929092526003820154606082015260049091015460ff161515608082015290565b61049f81612610565b61049f81612648565b6000818152606760205260408120546001600160a01b031680610ac15760405162461bcd60e51b815260206004820152602960248201527f4552433732313a206f776e657220717565727920666f72206e6f6e657869737460448201526832b73a103a37b5b2b760b91b6064820152608401610bcf565b60006113eb82611f64565b61142c5760405162461bcd60e51b815260206004820152601260248201527114dbdd5b08191bd95cdb89dd08195e1a5cdd60721b6044820152606401610bcf565b506000908152609d60205260409020546001600160a01b031690565b6001600160a01b0381166000908152609e60209081526040918290208054835181840281018401909452808452606093928301828280156114a857602002820191906000526020600020905b815481526020019060010190808311611494575b50505050509050919050565b61049f81612672565b60006001600160a01b0382166115285760405162461bcd60e51b815260206004820152602a60248201527f4552433732313a2062616c616e636520717565727920666f7220746865207a65604482015269726f206164647265737360b01b6064820152608401610bcf565b506001600160a01b031660009081526068602052604090205490565b6000610ac182611f64565b6110046126d1565b6115b360405180610100016040528060006001600160a01b0316815260200160006001600160a01b0316815260200160008152602001600081526020016000815260200160008152602001600081526020016000151581525090565b6115bc82611f64565b6115c557600080fd5b600082815260a0602081815260409283902083516101008101855281546001600160a01b039081168252600183015416928101929092526002810154938201939093526003830154606082015260048301546080820152600583015491810191909152600682015460c082015260079091015460ff16151560e082015261164b8361247c565b60c082015292915050565b606060668054610ae4906136e8565b61166e336114bd565b156116b75760405162461bcd60e51b8152602060048201526019602482015278165bdd48185b1c9958591e481b5a5b9d081e5bdd481cdbdd5b603a1b6044820152606401610bcf565b6116c1328261274c565b6000818152609d6020908152604080832080546001600160a01b031916329081179091558352609e825280832080546001810182559084528284200184905580514392810183905291409082015260608101839052608001604051602081830303815290604052805190602001209050610ad18282612766565b6001600160a01b0382163314156117905760405162461bcd60e51b815260206004820152601960248201527822a9219b99189d1030b8383937bb32903a379031b0b63632b960391b6044820152606401610bcf565b336000818152606a602090815260408083206001600160a01b03871680855290835292819020805460ff191686151590811790915590519081529192917f17307eab39ab6107e8899845ad3d59bd9653f200f220920489ca2b5937696c3191015b60405180910390a35050565b610ad18161247c565b61181033836120ec565b61182c5760405162461bcd60e51b8152600401610bcf906135da565b6118388484848461283c565b50505050565b60008061184a836114bd565b1192915050565b600054610100900460ff168061186a575060005460ff16155b6118865760405162461bcd60e51b8152600401610bcf9061358c565b600054610100900460ff161580156118a8576000805461ffff19166101011790555b6118b18261286f565b6118f26040518060400160405280600481526020016314dbdd5b60e21b815250604051806040016040528060038152602001624e465360e81b815250612901565b8015610ad1576000805461ff00191690555050565b610ad18282612766565b606061191c82611f64565b6119805760405162461bcd60e51b815260206004820152602f60248201527f4552433732314d657461646174613a2055524920717565727920666f72206e6f60448201526e3732bc34b9ba32b73a103a37b5b2b760891b6064820152608401610bcf565b600061199760408051602081019091526000815290565b905060008151116119b757604051806020016040528060008152506119e2565b806119c184612988565b6040516020016119d292919061340f565b6040516020818303038152906040525b9392505050565b6000818152609a602090815260408083208151815480850282018401845293810184815260609594919384928491840182828015611a6457602002820191906000526020600020906000905b825461010083900a900460ff16815260206001928301818104948501949093039092029101808411611a355790505b5050509190925250509051949350505050565b611a8081611f64565b611ac15760405162461bcd60e51b815260206004820152601260248201527114dbdd5b08191bd95cdb89de48195e1a5cdd60721b6044820152606401610bcf565b32611acb826113e0565b6001600160a01b03161415611b135760405162461bcd60e51b815260206004820152600e60248201526d596f7520617265206f776e65722160901b6044820152606401610bcf565b6000818152609f602052604090206004015460ff16611b685760405162461bcd60e51b8152602060048201526011602482015270536f756c206e6f7420666f722073616c6560781b6044820152606401610bcf565b6000818152609f6020526040902060030154341015611bbc5760405162461bcd60e51b815260206004820152601060248201526f4e6f7420656e6f7567682076616c756560801b6044820152606401610bcf565b611bc53261183e565b611c0a5760405162461bcd60e51b8152602060048201526016602482015275165bdd481cda1bdd5b19081a185d994818481cdbdd5b60521b6044820152606401610bcf565b6000611c15826112ca565b90506000816060015134611c299190613682565b90508015611c6057604051329082156108fc029083906000818181858888f19350505050158015611c5e573d6000803e3d6000fd5b505b6000838152609f60205260409020600101546001600160a01b03166108fc611c888334613682565b6040518115909202916000818181858888f19350505050158015611cb0573d6000803e3d6000fd5b50611cbb8332610f44565b611cc58332612aa1565b611cce83612b01565b6040805184815234602082015232917fdd85ec7d965e6b26848609ec8720d2154b613e347f427ab82ee784236b28bbf3910160405180910390a2505050565b61049f81612b57565b610ad18282612b81565b6001600160a01b039182166000908152606a6020908152604080832093909416825291909152205460ff1690565b32611d58836113e0565b6001600160a01b031614611d6b57600080fd5b32611d7583611369565b6001600160a01b031614611d8857600080fd5b600082815260a0602052604090206007015460ff1615611da757600080fd5b604051806101000160405280611dbc84611369565b6001600160a01b03168152602001611dd3846113e0565b6001600160a01b0390811682524260208084019190915260a25460408085019190915260a354606080860191909152608080860188905260a0808701899052600160c097880181905260008b8152828752859020895181549089166001600160a01b03199182161782558a8801519282018054939099169216919091179096558784015160028701559187015160038601558601516004850155850151600584015592840151600683015560e0909301516007909101805491151560ff1990921691909117905580518481529182018390527ff8910119ddbef5440c54532457dfe8250a10ed39e583292818f44724b9e1344c9101610fc0565b61049f81612be1565b33611ee0826113e0565b6001600160a01b031614611ef357600080fd5b61049f81612b01565b611f0532612060565b611f215760405162461bcd60e51b8152600401610bcf9061362b565b6000918252609a60209081526040832080546001810182559084529281902090830401805460ff928316601f9094166101000a9384029290930219909216179055565b6000908152606760205260409020546001600160a01b0316151590565b600081815260696020526040902080546001600160a01b0319166001600160a01b0384169081179091558190611fb682611369565b6001600160a01b03167f8c5be1e5ebec7d5bd14f71427d1e84f3dd0314c0f7b2291e5b200ac8c7c3b92560405160405180910390a45050565b611ff832612060565b6120145760405162461bcd60e51b8152600401610bcf9061362b565b60a180546001600160a01b0319166001600160a01b0392909216919091179055565b61203f32612060565b61205b5760405162461bcd60e51b8152600401610bcf9061362b565b60a555565b6001600160a01b031660009081526097602052604090205460ff1690565b61208732612060565b6120a35760405162461bcd60e51b8152600401610bcf9061362b565b6001600160a01b038116600081815260976020526040808220805460ff19169055517fa3b62bc36326052d97ea62d63c3d60308ed4c3ea8ac079dd8499f1e9c4f80c0f9190a250565b60006120f782611f64565b6121585760405162461bcd60e51b815260206004820152602c60248201527f4552433732313a206f70657261746f7220717565727920666f72206e6f6e657860448201526b34b9ba32b73a103a37b5b2b760a11b6064820152608401610bcf565b600061216383611369565b9050806001600160a01b0316846001600160a01b0316148061219e5750836001600160a01b031661219384610b67565b6001600160a01b0316145b806121ae57506121ae8185611d20565b949350505050565b826001600160a01b03166121c982611369565b6001600160a01b0316146122315760405162461bcd60e51b815260206004820152602960248201527f4552433732313a207472616e73666572206f6620746f6b656e2074686174206960448201526839903737ba1037bbb760b91b6064820152608401610bcf565b6001600160a01b0382166122935760405162461bcd60e51b8152602060048201526024808201527f4552433732313a207472616e7366657220746f20746865207a65726f206164646044820152637265737360e01b6064820152608401610bcf565b61229e600082611f81565b6001600160a01b03831660009081526068602052604081208054600192906122c7908490613682565b90915550506001600160a01b03821660009081526068602052604081208054600192906122f5908490613656565b909155505060008181526067602052604080822080546001600160a01b0319166001600160a01b0386811691821790925591518493918716916000805160206137eb83398151915291a4505050565b600081815260a06020818152604080842081516101008101835281546001600160a01b0390811682526001830154169381019390935260028101549183018290526003810154606084015260048101546080840152600581015493830193909352600683015460c083015260079092015460ff16151560e08201529082906123cd904290612c0b565b905081608001518111156123e5575060019392505050565b5060009392505050565b60a75460ff166124385760405162461bcd60e51b815260206004820152601460248201527314185d5cd8589b194e881b9bdd081c185d5cd95960621b6044820152606401610bcf565b60a7805460ff191690557f5db9ee0a495bf2e6ff9c91a7834c1ba4fdd244a5e8aa4e537bd38aeae4b073aa335b604051612472919061343e565b60405180910390a1565b600081815260a06020818152604080842081516101008101835281546001600160a01b0390811682526001830154169381019390935260028101549183018290526003810154606084015260048101546080840152600581015493830193909352600683015460c083015260079092015460ff16151560e0820152908290612505904290612c0b565b9050600061251285612344565b15612520575060a6546121ae565b60c083015161252f9083612c0b565b95945050505050565b600080600061254684611369565b90506000612553856113e0565b91959194509092505050565b6000828152609d60205260409020546001600160a01b03163214610f445760405162461bcd60e51b815260206004820181905260248201527f596f7520617265206e6f742063617272696572206f66207468697320736f756c6044820152606401610bcf565b6125ce81611f64565b6125d757600080fd5b336125e1826113e0565b6001600160a01b0316146125f457600080fd5b600081815260a060205260408120600701805460ff1916905580fd5b3361261a826113e0565b6001600160a01b03161461262d57600080fd5b600090815260a060205260409020600701805460ff19169055565b61265132612060565b61266d5760405162461bcd60e51b8152600401610bcf9061362b565b60a655565b61267b32612060565b6126975760405162461bcd60e51b8152600401610bcf9061362b565b6001600160a01b038116600081815260976020526040808220805460ff19166001179055516000805160206137cb8339815191529190a250565b60a75460ff16156127175760405162461bcd60e51b815260206004820152601060248201526f14185d5cd8589b194e881c185d5cd95960821b6044820152606401610bcf565b60a7805460ff191660011790557f62e78cea01bee320cd4e420270b5ea74000d11b0c9f74754ebdbfc544b05a2586124653390565b610ad1828260405180602001604052806000815250612c17565b6000805b60208160ff1610156127ff576000838260ff166020811061279b57634e487b7160e01b600052603260045260246000fd5b1a905080158015906127b65750609b5460ff90811690821611155b156127ec576127c785600183612c4a565b609b54610100900460ff166127db8461373e565b93508360ff16116127ec57506127ff565b50806127f78161373e565b91505061276a565b50604051828152839032907f2d1c087923bb29c979975262d5f9b5bccdcbeb3c0bbc9fc5d9e303d7abf639b89060200160405180910390a3505050565b6128478484846121b6565b61285384848484612d29565b6118385760405162461bcd60e51b8152600401610bcf9061353a565b60985460ff16156128b75760405162461bcd60e51b815260206004820152601260248201527118dbdb9d1c9858dd081a5cc81a5b9a5d195960721b6044820152606401610bcf565b6001600160a01b0381166000818152609760205260408082208054600160ff199182168117909255609880549091169091179055516000805160206137cb8339815191529190a250565b600054610100900460ff168061291a575060005460ff16155b6129365760405162461bcd60e51b8152600401610bcf9061358c565b600054610100900460ff16158015612958576000805461ffff19166101011790555b612960612e36565b612968612e36565b6129728383612ea1565b8015610d00576000805461ff0019169055505050565b6060816129ac5750506040805180820190915260018152600360fc1b602082015290565b8160005b81156129d657806129c081613723565b91506129cf9050600a8361366e565b91506129b0565b6000816001600160401b038111156129fe57634e487b7160e01b600052604160045260246000fd5b6040519080825280601f01601f191660200182016040528015612a28576020820181803683370190505b5090505b84156121ae57612a3d600183613682565b9150612a4a600a8661375e565b612a55906030613656565b60f81b818381518110612a7857634e487b7160e01b600052603260045260246000fd5b60200101906001600160f81b031916908160001a905350612a9a600a8661366e565b9450612a2c565b6000828152609f602090815260409182902060020180546001600160a01b0319166001600160a01b038516908117909155915184815232917fe90419f2812a0b5567d88901ce6bfd4c8dd5a9401f842a0da4404a1c402c234b91016117f1565b6000818152609f602052604090819020600401805460ff19169055517f2459d2e941fa81acec6a314349c8176c81d809383738d1e1f1d33972c17d3e1590612b4c9083815260200190565b60405180910390a150565b612b6032612060565b612b7c5760405162461bcd60e51b8152600401610bcf9061362b565b60a455565b6000828152609f602090815260409182902060010180546001600160a01b0319166001600160a01b038516908117909155915184815232917f384cd900320597bb9f30f6ffc1b673fdb9a357c186354215732cb1d304eaf58e91016117f1565b612bea32612060565b612c065760405162461bcd60e51b8152600401610bcf9061362b565b60a355565b60006119e28284613682565b612c218383612f36565b612c2e6000848484612d29565b610d005760405162461bcd60e51b8152600401610bcf9061353a565b6000612c5584610fd5565b90506000818460ff1660208110612c7c57634e487b7160e01b600052603260045260246000fd5b1a905060ff8316612c8c57600080fd5b609b5460ff9081169084161115612ca257600080fd5b612cad8360ff613699565b60ff168160ff161115612cbf57600080fd5b6000612cca83613056565b90508160f81b818660ff1681518110612cf357634e487b7160e01b600052603260045260246000fd5b60200101906001600160f81b031916908160001a9053506020810151600096875260996020526040909620959095555050505050565b60006001600160a01b0384163b15612e2b57604051630a85bd0160e11b81526001600160a01b0385169063150b7a0290612d6d903390899088908890600401613452565b602060405180830381600087803b158015612d8757600080fd5b505af1925050508015612db7575060408051601f3d908101601f19168201909252612db491810190613321565b60015b612e11573d808015612de5576040519150601f19603f3d011682016040523d82523d6000602084013e612dea565b606091505b508051612e095760405162461bcd60e51b8152600401610bcf9061353a565b805181602001fd5b6001600160e01b031916630a85bd0160e11b1490506121ae565b506001949350505050565b600054610100900460ff1680612e4f575060005460ff16155b612e6b5760405162461bcd60e51b8152600401610bcf9061358c565b600054610100900460ff16158015612e8d576000805461ffff19166101011790555b801561049f576000805461ff001916905550565b600054610100900460ff1680612eba575060005460ff16155b612ed65760405162461bcd60e51b8152600401610bcf9061358c565b600054610100900460ff16158015612ef8576000805461ffff19166101011790555b8251612f0b906065906020860190613081565b508151612f1f906066906020850190613081565b508015610d00576000805461ff0019169055505050565b6001600160a01b038216612f8c5760405162461bcd60e51b815260206004820181905260248201527f4552433732313a206d696e7420746f20746865207a65726f20616464726573736044820152606401610bcf565b612f9581611f64565b15612fe15760405162461bcd60e51b815260206004820152601c60248201527b115490cdcc8c4e881d1bdad95b88185b1c9958591e481b5a5b9d195960221b6044820152606401610bcf565b6001600160a01b038216600090815260686020526040812080546001929061300a908490613656565b909155505060008181526067602052604080822080546001600160a01b0319166001600160a01b03861690811790915590518392906000805160206137eb833981519152908290a45050565b60608160405160200161306b91815260200190565b6040516020818303038152906040529050919050565b82805461308d906136e8565b90600052602060002090601f0160209004810192826130af57600085556130f5565b82601f106130c857805160ff19168380011785556130f5565b828001600101855582156130f5579182015b828111156130f55782518255916020019190600101906130da565b50613101929150613105565b5090565b5b808211156131015760008155600101613106565b80356001600160a01b038116811461313157600080fd5b919050565b803560ff8116811461313157600080fd5b600060208284031215613158578081fd5b6119e28261311a565b60008060408385031215613173578081fd5b61317c8361311a565b915061318a6020840161311a565b90509250929050565b6000806000606084860312156131a7578081fd5b6131b08461311a565b92506131be6020850161311a565b9150604084013590509250925092565b600080600080608085870312156131e3578081fd5b6131ec8561311a565b93506131fa6020860161311a565b92506040850135915060608501356001600160401b038082111561321c578283fd5b818701915087601f83011261322f578283fd5b8135818111156132415761324161379e565b604051601f8201601f19908116603f011681019083821181831017156132695761326961379e565b816040528281528a6020848701011115613281578586fd5b82602086016020830137918201602001949094529598949750929550505050565b600080604083850312156132b4578182fd5b6132bd8361311a565b9150602083013580151581146132d1578182fd5b809150509250929050565b600080604083850312156132ee578182fd5b6132f78361311a565b946020939093013593505050565b600060208284031215613316578081fd5b81356119e2816137b4565b600060208284031215613332578081fd5b81516119e2816137b4565b60006020828403121561334e578081fd5b5035919050565b60008060408385031215613367578182fd5b8235915061318a6020840161311a565b60008060408385031215613389578182fd5b50508035926020909101359150565b600080604083850312156133aa578182fd5b8235915061318a60208401613136565b600080604083850312156133cc578182fd5b6133d583613136565b915061318a60208401613136565b600081518084526133fb8160208601602086016136bc565b601f01601f19169290920160200192915050565b600083516134218184602088016136bc565b8351908301906134358183602088016136bc565b01949350505050565b6001600160a01b0391909116815260200190565b6001600160a01b0385811682528416602082015260408101839052608060608201819052600090613485908301846133e3565b9695505050505050565b6001600160a01b03929092168252602082015260400190565b6020808252825182820181905260009190848201906040850190845b818110156134e0578351835292840192918401916001016134c4565b50909695505050505050565b6020808252825182820181905260009190848201906040850190845b818110156134e057835160ff1683529284019291840191600101613508565b6020815260006119e260208301846133e3565b60208082526032908201527f4552433732313a207472616e7366657220746f206e6f6e20455243373231526560408201527131b2b4bb32b91034b6b83632b6b2b73a32b960711b606082015260800190565b6020808252602e908201527f496e697469616c697a61626c653a20636f6e747261637420697320616c72656160408201526d191e481a5b9a5d1a585b1a5e995960921b606082015260800190565b60208082526031908201527f4552433732313a207472616e736665722063616c6c6572206973206e6f74206f6040820152701ddb995c881b9bdc88185c1c1c9bdd9959607a1b606082015260800190565b6020808252601190820152703cb7ba9030b932903737ba1030b236b4b760791b604082015260600190565b6000821982111561366957613669613772565b500190565b60008261367d5761367d613788565b500490565b60008282101561369457613694613772565b500390565b600060ff821660ff8416808210156136b3576136b3613772565b90039392505050565b60005b838110156136d75781810151838201526020016136bf565b838111156118385750506000910152565b600181811c908216806136fc57607f821691505b6020821081141561371d57634e487b7160e01b600052602260045260246000fd5b50919050565b600060001982141561373757613737613772565b5060010190565b600060ff821660ff81141561375557613755613772565b60010192915050565b60008261376d5761376d613788565b500690565b634e487b7160e01b600052601160045260246000fd5b634e487b7160e01b600052601260045260246000fd5b634e487b7160e01b600052604160045260246000fd5b6001600160e01b03198116811461049f57600080fdfe44d6d25963f097ad14f29f06854a01f575648a1ef82f30e562ccd3889717e339ddf252ad1be2c89b69c2b068fc378daa952ba7f163c4a11628f55a4df523b3efa26469706673582212204136d40e96f04f0873a12bfcac4b797a35b00af633dfc1bb15899ce943dcafd964736f6c63430008040033",
  "immutableReferences": {},
  "source": "// SPDX-License-Identifier: UNLICENSED\npragma solidity ^0.8.0;\n\nimport \"./SoulAuction.sol\";\nimport \"@openzeppelin/contracts-upgradeable/security/PausableUpgradeable.sol\";\n\ncontract NFSoul is SoulAuction, PausableUpgradeable {\n    mapping(uint256 => Soul) _souls;\n    mapping(address => uint256) soulOwner;\n\n    event TestBuy(uint256 soulId); // fore test\n    event ReceiveUnknownPaymentRecieve(address sender, uint256 value);\n    event ReceiveUnknownPaymentFallback(address sender, uint256 value);\n\n    struct Soul {\n        bytes4 fb;\n        uint256 phone;\n    }\n\n    function soulExists(uint256 soulId) public view returns (bool) {\n        return _exists(soulId);\n    }\n\n    function initialize(address account) public initializer {\n        _init(account);\n        __ERC721_init(\"Soul\", \"NFS\");\n    }\n\n    // Auction function\n    function reclaimSoul(uint256 soulId) public {\n        _reclaimSoul(soulId);\n    }\n\n    function returnSoulToAuction(uint256 soulId) public {\n        _returnSoulToAuction(soulId);\n    }\n\n    function getActualPrice(uint256 soulId) public view {\n        _getActualPrice(soulId);\n    }\n\n    function timeIsOver(uint256 soulId) public view {\n        _timeIsOver(soulId);\n    }\n\n    function updateAuction(uint256 soulId) public {\n        _updateAuction(soulId);\n    }\n\n    // Admin functions\n    function addAdmin(address addr) public {\n        // tested\n        _addAdmin(addr);\n    }\n\n    function isAdmin(address account) public view returns (bool) {\n        return _isAdmin(account);\n    }\n\n    function removeAdmin(address addr) public {\n        // tested\n        _removeAdmin(addr);\n    }\n\n    function pause() public {\n        _pause();\n    }\n\n    function unpause() public {\n        _unpause();\n    }\n\n    function getPauseStatus() public view returns (bool) {\n        // Check after deploy\n        return paused();\n    }\n\n    function setServicePiece(uint256 piece) public {\n        _setServicePiece(piece);\n    }\n\n    function setOwnerPiece(uint256 piece) public {\n        _setOwnerPiece(piece);\n    }\n\n    function setPieAddress(address pieToken) public {\n        _setPieAddress(pieToken);\n    }\n\n    function setDuration(uint256 auctionTime) public {\n        _setDuration(auctionTime);\n    }\n\n    function setMinPrice(uint256 minPrice) public {\n        _setMinPrice(minPrice);\n    }\n\n    // Modification functions\n    function setDonorMod(uint256 soulId, uint8 typeMod) public {\n        _setDonorMod(soulId, typeMod);\n    }\n\n    function setCommonMods(uint256 soulId, bytes32 modification) public {\n        _setModification(soulId, modification);\n    }\n\n    // Receive and Fallback\n    receive() external payable {\n        emit ReceiveUnknownPaymentRecieve(msg.sender, msg.value);\n        payable(_pieAddress).transfer(msg.value);\n    }\n\n    fallback() external payable {\n        emit ReceiveUnknownPaymentFallback(msg.sender, msg.value);\n\n        payable(_pieAddress).transfer(msg.value);\n    }\n}\n",
  "sourcePath": "/home/ilyadruzh/Documents/nfsoul/sc/contracts/NFSoul.sol",
  "compiler": {
    "name": "solc",
    "version": "0.8.4+commit.c7e474f2.Emscripten.clang"
  },
  "schemaVersion": "3.4.1",
  "updatedAt": "2021-05-31T08:53:38.377Z",
  "devdoc": {
    "kind": "dev",
    "methods": {
      "approve(address,uint256)": {
        "details": "See {IERC721-approve}."
      },
      "balanceOf(address)": {
        "details": "See {IERC721-balanceOf}."
      },
      "getApproved(uint256)": {
        "details": "See {IERC721-getApproved}."
      },
      "getSoulModifications(uint256)": {
        "details": "Gets the modification of the specified token ID",
        "params": {
          "soulId": "uint256 ID of the token"
        },
        "returns": {
          "_0": "uint256 modifications mask"
        }
      },
      "isApprovedForAll(address,address)": {
        "details": "See {IERC721-isApprovedForAll}."
      },
      "name()": {
        "details": "See {IERC721Metadata-name}."
      },
      "ownerOf(uint256)": {
        "details": "See {IERC721-ownerOf}."
      },
      "paused()": {
        "details": "Returns true if the contract is paused, and false otherwise."
      },
      "safeTransferFrom(address,address,uint256)": {
        "details": "See {IERC721-safeTransferFrom}."
      },
      "safeTransferFrom(address,address,uint256,bytes)": {
        "details": "See {IERC721-safeTransferFrom}."
      },
      "setApprovalForAll(address,bool)": {
        "details": "See {IERC721-setApprovalForAll}."
      },
      "supportsInterface(bytes4)": {
        "details": "See {IERC165-supportsInterface}."
      },
      "symbol()": {
        "details": "See {IERC721Metadata-symbol}."
      },
      "tokenURI(uint256)": {
        "details": "See {IERC721Metadata-tokenURI}."
      },
      "transferFrom(address,address,uint256)": {
        "details": "See {IERC721-transferFrom}."
      }
    },
    "version": 1
  },
  "userdoc": {
    "kind": "user",
    "methods": {},
    "version": 1
  }
}