{
  "contractName": "SoulMarket",
  "abi": [
    {
      "anonymous": false,
      "inputs": [
        {
          "indexed": true,
          "internalType": "address",
          "name": "account",
          "type": "address"
        }
      ],
      "name": "AdminAdded",
      "type": "event"
    },
    {
      "anonymous": false,
      "inputs": [
        {
          "indexed": true,
          "internalType": "address",
          "name": "account",
          "type": "address"
        }
      ],
      "name": "AdminRemoved",
      "type": "event"
    },
    {
      "anonymous": false,
      "inputs": [
        {
          "indexed": true,
          "internalType": "address",
          "name": "owner",
          "type": "address"
        },
        {
          "indexed": true,
          "internalType": "address",
          "name": "approved",
          "type": "address"
        },
        {
          "indexed": true,
          "internalType": "uint256",
          "name": "tokenId",
          "type": "uint256"
        }
      ],
      "name": "Approval",
      "type": "event"
    },
    {
      "anonymous": false,
      "inputs": [
        {
          "indexed": true,
          "internalType": "address",
          "name": "owner",
          "type": "address"
        },
        {
          "indexed": true,
          "internalType": "address",
          "name": "operator",
          "type": "address"
        },
        {
          "indexed": false,
          "internalType": "bool",
          "name": "approved",
          "type": "bool"
        }
      ],
      "name": "ApprovalForAll",
      "type": "event"
    },
    {
      "anonymous": false,
      "inputs": [
        {
          "indexed": true,
          "internalType": "address",
          "name": "oldBuyer",
          "type": "address"
        },
        {
          "indexed": true,
          "internalType": "address",
          "name": "newBuyer",
          "type": "address"
        },
        {
          "indexed": false,
          "internalType": "uint256",
          "name": "soulId",
          "type": "uint256"
        }
      ],
      "name": "BuyerChanged",
      "type": "event"
    },
    {
      "anonymous": false,
      "inputs": [
        {
          "indexed": false,
          "internalType": "uint256",
          "name": "soulId",
          "type": "uint256"
        },
        {
          "indexed": false,
          "internalType": "address",
          "name": "newCarrier",
          "type": "address"
        }
      ],
      "name": "CarrierChanged",
      "type": "event"
    },
    {
      "anonymous": false,
      "inputs": [
        {
          "indexed": true,
          "internalType": "address",
          "name": "from",
          "type": "address"
        },
        {
          "indexed": true,
          "internalType": "uint256",
          "name": "tokenId",
          "type": "uint256"
        },
        {
          "indexed": false,
          "internalType": "bytes32",
          "name": "mods",
          "type": "bytes32"
        }
      ],
      "name": "ModificationSetted",
      "type": "event"
    },
    {
      "anonymous": false,
      "inputs": [
        {
          "indexed": false,
          "internalType": "uint256",
          "name": "soulId",
          "type": "uint256"
        }
      ],
      "name": "SaleStoped",
      "type": "event"
    },
    {
      "anonymous": false,
      "inputs": [
        {
          "indexed": true,
          "internalType": "address",
          "name": "oldSeller",
          "type": "address"
        },
        {
          "indexed": true,
          "internalType": "address",
          "name": "newSeller",
          "type": "address"
        },
        {
          "indexed": false,
          "internalType": "uint256",
          "name": "soulId",
          "type": "uint256"
        }
      ],
      "name": "SellerChanged",
      "type": "event"
    },
    {
      "anonymous": false,
      "inputs": [
        {
          "indexed": true,
          "internalType": "address",
          "name": "buyer",
          "type": "address"
        },
        {
          "indexed": false,
          "internalType": "uint256",
          "name": "soulId",
          "type": "uint256"
        },
        {
          "indexed": false,
          "internalType": "uint256",
          "name": "price",
          "type": "uint256"
        }
      ],
      "name": "SoulBuyed",
      "type": "event"
    },
    {
      "anonymous": false,
      "inputs": [
        {
          "indexed": false,
          "internalType": "uint256",
          "name": "soulId",
          "type": "uint256"
        },
        {
          "indexed": false,
          "internalType": "address",
          "name": "owner",
          "type": "address"
        }
      ],
      "name": "SoulMinted",
      "type": "event"
    },
    {
      "anonymous": false,
      "inputs": [
        {
          "indexed": true,
          "internalType": "address",
          "name": "seller",
          "type": "address"
        },
        {
          "indexed": false,
          "internalType": "uint256",
          "name": "price",
          "type": "uint256"
        }
      ],
      "name": "SoulOnSale",
      "type": "event"
    },
    {
      "anonymous": false,
      "inputs": [
        {
          "indexed": true,
          "internalType": "address",
          "name": "from",
          "type": "address"
        },
        {
          "indexed": true,
          "internalType": "address",
          "name": "to",
          "type": "address"
        },
        {
          "indexed": true,
          "internalType": "uint256",
          "name": "tokenId",
          "type": "uint256"
        }
      ],
      "name": "Transfer",
      "type": "event"
    },
    {
      "inputs": [
        {
          "internalType": "uint8",
          "name": "maxModVal",
          "type": "uint8"
        },
        {
          "internalType": "uint8",
          "name": "maxMods",
          "type": "uint8"
        }
      ],
      "name": "_setModificationSettings",
      "outputs": [],
      "stateMutability": "nonpayable",
      "type": "function"
    },
    {
      "inputs": [
        {
          "internalType": "address",
          "name": "to",
          "type": "address"
        },
        {
          "internalType": "uint256",
          "name": "tokenId",
          "type": "uint256"
        }
      ],
      "name": "approve",
      "outputs": [],
      "stateMutability": "nonpayable",
      "type": "function"
    },
    {
      "inputs": [
        {
          "internalType": "address",
          "name": "owner",
          "type": "address"
        }
      ],
      "name": "balanceOf",
      "outputs": [
        {
          "internalType": "uint256",
          "name": "",
          "type": "uint256"
        }
      ],
      "stateMutability": "view",
      "type": "function"
    },
    {
      "inputs": [
        {
          "internalType": "uint256",
          "name": "soulId",
          "type": "uint256"
        }
      ],
      "name": "carrierOf",
      "outputs": [
        {
          "internalType": "address",
          "name": "",
          "type": "address"
        }
      ],
      "stateMutability": "view",
      "type": "function"
    },
    {
      "inputs": [
        {
          "internalType": "uint256",
          "name": "soulId",
          "type": "uint256"
        },
        {
          "internalType": "address",
          "name": "newCarrier",
          "type": "address"
        }
      ],
      "name": "changeCarrier",
      "outputs": [],
      "stateMutability": "nonpayable",
      "type": "function"
    },
    {
      "inputs": [],
      "name": "getAllSoul",
      "outputs": [
        {
          "internalType": "uint256[]",
          "name": "",
          "type": "uint256[]"
        }
      ],
      "stateMutability": "view",
      "type": "function"
    },
    {
      "inputs": [
        {
          "internalType": "uint256",
          "name": "tokenId",
          "type": "uint256"
        }
      ],
      "name": "getApproved",
      "outputs": [
        {
          "internalType": "address",
          "name": "",
          "type": "address"
        }
      ],
      "stateMutability": "view",
      "type": "function"
    },
    {
      "inputs": [
        {
          "internalType": "uint256",
          "name": "soulId",
          "type": "uint256"
        }
      ],
      "name": "getDonorMod",
      "outputs": [
        {
          "internalType": "uint8[]",
          "name": "",
          "type": "uint8[]"
        }
      ],
      "stateMutability": "view",
      "type": "function"
    },
    {
      "inputs": [
        {
          "internalType": "address",
          "name": "carrier",
          "type": "address"
        }
      ],
      "name": "getSoul",
      "outputs": [
        {
          "internalType": "uint256[]",
          "name": "soulIds",
          "type": "uint256[]"
        }
      ],
      "stateMutability": "view",
      "type": "function"
    },
    {
      "inputs": [
        {
          "internalType": "uint256",
          "name": "soulId",
          "type": "uint256"
        }
      ],
      "name": "getSoulModifications",
      "outputs": [
        {
          "internalType": "bytes32",
          "name": "",
          "type": "bytes32"
        }
      ],
      "stateMutability": "view",
      "type": "function"
    },
    {
      "inputs": [
        {
          "internalType": "address",
          "name": "person",
          "type": "address"
        }
      ],
      "name": "hasSoul",
      "outputs": [
        {
          "internalType": "bool",
          "name": "",
          "type": "bool"
        }
      ],
      "stateMutability": "view",
      "type": "function"
    },
    {
      "inputs": [
        {
          "internalType": "address",
          "name": "owner",
          "type": "address"
        },
        {
          "internalType": "address",
          "name": "operator",
          "type": "address"
        }
      ],
      "name": "isApprovedForAll",
      "outputs": [
        {
          "internalType": "bool",
          "name": "",
          "type": "bool"
        }
      ],
      "stateMutability": "view",
      "type": "function"
    },
    {
      "inputs": [
        {
          "internalType": "uint256",
          "name": "soulId",
          "type": "uint256"
        }
      ],
      "name": "mint",
      "outputs": [],
      "stateMutability": "payable",
      "type": "function"
    },
    {
      "inputs": [],
      "name": "modificationSettings",
      "outputs": [
        {
          "internalType": "uint8",
          "name": "",
          "type": "uint8"
        },
        {
          "internalType": "uint8",
          "name": "",
          "type": "uint8"
        }
      ],
      "stateMutability": "view",
      "type": "function"
    },
    {
      "inputs": [],
      "name": "name",
      "outputs": [
        {
          "internalType": "string",
          "name": "",
          "type": "string"
        }
      ],
      "stateMutability": "view",
      "type": "function"
    },
    {
      "inputs": [
        {
          "internalType": "uint256",
          "name": "tokenId",
          "type": "uint256"
        }
      ],
      "name": "ownerOf",
      "outputs": [
        {
          "internalType": "address",
          "name": "",
          "type": "address"
        }
      ],
      "stateMutability": "view",
      "type": "function"
    },
    {
      "inputs": [
        {
          "internalType": "address",
          "name": "from",
          "type": "address"
        },
        {
          "internalType": "address",
          "name": "to",
          "type": "address"
        },
        {
          "internalType": "uint256",
          "name": "tokenId",
          "type": "uint256"
        }
      ],
      "name": "safeTransferFrom",
      "outputs": [],
      "stateMutability": "nonpayable",
      "type": "function"
    },
    {
      "inputs": [
        {
          "internalType": "address",
          "name": "from",
          "type": "address"
        },
        {
          "internalType": "address",
          "name": "to",
          "type": "address"
        },
        {
          "internalType": "uint256",
          "name": "tokenId",
          "type": "uint256"
        },
        {
          "internalType": "bytes",
          "name": "_data",
          "type": "bytes"
        }
      ],
      "name": "safeTransferFrom",
      "outputs": [],
      "stateMutability": "nonpayable",
      "type": "function"
    },
    {
      "inputs": [
        {
          "internalType": "address",
          "name": "operator",
          "type": "address"
        },
        {
          "internalType": "bool",
          "name": "approved",
          "type": "bool"
        }
      ],
      "name": "setApprovalForAll",
      "outputs": [],
      "stateMutability": "nonpayable",
      "type": "function"
    },
    {
      "inputs": [
        {
          "internalType": "uint256",
          "name": "soulId",
          "type": "uint256"
        }
      ],
      "name": "setModification",
      "outputs": [],
      "stateMutability": "nonpayable",
      "type": "function"
    },
    {
      "inputs": [
        {
          "internalType": "bytes4",
          "name": "interfaceId",
          "type": "bytes4"
        }
      ],
      "name": "supportsInterface",
      "outputs": [
        {
          "internalType": "bool",
          "name": "",
          "type": "bool"
        }
      ],
      "stateMutability": "view",
      "type": "function"
    },
    {
      "inputs": [],
      "name": "symbol",
      "outputs": [
        {
          "internalType": "string",
          "name": "",
          "type": "string"
        }
      ],
      "stateMutability": "view",
      "type": "function"
    },
    {
      "inputs": [
        {
          "internalType": "uint256",
          "name": "tokenId",
          "type": "uint256"
        }
      ],
      "name": "tokenURI",
      "outputs": [
        {
          "internalType": "string",
          "name": "",
          "type": "string"
        }
      ],
      "stateMutability": "view",
      "type": "function"
    },
    {
      "inputs": [
        {
          "internalType": "address",
          "name": "from",
          "type": "address"
        },
        {
          "internalType": "address",
          "name": "to",
          "type": "address"
        },
        {
          "internalType": "uint256",
          "name": "tokenId",
          "type": "uint256"
        }
      ],
      "name": "transferFrom",
      "outputs": [],
      "stateMutability": "nonpayable",
      "type": "function"
    },
    {
      "inputs": [
        {
          "internalType": "uint256",
          "name": "soulId",
          "type": "uint256"
        },
        {
          "internalType": "uint256",
          "name": "price",
          "type": "uint256"
        }
      ],
      "name": "sale",
      "outputs": [],
      "stateMutability": "nonpayable",
      "type": "function"
    },
    {
      "inputs": [
        {
          "internalType": "uint256",
          "name": "soulId",
          "type": "uint256"
        }
      ],
      "name": "buy",
      "outputs": [],
      "stateMutability": "payable",
      "type": "function"
    },
    {
      "inputs": [
        {
          "internalType": "uint256",
          "name": "soulId",
          "type": "uint256"
        }
      ],
      "name": "stopSale",
      "outputs": [],
      "stateMutability": "nonpayable",
      "type": "function"
    },
    {
      "inputs": [
        {
          "internalType": "uint256",
          "name": "soulId",
          "type": "uint256"
        },
        {
          "internalType": "address",
          "name": "newSellerAddress",
          "type": "address"
        }
      ],
      "name": "changeSeller",
      "outputs": [],
      "stateMutability": "nonpayable",
      "type": "function"
    },
    {
      "inputs": [
        {
          "internalType": "uint256",
          "name": "soulId",
          "type": "uint256"
        }
      ],
      "name": "getInfoAboutSale",
      "outputs": [
        {
          "components": [
            {
              "internalType": "uint256",
              "name": "startedAt",
              "type": "uint256"
            },
            {
              "internalType": "address",
              "name": "seller",
              "type": "address"
            },
            {
              "internalType": "address",
              "name": "buyer",
              "type": "address"
            },
            {
              "internalType": "uint256",
              "name": "price",
              "type": "uint256"
            },
            {
              "internalType": "bool",
              "name": "onSale",
              "type": "bool"
            }
          ],
          "internalType": "struct ISoulMarket.Sale",
          "name": "",
          "type": "tuple"
        }
      ],
      "stateMutability": "view",
      "type": "function"
    }
  ],
  "bytecode": "0x608060405234801561001057600080fd5b50612320806100206000396000f3fe6080604052600436106101525760003560e01c806301ffc9a71461015757806306fdde031461018c578063081812fc146101ae578063095ea7b3146101e65780630fa7dcab146102085780631c35f9621461022857806323b872dd14610248578063283aa594146102685780633237307d1461028857806342842e0e146102b65780635641894d146102d65780636352211e146103435780636551b2ce1461036357806366cfe97f1461038357806370a08231146103b057806392977192146103d057806395d89b41146103ff578063a0712d6814610414578063a22cb46514610427578063a6ebd54314610447578063b44dd2b514610467578063b88d4fde1461047c578063bdd752021461049c578063c87b56dd146104bc578063cebcb0d4146104dc578063d96a094a14610509578063def2f0eb1461051c578063e985e9c51461053c578063f8dd1f761461055c575b600080fd5b34801561016357600080fd5b50610177610172366004611ef9565b61057c565b60405190151581526020015b60405180910390f35b34801561019857600080fd5b506101a16105ce565b60405161018391906120cc565b3480156101ba57600080fd5b506101ce6101c9366004611f31565b610660565b6040516001600160a01b039091168152602001610183565b3480156101f257600080fd5b50610206610201366004611ed0565b6106ed565b005b34801561021457600080fd5b50610206610223366004611f8c565b6107fe565b34801561023457600080fd5b50610206610243366004611f6b565b610895565b34801561025457600080fd5b50610206610263366004611d87565b610a03565b34801561027457600080fd5b50610206610283366004611f49565b610a34565b34801561029457600080fd5b506102a86102a3366004611f31565b610ab9565b604051908152602001610183565b3480156102c257600080fd5b506102066102d1366004611d87565b610ae0565b3480156102e257600080fd5b506102f66102f1366004611f31565b610afb565b60408051825181526020808401516001600160a01b03908116918301919091528383015116918101919091526060808301519082015260809182015115159181019190915260a001610183565b34801561034f57600080fd5b506101ce61035e366004611f31565b610b87565b34801561036f57600080fd5b506101ce61037e366004611f31565b610bfe565b34801561038f57600080fd5b506103a361039e366004611d3b565b610c66565b604051610183919061204d565b3480156103bc57600080fd5b506102a86103cb366004611d3b565b610cd2565b3480156103dc57600080fd5b50609b546040805160ff8084168252610100909304909216602083015201610183565b34801561040b57600080fd5b506101a1610d59565b610206610422366004611f31565b610d68565b34801561043357600080fd5b50610206610442366004611e96565b610f01565b34801561045357600080fd5b50610206610462366004611f31565b610fc3565b34801561047357600080fd5b506103a3611057565b34801561048857600080fd5b50610206610497366004611dc2565b6110ae565b3480156104a857600080fd5b506101776104b7366004611d3b565b6110e6565b3480156104c857600080fd5b506101a16104d7366004611f31565b6110f9565b3480156104e857600080fd5b506104fc6104f7366004611f31565b6111d1565b6040516101839190612091565b610206610517366004611f31565b61125f565b34801561052857600080fd5b50610206610537366004611f49565b6114f5565b34801561054857600080fd5b50610177610557366004611d55565b611503565b34801561056857600080fd5b50610206610577366004611f31565b611531565b60006001600160e01b031982166380ac58cd60e01b14806105ad57506001600160e01b03198216635b5e139f60e01b145b806105c857506301ffc9a760e01b6001600160e01b03198316145b92915050565b6060606580546105dd90612208565b80601f016020809104026020016040519081016040528092919081815260200182805461060990612208565b80156106565780601f1061062b57610100808354040283529160200191610656565b820191906000526020600020905b81548152906001019060200180831161063957829003601f168201915b5050505050905090565b600061066b8261155a565b6106d15760405162461bcd60e51b815260206004820152602c60248201527f4552433732313a20617070726f76656420717565727920666f72206e6f6e657860448201526b34b9ba32b73a103a37b5b2b760a11b60648201526084015b60405180910390fd5b506000908152606960205260409020546001600160a01b031690565b60006106f882610b87565b9050806001600160a01b0316836001600160a01b031614156107665760405162461bcd60e51b815260206004820152602160248201527f4552433732313a20617070726f76616c20746f2063757272656e74206f776e656044820152603960f91b60648201526084016106c8565b336001600160a01b038216148061078257506107828133611503565b6107ef5760405162461bcd60e51b815260206004820152603860248201527f4552433732313a20617070726f76652063616c6c6572206973206e6f74206f776044820152771b995c881b9bdc88185c1c1c9bdd995908199bdc88185b1b60421b60648201526084016106c8565b6107f98383611577565b505050565b3260009081526097602052604090205460ff166108515760405162461bcd60e51b81526020600482015260116024820152703cb7ba9030b932903737ba1030b236b4b760791b60448201526064016106c8565b60ff8260ff161061086157600080fd5b60208160ff161061087157600080fd5b609b805460ff9283166101000261ffff199091169290931691909117919091179055565b3261089f83610bfe565b6001600160a01b0316146108ea5760405162461bcd60e51b8152602060048201526012602482015271596f7520617265206e6f74206f776e65722160701b60448201526064016106c8565b600082815260a0602052604090206004015460ff161561093e5760405162461bcd60e51b815260206004820152600f60248201526e53616c65206973206f70656e65642160881b60448201526064016106c8565b6040805160a080820183524282523260208084018281526000858701818152606087018981526001608089018181528c85529786529289902097518855925191870180546001600160a01b03199081166001600160a01b03948516179091559051600288018054909216921691909117905551600385015591516004909301805460ff191693151593909317909255915183815290917f76f519ddcb2c54b2e28cf6cc1a2dfee150411bb675c78c0eef6f6388559893a6910160405180910390a25050565b610a0d33826115e5565b610a295760405162461bcd60e51b81526004016106c890612131565b6107f98383836116af565b6000828152609e6020908152604080832080546001600160a01b0319166001600160a01b0386169081179091558352609f825280832080546001810182559084529190922001839055517f649ac2249366264ba74a84d97e2e86f4490c06d225655797956313f613b9bade90610aad9084908490612182565b60405180910390a15050565b6000610ac48261155a565b610acd57600080fd5b5060009081526099602052604090205490565b6107f9838383604051806020016040528060008152506110ae565b6040805160a08101825260008082526020820181905291810182905260608101829052608081019190915250600090815260a06020818152604092839020835192830184528054835260018101546001600160a01b03908116928401929092526002810154909116928201929092526003820154606082015260049091015460ff161515608082015290565b6000818152606760205260408120546001600160a01b0316806105c85760405162461bcd60e51b815260206004820152602960248201527f4552433732313a206f776e657220717565727920666f72206e6f6e657869737460448201526832b73a103a37b5b2b760b91b60648201526084016106c8565b6000610c098261155a565b610c4a5760405162461bcd60e51b815260206004820152601260248201527114dbdd5b08191bd95cdb89dd08195e1a5cdd60721b60448201526064016106c8565b506000908152609e60205260409020546001600160a01b031690565b6001600160a01b0381166000908152609f6020908152604091829020805483518184028101840190945280845260609392830182828015610cc657602002820191906000526020600020905b815481526020019060010190808311610cb2575b50505050509050919050565b60006001600160a01b038216610d3d5760405162461bcd60e51b815260206004820152602a60248201527f4552433732313a2062616c616e636520717565727920666f7220746865207a65604482015269726f206164647265737360b01b60648201526084016106c8565b506001600160a01b031660009081526068602052604090205490565b6060606680546105dd90612208565b610d7133610cd2565b15610dba5760405162461bcd60e51b8152602060048201526019602482015278165bdd48185b1c9958591e481b5a5b9d081e5bdd481cdbdd5b603a1b60448201526064016106c8565b6207a120341015610e085760405162461bcd60e51b81526020600482015260186024820152776e6f7420656e6f7567682076616c756520666f722066656560401b60448201526064016106c8565b610e12328261183d565b6000818152609e6020908152604080832080546001600160a01b031916329081179091558352609f8252808320805460018181018355918552928420909201849055609d8054928301815583527fd26e832454299e9fabb89e0e5fffdc046d4e14431bc1bf607ffb2e8a1ddecf7b9091018390555173c6c6e7edab89a39ffc9db19cdd46c5c639964daa913480156108fc02929091818181858888f19350505050158015610ec4573d6000803e3d6000fd5b507f74859dbf8c28f71c8bc3a8e45de0d55d3c9c642375a2f8acdc3e84ed3de0a3c18132604051610ef6929190612182565b60405180910390a150565b6001600160a01b038216331415610f565760405162461bcd60e51b815260206004820152601960248201527822a9219b99189d1030b8383937bb32903a379031b0b63632b960391b60448201526064016106c8565b336000818152606a602090815260408083206001600160a01b03871680855290835292819020805460ff191686151590811790915590519081529192917f17307eab39ab6107e8899845ad3d59bd9653f200f220920489ca2b5937696c3191015b60405180910390a35050565b60008181526099602052604090205415610fdc57600080fd5b60408051436020820181905240918101919091526060810182905260009060800160408051808303601f19018152828252805160209182012060008681526099835292909220829055818352909250839132917f2d1c087923bb29c979975262d5f9b5bccdcbeb3c0bbc9fc5d9e303d7abf639b89101610fb7565b6060609d80548060200260200160405190810160405280929190818152602001828054801561065657602002820191906000526020600020905b815481526020019060010190808311611091575050505050905090565b6110b833836115e5565b6110d45760405162461bcd60e51b81526004016106c890612131565b6110e084848484611857565b50505050565b6000806110f283610cd2565b1192915050565b60606111048261155a565b6111685760405162461bcd60e51b815260206004820152602f60248201527f4552433732314d657461646174613a2055524920717565727920666f72206e6f60448201526e3732bc34b9ba32b73a103a37b5b2b760891b60648201526084016106c8565b600061117f60408051602081019091526000815290565b9050600081511161119f57604051806020016040528060008152506111ca565b806111a98461188a565b6040516020016111ba929190611fe1565b6040516020818303038152906040525b9392505050565b6000818152609a60209081526040808320815181548085028201840184529381018481526060959491938492849184018282801561124c57602002820191906000526020600020906000905b825461010083900a900460ff1681526020600192830181810494850194909303909202910180841161121d5790505b5050509190925250509051949350505050565b6112688161155a565b6112a95760405162461bcd60e51b815260206004820152601260248201527114dbdd5b08191bd95cdb89de48195e1a5cdd60721b60448201526064016106c8565b326112b382610bfe565b6001600160a01b031614156112fb5760405162461bcd60e51b815260206004820152600e60248201526d596f7520617265206f776e65722160901b60448201526064016106c8565b600081815260a0602052604090206004015460ff166113505760405162461bcd60e51b8152602060048201526011602482015270536f756c206e6f7420666f722073616c6560781b60448201526064016106c8565b600081815260a060205260409020600301543410156113a45760405162461bcd60e51b815260206004820152601060248201526f4e6f7420656e6f7567682076616c756560801b60448201526064016106c8565b6113ad326110e6565b6113f25760405162461bcd60e51b8152602060048201526016602482015275165bdd481cda1bdd5b19081a185d994818481cdbdd5b60521b60448201526064016106c8565b60006113fd82610afb565b9050600081606001513461141191906121c5565b9050801561144857604051329082156108fc029083906000818181858888f19350505050158015611446573d6000803e3d6000fd5b505b600083815260a060205260409020600101546001600160a01b03166108fc61147083346121c5565b6040518115909202916000818181858888f19350505050158015611498573d6000803e3d6000fd5b506114a38332610a34565b6114ad83326119a3565b6114b683611a03565b6040805184815234602082015232917fdd85ec7d965e6b26848609ec8720d2154b613e347f427ab82ee784236b28bbf3910160405180910390a2505050565b6114ff8282611a4e565b5050565b6001600160a01b039182166000908152606a6020908152604080832093909416825291909152205460ff1690565b3361153b82610bfe565b6001600160a01b03161461154e57600080fd5b61155781611a03565b50565b6000908152606760205260409020546001600160a01b0316151590565b600081815260696020526040902080546001600160a01b0319166001600160a01b03841690811790915581906115ac82610b87565b6001600160a01b03167f8c5be1e5ebec7d5bd14f71427d1e84f3dd0314c0f7b2291e5b200ac8c7c3b92560405160405180910390a45050565b60006115f08261155a565b6116515760405162461bcd60e51b815260206004820152602c60248201527f4552433732313a206f70657261746f7220717565727920666f72206e6f6e657860448201526b34b9ba32b73a103a37b5b2b760a11b60648201526084016106c8565b600061165c83610b87565b9050806001600160a01b0316846001600160a01b031614806116975750836001600160a01b031661168c84610660565b6001600160a01b0316145b806116a757506116a78185611503565b949350505050565b826001600160a01b03166116c282610b87565b6001600160a01b03161461172a5760405162461bcd60e51b815260206004820152602960248201527f4552433732313a207472616e73666572206f6620746f6b656e2074686174206960448201526839903737ba1037bbb760b91b60648201526084016106c8565b6001600160a01b03821661178c5760405162461bcd60e51b8152602060048201526024808201527f4552433732313a207472616e7366657220746f20746865207a65726f206164646044820152637265737360e01b60648201526084016106c8565b611797600082611577565b6001600160a01b03831660009081526068602052604081208054600192906117c09084906121c5565b90915550506001600160a01b03821660009081526068602052604081208054600192906117ee908490612199565b909155505060008181526067602052604080822080546001600160a01b0319166001600160a01b0386811691821790925591518493918716916000805160206122cb83398151915291a4505050565b6114ff828260405180602001604052806000815250611aae565b6118628484846116af565b61186e84848484611ae1565b6110e05760405162461bcd60e51b81526004016106c8906120df565b6060816118ae5750506040805180820190915260018152600360fc1b602082015290565b8160005b81156118d857806118c281612243565b91506118d19050600a836121b1565b91506118b2565b6000816001600160401b0381111561190057634e487b7160e01b600052604160045260246000fd5b6040519080825280601f01601f19166020018201604052801561192a576020820181803683370190505b5090505b84156116a75761193f6001836121c5565b915061194c600a8661225e565b611957906030612199565b60f81b81838151811061197a57634e487b7160e01b600052603260045260246000fd5b60200101906001600160f81b031916908160001a90535061199c600a866121b1565b945061192e565b600082815260a0602090815260409182902060020180546001600160a01b0319166001600160a01b038516908117909155915184815232917fe90419f2812a0b5567d88901ce6bfd4c8dd5a9401f842a0da4404a1c402c234b9101610fb7565b600081815260a0602052604090819020600401805460ff19169055517f2459d2e941fa81acec6a314349c8176c81d809383738d1e1f1d33972c17d3e1590610ef69083815260200190565b600082815260a0602090815260409182902060010180546001600160a01b0319166001600160a01b038516908117909155915184815232917f384cd900320597bb9f30f6ffc1b673fdb9a357c186354215732cb1d304eaf58e9101610fb7565b611ab88383611bee565b611ac56000848484611ae1565b6107f95760405162461bcd60e51b81526004016106c8906120df565b60006001600160a01b0384163b15611be357604051630a85bd0160e11b81526001600160a01b0385169063150b7a0290611b25903390899088908890600401612010565b602060405180830381600087803b158015611b3f57600080fd5b505af1925050508015611b6f575060408051601f3d908101601f19168201909252611b6c91810190611f15565b60015b611bc9573d808015611b9d576040519150601f19603f3d011682016040523d82523d6000602084013e611ba2565b606091505b508051611bc15760405162461bcd60e51b81526004016106c8906120df565b805181602001fd5b6001600160e01b031916630a85bd0160e11b1490506116a7565b506001949350505050565b6001600160a01b038216611c445760405162461bcd60e51b815260206004820181905260248201527f4552433732313a206d696e7420746f20746865207a65726f206164647265737360448201526064016106c8565b611c4d8161155a565b15611c995760405162461bcd60e51b815260206004820152601c60248201527b115490cdcc8c4e881d1bdad95b88185b1c9958591e481b5a5b9d195960221b60448201526064016106c8565b6001600160a01b0382166000908152606860205260408120805460019290611cc2908490612199565b909155505060008181526067602052604080822080546001600160a01b0319166001600160a01b03861690811790915590518392906000805160206122cb833981519152908290a45050565b80356001600160a01b0381168114611d2557600080fd5b919050565b803560ff81168114611d2557600080fd5b600060208284031215611d4c578081fd5b6111ca82611d0e565b60008060408385031215611d67578081fd5b611d7083611d0e565b9150611d7e60208401611d0e565b90509250929050565b600080600060608486031215611d9b578081fd5b611da484611d0e565b9250611db260208501611d0e565b9150604084013590509250925092565b60008060008060808587031215611dd7578081fd5b611de085611d0e565b9350611dee60208601611d0e565b92506040850135915060608501356001600160401b0380821115611e10578283fd5b818701915087601f830112611e23578283fd5b813581811115611e3557611e3561229e565b604051601f8201601f19908116603f01168101908382118183101715611e5d57611e5d61229e565b816040528281528a6020848701011115611e75578586fd5b82602086016020830137918201602001949094529598949750929550505050565b60008060408385031215611ea8578182fd5b611eb183611d0e565b915060208301358015158114611ec5578182fd5b809150509250929050565b60008060408385031215611ee2578182fd5b611eeb83611d0e565b946020939093013593505050565b600060208284031215611f0a578081fd5b81356111ca816122b4565b600060208284031215611f26578081fd5b81516111ca816122b4565b600060208284031215611f42578081fd5b5035919050565b60008060408385031215611f5b578182fd5b82359150611d7e60208401611d0e565b60008060408385031215611f7d578182fd5b50508035926020909101359150565b60008060408385031215611f9e578182fd5b611fa783611d2a565b9150611d7e60208401611d2a565b60008151808452611fcd8160208601602086016121dc565b601f01601f19169290920160200192915050565b60008351611ff38184602088016121dc565b8351908301906120078183602088016121dc565b01949350505050565b6001600160a01b038581168252841660208201526040810183905260806060820181905260009061204390830184611fb5565b9695505050505050565b6020808252825182820181905260009190848201906040850190845b8181101561208557835183529284019291840191600101612069565b50909695505050505050565b6020808252825182820181905260009190848201906040850190845b8181101561208557835160ff16835292840192918401916001016120ad565b6020815260006111ca6020830184611fb5565b60208082526032908201527f4552433732313a207472616e7366657220746f206e6f6e20455243373231526560408201527131b2b4bb32b91034b6b83632b6b2b73a32b960711b606082015260800190565b60208082526031908201527f4552433732313a207472616e736665722063616c6c6572206973206e6f74206f6040820152701ddb995c881b9bdc88185c1c1c9bdd9959607a1b606082015260800190565b9182526001600160a01b0316602082015260400190565b600082198211156121ac576121ac612272565b500190565b6000826121c0576121c0612288565b500490565b6000828210156121d7576121d7612272565b500390565b60005b838110156121f75781810151838201526020016121df565b838111156110e05750506000910152565b600181811c9082168061221c57607f821691505b6020821081141561223d57634e487b7160e01b600052602260045260246000fd5b50919050565b600060001982141561225757612257612272565b5060010190565b60008261226d5761226d612288565b500690565b634e487b7160e01b600052601160045260246000fd5b634e487b7160e01b600052601260045260246000fd5b634e487b7160e01b600052604160045260246000fd5b6001600160e01b03198116811461155757600080fdfeddf252ad1be2c89b69c2b068fc378daa952ba7f163c4a11628f55a4df523b3efa26469706673582212206e29679c71a26cd5848506754c2903c5f963caa4fdd379b814e13b78c8a708c964736f6c63430008040033",
  "immutableReferences": {},
  "source": "// SPDX-License-Identifier: UNLICENSED\npragma solidity ^0.8.0;\n\nimport \"./MintableSoul.sol\";\nimport \"./interfaces/ISoulMarket.sol\";\nimport \"@openzeppelin/contracts-upgradeable/utils/math/SafeMathUpgradeable.sol\";\n\ncontract SoulMarket is MintableSoul, ISoulMarket {\n    mapping(uint256 => Sale) private _onSale;\n\n    event SoulOnSale(address indexed seller, uint256 price);\n    event SoulBuyed(address indexed buyer, uint256 soulId, uint256 price);\n    event SaleStoped(uint256 soulId);\n    event SellerChanged(\n        address indexed oldSeller,\n        address indexed newSeller,\n        uint256 soulId\n    );\n    event BuyerChanged(\n        address indexed oldBuyer,\n        address indexed newBuyer,\n        uint256 soulId\n    );\n\n    function sale(uint256 soulId, uint256 price) public {\n        require(carrierOf(soulId) == tx.origin, \"You are not owner!\");\n        require(!_onSale[soulId].onSale, \"Sale is opened!\");\n        _onSale[soulId] = Sale(\n            block.timestamp,\n            tx.origin,\n            address(0),\n            price,\n            true\n        );\n        emit SoulOnSale(tx.origin, price);\n    }\n\n    function buy(uint256 soulId) public payable {\n        require(_exists(soulId), \"Soul doesn'y exist\");\n        require(carrierOf(soulId) != tx.origin, \"You are owner!\");\n        require(_onSale[soulId].onSale, \"Soul not for sale\");\n        require(msg.value >= _onSale[soulId].price, \"Not enough value\");\n        require(hasSoul(tx.origin), \"You should have a soul\");\n        // require(ownerOf(soulId) != msg.sender);\n\n        // uint256 buyerSoul = getSoul(msg.sender);\n\n        Sale memory sale1 = getInfoAboutSale(soulId);\n        // uint256 currentPrice = sale.price;\n\n        uint256 sendBack = msg.value - sale1.price;\n        // todo tx.gasprice ?\n        if (sendBack > 0) {\n            payable(address(tx.origin)).transfer(sendBack);\n        }\n\n        payable(address(_onSale[soulId].seller)).transfer(msg.value - sendBack);\n\n        changeCarrier(soulId, tx.origin); // after test to _changeCarrier\n        _changeBuyer(soulId, tx.origin);\n        _stopSale(soulId);\n\n        emit SoulBuyed(tx.origin, soulId, msg.value);\n    }\n\n    function _stopSale(uint256 soulId) internal {\n        _onSale[soulId].onSale = false;\n        emit SaleStoped(soulId);\n    }\n\n    function stopSale(uint256 soulId) public {\n        require(carrierOf(soulId) == msg.sender);\n        _stopSale(soulId);\n    }\n\n    function _changeSeller(uint256 soulId, address newSellerAddress) internal {\n        // require(condition);\n        _onSale[soulId].seller = newSellerAddress;\n        emit SellerChanged(tx.origin, newSellerAddress, soulId);\n    }\n\n    function changeSeller(uint256 soulId, address newSellerAddress) public {\n        _changeSeller(soulId, newSellerAddress);\n    }\n\n    function _changeBuyer(uint256 soulId, address newBuyerAddress) internal {\n        // require(condition);\n        _onSale[soulId].buyer = newBuyerAddress;\n        emit BuyerChanged(tx.origin, newBuyerAddress, soulId);\n    }\n\n    function getInfoAboutSale(uint256 soulId)\n        public\n        view\n        returns (Sale memory)\n    {\n        return _onSale[soulId];\n    }\n}\n",
  "sourcePath": "/home/ilyadruzh/Documents/nfsoul/smart-contracts/contracts/SoulMarket.sol",
  "compiler": {
    "name": "solc",
    "version": "0.8.4+commit.c7e474f2.Emscripten.clang"
  },
  "schemaVersion": "3.4.1",
  "updatedAt": "2021-06-11T22:29:58.464Z",
  "devdoc": {
    "kind": "dev",
    "methods": {
      "approve(address,uint256)": {
        "details": "See {IERC721-approve}."
      },
      "balanceOf(address)": {
        "details": "See {IERC721-balanceOf}."
      },
      "getApproved(uint256)": {
        "details": "See {IERC721-getApproved}."
      },
      "isApprovedForAll(address,address)": {
        "details": "See {IERC721-isApprovedForAll}."
      },
      "name()": {
        "details": "See {IERC721Metadata-name}."
      },
      "ownerOf(uint256)": {
        "details": "See {IERC721-ownerOf}."
      },
      "safeTransferFrom(address,address,uint256)": {
        "details": "See {IERC721-safeTransferFrom}."
      },
      "safeTransferFrom(address,address,uint256,bytes)": {
        "details": "See {IERC721-safeTransferFrom}."
      },
      "setApprovalForAll(address,bool)": {
        "details": "See {IERC721-setApprovalForAll}."
      },
      "supportsInterface(bytes4)": {
        "details": "See {IERC165-supportsInterface}."
      },
      "symbol()": {
        "details": "See {IERC721Metadata-symbol}."
      },
      "tokenURI(uint256)": {
        "details": "See {IERC721Metadata-tokenURI}."
      },
      "transferFrom(address,address,uint256)": {
        "details": "See {IERC721-transferFrom}."
      }
    },
    "version": 1
  },
  "userdoc": {
    "kind": "user",
    "methods": {},
    "version": 1
  }
}