{
  "contractName": "SoulMarket",
  "abi": [
    {
      "anonymous": false,
      "inputs": [
        {
          "indexed": true,
          "internalType": "address",
          "name": "account",
          "type": "address"
        }
      ],
      "name": "AdminAdded",
      "type": "event"
    },
    {
      "anonymous": false,
      "inputs": [
        {
          "indexed": true,
          "internalType": "address",
          "name": "account",
          "type": "address"
        }
      ],
      "name": "AdminRemoved",
      "type": "event"
    },
    {
      "anonymous": false,
      "inputs": [
        {
          "indexed": true,
          "internalType": "address",
          "name": "owner",
          "type": "address"
        },
        {
          "indexed": true,
          "internalType": "address",
          "name": "approved",
          "type": "address"
        },
        {
          "indexed": true,
          "internalType": "uint256",
          "name": "tokenId",
          "type": "uint256"
        }
      ],
      "name": "Approval",
      "type": "event"
    },
    {
      "anonymous": false,
      "inputs": [
        {
          "indexed": true,
          "internalType": "address",
          "name": "owner",
          "type": "address"
        },
        {
          "indexed": true,
          "internalType": "address",
          "name": "operator",
          "type": "address"
        },
        {
          "indexed": false,
          "internalType": "bool",
          "name": "approved",
          "type": "bool"
        }
      ],
      "name": "ApprovalForAll",
      "type": "event"
    },
    {
      "anonymous": false,
      "inputs": [
        {
          "indexed": true,
          "internalType": "address",
          "name": "oldBuyer",
          "type": "address"
        },
        {
          "indexed": true,
          "internalType": "address",
          "name": "newBuyer",
          "type": "address"
        },
        {
          "indexed": false,
          "internalType": "uint256",
          "name": "soulId",
          "type": "uint256"
        }
      ],
      "name": "BuyerChanged",
      "type": "event"
    },
    {
      "anonymous": false,
      "inputs": [
        {
          "indexed": false,
          "internalType": "uint256",
          "name": "soulId",
          "type": "uint256"
        },
        {
          "indexed": false,
          "internalType": "address",
          "name": "newCarrier",
          "type": "address"
        }
      ],
      "name": "CarrierChanged",
      "type": "event"
    },
    {
      "anonymous": false,
      "inputs": [
        {
          "indexed": true,
          "internalType": "address",
          "name": "from",
          "type": "address"
        },
        {
          "indexed": true,
          "internalType": "uint256",
          "name": "tokenId",
          "type": "uint256"
        },
        {
          "indexed": false,
          "internalType": "bytes32",
          "name": "mods",
          "type": "bytes32"
        }
      ],
      "name": "ModificationSetted",
      "type": "event"
    },
    {
      "anonymous": false,
      "inputs": [
        {
          "indexed": false,
          "internalType": "uint256",
          "name": "soulId",
          "type": "uint256"
        }
      ],
      "name": "SaleStoped",
      "type": "event"
    },
    {
      "anonymous": false,
      "inputs": [
        {
          "indexed": true,
          "internalType": "address",
          "name": "oldSeller",
          "type": "address"
        },
        {
          "indexed": true,
          "internalType": "address",
          "name": "newSeller",
          "type": "address"
        },
        {
          "indexed": false,
          "internalType": "uint256",
          "name": "soulId",
          "type": "uint256"
        }
      ],
      "name": "SellerChanged",
      "type": "event"
    },
    {
      "anonymous": false,
      "inputs": [
        {
          "indexed": true,
          "internalType": "address",
          "name": "buyer",
          "type": "address"
        },
        {
          "indexed": false,
          "internalType": "uint256",
          "name": "soulId",
          "type": "uint256"
        },
        {
          "indexed": false,
          "internalType": "uint256",
          "name": "price",
          "type": "uint256"
        }
      ],
      "name": "SoulBuyed",
      "type": "event"
    },
    {
      "anonymous": false,
      "inputs": [
        {
          "indexed": true,
          "internalType": "address",
          "name": "seller",
          "type": "address"
        },
        {
          "indexed": false,
          "internalType": "uint256",
          "name": "price",
          "type": "uint256"
        }
      ],
      "name": "SoulOnSale",
      "type": "event"
    },
    {
      "anonymous": false,
      "inputs": [
        {
          "indexed": true,
          "internalType": "address",
          "name": "from",
          "type": "address"
        },
        {
          "indexed": true,
          "internalType": "address",
          "name": "to",
          "type": "address"
        },
        {
          "indexed": true,
          "internalType": "uint256",
          "name": "tokenId",
          "type": "uint256"
        }
      ],
      "name": "Transfer",
      "type": "event"
    },
    {
      "inputs": [
        {
          "internalType": "uint8",
          "name": "maxModVal",
          "type": "uint8"
        },
        {
          "internalType": "uint8",
          "name": "maxMods",
          "type": "uint8"
        }
      ],
      "name": "_setModificationSettings",
      "outputs": [],
      "stateMutability": "nonpayable",
      "type": "function"
    },
    {
      "inputs": [
        {
          "internalType": "address",
          "name": "to",
          "type": "address"
        },
        {
          "internalType": "uint256",
          "name": "tokenId",
          "type": "uint256"
        }
      ],
      "name": "approve",
      "outputs": [],
      "stateMutability": "nonpayable",
      "type": "function"
    },
    {
      "inputs": [
        {
          "internalType": "address",
          "name": "owner",
          "type": "address"
        }
      ],
      "name": "balanceOf",
      "outputs": [
        {
          "internalType": "uint256",
          "name": "",
          "type": "uint256"
        }
      ],
      "stateMutability": "view",
      "type": "function"
    },
    {
      "inputs": [
        {
          "internalType": "uint256",
          "name": "soulId",
          "type": "uint256"
        }
      ],
      "name": "carrierOf",
      "outputs": [
        {
          "internalType": "address",
          "name": "",
          "type": "address"
        }
      ],
      "stateMutability": "view",
      "type": "function"
    },
    {
      "inputs": [
        {
          "internalType": "uint256",
          "name": "soulId",
          "type": "uint256"
        },
        {
          "internalType": "address",
          "name": "newCarrier",
          "type": "address"
        }
      ],
      "name": "changeCarrier",
      "outputs": [],
      "stateMutability": "nonpayable",
      "type": "function"
    },
    {
      "inputs": [
        {
          "internalType": "uint256",
          "name": "tokenId",
          "type": "uint256"
        }
      ],
      "name": "getApproved",
      "outputs": [
        {
          "internalType": "address",
          "name": "",
          "type": "address"
        }
      ],
      "stateMutability": "view",
      "type": "function"
    },
    {
      "inputs": [
        {
          "internalType": "address",
          "name": "carrier",
          "type": "address"
        }
      ],
      "name": "getSoul",
      "outputs": [
        {
          "internalType": "uint256[]",
          "name": "soulIds",
          "type": "uint256[]"
        }
      ],
      "stateMutability": "view",
      "type": "function"
    },
    {
      "inputs": [
        {
          "internalType": "address",
          "name": "person",
          "type": "address"
        }
      ],
      "name": "hasSoul",
      "outputs": [
        {
          "internalType": "bool",
          "name": "",
          "type": "bool"
        }
      ],
      "stateMutability": "view",
      "type": "function"
    },
    {
      "inputs": [
        {
          "internalType": "address",
          "name": "owner",
          "type": "address"
        },
        {
          "internalType": "address",
          "name": "operator",
          "type": "address"
        }
      ],
      "name": "isApprovedForAll",
      "outputs": [
        {
          "internalType": "bool",
          "name": "",
          "type": "bool"
        }
      ],
      "stateMutability": "view",
      "type": "function"
    },
    {
      "inputs": [
        {
          "internalType": "uint256",
          "name": "soulId",
          "type": "uint256"
        }
      ],
      "name": "mint",
      "outputs": [],
      "stateMutability": "payable",
      "type": "function"
    },
    {
      "inputs": [],
      "name": "modificationSettings",
      "outputs": [
        {
          "internalType": "uint8",
          "name": "",
          "type": "uint8"
        },
        {
          "internalType": "uint8",
          "name": "",
          "type": "uint8"
        }
      ],
      "stateMutability": "view",
      "type": "function"
    },
    {
      "inputs": [],
      "name": "name",
      "outputs": [
        {
          "internalType": "string",
          "name": "",
          "type": "string"
        }
      ],
      "stateMutability": "view",
      "type": "function"
    },
    {
      "inputs": [
        {
          "internalType": "uint256",
          "name": "tokenId",
          "type": "uint256"
        }
      ],
      "name": "ownerOf",
      "outputs": [
        {
          "internalType": "address",
          "name": "",
          "type": "address"
        }
      ],
      "stateMutability": "view",
      "type": "function"
    },
    {
      "inputs": [
        {
          "internalType": "address",
          "name": "from",
          "type": "address"
        },
        {
          "internalType": "address",
          "name": "to",
          "type": "address"
        },
        {
          "internalType": "uint256",
          "name": "tokenId",
          "type": "uint256"
        }
      ],
      "name": "safeTransferFrom",
      "outputs": [],
      "stateMutability": "nonpayable",
      "type": "function"
    },
    {
      "inputs": [
        {
          "internalType": "address",
          "name": "from",
          "type": "address"
        },
        {
          "internalType": "address",
          "name": "to",
          "type": "address"
        },
        {
          "internalType": "uint256",
          "name": "tokenId",
          "type": "uint256"
        },
        {
          "internalType": "bytes",
          "name": "_data",
          "type": "bytes"
        }
      ],
      "name": "safeTransferFrom",
      "outputs": [],
      "stateMutability": "nonpayable",
      "type": "function"
    },
    {
      "inputs": [
        {
          "internalType": "address",
          "name": "operator",
          "type": "address"
        },
        {
          "internalType": "bool",
          "name": "approved",
          "type": "bool"
        }
      ],
      "name": "setApprovalForAll",
      "outputs": [],
      "stateMutability": "nonpayable",
      "type": "function"
    },
    {
      "inputs": [
        {
          "internalType": "bytes4",
          "name": "interfaceId",
          "type": "bytes4"
        }
      ],
      "name": "supportsInterface",
      "outputs": [
        {
          "internalType": "bool",
          "name": "",
          "type": "bool"
        }
      ],
      "stateMutability": "view",
      "type": "function"
    },
    {
      "inputs": [],
      "name": "symbol",
      "outputs": [
        {
          "internalType": "string",
          "name": "",
          "type": "string"
        }
      ],
      "stateMutability": "view",
      "type": "function"
    },
    {
      "inputs": [
        {
          "internalType": "uint256",
          "name": "tokenId",
          "type": "uint256"
        }
      ],
      "name": "tokenURI",
      "outputs": [
        {
          "internalType": "string",
          "name": "",
          "type": "string"
        }
      ],
      "stateMutability": "view",
      "type": "function"
    },
    {
      "inputs": [
        {
          "internalType": "address",
          "name": "from",
          "type": "address"
        },
        {
          "internalType": "address",
          "name": "to",
          "type": "address"
        },
        {
          "internalType": "uint256",
          "name": "tokenId",
          "type": "uint256"
        }
      ],
      "name": "transferFrom",
      "outputs": [],
      "stateMutability": "nonpayable",
      "type": "function"
    },
    {
      "inputs": [
        {
          "internalType": "uint256",
          "name": "soulId",
          "type": "uint256"
        },
        {
          "internalType": "uint256",
          "name": "price",
          "type": "uint256"
        }
      ],
      "name": "sale",
      "outputs": [],
      "stateMutability": "nonpayable",
      "type": "function"
    },
    {
      "inputs": [
        {
          "internalType": "uint256",
          "name": "soulId",
          "type": "uint256"
        }
      ],
      "name": "buy",
      "outputs": [],
      "stateMutability": "payable",
      "type": "function"
    },
    {
      "inputs": [
        {
          "internalType": "uint256",
          "name": "soulId",
          "type": "uint256"
        }
      ],
      "name": "stopSale",
      "outputs": [],
      "stateMutability": "nonpayable",
      "type": "function"
    },
    {
      "inputs": [
        {
          "internalType": "uint256",
          "name": "soulId",
          "type": "uint256"
        },
        {
          "internalType": "address",
          "name": "newSellerAddress",
          "type": "address"
        }
      ],
      "name": "changeSeller",
      "outputs": [],
      "stateMutability": "nonpayable",
      "type": "function"
    },
    {
      "inputs": [
        {
          "internalType": "uint256",
          "name": "soulId",
          "type": "uint256"
        }
      ],
      "name": "getInfoAboutSale",
      "outputs": [
        {
          "components": [
            {
              "internalType": "uint256",
              "name": "startedAt",
              "type": "uint256"
            },
            {
              "internalType": "address",
              "name": "seller",
              "type": "address"
            },
            {
              "internalType": "address",
              "name": "buyer",
              "type": "address"
            },
            {
              "internalType": "uint256",
              "name": "price",
              "type": "uint256"
            },
            {
              "internalType": "bool",
              "name": "onSale",
              "type": "bool"
            }
          ],
          "internalType": "struct ISoulMarket.Sale",
          "name": "",
          "type": "tuple"
        }
      ],
      "stateMutability": "view",
      "type": "function"
    }
  ],
  "bytecode": "0x608060405234801561001057600080fd5b50612213806100206000396000f3fe6080604052600436106101265760003560e01c806301ffc9a71461012b57806306fdde0314610160578063081812fc14610182578063095ea7b3146101ba5780630fa7dcab146101dc5780631c35f962146101fc57806323b872dd1461021c578063283aa5941461023c57806342842e0e1461025c5780635641894d1461027c5780636352211e146102e95780636551b2ce1461030957806366cfe97f1461032957806370a0823114610356578063929771921461038457806395d89b41146103b3578063a0712d68146103c8578063a22cb465146103db578063b88d4fde146103fb578063bdd752021461041b578063c87b56dd1461043b578063d96a094a1461045b578063def2f0eb1461046e578063e985e9c51461048e578063f8dd1f76146104ae575b600080fd5b34801561013757600080fd5b5061014b610146366004611dfb565b6104ce565b60405190151581526020015b60405180910390f35b34801561016c57600080fd5b50610175610520565b6040516101579190611f93565b34801561018e57600080fd5b506101a261019d366004611e33565b6105b2565b6040516001600160a01b039091168152602001610157565b3480156101c657600080fd5b506101da6101d5366004611dd2565b61063f565b005b3480156101e857600080fd5b506101da6101f7366004611e8e565b610750565b34801561020857600080fd5b506101da610217366004611e6d565b6107e7565b34801561022857600080fd5b506101da610237366004611c89565b610953565b34801561024857600080fd5b506101da610257366004611e4b565b610984565b34801561026857600080fd5b506101da610277366004611c89565b610a0b565b34801561028857600080fd5b5061029c610297366004611e33565b610a26565b60408051825181526020808401516001600160a01b03908116918301919091528383015116918101919091526060808301519082015260809182015115159181019190915260a001610157565b3480156102f557600080fd5b506101a2610304366004611e33565b610ab3565b34801561031557600080fd5b506101a2610324366004611e33565b610b2a565b34801561033557600080fd5b50610349610344366004611c3d565b610b92565b6040516101579190611f4f565b34801561036257600080fd5b50610376610371366004611c3d565b610bfe565b604051908152602001610157565b34801561039057600080fd5b50609b546040805160ff8084168252610100909304909216602083015201610157565b3480156103bf57600080fd5b50610175610c85565b6101da6103d6366004611e33565b610c94565b3480156103e757600080fd5b506101da6103f6366004611d98565b610d6e565b34801561040757600080fd5b506101da610416366004611cc4565b610e30565b34801561042757600080fd5b5061014b610436366004611c3d565b610e68565b34801561044757600080fd5b50610175610456366004611e33565b610e7b565b6101da610469366004611e33565b610f53565b34801561047a57600080fd5b506101da610489366004611e4b565b6111e9565b34801561049a57600080fd5b5061014b6104a9366004611c57565b6111f3565b3480156104ba57600080fd5b506101da6104c9366004611e33565b611221565b60006001600160e01b031982166380ac58cd60e01b14806104ff57506001600160e01b03198216635b5e139f60e01b145b8061051a57506301ffc9a760e01b6001600160e01b03198316145b92915050565b60606065805461052f906120db565b80601f016020809104026020016040519081016040528092919081815260200182805461055b906120db565b80156105a85780601f1061057d576101008083540402835291602001916105a8565b820191906000526020600020905b81548152906001019060200180831161058b57829003601f168201915b5050505050905090565b60006105bd8261124a565b6106235760405162461bcd60e51b815260206004820152602c60248201527f4552433732313a20617070726f76656420717565727920666f72206e6f6e657860448201526b34b9ba32b73a103a37b5b2b760a11b60648201526084015b60405180910390fd5b506000908152606960205260409020546001600160a01b031690565b600061064a82610ab3565b9050806001600160a01b0316836001600160a01b031614156106b85760405162461bcd60e51b815260206004820152602160248201527f4552433732313a20617070726f76616c20746f2063757272656e74206f776e656044820152603960f91b606482015260840161061a565b336001600160a01b03821614806106d457506106d481336111f3565b6107415760405162461bcd60e51b815260206004820152603860248201527f4552433732313a20617070726f76652063616c6c6572206973206e6f74206f776044820152771b995c881b9bdc88185c1c1c9bdd995908199bdc88185b1b60421b606482015260840161061a565b61074b8383611267565b505050565b3260009081526097602052604090205460ff166107a35760405162461bcd60e51b81526020600482015260116024820152703cb7ba9030b932903737ba1030b236b4b760791b604482015260640161061a565b60ff8260ff16106107b357600080fd5b60208160ff16106107c357600080fd5b609b805460ff9283166101000261ffff199091169290931691909117919091179055565b326107f183610b2a565b6001600160a01b03161461083c5760405162461bcd60e51b8152602060048201526012602482015271596f7520617265206e6f74206f776e65722160701b604482015260640161061a565b6000828152609f602052604090206004015460ff16156108905760405162461bcd60e51b815260206004820152600f60248201526e53616c65206973206f70656e65642160881b604482015260640161061a565b6040805160a0810182524281523260208083018281526000848601818152606086018881526001608088018181528b8552609f87529389902097518855935193870180546001600160a01b03199081166001600160a01b03968716179091559151600288018054909316941693909317905590516003850155516004909301805460ff19169315159390931790925591518381527f76f519ddcb2c54b2e28cf6cc1a2dfee150411bb675c78c0eef6f6388559893a6910160405180910390a25050565b61095d33826112d5565b6109795760405162461bcd60e51b815260040161061a90611ff8565b61074b83838361139f565b6000828152609d6020908152604080832080546001600160a01b0319166001600160a01b038616908117909155808452609e83528184208054600181018255908552938390209093018590558051858152918201929092527f649ac2249366264ba74a84d97e2e86f4490c06d225655797956313f613b9bade910160405180910390a15050565b61074b83838360405180602001604052806000815250610e30565b6040805160a081018252600080825260208201819052918101829052606081018290526080810191909152506000908152609f6020908152604091829020825160a0810184528154815260018201546001600160a01b03908116938201939093526002820154909216928201929092526003820154606082015260049091015460ff161515608082015290565b6000818152606760205260408120546001600160a01b03168061051a5760405162461bcd60e51b815260206004820152602960248201527f4552433732313a206f776e657220717565727920666f72206e6f6e657869737460448201526832b73a103a37b5b2b760b91b606482015260840161061a565b6000610b358261124a565b610b765760405162461bcd60e51b815260206004820152601260248201527114dbdd5b08191bd95cdb89dd08195e1a5cdd60721b604482015260640161061a565b506000908152609d60205260409020546001600160a01b031690565b6001600160a01b0381166000908152609e6020908152604091829020805483518184028101840190945280845260609392830182828015610bf257602002820191906000526020600020905b815481526020019060010190808311610bde575b50505050509050919050565b60006001600160a01b038216610c695760405162461bcd60e51b815260206004820152602a60248201527f4552433732313a2062616c616e636520717565727920666f7220746865207a65604482015269726f206164647265737360b01b606482015260840161061a565b506001600160a01b031660009081526068602052604090205490565b60606066805461052f906120db565b610c9d33610bfe565b15610ce65760405162461bcd60e51b8152602060048201526019602482015278165bdd48185b1c9958591e481b5a5b9d081e5bdd481cdbdd5b603a1b604482015260640161061a565b610cf0328261152d565b6000818152609d6020908152604080832080546001600160a01b031916329081179091558352609e825280832080546001810182559084528284200184905580514392810183905291409082015260608101839052608001604051602081830303815290604052805190602001209050610d6a8282611547565b5050565b6001600160a01b038216331415610dc35760405162461bcd60e51b815260206004820152601960248201527822a9219b99189d1030b8383937bb32903a379031b0b63632b960391b604482015260640161061a565b336000818152606a602090815260408083206001600160a01b03871680855290835292819020805460ff191686151590811790915590519081529192917f17307eab39ab6107e8899845ad3d59bd9653f200f220920489ca2b5937696c3191015b60405180910390a35050565b610e3a33836112d5565b610e565760405162461bcd60e51b815260040161061a90611ff8565b610e628484848461161d565b50505050565b600080610e7483610bfe565b1192915050565b6060610e868261124a565b610eea5760405162461bcd60e51b815260206004820152602f60248201527f4552433732314d657461646174613a2055524920717565727920666f72206e6f60448201526e3732bc34b9ba32b73a103a37b5b2b760891b606482015260840161061a565b6000610f0160408051602081019091526000815290565b90506000815111610f215760405180602001604052806000815250610f4c565b80610f2b84611650565b604051602001610f3c929190611ee3565b6040516020818303038152906040525b9392505050565b610f5c8161124a565b610f9d5760405162461bcd60e51b815260206004820152601260248201527114dbdd5b08191bd95cdb89de48195e1a5cdd60721b604482015260640161061a565b32610fa782610b2a565b6001600160a01b03161415610fef5760405162461bcd60e51b815260206004820152600e60248201526d596f7520617265206f776e65722160901b604482015260640161061a565b6000818152609f602052604090206004015460ff166110445760405162461bcd60e51b8152602060048201526011602482015270536f756c206e6f7420666f722073616c6560781b604482015260640161061a565b6000818152609f60205260409020600301543410156110985760405162461bcd60e51b815260206004820152601060248201526f4e6f7420656e6f7567682076616c756560801b604482015260640161061a565b6110a132610e68565b6110e65760405162461bcd60e51b8152602060048201526016602482015275165bdd481cda1bdd5b19081a185d994818481cdbdd5b60521b604482015260640161061a565b60006110f182610a26565b905060008160600151346111059190612075565b9050801561113c57604051329082156108fc029083906000818181858888f1935050505015801561113a573d6000803e3d6000fd5b505b6000838152609f60205260409020600101546001600160a01b03166108fc6111648334612075565b6040518115909202916000818181858888f1935050505015801561118c573d6000803e3d6000fd5b506111978332610984565b6111a18332611769565b6111aa836117c9565b6040805184815234602082015232917fdd85ec7d965e6b26848609ec8720d2154b613e347f427ab82ee784236b28bbf3910160405180910390a2505050565b610d6a828261181f565b6001600160a01b039182166000908152606a6020908152604080832093909416825291909152205460ff1690565b3361122b82610b2a565b6001600160a01b03161461123e57600080fd5b611247816117c9565b50565b6000908152606760205260409020546001600160a01b0316151590565b600081815260696020526040902080546001600160a01b0319166001600160a01b038416908117909155819061129c82610ab3565b6001600160a01b03167f8c5be1e5ebec7d5bd14f71427d1e84f3dd0314c0f7b2291e5b200ac8c7c3b92560405160405180910390a45050565b60006112e08261124a565b6113415760405162461bcd60e51b815260206004820152602c60248201527f4552433732313a206f70657261746f7220717565727920666f72206e6f6e657860448201526b34b9ba32b73a103a37b5b2b760a11b606482015260840161061a565b600061134c83610ab3565b9050806001600160a01b0316846001600160a01b031614806113875750836001600160a01b031661137c846105b2565b6001600160a01b0316145b80611397575061139781856111f3565b949350505050565b826001600160a01b03166113b282610ab3565b6001600160a01b03161461141a5760405162461bcd60e51b815260206004820152602960248201527f4552433732313a207472616e73666572206f6620746f6b656e2074686174206960448201526839903737ba1037bbb760b91b606482015260840161061a565b6001600160a01b03821661147c5760405162461bcd60e51b8152602060048201526024808201527f4552433732313a207472616e7366657220746f20746865207a65726f206164646044820152637265737360e01b606482015260840161061a565b611487600082611267565b6001600160a01b03831660009081526068602052604081208054600192906114b0908490612075565b90915550506001600160a01b03821660009081526068602052604081208054600192906114de908490612049565b909155505060008181526067602052604080822080546001600160a01b0319166001600160a01b0386811691821790925591518493918716916000805160206121be83398151915291a4505050565b610d6a82826040518060200160405280600081525061187f565b6000805b60208160ff1610156115e0576000838260ff166020811061157c57634e487b7160e01b600052603260045260246000fd5b1a905080158015906115975750609b5460ff90811690821611155b156115cd576115a8856001836118b2565b609b54610100900460ff166115bc84612131565b93508360ff16116115cd57506115e0565b50806115d881612131565b91505061154b565b50604051828152839032907f2d1c087923bb29c979975262d5f9b5bccdcbeb3c0bbc9fc5d9e303d7abf639b89060200160405180910390a3505050565b61162884848461139f565b61163484848484611991565b610e625760405162461bcd60e51b815260040161061a90611fa6565b6060816116745750506040805180820190915260018152600360fc1b602082015290565b8160005b811561169e578061168881612116565b91506116979050600a83612061565b9150611678565b6000816001600160401b038111156116c657634e487b7160e01b600052604160045260246000fd5b6040519080825280601f01601f1916602001820160405280156116f0576020820181803683370190505b5090505b841561139757611705600183612075565b9150611712600a86612151565b61171d906030612049565b60f81b81838151811061174057634e487b7160e01b600052603260045260246000fd5b60200101906001600160f81b031916908160001a905350611762600a86612061565b94506116f4565b6000828152609f602090815260409182902060020180546001600160a01b0319166001600160a01b038516908117909155915184815232917fe90419f2812a0b5567d88901ce6bfd4c8dd5a9401f842a0da4404a1c402c234b9101610e24565b6000818152609f602052604090819020600401805460ff19169055517f2459d2e941fa81acec6a314349c8176c81d809383738d1e1f1d33972c17d3e15906118149083815260200190565b60405180910390a150565b6000828152609f602090815260409182902060010180546001600160a01b0319166001600160a01b038516908117909155915184815232917f384cd900320597bb9f30f6ffc1b673fdb9a357c186354215732cb1d304eaf58e9101610e24565b6118898383611a9e565b6118966000848484611991565b61074b5760405162461bcd60e51b815260040161061a90611fa6565b60006118bd84611bbe565b90506000818460ff16602081106118e457634e487b7160e01b600052603260045260246000fd5b1a905060ff83166118f457600080fd5b609b5460ff908116908416111561190a57600080fd5b6119158360ff61208c565b60ff168160ff16111561192757600080fd5b600061193283611be5565b90508160f81b818660ff168151811061195b57634e487b7160e01b600052603260045260246000fd5b60200101906001600160f81b031916908160001a9053506020810151600096875260996020526040909620959095555050505050565b60006001600160a01b0384163b15611a9357604051630a85bd0160e11b81526001600160a01b0385169063150b7a02906119d5903390899088908890600401611f12565b602060405180830381600087803b1580156119ef57600080fd5b505af1925050508015611a1f575060408051601f3d908101601f19168201909252611a1c91810190611e17565b60015b611a79573d808015611a4d576040519150601f19603f3d011682016040523d82523d6000602084013e611a52565b606091505b508051611a715760405162461bcd60e51b815260040161061a90611fa6565b805181602001fd5b6001600160e01b031916630a85bd0160e11b149050611397565b506001949350505050565b6001600160a01b038216611af45760405162461bcd60e51b815260206004820181905260248201527f4552433732313a206d696e7420746f20746865207a65726f2061646472657373604482015260640161061a565b611afd8161124a565b15611b495760405162461bcd60e51b815260206004820152601c60248201527b115490cdcc8c4e881d1bdad95b88185b1c9958591e481b5a5b9d195960221b604482015260640161061a565b6001600160a01b0382166000908152606860205260408120805460019290611b72908490612049565b909155505060008181526067602052604080822080546001600160a01b0319166001600160a01b03861690811790915590518392906000805160206121be833981519152908290a45050565b6000611bc98261124a565b611bd257600080fd5b5060009081526099602052604090205490565b606081604051602001611bfa91815260200190565b6040516020818303038152906040529050919050565b80356001600160a01b0381168114611c2757600080fd5b919050565b803560ff81168114611c2757600080fd5b600060208284031215611c4e578081fd5b610f4c82611c10565b60008060408385031215611c69578081fd5b611c7283611c10565b9150611c8060208401611c10565b90509250929050565b600080600060608486031215611c9d578081fd5b611ca684611c10565b9250611cb460208501611c10565b9150604084013590509250925092565b60008060008060808587031215611cd9578081fd5b611ce285611c10565b9350611cf060208601611c10565b92506040850135915060608501356001600160401b0380821115611d12578283fd5b818701915087601f830112611d25578283fd5b813581811115611d3757611d37612191565b604051601f8201601f19908116603f01168101908382118183101715611d5f57611d5f612191565b816040528281528a6020848701011115611d77578586fd5b82602086016020830137918201602001949094529598949750929550505050565b60008060408385031215611daa578182fd5b611db383611c10565b915060208301358015158114611dc7578182fd5b809150509250929050565b60008060408385031215611de4578182fd5b611ded83611c10565b946020939093013593505050565b600060208284031215611e0c578081fd5b8135610f4c816121a7565b600060208284031215611e28578081fd5b8151610f4c816121a7565b600060208284031215611e44578081fd5b5035919050565b60008060408385031215611e5d578182fd5b82359150611c8060208401611c10565b60008060408385031215611e7f578182fd5b50508035926020909101359150565b60008060408385031215611ea0578182fd5b611ea983611c2c565b9150611c8060208401611c2c565b60008151808452611ecf8160208601602086016120af565b601f01601f19169290920160200192915050565b60008351611ef58184602088016120af565b835190830190611f098183602088016120af565b01949350505050565b6001600160a01b0385811682528416602082015260408101839052608060608201819052600090611f4590830184611eb7565b9695505050505050565b6020808252825182820181905260009190848201906040850190845b81811015611f8757835183529284019291840191600101611f6b565b50909695505050505050565b602081526000610f4c6020830184611eb7565b60208082526032908201527f4552433732313a207472616e7366657220746f206e6f6e20455243373231526560408201527131b2b4bb32b91034b6b83632b6b2b73a32b960711b606082015260800190565b60208082526031908201527f4552433732313a207472616e736665722063616c6c6572206973206e6f74206f6040820152701ddb995c881b9bdc88185c1c1c9bdd9959607a1b606082015260800190565b6000821982111561205c5761205c612165565b500190565b6000826120705761207061217b565b500490565b60008282101561208757612087612165565b500390565b600060ff821660ff8416808210156120a6576120a6612165565b90039392505050565b60005b838110156120ca5781810151838201526020016120b2565b83811115610e625750506000910152565b600181811c908216806120ef57607f821691505b6020821081141561211057634e487b7160e01b600052602260045260246000fd5b50919050565b600060001982141561212a5761212a612165565b5060010190565b600060ff821660ff81141561214857612148612165565b60010192915050565b6000826121605761216061217b565b500690565b634e487b7160e01b600052601160045260246000fd5b634e487b7160e01b600052601260045260246000fd5b634e487b7160e01b600052604160045260246000fd5b6001600160e01b03198116811461124757600080fdfeddf252ad1be2c89b69c2b068fc378daa952ba7f163c4a11628f55a4df523b3efa264697066735822122000e1e0dc6cfc4c8bbefe536c7f626be5747808441e94bdab8c169248d7b83b3064736f6c63430008040033",
  "immutableReferences": {},
  "source": "// SPDX-License-Identifier: UNLICENSED\npragma solidity ^0.8.0;\n\nimport \"./MintableSoul.sol\";\nimport \"./interfaces/ISoulMarket.sol\";\nimport \"@openzeppelin/contracts-upgradeable/utils/math/SafeMathUpgradeable.sol\";\n\ncontract SoulMarket is MintableSoul, ISoulMarket {\n    mapping(uint256 => Sale) private _onSale;\n\n    event SoulOnSale(address indexed seller, uint256 price);\n    event SoulBuyed(address indexed buyer, uint256 soulId, uint256 price);\n    event SaleStoped(uint256 soulId);\n    event SellerChanged(\n        address indexed oldSeller,\n        address indexed newSeller,\n        uint256 soulId\n    );\n    event BuyerChanged(\n        address indexed oldBuyer,\n        address indexed newBuyer,\n        uint256 soulId\n    );\n\n    function sale(uint256 soulId, uint256 price) public {\n        require(carrierOf(soulId) == tx.origin, \"You are not owner!\");\n        require(!_onSale[soulId].onSale, \"Sale is opened!\");\n        _onSale[soulId] = Sale(\n            block.timestamp,\n            tx.origin,\n            address(0),\n            price,\n            true\n        );\n        emit SoulOnSale(tx.origin, price);\n    }\n\n    function buy(uint256 soulId) public payable {\n        require(_exists(soulId), \"Soul doesn'y exist\");\n        require(carrierOf(soulId) != tx.origin, \"You are owner!\");\n        require(_onSale[soulId].onSale, \"Soul not for sale\");\n        require(msg.value >= _onSale[soulId].price, \"Not enough value\");\n        require(hasSoul(tx.origin), \"You should have a soul\");\n        // require(ownerOf(soulId) != msg.sender);\n\n        // uint256 buyerSoul = getSoul(msg.sender);\n\n        Sale memory sale1 = getInfoAboutSale(soulId);\n        // uint256 currentPrice = sale.price;\n\n        uint256 sendBack = msg.value - sale1.price;\n        // todo tx.gasprice ?\n        if (sendBack > 0) {\n            payable(address(tx.origin)).transfer(sendBack);\n        }\n\n        payable(address(_onSale[soulId].seller)).transfer(msg.value - sendBack);\n\n        changeCarrier(soulId, tx.origin); // after test to _changeCarrier\n        _changeBuyer(soulId, tx.origin);\n        _stopSale(soulId);\n\n        emit SoulBuyed(tx.origin, soulId, msg.value);\n    }\n\n    function _stopSale(uint256 soulId) internal {\n        _onSale[soulId].onSale = false;\n        emit SaleStoped(soulId);\n    }\n\n    function stopSale(uint256 soulId) public {\n        require(carrierOf(soulId) == msg.sender);\n        _stopSale(soulId);\n    }\n\n    function _changeSeller(uint256 soulId, address newSellerAddress) internal {\n        // require(condition);\n        _onSale[soulId].seller = newSellerAddress;\n        emit SellerChanged(tx.origin, newSellerAddress, soulId);\n    }\n\n    function changeSeller(uint256 soulId, address newSellerAddress) public {\n        _changeSeller(soulId, newSellerAddress);\n    }\n\n    function _changeBuyer(uint256 soulId, address newBuyerAddress) internal {\n        // require(condition);\n        _onSale[soulId].buyer = newBuyerAddress;\n        emit BuyerChanged(tx.origin, newBuyerAddress, soulId);\n    }\n\n    function getInfoAboutSale(uint256 soulId)\n        public\n        view\n        returns (Sale memory)\n    {\n        return _onSale[soulId];\n    }\n}\n",
  "sourcePath": "/home/ilyadruzh/Documents/nfsoul/sc/contracts/SoulMarket.sol",
  "compiler": {
    "name": "solc",
    "version": "0.8.4+commit.c7e474f2.Emscripten.clang"
  },
  "schemaVersion": "3.4.1",
  "updatedAt": "2021-05-29T18:53:37.936Z",
  "devdoc": {
    "kind": "dev",
    "methods": {
      "approve(address,uint256)": {
        "details": "See {IERC721-approve}."
      },
      "balanceOf(address)": {
        "details": "See {IERC721-balanceOf}."
      },
      "getApproved(uint256)": {
        "details": "See {IERC721-getApproved}."
      },
      "isApprovedForAll(address,address)": {
        "details": "See {IERC721-isApprovedForAll}."
      },
      "name()": {
        "details": "See {IERC721Metadata-name}."
      },
      "ownerOf(uint256)": {
        "details": "See {IERC721-ownerOf}."
      },
      "safeTransferFrom(address,address,uint256)": {
        "details": "See {IERC721-safeTransferFrom}."
      },
      "safeTransferFrom(address,address,uint256,bytes)": {
        "details": "See {IERC721-safeTransferFrom}."
      },
      "setApprovalForAll(address,bool)": {
        "details": "See {IERC721-setApprovalForAll}."
      },
      "supportsInterface(bytes4)": {
        "details": "See {IERC165-supportsInterface}."
      },
      "symbol()": {
        "details": "See {IERC721Metadata-symbol}."
      },
      "tokenURI(uint256)": {
        "details": "See {IERC721Metadata-tokenURI}."
      },
      "transferFrom(address,address,uint256)": {
        "details": "See {IERC721-transferFrom}."
      }
    },
    "version": 1
  },
  "userdoc": {
    "kind": "user",
    "methods": {},
    "version": 1
  }
}