{
  "contractName": "SoulAuction",
  "abi": [
    {
      "anonymous": false,
      "inputs": [
        {
          "indexed": true,
          "internalType": "address",
          "name": "account",
          "type": "address"
        }
      ],
      "name": "AdminAdded",
      "type": "event"
    },
    {
      "anonymous": false,
      "inputs": [
        {
          "indexed": true,
          "internalType": "address",
          "name": "account",
          "type": "address"
        }
      ],
      "name": "AdminRemoved",
      "type": "event"
    },
    {
      "anonymous": false,
      "inputs": [
        {
          "indexed": true,
          "internalType": "address",
          "name": "owner",
          "type": "address"
        },
        {
          "indexed": true,
          "internalType": "address",
          "name": "approved",
          "type": "address"
        },
        {
          "indexed": true,
          "internalType": "uint256",
          "name": "tokenId",
          "type": "uint256"
        }
      ],
      "name": "Approval",
      "type": "event"
    },
    {
      "anonymous": false,
      "inputs": [
        {
          "indexed": true,
          "internalType": "address",
          "name": "owner",
          "type": "address"
        },
        {
          "indexed": true,
          "internalType": "address",
          "name": "operator",
          "type": "address"
        },
        {
          "indexed": false,
          "internalType": "bool",
          "name": "approved",
          "type": "bool"
        }
      ],
      "name": "ApprovalForAll",
      "type": "event"
    },
    {
      "anonymous": false,
      "inputs": [
        {
          "indexed": false,
          "internalType": "uint256",
          "name": "soulId",
          "type": "uint256"
        },
        {
          "indexed": false,
          "internalType": "uint256",
          "name": "price",
          "type": "uint256"
        }
      ],
      "name": "AuctionStarted",
      "type": "event"
    },
    {
      "anonymous": false,
      "inputs": [
        {
          "indexed": true,
          "internalType": "address",
          "name": "oldBuyer",
          "type": "address"
        },
        {
          "indexed": true,
          "internalType": "address",
          "name": "newBuyer",
          "type": "address"
        },
        {
          "indexed": false,
          "internalType": "uint256",
          "name": "soulId",
          "type": "uint256"
        }
      ],
      "name": "BuyerChanged",
      "type": "event"
    },
    {
      "anonymous": false,
      "inputs": [
        {
          "indexed": false,
          "internalType": "uint256",
          "name": "soulId",
          "type": "uint256"
        },
        {
          "indexed": false,
          "internalType": "address",
          "name": "newCarrier",
          "type": "address"
        }
      ],
      "name": "CarrierChanged",
      "type": "event"
    },
    {
      "anonymous": false,
      "inputs": [
        {
          "indexed": true,
          "internalType": "address",
          "name": "from",
          "type": "address"
        },
        {
          "indexed": true,
          "internalType": "uint256",
          "name": "tokenId",
          "type": "uint256"
        },
        {
          "indexed": false,
          "internalType": "bytes32",
          "name": "mods",
          "type": "bytes32"
        }
      ],
      "name": "ModificationSetted",
      "type": "event"
    },
    {
      "anonymous": false,
      "inputs": [
        {
          "indexed": false,
          "internalType": "uint256",
          "name": "soulId",
          "type": "uint256"
        }
      ],
      "name": "SaleStoped",
      "type": "event"
    },
    {
      "anonymous": false,
      "inputs": [
        {
          "indexed": true,
          "internalType": "address",
          "name": "oldSeller",
          "type": "address"
        },
        {
          "indexed": true,
          "internalType": "address",
          "name": "newSeller",
          "type": "address"
        },
        {
          "indexed": false,
          "internalType": "uint256",
          "name": "soulId",
          "type": "uint256"
        }
      ],
      "name": "SellerChanged",
      "type": "event"
    },
    {
      "anonymous": false,
      "inputs": [
        {
          "indexed": true,
          "internalType": "address",
          "name": "buyer",
          "type": "address"
        },
        {
          "indexed": false,
          "internalType": "uint256",
          "name": "soulId",
          "type": "uint256"
        },
        {
          "indexed": false,
          "internalType": "uint256",
          "name": "price",
          "type": "uint256"
        }
      ],
      "name": "SoulBuyed",
      "type": "event"
    },
    {
      "anonymous": false,
      "inputs": [
        {
          "indexed": false,
          "internalType": "uint256",
          "name": "soulId",
          "type": "uint256"
        },
        {
          "indexed": false,
          "internalType": "address",
          "name": "owner",
          "type": "address"
        }
      ],
      "name": "SoulMinted",
      "type": "event"
    },
    {
      "anonymous": false,
      "inputs": [
        {
          "indexed": true,
          "internalType": "address",
          "name": "seller",
          "type": "address"
        },
        {
          "indexed": false,
          "internalType": "uint256",
          "name": "price",
          "type": "uint256"
        }
      ],
      "name": "SoulOnSale",
      "type": "event"
    },
    {
      "anonymous": false,
      "inputs": [
        {
          "indexed": true,
          "internalType": "address",
          "name": "from",
          "type": "address"
        },
        {
          "indexed": true,
          "internalType": "address",
          "name": "to",
          "type": "address"
        },
        {
          "indexed": true,
          "internalType": "uint256",
          "name": "tokenId",
          "type": "uint256"
        }
      ],
      "name": "Transfer",
      "type": "event"
    },
    {
      "inputs": [],
      "name": "_pieAddress",
      "outputs": [
        {
          "internalType": "address",
          "name": "",
          "type": "address"
        }
      ],
      "stateMutability": "view",
      "type": "function"
    },
    {
      "inputs": [
        {
          "internalType": "uint8",
          "name": "maxModVal",
          "type": "uint8"
        },
        {
          "internalType": "uint8",
          "name": "maxMods",
          "type": "uint8"
        }
      ],
      "name": "_setModificationSettings",
      "outputs": [],
      "stateMutability": "nonpayable",
      "type": "function"
    },
    {
      "inputs": [
        {
          "internalType": "address",
          "name": "to",
          "type": "address"
        },
        {
          "internalType": "uint256",
          "name": "tokenId",
          "type": "uint256"
        }
      ],
      "name": "approve",
      "outputs": [],
      "stateMutability": "nonpayable",
      "type": "function"
    },
    {
      "inputs": [
        {
          "internalType": "address",
          "name": "owner",
          "type": "address"
        }
      ],
      "name": "balanceOf",
      "outputs": [
        {
          "internalType": "uint256",
          "name": "",
          "type": "uint256"
        }
      ],
      "stateMutability": "view",
      "type": "function"
    },
    {
      "inputs": [
        {
          "internalType": "uint256",
          "name": "soulId",
          "type": "uint256"
        }
      ],
      "name": "buy",
      "outputs": [],
      "stateMutability": "payable",
      "type": "function"
    },
    {
      "inputs": [
        {
          "internalType": "uint256",
          "name": "soulId",
          "type": "uint256"
        }
      ],
      "name": "carrierOf",
      "outputs": [
        {
          "internalType": "address",
          "name": "",
          "type": "address"
        }
      ],
      "stateMutability": "view",
      "type": "function"
    },
    {
      "inputs": [
        {
          "internalType": "uint256",
          "name": "soulId",
          "type": "uint256"
        },
        {
          "internalType": "address",
          "name": "newCarrier",
          "type": "address"
        }
      ],
      "name": "changeCarrier",
      "outputs": [],
      "stateMutability": "nonpayable",
      "type": "function"
    },
    {
      "inputs": [
        {
          "internalType": "uint256",
          "name": "soulId",
          "type": "uint256"
        },
        {
          "internalType": "address",
          "name": "newSellerAddress",
          "type": "address"
        }
      ],
      "name": "changeSeller",
      "outputs": [],
      "stateMutability": "nonpayable",
      "type": "function"
    },
    {
      "inputs": [],
      "name": "getAllSoul",
      "outputs": [
        {
          "internalType": "uint256[]",
          "name": "",
          "type": "uint256[]"
        }
      ],
      "stateMutability": "view",
      "type": "function"
    },
    {
      "inputs": [
        {
          "internalType": "uint256",
          "name": "tokenId",
          "type": "uint256"
        }
      ],
      "name": "getApproved",
      "outputs": [
        {
          "internalType": "address",
          "name": "",
          "type": "address"
        }
      ],
      "stateMutability": "view",
      "type": "function"
    },
    {
      "inputs": [
        {
          "internalType": "uint256",
          "name": "soulId",
          "type": "uint256"
        }
      ],
      "name": "getDonorMod",
      "outputs": [
        {
          "internalType": "uint8[]",
          "name": "",
          "type": "uint8[]"
        }
      ],
      "stateMutability": "view",
      "type": "function"
    },
    {
      "inputs": [
        {
          "internalType": "uint256",
          "name": "soulId",
          "type": "uint256"
        }
      ],
      "name": "getInfoAboutSale",
      "outputs": [
        {
          "components": [
            {
              "internalType": "uint256",
              "name": "startedAt",
              "type": "uint256"
            },
            {
              "internalType": "address",
              "name": "seller",
              "type": "address"
            },
            {
              "internalType": "address",
              "name": "buyer",
              "type": "address"
            },
            {
              "internalType": "uint256",
              "name": "price",
              "type": "uint256"
            },
            {
              "internalType": "bool",
              "name": "onSale",
              "type": "bool"
            }
          ],
          "internalType": "struct ISoulMarket.Sale",
          "name": "",
          "type": "tuple"
        }
      ],
      "stateMutability": "view",
      "type": "function"
    },
    {
      "inputs": [
        {
          "internalType": "address",
          "name": "carrier",
          "type": "address"
        }
      ],
      "name": "getSoul",
      "outputs": [
        {
          "internalType": "uint256[]",
          "name": "soulIds",
          "type": "uint256[]"
        }
      ],
      "stateMutability": "view",
      "type": "function"
    },
    {
      "inputs": [
        {
          "internalType": "uint256",
          "name": "soulId",
          "type": "uint256"
        }
      ],
      "name": "getSoulModifications",
      "outputs": [
        {
          "internalType": "bytes32",
          "name": "",
          "type": "bytes32"
        }
      ],
      "stateMutability": "view",
      "type": "function"
    },
    {
      "inputs": [
        {
          "internalType": "address",
          "name": "person",
          "type": "address"
        }
      ],
      "name": "hasSoul",
      "outputs": [
        {
          "internalType": "bool",
          "name": "",
          "type": "bool"
        }
      ],
      "stateMutability": "view",
      "type": "function"
    },
    {
      "inputs": [
        {
          "internalType": "address",
          "name": "owner",
          "type": "address"
        },
        {
          "internalType": "address",
          "name": "operator",
          "type": "address"
        }
      ],
      "name": "isApprovedForAll",
      "outputs": [
        {
          "internalType": "bool",
          "name": "",
          "type": "bool"
        }
      ],
      "stateMutability": "view",
      "type": "function"
    },
    {
      "inputs": [
        {
          "internalType": "uint256",
          "name": "soulId",
          "type": "uint256"
        }
      ],
      "name": "mint",
      "outputs": [],
      "stateMutability": "payable",
      "type": "function"
    },
    {
      "inputs": [],
      "name": "modificationSettings",
      "outputs": [
        {
          "internalType": "uint8",
          "name": "",
          "type": "uint8"
        },
        {
          "internalType": "uint8",
          "name": "",
          "type": "uint8"
        }
      ],
      "stateMutability": "view",
      "type": "function"
    },
    {
      "inputs": [],
      "name": "name",
      "outputs": [
        {
          "internalType": "string",
          "name": "",
          "type": "string"
        }
      ],
      "stateMutability": "view",
      "type": "function"
    },
    {
      "inputs": [
        {
          "internalType": "uint256",
          "name": "tokenId",
          "type": "uint256"
        }
      ],
      "name": "ownerOf",
      "outputs": [
        {
          "internalType": "address",
          "name": "",
          "type": "address"
        }
      ],
      "stateMutability": "view",
      "type": "function"
    },
    {
      "inputs": [
        {
          "internalType": "address",
          "name": "from",
          "type": "address"
        },
        {
          "internalType": "address",
          "name": "to",
          "type": "address"
        },
        {
          "internalType": "uint256",
          "name": "tokenId",
          "type": "uint256"
        }
      ],
      "name": "safeTransferFrom",
      "outputs": [],
      "stateMutability": "nonpayable",
      "type": "function"
    },
    {
      "inputs": [
        {
          "internalType": "address",
          "name": "from",
          "type": "address"
        },
        {
          "internalType": "address",
          "name": "to",
          "type": "address"
        },
        {
          "internalType": "uint256",
          "name": "tokenId",
          "type": "uint256"
        },
        {
          "internalType": "bytes",
          "name": "_data",
          "type": "bytes"
        }
      ],
      "name": "safeTransferFrom",
      "outputs": [],
      "stateMutability": "nonpayable",
      "type": "function"
    },
    {
      "inputs": [
        {
          "internalType": "uint256",
          "name": "soulId",
          "type": "uint256"
        },
        {
          "internalType": "uint256",
          "name": "price",
          "type": "uint256"
        }
      ],
      "name": "sale",
      "outputs": [],
      "stateMutability": "nonpayable",
      "type": "function"
    },
    {
      "inputs": [
        {
          "internalType": "address",
          "name": "operator",
          "type": "address"
        },
        {
          "internalType": "bool",
          "name": "approved",
          "type": "bool"
        }
      ],
      "name": "setApprovalForAll",
      "outputs": [],
      "stateMutability": "nonpayable",
      "type": "function"
    },
    {
      "inputs": [
        {
          "internalType": "uint256",
          "name": "soulId",
          "type": "uint256"
        }
      ],
      "name": "setModification",
      "outputs": [],
      "stateMutability": "nonpayable",
      "type": "function"
    },
    {
      "inputs": [
        {
          "internalType": "uint256",
          "name": "soulId",
          "type": "uint256"
        }
      ],
      "name": "stopSale",
      "outputs": [],
      "stateMutability": "nonpayable",
      "type": "function"
    },
    {
      "inputs": [
        {
          "internalType": "bytes4",
          "name": "interfaceId",
          "type": "bytes4"
        }
      ],
      "name": "supportsInterface",
      "outputs": [
        {
          "internalType": "bool",
          "name": "",
          "type": "bool"
        }
      ],
      "stateMutability": "view",
      "type": "function"
    },
    {
      "inputs": [],
      "name": "symbol",
      "outputs": [
        {
          "internalType": "string",
          "name": "",
          "type": "string"
        }
      ],
      "stateMutability": "view",
      "type": "function"
    },
    {
      "inputs": [
        {
          "internalType": "uint256",
          "name": "tokenId",
          "type": "uint256"
        }
      ],
      "name": "tokenURI",
      "outputs": [
        {
          "internalType": "string",
          "name": "",
          "type": "string"
        }
      ],
      "stateMutability": "view",
      "type": "function"
    },
    {
      "inputs": [
        {
          "internalType": "address",
          "name": "from",
          "type": "address"
        },
        {
          "internalType": "address",
          "name": "to",
          "type": "address"
        },
        {
          "internalType": "uint256",
          "name": "tokenId",
          "type": "uint256"
        }
      ],
      "name": "transferFrom",
      "outputs": [],
      "stateMutability": "nonpayable",
      "type": "function"
    },
    {
      "inputs": [
        {
          "internalType": "uint256",
          "name": "soulId",
          "type": "uint256"
        },
        {
          "internalType": "uint256",
          "name": "price",
          "type": "uint256"
        }
      ],
      "name": "firstSale",
      "outputs": [],
      "stateMutability": "nonpayable",
      "type": "function"
    },
    {
      "inputs": [
        {
          "internalType": "uint256",
          "name": "soulId",
          "type": "uint256"
        }
      ],
      "name": "bid",
      "outputs": [],
      "stateMutability": "payable",
      "type": "function"
    },
    {
      "inputs": [
        {
          "internalType": "uint256",
          "name": "soulId",
          "type": "uint256"
        }
      ],
      "name": "auctionInfo",
      "outputs": [
        {
          "components": [
            {
              "internalType": "address",
              "name": "owner",
              "type": "address"
            },
            {
              "internalType": "address",
              "name": "carrier",
              "type": "address"
            },
            {
              "internalType": "uint256",
              "name": "startedAt",
              "type": "uint256"
            },
            {
              "internalType": "uint256",
              "name": "freezeTime",
              "type": "uint256"
            },
            {
              "internalType": "uint256",
              "name": "duration",
              "type": "uint256"
            },
            {
              "internalType": "uint256",
              "name": "firstPrice",
              "type": "uint256"
            },
            {
              "internalType": "uint256",
              "name": "actualPrice",
              "type": "uint256"
            },
            {
              "internalType": "bool",
              "name": "isActive",
              "type": "bool"
            }
          ],
          "internalType": "struct ISoulAuction.Auction",
          "name": "",
          "type": "tuple"
        }
      ],
      "stateMutability": "view",
      "type": "function"
    },
    {
      "inputs": [
        {
          "internalType": "uint256",
          "name": "soulId",
          "type": "uint256"
        }
      ],
      "name": "getCurrentPrice",
      "outputs": [
        {
          "internalType": "uint256",
          "name": "",
          "type": "uint256"
        }
      ],
      "stateMutability": "view",
      "type": "function"
    }
  ],
  "bytecode": "0x608060405234801561001057600080fd5b50612b7c806100206000396000f3fe6080604052600436106101895760003560e01c806301ffc9a71461018e57806306fdde03146101c3578063081812fc146101e5578063095ea7b31461021d5780630fa7dcab1461023f5780631c35f9621461025f57806323b872dd1461027f578063273cd6801461029f578063283aa594146102bf5780633237307d146102df57806342842e0e1461030d578063454a2ab31461032d5780635641894d146103405780636352211e146103ad5780636551b2ce146103cd57806366cfe97f146103ed57806370a082311461041a578063929771921461043a578063957a867c1461046957806395d89b41146104f8578063a0712d681461050d578063a22cb46514610520578063a6ebd54314610540578063b44dd2b514610560578063b88d4fde14610575578063bdd7520214610595578063c55d0f56146105b5578063c87b56dd146105e5578063cebcb0d414610605578063d96a094a14610632578063def2f0eb14610645578063e985e9c514610665578063ea62ad0514610685578063f8dd1f76146106a5575b600080fd5b34801561019a57600080fd5b506101ae6101a9366004612755565b6106c5565b60405190151581526020015b60405180910390f35b3480156101cf57600080fd5b506101d8610717565b6040516101ba9190612928565b3480156101f157600080fd5b5061020561020036600461278d565b6107a9565b6040516001600160a01b0390911681526020016101ba565b34801561022957600080fd5b5061023d61023836600461272c565b610836565b005b34801561024b57600080fd5b5061023d61025a3660046127e8565b610947565b34801561026b57600080fd5b5061023d61027a3660046127c7565b6109de565b34801561028b57600080fd5b5061023d61029a3660046125e3565b610b4c565b3480156102ab57600080fd5b5060a254610205906001600160a01b031681565b3480156102cb57600080fd5b5061023d6102da3660046127a5565b610b7d565b3480156102eb57600080fd5b506102ff6102fa36600461278d565b610c02565b6040519081526020016101ba565b34801561031957600080fd5b5061023d6103283660046125e3565b610c29565b61023d61033b36600461278d565b610c44565b34801561034c57600080fd5b5061036061035b36600461278d565b610ee4565b60408051825181526020808401516001600160a01b03908116918301919091528383015116918101919091526060808301519082015260809182015115159181019190915260a0016101ba565b3480156103b957600080fd5b506102056103c836600461278d565b610f70565b3480156103d957600080fd5b506102056103e836600461278d565b610fe7565b3480156103f957600080fd5b5061040d610408366004612597565b61104f565b6040516101ba91906128a9565b34801561042657600080fd5b506102ff610435366004612597565b6110bb565b34801561044657600080fd5b50609b546040805160ff80841682526101009093049092166020830152016101ba565b34801561047557600080fd5b5061048961048436600461278d565b611142565b6040516101ba919060006101008201905060018060a01b038084511683528060208501511660208401525060408301516040830152606083015160608301526080830151608083015260a083015160a083015260c083015160c083015260e0830151151560e083015292915050565b34801561050457600080fd5b506101d861123f565b61023d61051b36600461278d565b61124e565b34801561052c57600080fd5b5061023d61053b3660046126f2565b6113e7565b34801561054c57600080fd5b5061023d61055b36600461278d565b6114a9565b34801561056c57600080fd5b5061040d61153d565b34801561058157600080fd5b5061023d61059036600461261e565b611594565b3480156105a157600080fd5b506101ae6105b0366004612597565b6115cc565b3480156105c157600080fd5b506102ff6105d036600461278d565b600090815260a1602052604090206006015490565b3480156105f157600080fd5b506101d861060036600461278d565b6115df565b34801561061157600080fd5b5061062561062036600461278d565b6116b7565b6040516101ba91906128ed565b61023d61064036600461278d565b611745565b34801561065157600080fd5b5061023d6106603660046127a5565b6119db565b34801561067157600080fd5b506101ae6106803660046125b1565b6119e9565b34801561069157600080fd5b5061023d6106a03660046127c7565b611a17565b3480156106b157600080fd5b5061023d6106c036600461278d565b611b97565b60006001600160e01b031982166380ac58cd60e01b14806106f657506001600160e01b03198216635b5e139f60e01b145b8061071157506301ffc9a760e01b6001600160e01b03198316145b92915050565b60606065805461072690612a64565b80601f016020809104026020016040519081016040528092919081815260200182805461075290612a64565b801561079f5780601f106107745761010080835404028352916020019161079f565b820191906000526020600020905b81548152906001019060200180831161078257829003601f168201915b5050505050905090565b60006107b482611bc0565b61081a5760405162461bcd60e51b815260206004820152602c60248201527f4552433732313a20617070726f76656420717565727920666f72206e6f6e657860448201526b34b9ba32b73a103a37b5b2b760a11b60648201526084015b60405180910390fd5b506000908152606960205260409020546001600160a01b031690565b600061084182610f70565b9050806001600160a01b0316836001600160a01b031614156108af5760405162461bcd60e51b815260206004820152602160248201527f4552433732313a20617070726f76616c20746f2063757272656e74206f776e656044820152603960f91b6064820152608401610811565b336001600160a01b03821614806108cb57506108cb81336119e9565b6109385760405162461bcd60e51b815260206004820152603860248201527f4552433732313a20617070726f76652063616c6c6572206973206e6f74206f776044820152771b995c881b9bdc88185c1c1c9bdd995908199bdc88185b1b60421b6064820152608401610811565b6109428383611bdd565b505050565b3260009081526097602052604090205460ff1661099a5760405162461bcd60e51b81526020600482015260116024820152703cb7ba9030b932903737ba1030b236b4b760791b6044820152606401610811565b60ff8260ff16106109aa57600080fd5b60208160ff16106109ba57600080fd5b609b805460ff9283166101000261ffff199091169290931691909117919091179055565b326109e883610fe7565b6001600160a01b031614610a335760405162461bcd60e51b8152602060048201526012602482015271596f7520617265206e6f74206f776e65722160701b6044820152606401610811565b600082815260a0602052604090206004015460ff1615610a875760405162461bcd60e51b815260206004820152600f60248201526e53616c65206973206f70656e65642160881b6044820152606401610811565b6040805160a080820183524282523260208084018281526000858701818152606087018981526001608089018181528c85529786529289902097518855925191870180546001600160a01b03199081166001600160a01b03948516179091559051600288018054909216921691909117905551600385015591516004909301805460ff191693151593909317909255915183815290917f76f519ddcb2c54b2e28cf6cc1a2dfee150411bb675c78c0eef6f6388559893a6910160405180910390a25050565b610b563382611c4b565b610b725760405162461bcd60e51b81526004016108119061298d565b610942838383611d15565b6000828152609e6020908152604080832080546001600160a01b0319166001600160a01b0386169081179091558352609f825280832080546001810182559084529190922001839055517f649ac2249366264ba74a84d97e2e86f4490c06d225655797956313f613b9bade90610bf690849084906129de565b60405180910390a15050565b6000610c0d82611bc0565b610c1657600080fd5b5060009081526099602052604090205490565b61094283838360405180602001604052806000815250611594565b610c4d81611bc0565b610c8f5760405162461bcd60e51b8152602060048201526013602482015272536f756c20646f65736e27742065786973747360681b6044820152606401610811565b600081815260a1602052604090206007015460ff161515600114610ce45760405162461bcd60e51b815260206004820152600c60248201526b4e6f7420666f722073616c6560a01b6044820152606401610811565b610ced326110bb565b610d335760405162461bcd60e51b8152602060048201526017602482015276596f752073686f756c642068617665206120736f756c2160481b6044820152606401610811565b600060a55460a65460a754610d4785611ea3565b610d5191906129f5565b610d5b91906129f5565b610d6591906129f5565b905034811015610daa5760405162461bcd60e51b815260206004820152601060248201526f6e6f7420656e6f756768206d6f6e657960801b6044820152606401610811565b600080610db684611f5a565b91509150600060a55460a65434610dcd9190612a21565b610dd79190612a21565b9050600060a55482610de99190612a21565b90506000610df78284612a21565b6040519091506001600160a01b0385169084156108fc029085906000818181858888f19350505050158015610e30573d6000803e3d6000fd5b506040516001600160a01b0386169083156108fc029084906000818181858888f19350505050158015610e67573d6000803e3d6000fd5b5060a2546040516001600160a01b039091169082156108fc029083906000818181858888f19350505050158015610ea2573d6000803e3d6000fd5b50610ed18782610eb285876129f5565b610ebc91906129f5565b600091825260a1602052604090912060060155565b610edb8733611f81565b50505050505050565b6040805160a08101825260008082526020820181905291810182905260608101829052608081019190915250600090815260a06020818152604092839020835192830184528054835260018101546001600160a01b03908116928401929092526002810154909116928201929092526003820154606082015260049091015460ff161515608082015290565b6000818152606760205260408120546001600160a01b0316806107115760405162461bcd60e51b815260206004820152602960248201527f4552433732313a206f776e657220717565727920666f72206e6f6e657869737460448201526832b73a103a37b5b2b760b91b6064820152608401610811565b6000610ff282611bc0565b6110335760405162461bcd60e51b815260206004820152601260248201527114dbdd5b08191bd95cdb89dd08195e1a5cdd60721b6044820152606401610811565b506000908152609e60205260409020546001600160a01b031690565b6001600160a01b0381166000908152609f60209081526040918290208054835181840281018401909452808452606093928301828280156110af57602002820191906000526020600020905b81548152602001906001019080831161109b575b50505050509050919050565b60006001600160a01b0382166111265760405162461bcd60e51b815260206004820152602a60248201527f4552433732313a2062616c616e636520717565727920666f7220746865207a65604482015269726f206164647265737360b01b6064820152608401610811565b506001600160a01b031660009081526068602052604090205490565b61119e60405180610100016040528060006001600160a01b0316815260200160006001600160a01b0316815260200160008152602001600081526020016000815260200160008152602001600081526020016000151581525090565b6111a782611bc0565b6111b057600080fd5b600082815260a1602090815260409182902082516101008101845281546001600160a01b039081168252600183015416928101929092526002810154928201929092526003820154606082015260048201546080820152600582015460a0820152600682015460c082015260079091015460ff16151560e082015261123483611ea3565b60c082015292915050565b60606066805461072690612a64565b611257336110bb565b156112a05760405162461bcd60e51b8152602060048201526019602482015278165bdd48185b1c9958591e481b5a5b9d081e5bdd481cdbdd5b603a1b6044820152606401610811565b6207a1203410156112ee5760405162461bcd60e51b81526020600482015260186024820152776e6f7420656e6f7567682076616c756520666f722066656560401b6044820152606401610811565b6112f83282611fe7565b6000818152609e6020908152604080832080546001600160a01b031916329081179091558352609f8252808320805460018181018355918552928420909201849055609d8054928301815583527fd26e832454299e9fabb89e0e5fffdc046d4e14431bc1bf607ffb2e8a1ddecf7b9091018390555173c6c6e7edab89a39ffc9db19cdd46c5c639964daa913480156108fc02929091818181858888f193505050501580156113aa573d6000803e3d6000fd5b507f74859dbf8c28f71c8bc3a8e45de0d55d3c9c642375a2f8acdc3e84ed3de0a3c181326040516113dc9291906129de565b60405180910390a150565b6001600160a01b03821633141561143c5760405162461bcd60e51b815260206004820152601960248201527822a9219b99189d1030b8383937bb32903a379031b0b63632b960391b6044820152606401610811565b336000818152606a602090815260408083206001600160a01b03871680855290835292819020805460ff191686151590811790915590519081529192917f17307eab39ab6107e8899845ad3d59bd9653f200f220920489ca2b5937696c3191015b60405180910390a35050565b600081815260996020526040902054156114c257600080fd5b60408051436020820181905240918101919091526060810182905260009060800160408051808303601f19018152828252805160209182012060008681526099835292909220829055818352909250839132917f2d1c087923bb29c979975262d5f9b5bccdcbeb3c0bbc9fc5d9e303d7abf639b8910161149d565b6060609d80548060200260200160405190810160405280929190818152602001828054801561079f57602002820191906000526020600020905b815481526020019060010190808311611577575050505050905090565b61159e3383611c4b565b6115ba5760405162461bcd60e51b81526004016108119061298d565b6115c684848484612001565b50505050565b6000806115d8836110bb565b1192915050565b60606115ea82611bc0565b61164e5760405162461bcd60e51b815260206004820152602f60248201527f4552433732314d657461646174613a2055524920717565727920666f72206e6f60448201526e3732bc34b9ba32b73a103a37b5b2b760891b6064820152608401610811565b600061166560408051602081019091526000815290565b9050600081511161168557604051806020016040528060008152506116b0565b8061168f84612034565b6040516020016116a092919061283d565b6040516020818303038152906040525b9392505050565b6000818152609a60209081526040808320815181548085028201840184529381018481526060959491938492849184018282801561173257602002820191906000526020600020906000905b825461010083900a900460ff168152602060019283018181049485019490930390920291018084116117035790505b5050509190925250509051949350505050565b61174e81611bc0565b61178f5760405162461bcd60e51b815260206004820152601260248201527114dbdd5b08191bd95cdb89de48195e1a5cdd60721b6044820152606401610811565b3261179982610fe7565b6001600160a01b031614156117e15760405162461bcd60e51b815260206004820152600e60248201526d596f7520617265206f776e65722160901b6044820152606401610811565b600081815260a0602052604090206004015460ff166118365760405162461bcd60e51b8152602060048201526011602482015270536f756c206e6f7420666f722073616c6560781b6044820152606401610811565b600081815260a0602052604090206003015434101561188a5760405162461bcd60e51b815260206004820152601060248201526f4e6f7420656e6f7567682076616c756560801b6044820152606401610811565b611893326115cc565b6118d85760405162461bcd60e51b8152602060048201526016602482015275165bdd481cda1bdd5b19081a185d994818481cdbdd5b60521b6044820152606401610811565b60006118e382610ee4565b905060008160600151346118f79190612a21565b9050801561192e57604051329082156108fc029083906000818181858888f1935050505015801561192c573d6000803e3d6000fd5b505b600083815260a060205260409020600101546001600160a01b03166108fc6119568334612a21565b6040518115909202916000818181858888f1935050505015801561197e573d6000803e3d6000fd5b506119898332610b7d565b611993833261214d565b61199c836121ad565b6040805184815234602082015232917fdd85ec7d965e6b26848609ec8720d2154b613e347f427ab82ee784236b28bbf3910160405180910390a2505050565b6119e582826121f8565b5050565b6001600160a01b039182166000908152606a6020908152604080832093909416825291909152205460ff1690565b32611a2183610fe7565b6001600160a01b031614611a3457600080fd5b32611a3e83610f70565b6001600160a01b031614611a5157600080fd5b600082815260a1602052604090206007015460ff1615611a7057600080fd5b604051806101000160405280611a8584610f70565b6001600160a01b03168152602001611a9c84610fe7565b6001600160a01b0390811682524260208084019190915260a35460408085019190915260a454606080860191909152608080860188905260a0808701899052600160c097880181905260008b815260a18752859020895181549089166001600160a01b03199182161782558a8801519282018054939099169216919091179096558784015160028701559187015160038601558601516004850155850151600584015592840151600683015560e0909301516007909101805491151560ff1990921691909117905580518481529182018390527ff8910119ddbef5440c54532457dfe8250a10ed39e583292818f44724b9e1344c9101610bf6565b33611ba182610fe7565b6001600160a01b031614611bb457600080fd5b611bbd816121ad565b50565b6000908152606760205260409020546001600160a01b0316151590565b600081815260696020526040902080546001600160a01b0319166001600160a01b0384169081179091558190611c1282610f70565b6001600160a01b03167f8c5be1e5ebec7d5bd14f71427d1e84f3dd0314c0f7b2291e5b200ac8c7c3b92560405160405180910390a45050565b6000611c5682611bc0565b611cb75760405162461bcd60e51b815260206004820152602c60248201527f4552433732313a206f70657261746f7220717565727920666f72206e6f6e657860448201526b34b9ba32b73a103a37b5b2b760a11b6064820152608401610811565b6000611cc283610f70565b9050806001600160a01b0316846001600160a01b03161480611cfd5750836001600160a01b0316611cf2846107a9565b6001600160a01b0316145b80611d0d5750611d0d81856119e9565b949350505050565b826001600160a01b0316611d2882610f70565b6001600160a01b031614611d905760405162461bcd60e51b815260206004820152602960248201527f4552433732313a207472616e73666572206f6620746f6b656e2074686174206960448201526839903737ba1037bbb760b91b6064820152608401610811565b6001600160a01b038216611df25760405162461bcd60e51b8152602060048201526024808201527f4552433732313a207472616e7366657220746f20746865207a65726f206164646044820152637265737360e01b6064820152608401610811565b611dfd600082611bdd565b6001600160a01b0383166000908152606860205260408120805460019290611e26908490612a21565b90915550506001600160a01b0382166000908152606860205260408120805460019290611e549084906129f5565b909155505060008181526067602052604080822080546001600160a01b0319166001600160a01b038681169182179092559151849391871691600080516020612b2783398151915291a4505050565b600081815260a16020908152604080832081516101008101835281546001600160a01b0390811682526001830154169381019390935260028101549183018290526003810154606084015260048101546080840152600581015460a0840152600681015460c08401526007015460ff16151560e08301528290611f27904290612258565b90506000611f3485612264565b15611f42575060a754611d0d565b60c0830151611f519083612258565b95945050505050565b6000806000611f6884610f70565b90506000611f7585610fe7565b91959194509092505050565b6000828152609e60205260409020546001600160a01b03163214610b7d5760405162461bcd60e51b815260206004820181905260248201527f596f7520617265206e6f742063617272696572206f66207468697320736f756c6044820152606401610811565b6119e582826040518060200160405280600081525061230a565b61200c848484611d15565b6120188484848461233d565b6115c65760405162461bcd60e51b81526004016108119061293b565b6060816120585750506040805180820190915260018152600360fc1b602082015290565b8160005b8115612082578061206c81612a9f565b915061207b9050600a83612a0d565b915061205c565b6000816001600160401b038111156120aa57634e487b7160e01b600052604160045260246000fd5b6040519080825280601f01601f1916602001820160405280156120d4576020820181803683370190505b5090505b8415611d0d576120e9600183612a21565b91506120f6600a86612aba565b6121019060306129f5565b60f81b81838151811061212457634e487b7160e01b600052603260045260246000fd5b60200101906001600160f81b031916908160001a905350612146600a86612a0d565b94506120d8565b600082815260a0602090815260409182902060020180546001600160a01b0319166001600160a01b038516908117909155915184815232917fe90419f2812a0b5567d88901ce6bfd4c8dd5a9401f842a0da4404a1c402c234b910161149d565b600081815260a0602052604090819020600401805460ff19169055517f2459d2e941fa81acec6a314349c8176c81d809383738d1e1f1d33972c17d3e15906113dc9083815260200190565b600082815260a0602090815260409182902060010180546001600160a01b0319166001600160a01b038516908117909155915184815232917f384cd900320597bb9f30f6ffc1b673fdb9a357c186354215732cb1d304eaf58e910161149d565b60006116b08284612a21565b600081815260a16020908152604080832081516101008101835281546001600160a01b0390811682526001830154169381019390935260028101549183018290526003810154606084015260048101546080840152600581015460a0840152600681015460c08401526007015460ff16151560e083015282906122e8904290612258565b90508160800151811115612300575060019392505050565b5060009392505050565b612314838361244a565b612321600084848461233d565b6109425760405162461bcd60e51b81526004016108119061293b565b60006001600160a01b0384163b1561243f57604051630a85bd0160e11b81526001600160a01b0385169063150b7a029061238190339089908890889060040161286c565b602060405180830381600087803b15801561239b57600080fd5b505af19250505080156123cb575060408051601f3d908101601f191682019092526123c891810190612771565b60015b612425573d8080156123f9576040519150601f19603f3d011682016040523d82523d6000602084013e6123fe565b606091505b50805161241d5760405162461bcd60e51b81526004016108119061293b565b805181602001fd5b6001600160e01b031916630a85bd0160e11b149050611d0d565b506001949350505050565b6001600160a01b0382166124a05760405162461bcd60e51b815260206004820181905260248201527f4552433732313a206d696e7420746f20746865207a65726f20616464726573736044820152606401610811565b6124a981611bc0565b156124f55760405162461bcd60e51b815260206004820152601c60248201527b115490cdcc8c4e881d1bdad95b88185b1c9958591e481b5a5b9d195960221b6044820152606401610811565b6001600160a01b038216600090815260686020526040812080546001929061251e9084906129f5565b909155505060008181526067602052604080822080546001600160a01b0319166001600160a01b0386169081179091559051839290600080516020612b27833981519152908290a45050565b80356001600160a01b038116811461258157600080fd5b919050565b803560ff8116811461258157600080fd5b6000602082840312156125a8578081fd5b6116b08261256a565b600080604083850312156125c3578081fd5b6125cc8361256a565b91506125da6020840161256a565b90509250929050565b6000806000606084860312156125f7578081fd5b6126008461256a565b925061260e6020850161256a565b9150604084013590509250925092565b60008060008060808587031215612633578081fd5b61263c8561256a565b935061264a6020860161256a565b92506040850135915060608501356001600160401b038082111561266c578283fd5b818701915087601f83011261267f578283fd5b81358181111561269157612691612afa565b604051601f8201601f19908116603f011681019083821181831017156126b9576126b9612afa565b816040528281528a60208487010111156126d1578586fd5b82602086016020830137918201602001949094529598949750929550505050565b60008060408385031215612704578182fd5b61270d8361256a565b915060208301358015158114612721578182fd5b809150509250929050565b6000806040838503121561273e578182fd5b6127478361256a565b946020939093013593505050565b600060208284031215612766578081fd5b81356116b081612b10565b600060208284031215612782578081fd5b81516116b081612b10565b60006020828403121561279e578081fd5b5035919050565b600080604083850312156127b7578182fd5b823591506125da6020840161256a565b600080604083850312156127d9578182fd5b50508035926020909101359150565b600080604083850312156127fa578182fd5b61280383612586565b91506125da60208401612586565b60008151808452612829816020860160208601612a38565b601f01601f19169290920160200192915050565b6000835161284f818460208801612a38565b835190830190612863818360208801612a38565b01949350505050565b6001600160a01b038581168252841660208201526040810183905260806060820181905260009061289f90830184612811565b9695505050505050565b6020808252825182820181905260009190848201906040850190845b818110156128e1578351835292840192918401916001016128c5565b50909695505050505050565b6020808252825182820181905260009190848201906040850190845b818110156128e157835160ff1683529284019291840191600101612909565b6020815260006116b06020830184612811565b60208082526032908201527f4552433732313a207472616e7366657220746f206e6f6e20455243373231526560408201527131b2b4bb32b91034b6b83632b6b2b73a32b960711b606082015260800190565b60208082526031908201527f4552433732313a207472616e736665722063616c6c6572206973206e6f74206f6040820152701ddb995c881b9bdc88185c1c1c9bdd9959607a1b606082015260800190565b9182526001600160a01b0316602082015260400190565b60008219821115612a0857612a08612ace565b500190565b600082612a1c57612a1c612ae4565b500490565b600082821015612a3357612a33612ace565b500390565b60005b83811015612a53578181015183820152602001612a3b565b838111156115c65750506000910152565b600181811c90821680612a7857607f821691505b60208210811415612a9957634e487b7160e01b600052602260045260246000fd5b50919050565b6000600019821415612ab357612ab3612ace565b5060010190565b600082612ac957612ac9612ae4565b500690565b634e487b7160e01b600052601160045260246000fd5b634e487b7160e01b600052601260045260246000fd5b634e487b7160e01b600052604160045260246000fd5b6001600160e01b031981168114611bbd57600080fdfeddf252ad1be2c89b69c2b068fc378daa952ba7f163c4a11628f55a4df523b3efa26469706673582212209e372b8cd0fa8a9c0e9d09dad76040607803a9063148a11738bcf3ce85a76c5864736f6c63430008040033",
  "immutableReferences": {},
  "source": "// SPDX-License-Identifier: UNLICENSED\npragma solidity ^0.8.0;\n\nimport \"./SoulMarket.sol\";\nimport \"./interfaces/ISoulAuction.sol\";\n\nimport \"@openzeppelin/contracts-upgradeable/utils/math/SafeMathUpgradeable.sol\";\n\ncontract SoulAuction is SoulMarket, ISoulAuction {\n    using SafeMathUpgradeable for uint256;\n\n    event AuctionStarted(uint256 soulId, uint256 price);\n\n    mapping(uint256 => Auction) private _onAuction;\n    address public _pieAddress;\n    uint256 private _freezeTime; // freeze time\n    uint256 private _auctionTime;\n    uint256 private _servicePiece; // 666 * 1000 * 1000 * 1000\n    uint256 private _ownerPiece; // 10 * 1000 * 1000 * 1000 * 1000;\n    uint256 private _minPrice; // 100000000000000\n\n    function firstSale(uint256 soulId, uint256 price) public {\n        require(carrierOf(soulId) == tx.origin);\n        require(ownerOf(soulId) == tx.origin);\n        require(_onAuction[soulId].isActive == false);\n\n        _onAuction[soulId] = Auction(\n            ownerOf(soulId),\n            carrierOf(soulId),\n            block.timestamp,\n            _freezeTime,\n            _auctionTime,\n            price,\n            price,\n            true\n        );\n\n        emit AuctionStarted(soulId, price);\n    }\n\n    function bid(uint256 soulId) public payable {\n        require(_exists(soulId), \"Soul doesn't exists\");\n        require(_onAuction[soulId].isActive == true, \"Not for sale\");\n        require(balanceOf(tx.origin) != 0, \"You should have a soul!\");\n        // _ownershipTime\n\n        uint256 newPrice =\n            _getActualPrice(soulId) + _minPrice + _ownerPiece + _servicePiece;\n\n        require(newPrice >= msg.value, \"not enough money\");\n\n        (address owner, address carrier) = _profitFor(soulId);\n\n        uint256 toCarrier = msg.value - _ownerPiece - _servicePiece;\n        uint256 toOwner = toCarrier - _servicePiece;\n        uint256 toService = toCarrier - toOwner;\n\n        payable(carrier).transfer(toCarrier);\n        payable(owner).transfer(toOwner);\n        payable(_pieAddress).transfer(toService);\n        setNewPrice(soulId, toCarrier + toOwner + toService);\n        _changeCarrier(soulId, msg.sender);\n    }\n\n    function _reclaimSoul(uint256 soulId) internal {\n        require(carrierOf(soulId) == msg.sender);\n        // fee\n        _onAuction[soulId].isActive = false;\n    }\n\n    function _returnSoulToAuction(uint256 soulId) internal {\n        require(_exists(soulId));\n        require(carrierOf(soulId) == msg.sender);\n        require(_onAuction[soulId].isActive = false);\n        _onAuction[soulId].isActive = true;\n    }\n\n    function auctionInfo(uint256 soulId) public view returns (Auction memory) {\n        require(_exists(soulId));\n        Auction memory auction = _onAuction[soulId];\n        auction.actualPrice = _getActualPrice(soulId);\n\n        return auction;\n    }\n\n    // for test\n    function getCurrentPrice(uint256 soulId) public view returns (uint256) {\n        return _onAuction[soulId].actualPrice;\n    }\n\n    function _getActualPrice(uint256 soulId) internal view returns (uint256) {\n        Auction memory auction = _onAuction[soulId];\n        uint256 timeGap = block.timestamp.sub(auction.startedAt);\n        // require(timeGap > auction.duration, \"Auction is over\");\n        // add upprice for nods and donors\n\n        uint256 price;\n\n        if (_timeIsOver(soulId)) {\n            price = _minPrice;\n        } else {\n            price = auction.actualPrice.sub(timeGap);\n        }\n\n        return price;\n    }\n\n    function _timeIsOver(uint256 soulId) internal view returns (bool) {\n        Auction memory auction = _onAuction[soulId];\n        uint256 timeGap = block.timestamp.sub(auction.startedAt);\n        if (timeGap > auction.duration) {\n            return true;\n        } else {\n            return false;\n        }\n    }\n\n    function _updateAuction(uint256 soulId) internal {}\n\n    function _setPieAddress(address pieToken) internal onlyAdmin {\n        _pieAddress = pieToken;\n    }\n\n    function _setDuration(uint256 auctionTime) internal onlyAdmin {\n        _auctionTime = auctionTime;\n    }\n\n    function _setMinPrice(uint256 minPrice) internal onlyAdmin {\n        _minPrice = minPrice;\n    }\n\n    function setNewPrice(uint256 soulId, uint256 newPrice) private {\n        _onAuction[soulId].actualPrice = newPrice;\n    }\n\n    function _setServicePiece(uint256 piece) internal onlyAdmin {\n        _servicePiece = piece;\n    }\n\n    function _setOwnerPiece(uint256 piece) internal onlyAdmin {\n        _ownerPiece = piece;\n    }\n\n    // receive() external payable {\n    //     payable(_pieAddress).transfer(msg.value);\n    // }\n\n    // fallback() external payable {\n    //     payable(_pieAddress).transfer(msg.value);\n    // }\n}\n",
  "sourcePath": "/home/ilyadruzh/Documents/nfsoul/smart-contracts/contracts/SoulAuction.sol",
  "compiler": {
    "name": "solc",
    "version": "0.8.4+commit.c7e474f2.Emscripten.clang"
  },
  "schemaVersion": "3.4.1",
  "updatedAt": "2021-06-11T22:29:58.449Z",
  "devdoc": {
    "kind": "dev",
    "methods": {
      "approve(address,uint256)": {
        "details": "See {IERC721-approve}."
      },
      "balanceOf(address)": {
        "details": "See {IERC721-balanceOf}."
      },
      "getApproved(uint256)": {
        "details": "See {IERC721-getApproved}."
      },
      "isApprovedForAll(address,address)": {
        "details": "See {IERC721-isApprovedForAll}."
      },
      "name()": {
        "details": "See {IERC721Metadata-name}."
      },
      "ownerOf(uint256)": {
        "details": "See {IERC721-ownerOf}."
      },
      "safeTransferFrom(address,address,uint256)": {
        "details": "See {IERC721-safeTransferFrom}."
      },
      "safeTransferFrom(address,address,uint256,bytes)": {
        "details": "See {IERC721-safeTransferFrom}."
      },
      "setApprovalForAll(address,bool)": {
        "details": "See {IERC721-setApprovalForAll}."
      },
      "supportsInterface(bytes4)": {
        "details": "See {IERC165-supportsInterface}."
      },
      "symbol()": {
        "details": "See {IERC721Metadata-symbol}."
      },
      "tokenURI(uint256)": {
        "details": "See {IERC721Metadata-tokenURI}."
      },
      "transferFrom(address,address,uint256)": {
        "details": "See {IERC721-transferFrom}."
      }
    },
    "version": 1
  },
  "userdoc": {
    "kind": "user",
    "methods": {},
    "version": 1
  }
}